{
  "_format": "hh-sol-artifact-1",
  "contractName": "ArticleNFT",
  "sourceName": "contracts/ArticleNFT.sol",
  "abi": [
    {
      "inputs": [],
      "stateMutability": "nonpayable",
      "type": "constructor"
    },
    {
      "anonymous": false,
      "inputs": [
        {
          "indexed": true,
          "internalType": "address",
          "name": "owner",
          "type": "address"
        },
        {
          "indexed": true,
          "internalType": "address",
          "name": "approved",
          "type": "address"
        },
        {
          "indexed": true,
          "internalType": "uint256",
          "name": "tokenId",
          "type": "uint256"
        }
      ],
      "name": "Approval",
      "type": "event"
    },
    {
      "anonymous": false,
      "inputs": [
        {
          "indexed": true,
          "internalType": "address",
          "name": "owner",
          "type": "address"
        },
        {
          "indexed": true,
          "internalType": "address",
          "name": "operator",
          "type": "address"
        },
        {
          "indexed": false,
          "internalType": "bool",
          "name": "approved",
          "type": "bool"
        }
      ],
      "name": "ApprovalForAll",
      "type": "event"
    },
    {
      "anonymous": false,
      "inputs": [
        {
          "indexed": false,
          "internalType": "address",
          "name": "_owner",
          "type": "address"
        },
        {
          "indexed": false,
          "internalType": "uint256",
          "name": "_tokenId",
          "type": "uint256"
        },
        {
          "indexed": false,
          "internalType": "string",
          "name": "_tokenURI",
          "type": "string"
        }
      ],
      "name": "MintedArticleNFT",
      "type": "event"
    },
    {
      "anonymous": false,
      "inputs": [
        {
          "indexed": true,
          "internalType": "address",
          "name": "previousOwner",
          "type": "address"
        },
        {
          "indexed": true,
          "internalType": "address",
          "name": "newOwner",
          "type": "address"
        }
      ],
      "name": "OwnershipTransferred",
      "type": "event"
    },
    {
      "anonymous": false,
      "inputs": [
        {
          "indexed": true,
          "internalType": "address",
          "name": "from",
          "type": "address"
        },
        {
          "indexed": true,
          "internalType": "address",
          "name": "to",
          "type": "address"
        },
        {
          "indexed": true,
          "internalType": "uint256",
          "name": "tokenId",
          "type": "uint256"
        }
      ],
      "name": "Transfer",
      "type": "event"
    },
    {
      "inputs": [
        {
          "internalType": "address",
          "name": "to",
          "type": "address"
        },
        {
          "internalType": "uint256",
          "name": "tokenId",
          "type": "uint256"
        }
      ],
      "name": "approve",
      "outputs": [],
      "stateMutability": "nonpayable",
      "type": "function"
    },
    {
      "inputs": [
        {
          "internalType": "address",
          "name": "owner",
          "type": "address"
        }
      ],
      "name": "balanceOf",
      "outputs": [
        {
          "internalType": "uint256",
          "name": "",
          "type": "uint256"
        }
      ],
      "stateMutability": "view",
      "type": "function"
    },
    {
      "inputs": [
        {
          "internalType": "uint256",
          "name": "tokenId",
          "type": "uint256"
        }
      ],
      "name": "getApproved",
      "outputs": [
        {
          "internalType": "address",
          "name": "",
          "type": "address"
        }
      ],
      "stateMutability": "view",
      "type": "function"
    },
    {
      "inputs": [
        {
          "internalType": "address",
          "name": "owner",
          "type": "address"
        },
        {
          "internalType": "address",
          "name": "operator",
          "type": "address"
        }
      ],
      "name": "isApprovedForAll",
      "outputs": [
        {
          "internalType": "bool",
          "name": "",
          "type": "bool"
        }
      ],
      "stateMutability": "view",
      "type": "function"
    },
    {
      "inputs": [],
      "name": "name",
      "outputs": [
        {
          "internalType": "string",
          "name": "",
          "type": "string"
        }
      ],
      "stateMutability": "view",
      "type": "function"
    },
    {
      "inputs": [],
      "name": "owner",
      "outputs": [
        {
          "internalType": "address",
          "name": "",
          "type": "address"
        }
      ],
      "stateMutability": "view",
      "type": "function"
    },
    {
      "inputs": [
        {
          "internalType": "uint256",
          "name": "tokenId",
          "type": "uint256"
        }
      ],
      "name": "ownerOf",
      "outputs": [
        {
          "internalType": "address",
          "name": "",
          "type": "address"
        }
      ],
      "stateMutability": "view",
      "type": "function"
    },
    {
      "inputs": [],
      "name": "renounceOwnership",
      "outputs": [],
      "stateMutability": "nonpayable",
      "type": "function"
    },
    {
      "inputs": [
        {
          "internalType": "address",
          "name": "from",
          "type": "address"
        },
        {
          "internalType": "address",
          "name": "to",
          "type": "address"
        },
        {
          "internalType": "uint256",
          "name": "tokenId",
          "type": "uint256"
        }
      ],
      "name": "safeTransferFrom",
      "outputs": [],
      "stateMutability": "nonpayable",
      "type": "function"
    },
    {
      "inputs": [
        {
          "internalType": "address",
          "name": "from",
          "type": "address"
        },
        {
          "internalType": "address",
          "name": "to",
          "type": "address"
        },
        {
          "internalType": "uint256",
          "name": "tokenId",
          "type": "uint256"
        },
        {
          "internalType": "bytes",
          "name": "_data",
          "type": "bytes"
        }
      ],
      "name": "safeTransferFrom",
      "outputs": [],
      "stateMutability": "nonpayable",
      "type": "function"
    },
    {
      "inputs": [
        {
          "internalType": "address",
          "name": "operator",
          "type": "address"
        },
        {
          "internalType": "bool",
          "name": "approved",
          "type": "bool"
        }
      ],
      "name": "setApprovalForAll",
      "outputs": [],
      "stateMutability": "nonpayable",
      "type": "function"
    },
    {
      "inputs": [
        {
          "internalType": "string",
          "name": "baseURI_",
          "type": "string"
        }
      ],
      "name": "setBaseURI",
      "outputs": [],
      "stateMutability": "nonpayable",
      "type": "function"
    },
    {
      "inputs": [
        {
          "internalType": "bytes4",
          "name": "interfaceId",
          "type": "bytes4"
        }
      ],
      "name": "supportsInterface",
      "outputs": [
        {
          "internalType": "bool",
          "name": "",
          "type": "bool"
        }
      ],
      "stateMutability": "view",
      "type": "function"
    },
    {
      "inputs": [],
      "name": "symbol",
      "outputs": [
        {
          "internalType": "string",
          "name": "",
          "type": "string"
        }
      ],
      "stateMutability": "view",
      "type": "function"
    },
    {
      "inputs": [
        {
          "internalType": "uint256",
          "name": "tokenId",
          "type": "uint256"
        }
      ],
      "name": "tokenURI",
      "outputs": [
        {
          "internalType": "string",
          "name": "",
          "type": "string"
        }
      ],
      "stateMutability": "view",
      "type": "function"
    },
    {
      "inputs": [
        {
          "internalType": "address",
          "name": "from",
          "type": "address"
        },
        {
          "internalType": "address",
          "name": "to",
          "type": "address"
        },
        {
          "internalType": "uint256",
          "name": "tokenId",
          "type": "uint256"
        }
      ],
      "name": "transferFrom",
      "outputs": [],
      "stateMutability": "nonpayable",
      "type": "function"
    },
    {
      "inputs": [
        {
          "internalType": "address",
          "name": "newOwner",
          "type": "address"
        }
      ],
      "name": "transferOwnership",
      "outputs": [],
      "stateMutability": "nonpayable",
      "type": "function"
    }
  ],
  "bytecode": "0x60806040523480156200001157600080fd5b506040518060400160405280600d81526020017f646563656e747261537461636b000000000000000000000000000000000000008152506040518060400160405280600481526020017f4453544b00000000000000000000000000000000000000000000000000000000815250816000908051906020019062000096929190620001bf565b508060019080519060200190620000af929190620001bf565b5050506000620000c4620001b760201b60201c565b905080600760006101000a81548173ffffffffffffffffffffffffffffffffffffffff021916908373ffffffffffffffffffffffffffffffffffffffff1602179055508073ffffffffffffffffffffffffffffffffffffffff16600073ffffffffffffffffffffffffffffffffffffffff167f8be0079c531659141344cd1fd0a4f28419497f9722a3daafe3b4186f6b6457e060405160405180910390a3506040518060400160405280601581526020017f68747470733a2f2f697066732e696f2f697066732f000000000000000000000081525060089080519060200190620001b0929190620001bf565b50620002d4565b600033905090565b828054620001cd906200026f565b90600052602060002090601f016020900481019282620001f157600085556200023d565b82601f106200020c57805160ff19168380011785556200023d565b828001600101855582156200023d579182015b828111156200023c5782518255916020019190600101906200021f565b5b5090506200024c919062000250565b5090565b5b808211156200026b57600081600090555060010162000251565b5090565b600060028204905060018216806200028857607f821691505b602082108114156200029f576200029e620002a5565b5b50919050565b7f4e487b7100000000000000000000000000000000000000000000000000000000600052602260045260246000fd5b612cc480620002e46000396000f3fe608060405234801561001057600080fd5b506004361061010b5760003560e01c806370a08231116100a2578063a22cb46511610071578063a22cb465146102a4578063b88d4fde146102c0578063c87b56dd146102dc578063e985e9c51461030c578063f2fde38b1461033c5761010b565b806370a082311461022e578063715018a61461025e5780638da5cb5b1461026857806395d89b41146102865761010b565b806323b872dd116100de57806323b872dd146101aa57806342842e0e146101c657806355f804b3146101e25780636352211e146101fe5761010b565b806301ffc9a71461011057806306fdde0314610140578063081812fc1461015e578063095ea7b31461018e575b600080fd5b61012a60048036038101906101259190611d9c565b610358565b60405161013791906121c0565b60405180910390f35b61014861043a565b60405161015591906121db565b60405180910390f35b61017860048036038101906101739190611e2f565b6104cc565b6040516101859190612159565b60405180910390f35b6101a860048036038101906101a39190611d60565b610551565b005b6101c460048036038101906101bf9190611c5a565b610669565b005b6101e060048036038101906101db9190611c5a565b6106c9565b005b6101fc60048036038101906101f79190611dee565b6106e9565b005b61021860048036038101906102139190611e2f565b61077f565b6040516102259190612159565b60405180910390f35b61024860048036038101906102439190611bf5565b610831565b60405161025591906123dd565b60405180910390f35b6102666108e9565b005b610270610a26565b60405161027d9190612159565b60405180910390f35b61028e610a50565b60405161029b91906121db565b60405180910390f35b6102be60048036038101906102b99190611d24565b610ae2565b005b6102da60048036038101906102d59190611ca9565b610c63565b005b6102f660048036038101906102f19190611e2f565b610cc5565b60405161030391906121db565b60405180910390f35b61032660048036038101906103219190611c1e565b610e17565b60405161033391906121c0565b60405180910390f35b61035660048036038101906103519190611bf5565b610eab565b005b60007f80ac58cd000000000000000000000000000000000000000000000000000000007bffffffffffffffffffffffffffffffffffffffffffffffffffffffff1916827bffffffffffffffffffffffffffffffffffffffffffffffffffffffff1916148061042357507f5b5e139f000000000000000000000000000000000000000000000000000000007bffffffffffffffffffffffffffffffffffffffffffffffffffffffff1916827bffffffffffffffffffffffffffffffffffffffffffffffffffffffff1916145b80610433575061043282611057565b5b9050919050565b60606000805461044990612633565b80601f016020809104026020016040519081016040528092919081815260200182805461047590612633565b80156104c25780601f10610497576101008083540402835291602001916104c2565b820191906000526020600020905b8154815290600101906020018083116104a557829003601f168201915b5050505050905090565b60006104d7826110c1565b610516576040517f08c379a000000000000000000000000000000000000000000000000000000000815260040161050d9061231d565b60405180910390fd5b6004600083815260200190815260200160002060009054906101000a900473ffffffffffffffffffffffffffffffffffffffff169050919050565b600061055c8261077f565b90508073ffffffffffffffffffffffffffffffffffffffff168373ffffffffffffffffffffffffffffffffffffffff1614156105cd576040517f08c379a00000000000000000000000000000000000000000000000000000000081526004016105c49061239d565b60405180910390fd5b8073ffffffffffffffffffffffffffffffffffffffff166105ec61112d565b73ffffffffffffffffffffffffffffffffffffffff16148061061b575061061a8161061561112d565b610e17565b5b61065a576040517f08c379a00000000000000000000000000000000000000000000000000000000081526004016106519061229d565b60405180910390fd5b6106648383611135565b505050565b61067a61067461112d565b826111ee565b6106b9576040517f08c379a00000000000000000000000000000000000000000000000000000000081526004016106b0906123bd565b60405180910390fd5b6106c48383836112cc565b505050565b6106e483838360405180602001604052806000815250610c63565b505050565b6106f161112d565b73ffffffffffffffffffffffffffffffffffffffff1661070f610a26565b73ffffffffffffffffffffffffffffffffffffffff1614610765576040517f08c379a000000000000000000000000000000000000000000000000000000000815260040161075c9061233d565b60405180910390fd5b806008908051906020019061077b929190611a19565b5050565b6000806002600084815260200190815260200160002060009054906101000a900473ffffffffffffffffffffffffffffffffffffffff169050600073ffffffffffffffffffffffffffffffffffffffff168173ffffffffffffffffffffffffffffffffffffffff161415610828576040517f08c379a000000000000000000000000000000000000000000000000000000000815260040161081f906122dd565b60405180910390fd5b80915050919050565b60008073ffffffffffffffffffffffffffffffffffffffff168273ffffffffffffffffffffffffffffffffffffffff1614156108a2576040517f08c379a0000000000000000000000000000000000000000000000000000000008152600401610899906122bd565b60405180910390fd5b600360008373ffffffffffffffffffffffffffffffffffffffff1673ffffffffffffffffffffffffffffffffffffffff168152602001908152602001600020549050919050565b6108f161112d565b73ffffffffffffffffffffffffffffffffffffffff1661090f610a26565b73ffffffffffffffffffffffffffffffffffffffff1614610965576040517f08c379a000000000000000000000000000000000000000000000000000000000815260040161095c9061233d565b60405180910390fd5b600073ffffffffffffffffffffffffffffffffffffffff16600760009054906101000a900473ffffffffffffffffffffffffffffffffffffffff1673ffffffffffffffffffffffffffffffffffffffff167f8be0079c531659141344cd1fd0a4f28419497f9722a3daafe3b4186f6b6457e060405160405180910390a36000600760006101000a81548173ffffffffffffffffffffffffffffffffffffffff021916908373ffffffffffffffffffffffffffffffffffffffff160217905550565b6000600760009054906101000a900473ffffffffffffffffffffffffffffffffffffffff16905090565b606060018054610a5f90612633565b80601f0160208091040260200160405190810160405280929190818152602001828054610a8b90612633565b8015610ad85780601f10610aad57610100808354040283529160200191610ad8565b820191906000526020600020905b815481529060010190602001808311610abb57829003601f168201915b5050505050905090565b610aea61112d565b73ffffffffffffffffffffffffffffffffffffffff168273ffffffffffffffffffffffffffffffffffffffff161415610b58576040517f08c379a0000000000000000000000000000000000000000000000000000000008152600401610b4f9061225d565b60405180910390fd5b8060056000610b6561112d565b73ffffffffffffffffffffffffffffffffffffffff1673ffffffffffffffffffffffffffffffffffffffff16815260200190815260200160002060008473ffffffffffffffffffffffffffffffffffffffff1673ffffffffffffffffffffffffffffffffffffffff16815260200190815260200160002060006101000a81548160ff0219169083151502179055508173ffffffffffffffffffffffffffffffffffffffff16610c1261112d565b73ffffffffffffffffffffffffffffffffffffffff167f17307eab39ab6107e8899845ad3d59bd9653f200f220920489ca2b5937696c3183604051610c5791906121c0565b60405180910390a35050565b610c74610c6e61112d565b836111ee565b610cb3576040517f08c379a0000000000000000000000000000000000000000000000000000000008152600401610caa906123bd565b60405180910390fd5b610cbf84848484611528565b50505050565b6060610cd0826110c1565b610d0f576040517f08c379a0000000000000000000000000000000000000000000000000000000008152600401610d06906122fd565b60405180910390fd5b6000600660008481526020019081526020016000208054610d2f90612633565b80601f0160208091040260200160405190810160405280929190818152602001828054610d5b90612633565b8015610da85780601f10610d7d57610100808354040283529160200191610da8565b820191906000526020600020905b815481529060010190602001808311610d8b57829003601f168201915b505050505090506000610db9611584565b9050600081511415610dcf578192505050610e12565b600082511115610e04578082604051602001610dec929190612135565b60405160208183030381529060405292505050610e12565b610e0d84611616565b925050505b919050565b6000600560008473ffffffffffffffffffffffffffffffffffffffff1673ffffffffffffffffffffffffffffffffffffffff16815260200190815260200160002060008373ffffffffffffffffffffffffffffffffffffffff1673ffffffffffffffffffffffffffffffffffffffff16815260200190815260200160002060009054906101000a900460ff16905092915050565b610eb361112d565b73ffffffffffffffffffffffffffffffffffffffff16610ed1610a26565b73ffffffffffffffffffffffffffffffffffffffff1614610f27576040517f08c379a0000000000000000000000000000000000000000000000000000000008152600401610f1e9061233d565b60405180910390fd5b600073ffffffffffffffffffffffffffffffffffffffff168173ffffffffffffffffffffffffffffffffffffffff161415610f97576040517f08c379a0000000000000000000000000000000000000000000000000000000008152600401610f8e9061221d565b60405180910390fd5b8073ffffffffffffffffffffffffffffffffffffffff16600760009054906101000a900473ffffffffffffffffffffffffffffffffffffffff1673ffffffffffffffffffffffffffffffffffffffff167f8be0079c531659141344cd1fd0a4f28419497f9722a3daafe3b4186f6b6457e060405160405180910390a380600760006101000a81548173ffffffffffffffffffffffffffffffffffffffff021916908373ffffffffffffffffffffffffffffffffffffffff16021790555050565b60007f01ffc9a7000000000000000000000000000000000000000000000000000000007bffffffffffffffffffffffffffffffffffffffffffffffffffffffff1916827bffffffffffffffffffffffffffffffffffffffffffffffffffffffff1916149050919050565b60008073ffffffffffffffffffffffffffffffffffffffff166002600084815260200190815260200160002060009054906101000a900473ffffffffffffffffffffffffffffffffffffffff1673ffffffffffffffffffffffffffffffffffffffff1614159050919050565b600033905090565b816004600083815260200190815260200160002060006101000a81548173ffffffffffffffffffffffffffffffffffffffff021916908373ffffffffffffffffffffffffffffffffffffffff160217905550808273ffffffffffffffffffffffffffffffffffffffff166111a88361077f565b73ffffffffffffffffffffffffffffffffffffffff167f8c5be1e5ebec7d5bd14f71427d1e84f3dd0314c0f7b2291e5b200ac8c7c3b92560405160405180910390a45050565b60006111f9826110c1565b611238576040517f08c379a000000000000000000000000000000000000000000000000000000000815260040161122f9061227d565b60405180910390fd5b60006112438361077f565b90508073ffffffffffffffffffffffffffffffffffffffff168473ffffffffffffffffffffffffffffffffffffffff1614806112b257508373ffffffffffffffffffffffffffffffffffffffff1661129a846104cc565b73ffffffffffffffffffffffffffffffffffffffff16145b806112c357506112c28185610e17565b5b91505092915050565b8273ffffffffffffffffffffffffffffffffffffffff166112ec8261077f565b73ffffffffffffffffffffffffffffffffffffffff1614611342576040517f08c379a00000000000000000000000000000000000000000000000000000000081526004016113399061235d565b60405180910390fd5b600073ffffffffffffffffffffffffffffffffffffffff168273ffffffffffffffffffffffffffffffffffffffff1614156113b2576040517f08c379a00000000000000000000000000000000000000000000000000000000081526004016113a99061223d565b60405180910390fd5b6113bd8383836116bd565b6113c8600082611135565b6001600360008573ffffffffffffffffffffffffffffffffffffffff1673ffffffffffffffffffffffffffffffffffffffff16815260200190815260200160002060008282546114189190612549565b925050819055506001600360008473ffffffffffffffffffffffffffffffffffffffff1673ffffffffffffffffffffffffffffffffffffffff168152602001908152602001600020600082825461146f91906124c2565b92505081905550816002600083815260200190815260200160002060006101000a81548173ffffffffffffffffffffffffffffffffffffffff021916908373ffffffffffffffffffffffffffffffffffffffff160217905550808273ffffffffffffffffffffffffffffffffffffffff168473ffffffffffffffffffffffffffffffffffffffff167fddf252ad1be2c89b69c2b068fc378daa952ba7f163c4a11628f55a4df523b3ef60405160405180910390a4505050565b6115338484846112cc565b61153f848484846116c2565b61157e576040517f08c379a0000000000000000000000000000000000000000000000000000000008152600401611575906121fd565b60405180910390fd5b50505050565b60606008805461159390612633565b80601f01602080910402602001604051908101604052809291908181526020018280546115bf90612633565b801561160c5780601f106115e15761010080835404028352916020019161160c565b820191906000526020600020905b8154815290600101906020018083116115ef57829003601f168201915b5050505050905090565b6060611621826110c1565b611660576040517f08c379a00000000000000000000000000000000000000000000000000000000081526004016116579061237d565b60405180910390fd5b600061166a611584565b9050600081511161168a57604051806020016040528060008152506116b5565b8061169484611859565b6040516020016116a5929190612135565b6040516020818303038152906040525b915050919050565b505050565b60006116e38473ffffffffffffffffffffffffffffffffffffffff16611a06565b1561184c578373ffffffffffffffffffffffffffffffffffffffff1663150b7a0261170c61112d565b8786866040518563ffffffff1660e01b815260040161172e9493929190612174565b602060405180830381600087803b15801561174857600080fd5b505af192505050801561177957506040513d601f19601f820116820180604052508101906117769190611dc5565b60015b6117fc573d80600081146117a9576040519150601f19603f3d011682016040523d82523d6000602084013e6117ae565b606091505b506000815114156117f4576040517f08c379a00000000000000000000000000000000000000000000000000000000081526004016117eb906121fd565b60405180910390fd5b805181602001fd5b63150b7a0260e01b7bffffffffffffffffffffffffffffffffffffffffffffffffffffffff1916817bffffffffffffffffffffffffffffffffffffffffffffffffffffffff191614915050611851565b600190505b949350505050565b606060008214156118a1576040518060400160405280600181526020017f30000000000000000000000000000000000000000000000000000000000000008152509050611a01565b600082905060005b600082146118d35780806118bc90612696565b915050600a826118cc9190612518565b91506118a9565b60008167ffffffffffffffff811115611915577f4e487b7100000000000000000000000000000000000000000000000000000000600052604160045260246000fd5b6040519080825280601f01601f1916602001820160405280156119475781602001600182028036833780820191505090505b5090505b600085146119fa576001826119609190612549565b9150600a8561196f91906126df565b603061197b91906124c2565b60f81b8183815181106119b7577f4e487b7100000000000000000000000000000000000000000000000000000000600052603260045260246000fd5b60200101907effffffffffffffffffffffffffffffffffffffffffffffffffffffffffffff1916908160001a905350600a856119f39190612518565b945061194b565b8093505050505b919050565b600080823b905060008111915050919050565b828054611a2590612633565b90600052602060002090601f016020900481019282611a475760008555611a8e565b82601f10611a6057805160ff1916838001178555611a8e565b82800160010185558215611a8e579182015b82811115611a8d578251825591602001919060010190611a72565b5b509050611a9b9190611a9f565b5090565b5b80821115611ab8576000816000905550600101611aa0565b5090565b6000611acf611aca8461241d565b6123f8565b905082815260208101848484011115611ae757600080fd5b611af28482856125f1565b509392505050565b6000611b0d611b088461244e565b6123f8565b905082815260208101848484011115611b2557600080fd5b611b308482856125f1565b509392505050565b600081359050611b4781612c32565b92915050565b600081359050611b5c81612c49565b92915050565b600081359050611b7181612c60565b92915050565b600081519050611b8681612c60565b92915050565b600082601f830112611b9d57600080fd5b8135611bad848260208601611abc565b91505092915050565b600082601f830112611bc757600080fd5b8135611bd7848260208601611afa565b91505092915050565b600081359050611bef81612c77565b92915050565b600060208284031215611c0757600080fd5b6000611c1584828501611b38565b91505092915050565b60008060408385031215611c3157600080fd5b6000611c3f85828601611b38565b9250506020611c5085828601611b38565b9150509250929050565b600080600060608486031215611c6f57600080fd5b6000611c7d86828701611b38565b9350506020611c8e86828701611b38565b9250506040611c9f86828701611be0565b9150509250925092565b60008060008060808587031215611cbf57600080fd5b6000611ccd87828801611b38565b9450506020611cde87828801611b38565b9350506040611cef87828801611be0565b925050606085013567ffffffffffffffff811115611d0c57600080fd5b611d1887828801611b8c565b91505092959194509250565b60008060408385031215611d3757600080fd5b6000611d4585828601611b38565b9250506020611d5685828601611b4d565b9150509250929050565b60008060408385031215611d7357600080fd5b6000611d8185828601611b38565b9250506020611d9285828601611be0565b9150509250929050565b600060208284031215611dae57600080fd5b6000611dbc84828501611b62565b91505092915050565b600060208284031215611dd757600080fd5b6000611de584828501611b77565b91505092915050565b600060208284031215611e0057600080fd5b600082013567ffffffffffffffff811115611e1a57600080fd5b611e2684828501611bb6565b91505092915050565b600060208284031215611e4157600080fd5b6000611e4f84828501611be0565b91505092915050565b611e618161257d565b82525050565b611e708161258f565b82525050565b6000611e818261247f565b611e8b8185612495565b9350611e9b818560208601612600565b611ea4816127cc565b840191505092915050565b6000611eba8261248a565b611ec481856124a6565b9350611ed4818560208601612600565b611edd816127cc565b840191505092915050565b6000611ef38261248a565b611efd81856124b7565b9350611f0d818560208601612600565b80840191505092915050565b6000611f266032836124a6565b9150611f31826127dd565b604082019050919050565b6000611f496026836124a6565b9150611f548261282c565b604082019050919050565b6000611f6c6024836124a6565b9150611f778261287b565b604082019050919050565b6000611f8f6019836124a6565b9150611f9a826128ca565b602082019050919050565b6000611fb2602c836124a6565b9150611fbd826128f3565b604082019050919050565b6000611fd56038836124a6565b9150611fe082612942565b604082019050919050565b6000611ff8602a836124a6565b915061200382612991565b604082019050919050565b600061201b6029836124a6565b9150612026826129e0565b604082019050919050565b600061203e6031836124a6565b915061204982612a2f565b604082019050919050565b6000612061602c836124a6565b915061206c82612a7e565b604082019050919050565b60006120846020836124a6565b915061208f82612acd565b602082019050919050565b60006120a76029836124a6565b91506120b282612af6565b604082019050919050565b60006120ca602f836124a6565b91506120d582612b45565b604082019050919050565b60006120ed6021836124a6565b91506120f882612b94565b604082019050919050565b60006121106031836124a6565b915061211b82612be3565b604082019050919050565b61212f816125e7565b82525050565b60006121418285611ee8565b915061214d8284611ee8565b91508190509392505050565b600060208201905061216e6000830184611e58565b92915050565b60006080820190506121896000830187611e58565b6121966020830186611e58565b6121a36040830185612126565b81810360608301526121b58184611e76565b905095945050505050565b60006020820190506121d56000830184611e67565b92915050565b600060208201905081810360008301526121f58184611eaf565b905092915050565b6000602082019050818103600083015261221681611f19565b9050919050565b6000602082019050818103600083015261223681611f3c565b9050919050565b6000602082019050818103600083015261225681611f5f565b9050919050565b6000602082019050818103600083015261227681611f82565b9050919050565b6000602082019050818103600083015261229681611fa5565b9050919050565b600060208201905081810360008301526122b681611fc8565b9050919050565b600060208201905081810360008301526122d681611feb565b9050919050565b600060208201905081810360008301526122f68161200e565b9050919050565b6000602082019050818103600083015261231681612031565b9050919050565b6000602082019050818103600083015261233681612054565b9050919050565b6000602082019050818103600083015261235681612077565b9050919050565b600060208201905081810360008301526123768161209a565b9050919050565b60006020820190508181036000830152612396816120bd565b9050919050565b600060208201905081810360008301526123b6816120e0565b9050919050565b600060208201905081810360008301526123d681612103565b9050919050565b60006020820190506123f26000830184612126565b92915050565b6000612402612413565b905061240e8282612665565b919050565b6000604051905090565b600067ffffffffffffffff8211156124385761243761279d565b5b612441826127cc565b9050602081019050919050565b600067ffffffffffffffff8211156124695761246861279d565b5b612472826127cc565b9050602081019050919050565b600081519050919050565b600081519050919050565b600082825260208201905092915050565b600082825260208201905092915050565b600081905092915050565b60006124cd826125e7565b91506124d8836125e7565b9250827fffffffffffffffffffffffffffffffffffffffffffffffffffffffffffffffff0382111561250d5761250c612710565b5b828201905092915050565b6000612523826125e7565b915061252e836125e7565b92508261253e5761253d61273f565b5b828204905092915050565b6000612554826125e7565b915061255f836125e7565b92508282101561257257612571612710565b5b828203905092915050565b6000612588826125c7565b9050919050565b60008115159050919050565b60007fffffffff0000000000000000000000000000000000000000000000000000000082169050919050565b600073ffffffffffffffffffffffffffffffffffffffff82169050919050565b6000819050919050565b82818337600083830152505050565b60005b8381101561261e578082015181840152602081019050612603565b8381111561262d576000848401525b50505050565b6000600282049050600182168061264b57607f821691505b6020821081141561265f5761265e61276e565b5b50919050565b61266e826127cc565b810181811067ffffffffffffffff8211171561268d5761268c61279d565b5b80604052505050565b60006126a1826125e7565b91507fffffffffffffffffffffffffffffffffffffffffffffffffffffffffffffffff8214156126d4576126d3612710565b5b600182019050919050565b60006126ea826125e7565b91506126f5836125e7565b9250826127055761270461273f565b5b828206905092915050565b7f4e487b7100000000000000000000000000000000000000000000000000000000600052601160045260246000fd5b7f4e487b7100000000000000000000000000000000000000000000000000000000600052601260045260246000fd5b7f4e487b7100000000000000000000000000000000000000000000000000000000600052602260045260246000fd5b7f4e487b7100000000000000000000000000000000000000000000000000000000600052604160045260246000fd5b6000601f19601f8301169050919050565b7f4552433732313a207472616e7366657220746f206e6f6e20455243373231526560008201527f63656976657220696d706c656d656e7465720000000000000000000000000000602082015250565b7f4f776e61626c653a206e6577206f776e657220697320746865207a65726f206160008201527f6464726573730000000000000000000000000000000000000000000000000000602082015250565b7f4552433732313a207472616e7366657220746f20746865207a65726f2061646460008201527f7265737300000000000000000000000000000000000000000000000000000000602082015250565b7f4552433732313a20617070726f766520746f2063616c6c657200000000000000600082015250565b7f4552433732313a206f70657261746f7220717565727920666f72206e6f6e657860008201527f697374656e7420746f6b656e0000000000000000000000000000000000000000602082015250565b7f4552433732313a20617070726f76652063616c6c6572206973206e6f74206f7760008201527f6e6572206e6f7220617070726f76656420666f7220616c6c0000000000000000602082015250565b7f4552433732313a2062616c616e636520717565727920666f7220746865207a6560008201527f726f206164647265737300000000000000000000000000000000000000000000602082015250565b7f4552433732313a206f776e657220717565727920666f72206e6f6e657869737460008201527f656e7420746f6b656e0000000000000000000000000000000000000000000000602082015250565b7f45524337323155524953746f726167653a2055524920717565727920666f722060008201527f6e6f6e6578697374656e7420746f6b656e000000000000000000000000000000602082015250565b7f4552433732313a20617070726f76656420717565727920666f72206e6f6e657860008201527f697374656e7420746f6b656e0000000000000000000000000000000000000000602082015250565b7f4f776e61626c653a2063616c6c6572206973206e6f7420746865206f776e6572600082015250565b7f4552433732313a207472616e73666572206f6620746f6b656e2074686174206960008201527f73206e6f74206f776e0000000000000000000000000000000000000000000000602082015250565b7f4552433732314d657461646174613a2055524920717565727920666f72206e6f60008201527f6e6578697374656e7420746f6b656e0000000000000000000000000000000000602082015250565b7f4552433732313a20617070726f76616c20746f2063757272656e74206f776e6560008201527f7200000000000000000000000000000000000000000000000000000000000000602082015250565b7f4552433732313a207472616e736665722063616c6c6572206973206e6f74206f60008201527f776e6572206e6f7220617070726f766564000000000000000000000000000000602082015250565b612c3b8161257d565b8114612c4657600080fd5b50565b612c528161258f565b8114612c5d57600080fd5b50565b612c698161259b565b8114612c7457600080fd5b50565b612c80816125e7565b8114612c8b57600080fd5b5056fea2646970667358221220db2f1f1d1a77f1bc9ad7624031475cc8ff1dd126f3f29c46d978b9dc7935b77064736f6c63430008040033",
  "linkReferences": {},
  "deployedLinkReferences": {}
}