{
  "contractName": "ArticleNFT",
  "abi": [
    {
      "inputs": [],
      "stateMutability": "nonpayable",
      "type": "constructor"
    },
    {
      "anonymous": false,
      "inputs": [
        {
          "indexed": true,
          "internalType": "address",
          "name": "owner",
          "type": "address"
        },
        {
          "indexed": true,
          "internalType": "address",
          "name": "approved",
          "type": "address"
        },
        {
          "indexed": true,
          "internalType": "uint256",
          "name": "tokenId",
          "type": "uint256"
        }
      ],
      "name": "Approval",
      "type": "event"
    },
    {
      "anonymous": false,
      "inputs": [
        {
          "indexed": true,
          "internalType": "address",
          "name": "owner",
          "type": "address"
        },
        {
          "indexed": true,
          "internalType": "address",
          "name": "operator",
          "type": "address"
        },
        {
          "indexed": false,
          "internalType": "bool",
          "name": "approved",
          "type": "bool"
        }
      ],
      "name": "ApprovalForAll",
      "type": "event"
    },
    {
      "anonymous": false,
      "inputs": [
        {
          "indexed": false,
          "internalType": "address",
          "name": "_owner",
          "type": "address"
        },
        {
          "indexed": false,
          "internalType": "uint256",
          "name": "_tokenId",
          "type": "uint256"
        },
        {
          "indexed": false,
          "internalType": "string",
          "name": "_tokenURI",
          "type": "string"
        }
      ],
      "name": "MintedArticleNFT",
      "type": "event"
    },
    {
      "anonymous": false,
      "inputs": [
        {
          "indexed": true,
          "internalType": "address",
          "name": "previousOwner",
          "type": "address"
        },
        {
          "indexed": true,
          "internalType": "address",
          "name": "newOwner",
          "type": "address"
        }
      ],
      "name": "OwnershipTransferred",
      "type": "event"
    },
    {
      "anonymous": false,
      "inputs": [
        {
          "indexed": true,
          "internalType": "address",
          "name": "from",
          "type": "address"
        },
        {
          "indexed": true,
          "internalType": "address",
          "name": "to",
          "type": "address"
        },
        {
          "indexed": true,
          "internalType": "uint256",
          "name": "tokenId",
          "type": "uint256"
        }
      ],
      "name": "Transfer",
      "type": "event"
    },
    {
      "inputs": [
        {
          "internalType": "address",
          "name": "to",
          "type": "address"
        },
        {
          "internalType": "uint256",
          "name": "tokenId",
          "type": "uint256"
        }
      ],
      "name": "approve",
      "outputs": [],
      "stateMutability": "nonpayable",
      "type": "function"
    },
    {
      "inputs": [
        {
          "internalType": "address",
          "name": "owner",
          "type": "address"
        }
      ],
      "name": "balanceOf",
      "outputs": [
        {
          "internalType": "uint256",
          "name": "",
          "type": "uint256"
        }
      ],
      "stateMutability": "view",
      "type": "function"
    },
    {
      "inputs": [
        {
          "internalType": "uint256",
          "name": "tokenId",
          "type": "uint256"
        }
      ],
      "name": "getApproved",
      "outputs": [
        {
          "internalType": "address",
          "name": "",
          "type": "address"
        }
      ],
      "stateMutability": "view",
      "type": "function"
    },
    {
      "inputs": [
        {
          "internalType": "address",
          "name": "owner",
          "type": "address"
        },
        {
          "internalType": "address",
          "name": "operator",
          "type": "address"
        }
      ],
      "name": "isApprovedForAll",
      "outputs": [
        {
          "internalType": "bool",
          "name": "",
          "type": "bool"
        }
      ],
      "stateMutability": "view",
      "type": "function"
    },
    {
      "inputs": [],
      "name": "name",
      "outputs": [
        {
          "internalType": "string",
          "name": "",
          "type": "string"
        }
      ],
      "stateMutability": "view",
      "type": "function"
    },
    {
      "inputs": [
        {
          "internalType": "uint256",
          "name": "",
          "type": "uint256"
        }
      ],
      "name": "nftTokenIds",
      "outputs": [
        {
          "internalType": "uint256",
          "name": "",
          "type": "uint256"
        }
      ],
      "stateMutability": "view",
      "type": "function"
    },
    {
      "inputs": [],
      "name": "owner",
      "outputs": [
        {
          "internalType": "address",
          "name": "",
          "type": "address"
        }
      ],
      "stateMutability": "view",
      "type": "function"
    },
    {
      "inputs": [
        {
          "internalType": "uint256",
          "name": "tokenId",
          "type": "uint256"
        }
      ],
      "name": "ownerOf",
      "outputs": [
        {
          "internalType": "address",
          "name": "",
          "type": "address"
        }
      ],
      "stateMutability": "view",
      "type": "function"
    },
    {
      "inputs": [],
      "name": "renounceOwnership",
      "outputs": [],
      "stateMutability": "nonpayable",
      "type": "function"
    },
    {
      "inputs": [
        {
          "internalType": "address",
          "name": "from",
          "type": "address"
        },
        {
          "internalType": "address",
          "name": "to",
          "type": "address"
        },
        {
          "internalType": "uint256",
          "name": "tokenId",
          "type": "uint256"
        }
      ],
      "name": "safeTransferFrom",
      "outputs": [],
      "stateMutability": "nonpayable",
      "type": "function"
    },
    {
      "inputs": [
        {
          "internalType": "address",
          "name": "from",
          "type": "address"
        },
        {
          "internalType": "address",
          "name": "to",
          "type": "address"
        },
        {
          "internalType": "uint256",
          "name": "tokenId",
          "type": "uint256"
        },
        {
          "internalType": "bytes",
          "name": "_data",
          "type": "bytes"
        }
      ],
      "name": "safeTransferFrom",
      "outputs": [],
      "stateMutability": "nonpayable",
      "type": "function"
    },
    {
      "inputs": [
        {
          "internalType": "address",
          "name": "operator",
          "type": "address"
        },
        {
          "internalType": "bool",
          "name": "approved",
          "type": "bool"
        }
      ],
      "name": "setApprovalForAll",
      "outputs": [],
      "stateMutability": "nonpayable",
      "type": "function"
    },
    {
      "inputs": [
        {
          "internalType": "bytes4",
          "name": "interfaceId",
          "type": "bytes4"
        }
      ],
      "name": "supportsInterface",
      "outputs": [
        {
          "internalType": "bool",
          "name": "",
          "type": "bool"
        }
      ],
      "stateMutability": "view",
      "type": "function"
    },
    {
      "inputs": [],
      "name": "symbol",
      "outputs": [
        {
          "internalType": "string",
          "name": "",
          "type": "string"
        }
      ],
      "stateMutability": "view",
      "type": "function"
    },
    {
      "inputs": [
        {
          "internalType": "uint256",
          "name": "tokenId",
          "type": "uint256"
        }
      ],
      "name": "tokenURI",
      "outputs": [
        {
          "internalType": "string",
          "name": "",
          "type": "string"
        }
      ],
      "stateMutability": "view",
      "type": "function"
    },
    {
      "inputs": [
        {
          "internalType": "address",
          "name": "from",
          "type": "address"
        },
        {
          "internalType": "address",
          "name": "to",
          "type": "address"
        },
        {
          "internalType": "uint256",
          "name": "tokenId",
          "type": "uint256"
        }
      ],
      "name": "transferFrom",
      "outputs": [],
      "stateMutability": "nonpayable",
      "type": "function"
    },
    {
      "inputs": [
        {
          "internalType": "address",
          "name": "newOwner",
          "type": "address"
        }
      ],
      "name": "transferOwnership",
      "outputs": [],
      "stateMutability": "nonpayable",
      "type": "function"
    },
    {
      "inputs": [
        {
          "internalType": "string",
          "name": "baseURI_",
          "type": "string"
        }
      ],
      "name": "setBaseURI",
      "outputs": [],
      "stateMutability": "nonpayable",
      "type": "function"
    },
    {
      "inputs": [],
      "name": "getNftTokenIds",
      "outputs": [
        {
          "internalType": "uint256[]",
          "name": "",
          "type": "uint256[]"
        }
      ],
      "stateMutability": "view",
      "type": "function"
    }
  ],
  "bytecode": "0x60806040523480156200001157600080fd5b506040518060400160405280600d81526020017f646563656e747261537461636b000000000000000000000000000000000000008152506040518060400160405280600481526020017f4453544b00000000000000000000000000000000000000000000000000000000815250816000908051906020019062000096929190620001bf565b508060019080519060200190620000af929190620001bf565b5050506000620000c4620001b760201b60201c565b905080600760006101000a81548173ffffffffffffffffffffffffffffffffffffffff021916908373ffffffffffffffffffffffffffffffffffffffff1602179055508073ffffffffffffffffffffffffffffffffffffffff16600073ffffffffffffffffffffffffffffffffffffffff167f8be0079c531659141344cd1fd0a4f28419497f9722a3daafe3b4186f6b6457e060405160405180910390a3506040518060400160405280601581526020017f68747470733a2f2f697066732e696f2f697066732f000000000000000000000081525060089080519060200190620001b0929190620001bf565b50620002d4565b600033905090565b828054620001cd906200026f565b90600052602060002090601f016020900481019282620001f157600085556200023d565b82601f106200020c57805160ff19168380011785556200023d565b828001600101855582156200023d579182015b828111156200023c5782518255916020019190600101906200021f565b5b5090506200024c919062000250565b5090565b5b808211156200026b57600081600090555060010162000251565b5090565b600060028204905060018216806200028857607f821691505b602082108114156200029f576200029e620002a5565b5b50919050565b7f4e487b7100000000000000000000000000000000000000000000000000000000600052602260045260246000fd5b612e8480620002e46000396000f3fe608060405234801561001057600080fd5b50600436106101215760003560e01c806370a08231116100ad578063a22cb46511610071578063a22cb46514610308578063b88d4fde14610324578063c87b56dd14610340578063e985e9c514610370578063f2fde38b146103a057610121565b806370a0823114610274578063715018a6146102a45780638da5cb5b146102ae57806393a6871e146102cc57806395d89b41146102ea57610121565b806322d544a3116100f457806322d544a3146101c057806323b872dd146101f057806342842e0e1461020c57806355f804b3146102285780636352211e1461024457610121565b806301ffc9a71461012657806306fdde0314610156578063081812fc14610174578063095ea7b3146101a4575b600080fd5b610140600480360381019061013b9190611e7c565b6103bc565b60405161014d9190612347565b60405180910390f35b61015e61049e565b60405161016b9190612362565b60405180910390f35b61018e60048036038101906101899190611f0f565b610530565b60405161019b91906122be565b60405180910390f35b6101be60048036038101906101b99190611e40565b6105b5565b005b6101da60048036038101906101d59190611f0f565b6106cd565b6040516101e79190612564565b60405180910390f35b61020a60048036038101906102059190611d3a565b6106f1565b005b61022660048036038101906102219190611d3a565b610751565b005b610242600480360381019061023d9190611ece565b610771565b005b61025e60048036038101906102599190611f0f565b610807565b60405161026b91906122be565b60405180910390f35b61028e60048036038101906102899190611cd5565b6108b9565b60405161029b9190612564565b60405180910390f35b6102ac610971565b005b6102b6610aae565b6040516102c391906122be565b60405180910390f35b6102d4610ad8565b6040516102e19190612325565b60405180910390f35b6102f2610b30565b6040516102ff9190612362565b60405180910390f35b610322600480360381019061031d9190611e04565b610bc2565b005b61033e60048036038101906103399190611d89565b610d43565b005b61035a60048036038101906103559190611f0f565b610da5565b6040516103679190612362565b60405180910390f35b61038a60048036038101906103859190611cfe565b610ef7565b6040516103979190612347565b60405180910390f35b6103ba60048036038101906103b59190611cd5565b610f8b565b005b60007f80ac58cd000000000000000000000000000000000000000000000000000000007bffffffffffffffffffffffffffffffffffffffffffffffffffffffff1916827bffffffffffffffffffffffffffffffffffffffffffffffffffffffff1916148061048757507f5b5e139f000000000000000000000000000000000000000000000000000000007bffffffffffffffffffffffffffffffffffffffffffffffffffffffff1916827bffffffffffffffffffffffffffffffffffffffffffffffffffffffff1916145b80610497575061049682611137565b5b9050919050565b6060600080546104ad906127f3565b80601f01602080910402602001604051908101604052809291908181526020018280546104d9906127f3565b80156105265780601f106104fb57610100808354040283529160200191610526565b820191906000526020600020905b81548152906001019060200180831161050957829003601f168201915b5050505050905090565b600061053b826111a1565b61057a576040517f08c379a0000000000000000000000000000000000000000000000000000000008152600401610571906124a4565b60405180910390fd5b6004600083815260200190815260200160002060009054906101000a900473ffffffffffffffffffffffffffffffffffffffff169050919050565b60006105c082610807565b90508073ffffffffffffffffffffffffffffffffffffffff168373ffffffffffffffffffffffffffffffffffffffff161415610631576040517f08c379a000000000000000000000000000000000000000000000000000000000815260040161062890612524565b60405180910390fd5b8073ffffffffffffffffffffffffffffffffffffffff1661065061120d565b73ffffffffffffffffffffffffffffffffffffffff16148061067f575061067e8161067961120d565b610ef7565b5b6106be576040517f08c379a00000000000000000000000000000000000000000000000000000000081526004016106b590612424565b60405180910390fd5b6106c88383611215565b505050565b600981815481106106dd57600080fd5b906000526020600020016000915090505481565b6107026106fc61120d565b826112ce565b610741576040517f08c379a000000000000000000000000000000000000000000000000000000000815260040161073890612544565b60405180910390fd5b61074c8383836113ac565b505050565b61076c83838360405180602001604052806000815250610d43565b505050565b61077961120d565b73ffffffffffffffffffffffffffffffffffffffff16610797610aae565b73ffffffffffffffffffffffffffffffffffffffff16146107ed576040517f08c379a00000000000000000000000000000000000000000000000000000000081526004016107e4906124c4565b60405180910390fd5b8060089080519060200190610803929190611af9565b5050565b6000806002600084815260200190815260200160002060009054906101000a900473ffffffffffffffffffffffffffffffffffffffff169050600073ffffffffffffffffffffffffffffffffffffffff168173ffffffffffffffffffffffffffffffffffffffff1614156108b0576040517f08c379a00000000000000000000000000000000000000000000000000000000081526004016108a790612464565b60405180910390fd5b80915050919050565b60008073ffffffffffffffffffffffffffffffffffffffff168273ffffffffffffffffffffffffffffffffffffffff16141561092a576040517f08c379a000000000000000000000000000000000000000000000000000000000815260040161092190612444565b60405180910390fd5b600360008373ffffffffffffffffffffffffffffffffffffffff1673ffffffffffffffffffffffffffffffffffffffff168152602001908152602001600020549050919050565b61097961120d565b73ffffffffffffffffffffffffffffffffffffffff16610997610aae565b73ffffffffffffffffffffffffffffffffffffffff16146109ed576040517f08c379a00000000000000000000000000000000000000000000000000000000081526004016109e4906124c4565b60405180910390fd5b600073ffffffffffffffffffffffffffffffffffffffff16600760009054906101000a900473ffffffffffffffffffffffffffffffffffffffff1673ffffffffffffffffffffffffffffffffffffffff167f8be0079c531659141344cd1fd0a4f28419497f9722a3daafe3b4186f6b6457e060405160405180910390a36000600760006101000a81548173ffffffffffffffffffffffffffffffffffffffff021916908373ffffffffffffffffffffffffffffffffffffffff160217905550565b6000600760009054906101000a900473ffffffffffffffffffffffffffffffffffffffff16905090565b60606009805480602002602001604051908101604052809291908181526020018280548015610b2657602002820191906000526020600020905b815481526020019060010190808311610b12575b5050505050905090565b606060018054610b3f906127f3565b80601f0160208091040260200160405190810160405280929190818152602001828054610b6b906127f3565b8015610bb85780601f10610b8d57610100808354040283529160200191610bb8565b820191906000526020600020905b815481529060010190602001808311610b9b57829003601f168201915b5050505050905090565b610bca61120d565b73ffffffffffffffffffffffffffffffffffffffff168273ffffffffffffffffffffffffffffffffffffffff161415610c38576040517f08c379a0000000000000000000000000000000000000000000000000000000008152600401610c2f906123e4565b60405180910390fd5b8060056000610c4561120d565b73ffffffffffffffffffffffffffffffffffffffff1673ffffffffffffffffffffffffffffffffffffffff16815260200190815260200160002060008473ffffffffffffffffffffffffffffffffffffffff1673ffffffffffffffffffffffffffffffffffffffff16815260200190815260200160002060006101000a81548160ff0219169083151502179055508173ffffffffffffffffffffffffffffffffffffffff16610cf261120d565b73ffffffffffffffffffffffffffffffffffffffff167f17307eab39ab6107e8899845ad3d59bd9653f200f220920489ca2b5937696c3183604051610d379190612347565b60405180910390a35050565b610d54610d4e61120d565b836112ce565b610d93576040517f08c379a0000000000000000000000000000000000000000000000000000000008152600401610d8a90612544565b60405180910390fd5b610d9f84848484611608565b50505050565b6060610db0826111a1565b610def576040517f08c379a0000000000000000000000000000000000000000000000000000000008152600401610de690612484565b60405180910390fd5b6000600660008481526020019081526020016000208054610e0f906127f3565b80601f0160208091040260200160405190810160405280929190818152602001828054610e3b906127f3565b8015610e885780601f10610e5d57610100808354040283529160200191610e88565b820191906000526020600020905b815481529060010190602001808311610e6b57829003601f168201915b505050505090506000610e99611664565b9050600081511415610eaf578192505050610ef2565b600082511115610ee4578082604051602001610ecc92919061229a565b60405160208183030381529060405292505050610ef2565b610eed846116f6565b925050505b919050565b6000600560008473ffffffffffffffffffffffffffffffffffffffff1673ffffffffffffffffffffffffffffffffffffffff16815260200190815260200160002060008373ffffffffffffffffffffffffffffffffffffffff1673ffffffffffffffffffffffffffffffffffffffff16815260200190815260200160002060009054906101000a900460ff16905092915050565b610f9361120d565b73ffffffffffffffffffffffffffffffffffffffff16610fb1610aae565b73ffffffffffffffffffffffffffffffffffffffff1614611007576040517f08c379a0000000000000000000000000000000000000000000000000000000008152600401610ffe906124c4565b60405180910390fd5b600073ffffffffffffffffffffffffffffffffffffffff168173ffffffffffffffffffffffffffffffffffffffff161415611077576040517f08c379a000000000000000000000000000000000000000000000000000000000815260040161106e906123a4565b60405180910390fd5b8073ffffffffffffffffffffffffffffffffffffffff16600760009054906101000a900473ffffffffffffffffffffffffffffffffffffffff1673ffffffffffffffffffffffffffffffffffffffff167f8be0079c531659141344cd1fd0a4f28419497f9722a3daafe3b4186f6b6457e060405160405180910390a380600760006101000a81548173ffffffffffffffffffffffffffffffffffffffff021916908373ffffffffffffffffffffffffffffffffffffffff16021790555050565b60007f01ffc9a7000000000000000000000000000000000000000000000000000000007bffffffffffffffffffffffffffffffffffffffffffffffffffffffff1916827bffffffffffffffffffffffffffffffffffffffffffffffffffffffff1916149050919050565b60008073ffffffffffffffffffffffffffffffffffffffff166002600084815260200190815260200160002060009054906101000a900473ffffffffffffffffffffffffffffffffffffffff1673ffffffffffffffffffffffffffffffffffffffff1614159050919050565b600033905090565b816004600083815260200190815260200160002060006101000a81548173ffffffffffffffffffffffffffffffffffffffff021916908373ffffffffffffffffffffffffffffffffffffffff160217905550808273ffffffffffffffffffffffffffffffffffffffff1661128883610807565b73ffffffffffffffffffffffffffffffffffffffff167f8c5be1e5ebec7d5bd14f71427d1e84f3dd0314c0f7b2291e5b200ac8c7c3b92560405160405180910390a45050565b60006112d9826111a1565b611318576040517f08c379a000000000000000000000000000000000000000000000000000000000815260040161130f90612404565b60405180910390fd5b600061132383610807565b90508073ffffffffffffffffffffffffffffffffffffffff168473ffffffffffffffffffffffffffffffffffffffff16148061139257508373ffffffffffffffffffffffffffffffffffffffff1661137a84610530565b73ffffffffffffffffffffffffffffffffffffffff16145b806113a357506113a28185610ef7565b5b91505092915050565b8273ffffffffffffffffffffffffffffffffffffffff166113cc82610807565b73ffffffffffffffffffffffffffffffffffffffff1614611422576040517f08c379a0000000000000000000000000000000000000000000000000000000008152600401611419906124e4565b60405180910390fd5b600073ffffffffffffffffffffffffffffffffffffffff168273ffffffffffffffffffffffffffffffffffffffff161415611492576040517f08c379a0000000000000000000000000000000000000000000000000000000008152600401611489906123c4565b60405180910390fd5b61149d83838361179d565b6114a8600082611215565b6001600360008573ffffffffffffffffffffffffffffffffffffffff1673ffffffffffffffffffffffffffffffffffffffff16815260200190815260200160002060008282546114f89190612709565b925050819055506001600360008473ffffffffffffffffffffffffffffffffffffffff1673ffffffffffffffffffffffffffffffffffffffff168152602001908152602001600020600082825461154f9190612682565b92505081905550816002600083815260200190815260200160002060006101000a81548173ffffffffffffffffffffffffffffffffffffffff021916908373ffffffffffffffffffffffffffffffffffffffff160217905550808273ffffffffffffffffffffffffffffffffffffffff168473ffffffffffffffffffffffffffffffffffffffff167fddf252ad1be2c89b69c2b068fc378daa952ba7f163c4a11628f55a4df523b3ef60405160405180910390a4505050565b6116138484846113ac565b61161f848484846117a2565b61165e576040517f08c379a000000000000000000000000000000000000000000000000000000000815260040161165590612384565b60405180910390fd5b50505050565b606060088054611673906127f3565b80601f016020809104026020016040519081016040528092919081815260200182805461169f906127f3565b80156116ec5780601f106116c1576101008083540402835291602001916116ec565b820191906000526020600020905b8154815290600101906020018083116116cf57829003601f168201915b5050505050905090565b6060611701826111a1565b611740576040517f08c379a000000000000000000000000000000000000000000000000000000000815260040161173790612504565b60405180910390fd5b600061174a611664565b9050600081511161176a5760405180602001604052806000815250611795565b8061177484611939565b60405160200161178592919061229a565b6040516020818303038152906040525b915050919050565b505050565b60006117c38473ffffffffffffffffffffffffffffffffffffffff16611ae6565b1561192c578373ffffffffffffffffffffffffffffffffffffffff1663150b7a026117ec61120d565b8786866040518563ffffffff1660e01b815260040161180e94939291906122d9565b602060405180830381600087803b15801561182857600080fd5b505af192505050801561185957506040513d601f19601f820116820180604052508101906118569190611ea5565b60015b6118dc573d8060008114611889576040519150601f19603f3d011682016040523d82523d6000602084013e61188e565b606091505b506000815114156118d4576040517f08c379a00000000000000000000000000000000000000000000000000000000081526004016118cb90612384565b60405180910390fd5b805181602001fd5b63150b7a0260e01b7bffffffffffffffffffffffffffffffffffffffffffffffffffffffff1916817bffffffffffffffffffffffffffffffffffffffffffffffffffffffff191614915050611931565b600190505b949350505050565b60606000821415611981576040518060400160405280600181526020017f30000000000000000000000000000000000000000000000000000000000000008152509050611ae1565b600082905060005b600082146119b357808061199c90612856565b915050600a826119ac91906126d8565b9150611989565b60008167ffffffffffffffff8111156119f5577f4e487b7100000000000000000000000000000000000000000000000000000000600052604160045260246000fd5b6040519080825280601f01601f191660200182016040528015611a275781602001600182028036833780820191505090505b5090505b60008514611ada57600182611a409190612709565b9150600a85611a4f919061289f565b6030611a5b9190612682565b60f81b818381518110611a97577f4e487b7100000000000000000000000000000000000000000000000000000000600052603260045260246000fd5b60200101907effffffffffffffffffffffffffffffffffffffffffffffffffffffffffffff1916908160001a905350600a85611ad391906126d8565b9450611a2b565b8093505050505b919050565b600080823b905060008111915050919050565b828054611b05906127f3565b90600052602060002090601f016020900481019282611b275760008555611b6e565b82601f10611b4057805160ff1916838001178555611b6e565b82800160010185558215611b6e579182015b82811115611b6d578251825591602001919060010190611b52565b5b509050611b7b9190611b7f565b5090565b5b80821115611b98576000816000905550600101611b80565b5090565b6000611baf611baa846125a4565b61257f565b905082815260208101848484011115611bc757600080fd5b611bd28482856127b1565b509392505050565b6000611bed611be8846125d5565b61257f565b905082815260208101848484011115611c0557600080fd5b611c108482856127b1565b509392505050565b600081359050611c2781612df2565b92915050565b600081359050611c3c81612e09565b92915050565b600081359050611c5181612e20565b92915050565b600081519050611c6681612e20565b92915050565b600082601f830112611c7d57600080fd5b8135611c8d848260208601611b9c565b91505092915050565b600082601f830112611ca757600080fd5b8135611cb7848260208601611bda565b91505092915050565b600081359050611ccf81612e37565b92915050565b600060208284031215611ce757600080fd5b6000611cf584828501611c18565b91505092915050565b60008060408385031215611d1157600080fd5b6000611d1f85828601611c18565b9250506020611d3085828601611c18565b9150509250929050565b600080600060608486031215611d4f57600080fd5b6000611d5d86828701611c18565b9350506020611d6e86828701611c18565b9250506040611d7f86828701611cc0565b9150509250925092565b60008060008060808587031215611d9f57600080fd5b6000611dad87828801611c18565b9450506020611dbe87828801611c18565b9350506040611dcf87828801611cc0565b925050606085013567ffffffffffffffff811115611dec57600080fd5b611df887828801611c6c565b91505092959194509250565b60008060408385031215611e1757600080fd5b6000611e2585828601611c18565b9250506020611e3685828601611c2d565b9150509250929050565b60008060408385031215611e5357600080fd5b6000611e6185828601611c18565b9250506020611e7285828601611cc0565b9150509250929050565b600060208284031215611e8e57600080fd5b6000611e9c84828501611c42565b91505092915050565b600060208284031215611eb757600080fd5b6000611ec584828501611c57565b91505092915050565b600060208284031215611ee057600080fd5b600082013567ffffffffffffffff811115611efa57600080fd5b611f0684828501611c96565b91505092915050565b600060208284031215611f2157600080fd5b6000611f2f84828501611cc0565b91505092915050565b6000611f44838361227c565b60208301905092915050565b611f598161273d565b82525050565b6000611f6a82612616565b611f748185612644565b9350611f7f83612606565b8060005b83811015611fb0578151611f978882611f38565b9750611fa283612637565b925050600181019050611f83565b5085935050505092915050565b611fc68161274f565b82525050565b6000611fd782612621565b611fe18185612655565b9350611ff18185602086016127c0565b611ffa8161298c565b840191505092915050565b60006120108261262c565b61201a8185612666565b935061202a8185602086016127c0565b6120338161298c565b840191505092915050565b60006120498261262c565b6120538185612677565b93506120638185602086016127c0565b80840191505092915050565b600061207c603283612666565b91506120878261299d565b604082019050919050565b600061209f602683612666565b91506120aa826129ec565b604082019050919050565b60006120c2602483612666565b91506120cd82612a3b565b604082019050919050565b60006120e5601983612666565b91506120f082612a8a565b602082019050919050565b6000612108602c83612666565b915061211382612ab3565b604082019050919050565b600061212b603883612666565b915061213682612b02565b604082019050919050565b600061214e602a83612666565b915061215982612b51565b604082019050919050565b6000612171602983612666565b915061217c82612ba0565b604082019050919050565b6000612194603183612666565b915061219f82612bef565b604082019050919050565b60006121b7602c83612666565b91506121c282612c3e565b604082019050919050565b60006121da602083612666565b91506121e582612c8d565b602082019050919050565b60006121fd602983612666565b915061220882612cb6565b604082019050919050565b6000612220602f83612666565b915061222b82612d05565b604082019050919050565b6000612243602183612666565b915061224e82612d54565b604082019050919050565b6000612266603183612666565b915061227182612da3565b604082019050919050565b612285816127a7565b82525050565b612294816127a7565b82525050565b60006122a6828561203e565b91506122b2828461203e565b91508190509392505050565b60006020820190506122d36000830184611f50565b92915050565b60006080820190506122ee6000830187611f50565b6122fb6020830186611f50565b612308604083018561228b565b818103606083015261231a8184611fcc565b905095945050505050565b6000602082019050818103600083015261233f8184611f5f565b905092915050565b600060208201905061235c6000830184611fbd565b92915050565b6000602082019050818103600083015261237c8184612005565b905092915050565b6000602082019050818103600083015261239d8161206f565b9050919050565b600060208201905081810360008301526123bd81612092565b9050919050565b600060208201905081810360008301526123dd816120b5565b9050919050565b600060208201905081810360008301526123fd816120d8565b9050919050565b6000602082019050818103600083015261241d816120fb565b9050919050565b6000602082019050818103600083015261243d8161211e565b9050919050565b6000602082019050818103600083015261245d81612141565b9050919050565b6000602082019050818103600083015261247d81612164565b9050919050565b6000602082019050818103600083015261249d81612187565b9050919050565b600060208201905081810360008301526124bd816121aa565b9050919050565b600060208201905081810360008301526124dd816121cd565b9050919050565b600060208201905081810360008301526124fd816121f0565b9050919050565b6000602082019050818103600083015261251d81612213565b9050919050565b6000602082019050818103600083015261253d81612236565b9050919050565b6000602082019050818103600083015261255d81612259565b9050919050565b6000602082019050612579600083018461228b565b92915050565b600061258961259a565b90506125958282612825565b919050565b6000604051905090565b600067ffffffffffffffff8211156125bf576125be61295d565b5b6125c88261298c565b9050602081019050919050565b600067ffffffffffffffff8211156125f0576125ef61295d565b5b6125f98261298c565b9050602081019050919050565b6000819050602082019050919050565b600081519050919050565b600081519050919050565b600081519050919050565b6000602082019050919050565b600082825260208201905092915050565b600082825260208201905092915050565b600082825260208201905092915050565b600081905092915050565b600061268d826127a7565b9150612698836127a7565b9250827fffffffffffffffffffffffffffffffffffffffffffffffffffffffffffffffff038211156126cd576126cc6128d0565b5b828201905092915050565b60006126e3826127a7565b91506126ee836127a7565b9250826126fe576126fd6128ff565b5b828204905092915050565b6000612714826127a7565b915061271f836127a7565b925082821015612732576127316128d0565b5b828203905092915050565b600061274882612787565b9050919050565b60008115159050919050565b60007fffffffff0000000000000000000000000000000000000000000000000000000082169050919050565b600073ffffffffffffffffffffffffffffffffffffffff82169050919050565b6000819050919050565b82818337600083830152505050565b60005b838110156127de5780820151818401526020810190506127c3565b838111156127ed576000848401525b50505050565b6000600282049050600182168061280b57607f821691505b6020821081141561281f5761281e61292e565b5b50919050565b61282e8261298c565b810181811067ffffffffffffffff8211171561284d5761284c61295d565b5b80604052505050565b6000612861826127a7565b91507fffffffffffffffffffffffffffffffffffffffffffffffffffffffffffffffff821415612894576128936128d0565b5b600182019050919050565b60006128aa826127a7565b91506128b5836127a7565b9250826128c5576128c46128ff565b5b828206905092915050565b7f4e487b7100000000000000000000000000000000000000000000000000000000600052601160045260246000fd5b7f4e487b7100000000000000000000000000000000000000000000000000000000600052601260045260246000fd5b7f4e487b7100000000000000000000000000000000000000000000000000000000600052602260045260246000fd5b7f4e487b7100000000000000000000000000000000000000000000000000000000600052604160045260246000fd5b6000601f19601f8301169050919050565b7f4552433732313a207472616e7366657220746f206e6f6e20455243373231526560008201527f63656976657220696d706c656d656e7465720000000000000000000000000000602082015250565b7f4f776e61626c653a206e6577206f776e657220697320746865207a65726f206160008201527f6464726573730000000000000000000000000000000000000000000000000000602082015250565b7f4552433732313a207472616e7366657220746f20746865207a65726f2061646460008201527f7265737300000000000000000000000000000000000000000000000000000000602082015250565b7f4552433732313a20617070726f766520746f2063616c6c657200000000000000600082015250565b7f4552433732313a206f70657261746f7220717565727920666f72206e6f6e657860008201527f697374656e7420746f6b656e0000000000000000000000000000000000000000602082015250565b7f4552433732313a20617070726f76652063616c6c6572206973206e6f74206f7760008201527f6e6572206e6f7220617070726f76656420666f7220616c6c0000000000000000602082015250565b7f4552433732313a2062616c616e636520717565727920666f7220746865207a6560008201527f726f206164647265737300000000000000000000000000000000000000000000602082015250565b7f4552433732313a206f776e657220717565727920666f72206e6f6e657869737460008201527f656e7420746f6b656e0000000000000000000000000000000000000000000000602082015250565b7f45524337323155524953746f726167653a2055524920717565727920666f722060008201527f6e6f6e6578697374656e7420746f6b656e000000000000000000000000000000602082015250565b7f4552433732313a20617070726f76656420717565727920666f72206e6f6e657860008201527f697374656e7420746f6b656e0000000000000000000000000000000000000000602082015250565b7f4f776e61626c653a2063616c6c6572206973206e6f7420746865206f776e6572600082015250565b7f4552433732313a207472616e73666572206f6620746f6b656e2074686174206960008201527f73206e6f74206f776e0000000000000000000000000000000000000000000000602082015250565b7f4552433732314d657461646174613a2055524920717565727920666f72206e6f60008201527f6e6578697374656e7420746f6b656e0000000000000000000000000000000000602082015250565b7f4552433732313a20617070726f76616c20746f2063757272656e74206f776e6560008201527f7200000000000000000000000000000000000000000000000000000000000000602082015250565b7f4552433732313a207472616e736665722063616c6c6572206973206e6f74206f60008201527f776e6572206e6f7220617070726f766564000000000000000000000000000000602082015250565b612dfb8161273d565b8114612e0657600080fd5b50565b612e128161274f565b8114612e1d57600080fd5b50565b612e298161275b565b8114612e3457600080fd5b50565b612e40816127a7565b8114612e4b57600080fd5b5056fea26469706673582212203753552a40109b17a4ff74379f3fd666d912ba841d2c746ae6ff0ab9d1ad3d4364736f6c63430008040033",
  "immutableReferences": {},
  "source": "// SPDX-License-Identifier: MIT\npragma solidity ^0.8.0;\npragma experimental ABIEncoderV2;\n\nimport \"@openzeppelin/contracts/token/ERC721/extensions/ERC721URIStorage.sol\";\nimport \"@openzeppelin/contracts/access/Ownable.sol\";\n\ncontract ArticleNFT is ERC721URIStorage, Ownable {\n  string private _baseURIextended;\n  uint256[] public nftTokenIds;\n\n  constructor() ERC721(\"decentraStack\", \"DSTK\") {\n    // TODO deploy script to call `setBaseURI` instead of constructor\n    _baseURIextended = \"https://ipfs.io/ipfs/\";\n  }\n\n  event MintedArticleNFT(address _owner, uint256 _tokenId, string _tokenURI);\n\n  function setBaseURI(string memory baseURI_) external onlyOwner() {\n    _baseURIextended = baseURI_;\n  }\n\n  function _baseURI() internal view virtual override returns (string memory) {\n    return _baseURIextended;\n  }\n\n  function getNftTokenIds() public view returns(uint256[] memory) {\n    return nftTokenIds;\n  }\n\n  function createCollectible(address _author, string memory _title, string memory _contentIpfsHash) internal returns (uint256) {\n    uint256 newArticleId = uint256(keccak256(abi.encodePacked(_author, _title, _contentIpfsHash, block.timestamp)));\n    // calls ERC721 with `newArticleId` as `tokenId`\n    _safeMint(_author, newArticleId);\n    // calls ERC721URIStorage with `_contentIpfsHash` as the `tokenURI`\n    _setTokenURI(newArticleId, _contentIpfsHash);\n    nftTokenIds.push(newArticleId);\n    \n    emit MintedArticleNFT(_author, newArticleId, _contentIpfsHash);\n    return newArticleId;\n  }\n}",
  "sourcePath": "/Users/db/Projects/decentraStack/contracts/ArticleNFT.sol",
  "compiler": {
    "name": "solc",
    "version": "0.8.4+commit.c7e474f2.Emscripten.clang"
  },
  "schemaVersion": "3.3.3",
  "updatedAt": "2021-05-27T22:49:54.783Z",
  "devdoc": {
    "kind": "dev",
    "methods": {
      "approve(address,uint256)": {
        "details": "See {IERC721-approve}."
      },
      "balanceOf(address)": {
        "details": "See {IERC721-balanceOf}."
      },
      "getApproved(uint256)": {
        "details": "See {IERC721-getApproved}."
      },
      "isApprovedForAll(address,address)": {
        "details": "See {IERC721-isApprovedForAll}."
      },
      "name()": {
        "details": "See {IERC721Metadata-name}."
      },
      "owner()": {
        "details": "Returns the address of the current owner."
      },
      "ownerOf(uint256)": {
        "details": "See {IERC721-ownerOf}."
      },
      "renounceOwnership()": {
        "details": "Leaves the contract without owner. It will not be possible to call `onlyOwner` functions anymore. Can only be called by the current owner. NOTE: Renouncing ownership will leave the contract without an owner, thereby removing any functionality that is only available to the owner."
      },
      "safeTransferFrom(address,address,uint256)": {
        "details": "See {IERC721-safeTransferFrom}."
      },
      "safeTransferFrom(address,address,uint256,bytes)": {
        "details": "See {IERC721-safeTransferFrom}."
      },
      "setApprovalForAll(address,bool)": {
        "details": "See {IERC721-setApprovalForAll}."
      },
      "supportsInterface(bytes4)": {
        "details": "See {IERC165-supportsInterface}."
      },
      "symbol()": {
        "details": "See {IERC721Metadata-symbol}."
      },
      "tokenURI(uint256)": {
        "details": "See {IERC721Metadata-tokenURI}."
      },
      "transferFrom(address,address,uint256)": {
        "details": "See {IERC721-transferFrom}."
      },
      "transferOwnership(address)": {
        "details": "Transfers ownership of the contract to a new account (`newOwner`). Can only be called by the current owner."
      }
    },
    "version": 1
  },
  "userdoc": {
    "kind": "user",
    "methods": {},
    "version": 1
  }
}