{
  "contractName": "ArticleNFT",
  "abi": [
    {
      "inputs": [],
      "stateMutability": "nonpayable",
      "type": "constructor"
    },
    {
      "anonymous": false,
      "inputs": [
        {
          "indexed": true,
          "internalType": "address",
          "name": "owner",
          "type": "address"
        },
        {
          "indexed": true,
          "internalType": "address",
          "name": "approved",
          "type": "address"
        },
        {
          "indexed": true,
          "internalType": "uint256",
          "name": "tokenId",
          "type": "uint256"
        }
      ],
      "name": "Approval",
      "type": "event"
    },
    {
      "anonymous": false,
      "inputs": [
        {
          "indexed": true,
          "internalType": "address",
          "name": "owner",
          "type": "address"
        },
        {
          "indexed": true,
          "internalType": "address",
          "name": "operator",
          "type": "address"
        },
        {
          "indexed": false,
          "internalType": "bool",
          "name": "approved",
          "type": "bool"
        }
      ],
      "name": "ApprovalForAll",
      "type": "event"
    },
    {
      "anonymous": false,
      "inputs": [
        {
          "indexed": true,
          "internalType": "address",
          "name": "previousOwner",
          "type": "address"
        },
        {
          "indexed": true,
          "internalType": "address",
          "name": "newOwner",
          "type": "address"
        }
      ],
      "name": "OwnershipTransferred",
      "type": "event"
    },
    {
      "anonymous": false,
      "inputs": [
        {
          "indexed": true,
          "internalType": "address",
          "name": "from",
          "type": "address"
        },
        {
          "indexed": true,
          "internalType": "address",
          "name": "to",
          "type": "address"
        },
        {
          "indexed": true,
          "internalType": "uint256",
          "name": "tokenId",
          "type": "uint256"
        }
      ],
      "name": "Transfer",
      "type": "event"
    },
    {
      "inputs": [
        {
          "internalType": "address",
          "name": "to",
          "type": "address"
        },
        {
          "internalType": "uint256",
          "name": "tokenId",
          "type": "uint256"
        }
      ],
      "name": "approve",
      "outputs": [],
      "stateMutability": "nonpayable",
      "type": "function"
    },
    {
      "inputs": [
        {
          "internalType": "address",
          "name": "owner",
          "type": "address"
        }
      ],
      "name": "balanceOf",
      "outputs": [
        {
          "internalType": "uint256",
          "name": "",
          "type": "uint256"
        }
      ],
      "stateMutability": "view",
      "type": "function",
      "constant": true
    },
    {
      "inputs": [
        {
          "internalType": "uint256",
          "name": "tokenId",
          "type": "uint256"
        }
      ],
      "name": "getApproved",
      "outputs": [
        {
          "internalType": "address",
          "name": "",
          "type": "address"
        }
      ],
      "stateMutability": "view",
      "type": "function",
      "constant": true
    },
    {
      "inputs": [
        {
          "internalType": "address",
          "name": "owner",
          "type": "address"
        },
        {
          "internalType": "address",
          "name": "operator",
          "type": "address"
        }
      ],
      "name": "isApprovedForAll",
      "outputs": [
        {
          "internalType": "bool",
          "name": "",
          "type": "bool"
        }
      ],
      "stateMutability": "view",
      "type": "function",
      "constant": true
    },
    {
      "inputs": [],
      "name": "name",
      "outputs": [
        {
          "internalType": "string",
          "name": "",
          "type": "string"
        }
      ],
      "stateMutability": "view",
      "type": "function",
      "constant": true
    },
    {
      "inputs": [
        {
          "internalType": "uint256",
          "name": "",
          "type": "uint256"
        }
      ],
      "name": "nftTokenIds",
      "outputs": [
        {
          "internalType": "uint256",
          "name": "",
          "type": "uint256"
        }
      ],
      "stateMutability": "view",
      "type": "function",
      "constant": true
    },
    {
      "inputs": [],
      "name": "owner",
      "outputs": [
        {
          "internalType": "address",
          "name": "",
          "type": "address"
        }
      ],
      "stateMutability": "view",
      "type": "function",
      "constant": true
    },
    {
      "inputs": [
        {
          "internalType": "uint256",
          "name": "tokenId",
          "type": "uint256"
        }
      ],
      "name": "ownerOf",
      "outputs": [
        {
          "internalType": "address",
          "name": "",
          "type": "address"
        }
      ],
      "stateMutability": "view",
      "type": "function",
      "constant": true
    },
    {
      "inputs": [],
      "name": "renounceOwnership",
      "outputs": [],
      "stateMutability": "nonpayable",
      "type": "function"
    },
    {
      "inputs": [
        {
          "internalType": "address",
          "name": "from",
          "type": "address"
        },
        {
          "internalType": "address",
          "name": "to",
          "type": "address"
        },
        {
          "internalType": "uint256",
          "name": "tokenId",
          "type": "uint256"
        }
      ],
      "name": "safeTransferFrom",
      "outputs": [],
      "stateMutability": "nonpayable",
      "type": "function"
    },
    {
      "inputs": [
        {
          "internalType": "address",
          "name": "from",
          "type": "address"
        },
        {
          "internalType": "address",
          "name": "to",
          "type": "address"
        },
        {
          "internalType": "uint256",
          "name": "tokenId",
          "type": "uint256"
        },
        {
          "internalType": "bytes",
          "name": "_data",
          "type": "bytes"
        }
      ],
      "name": "safeTransferFrom",
      "outputs": [],
      "stateMutability": "nonpayable",
      "type": "function"
    },
    {
      "inputs": [
        {
          "internalType": "address",
          "name": "operator",
          "type": "address"
        },
        {
          "internalType": "bool",
          "name": "approved",
          "type": "bool"
        }
      ],
      "name": "setApprovalForAll",
      "outputs": [],
      "stateMutability": "nonpayable",
      "type": "function"
    },
    {
      "inputs": [
        {
          "internalType": "bytes4",
          "name": "interfaceId",
          "type": "bytes4"
        }
      ],
      "name": "supportsInterface",
      "outputs": [
        {
          "internalType": "bool",
          "name": "",
          "type": "bool"
        }
      ],
      "stateMutability": "view",
      "type": "function",
      "constant": true
    },
    {
      "inputs": [],
      "name": "symbol",
      "outputs": [
        {
          "internalType": "string",
          "name": "",
          "type": "string"
        }
      ],
      "stateMutability": "view",
      "type": "function",
      "constant": true
    },
    {
      "inputs": [
        {
          "internalType": "uint256",
          "name": "tokenId",
          "type": "uint256"
        }
      ],
      "name": "tokenURI",
      "outputs": [
        {
          "internalType": "string",
          "name": "",
          "type": "string"
        }
      ],
      "stateMutability": "view",
      "type": "function",
      "constant": true
    },
    {
      "inputs": [
        {
          "internalType": "address",
          "name": "from",
          "type": "address"
        },
        {
          "internalType": "address",
          "name": "to",
          "type": "address"
        },
        {
          "internalType": "uint256",
          "name": "tokenId",
          "type": "uint256"
        }
      ],
      "name": "transferFrom",
      "outputs": [],
      "stateMutability": "nonpayable",
      "type": "function"
    },
    {
      "inputs": [
        {
          "internalType": "address",
          "name": "newOwner",
          "type": "address"
        }
      ],
      "name": "transferOwnership",
      "outputs": [],
      "stateMutability": "nonpayable",
      "type": "function"
    },
    {
      "inputs": [
        {
          "internalType": "string",
          "name": "baseURI_",
          "type": "string"
        }
      ],
      "name": "setBaseURI",
      "outputs": [],
      "stateMutability": "nonpayable",
      "type": "function"
    },
    {
      "inputs": [],
      "name": "getNftTokenIds",
      "outputs": [
        {
          "internalType": "uint256[]",
          "name": "",
          "type": "uint256[]"
        }
      ],
      "stateMutability": "view",
      "type": "function",
      "constant": true
    },
    {
      "inputs": [
        {
          "internalType": "address",
          "name": "_author",
          "type": "address"
        },
        {
          "internalType": "string",
          "name": "_title",
          "type": "string"
        },
        {
          "internalType": "string",
          "name": "_contentIpfsHash",
          "type": "string"
        }
      ],
      "name": "createCollectible",
      "outputs": [
        {
          "internalType": "uint256",
          "name": "",
          "type": "uint256"
        }
      ],
      "stateMutability": "nonpayable",
      "type": "function"
    }
  ],
  "bytecode": "0x60806040523480156200001157600080fd5b506040518060400160405280600d81526020017f646563656e747261537461636b000000000000000000000000000000000000008152506040518060400160405280600481526020017f4453544b00000000000000000000000000000000000000000000000000000000815250816000908051906020019062000096929190620001bf565b508060019080519060200190620000af929190620001bf565b5050506000620000c4620001b760201b60201c565b905080600760006101000a81548173ffffffffffffffffffffffffffffffffffffffff021916908373ffffffffffffffffffffffffffffffffffffffff1602179055508073ffffffffffffffffffffffffffffffffffffffff16600073ffffffffffffffffffffffffffffffffffffffff167f8be0079c531659141344cd1fd0a4f28419497f9722a3daafe3b4186f6b6457e060405160405180910390a3506040518060400160405280601581526020017f68747470733a2f2f697066732e696f2f697066732f000000000000000000000081525060089080519060200190620001b0929190620001bf565b50620002d4565b600033905090565b828054620001cd906200026f565b90600052602060002090601f016020900481019282620001f157600085556200023d565b82601f106200020c57805160ff19168380011785556200023d565b828001600101855582156200023d579182015b828111156200023c5782518255916020019190600101906200021f565b5b5090506200024c919062000250565b5090565b5b808211156200026b57600081600090555060010162000251565b5090565b600060028204905060018216806200028857607f821691505b602082108114156200029f576200029e620002a5565b5b50919050565b7f4e487b7100000000000000000000000000000000000000000000000000000000600052602260045260246000fd5b61348f80620002e46000396000f3fe608060405234801561001057600080fd5b506004361061012c5760003560e01c8063715018a6116100ad578063b88d4fde11610071578063b88d4fde1461032f578063c87b56dd1461034b578063e985e9c51461037b578063f16dd9a2146103ab578063f2fde38b146103db5761012c565b8063715018a6146102af5780638da5cb5b146102b957806393a6871e146102d757806395d89b41146102f5578063a22cb465146103135761012c565b806323b872dd116100f457806323b872dd146101fb57806342842e0e1461021757806355f804b3146102335780636352211e1461024f57806370a082311461027f5761012c565b806301ffc9a71461013157806306fdde0314610161578063081812fc1461017f578063095ea7b3146101af57806322d544a3146101cb575b600080fd5b61014b6004803603810190610146919061226e565b6103f7565b6040516101589190612816565b60405180910390f35b6101696104d9565b6040516101769190612831565b60405180910390f35b61019960048036038101906101949190612301565b61056b565b6040516101a6919061278d565b60405180910390f35b6101c960048036038101906101c49190612232565b6105f0565b005b6101e560048036038101906101e09190612301565b610708565b6040516101f29190612a93565b60405180910390f35b610215600480360381019061021091906120ad565b61072c565b005b610231600480360381019061022c91906120ad565b61078c565b005b61024d600480360381019061024891906122c0565b6107ac565b005b61026960048036038101906102649190612301565b610842565b604051610276919061278d565b60405180910390f35b61029960048036038101906102949190612048565b6108f4565b6040516102a69190612a93565b60405180910390f35b6102b76109ac565b005b6102c1610ae9565b6040516102ce919061278d565b60405180910390f35b6102df610b13565b6040516102ec91906127f4565b60405180910390f35b6102fd610b6b565b60405161030a9190612831565b60405180910390f35b61032d60048036038101906103289190612177565b610bfd565b005b610349600480360381019061034491906120fc565b610d7e565b005b61036560048036038101906103609190612301565b610de0565b6040516103729190612831565b60405180910390f35b61039560048036038101906103909190612071565b610f32565b6040516103a29190612816565b60405180910390f35b6103c560048036038101906103c091906121b3565b610fc6565b6040516103d29190612a93565b60405180910390f35b6103f560048036038101906103f09190612048565b611043565b005b60007f80ac58cd000000000000000000000000000000000000000000000000000000007bffffffffffffffffffffffffffffffffffffffffffffffffffffffff1916827bffffffffffffffffffffffffffffffffffffffffffffffffffffffff191614806104c257507f5b5e139f000000000000000000000000000000000000000000000000000000007bffffffffffffffffffffffffffffffffffffffffffffffffffffffff1916827bffffffffffffffffffffffffffffffffffffffffffffffffffffffff1916145b806104d257506104d1826111ef565b5b9050919050565b6060600080546104e890612d22565b80601f016020809104026020016040519081016040528092919081815260200182805461051490612d22565b80156105615780601f1061053657610100808354040283529160200191610561565b820191906000526020600020905b81548152906001019060200180831161054457829003601f168201915b5050505050905090565b600061057682611259565b6105b5576040517f08c379a00000000000000000000000000000000000000000000000000000000081526004016105ac906129d3565b60405180910390fd5b6004600083815260200190815260200160002060009054906101000a900473ffffffffffffffffffffffffffffffffffffffff169050919050565b60006105fb82610842565b90508073ffffffffffffffffffffffffffffffffffffffff168373ffffffffffffffffffffffffffffffffffffffff16141561066c576040517f08c379a000000000000000000000000000000000000000000000000000000000815260040161066390612a53565b60405180910390fd5b8073ffffffffffffffffffffffffffffffffffffffff1661068b6112c5565b73ffffffffffffffffffffffffffffffffffffffff1614806106ba57506106b9816106b46112c5565b610f32565b5b6106f9576040517f08c379a00000000000000000000000000000000000000000000000000000000081526004016106f090612913565b60405180910390fd5b61070383836112cd565b505050565b6009818154811061071857600080fd5b906000526020600020016000915090505481565b61073d6107376112c5565b82611386565b61077c576040517f08c379a000000000000000000000000000000000000000000000000000000000815260040161077390612a73565b60405180910390fd5b610787838383611464565b505050565b6107a783838360405180602001604052806000815250610d7e565b505050565b6107b46112c5565b73ffffffffffffffffffffffffffffffffffffffff166107d2610ae9565b73ffffffffffffffffffffffffffffffffffffffff1614610828576040517f08c379a000000000000000000000000000000000000000000000000000000000815260040161081f906129f3565b60405180910390fd5b806008908051906020019061083e929190611e6c565b5050565b6000806002600084815260200190815260200160002060009054906101000a900473ffffffffffffffffffffffffffffffffffffffff169050600073ffffffffffffffffffffffffffffffffffffffff168173ffffffffffffffffffffffffffffffffffffffff1614156108eb576040517f08c379a00000000000000000000000000000000000000000000000000000000081526004016108e290612953565b60405180910390fd5b80915050919050565b60008073ffffffffffffffffffffffffffffffffffffffff168273ffffffffffffffffffffffffffffffffffffffff161415610965576040517f08c379a000000000000000000000000000000000000000000000000000000000815260040161095c90612933565b60405180910390fd5b600360008373ffffffffffffffffffffffffffffffffffffffff1673ffffffffffffffffffffffffffffffffffffffff168152602001908152602001600020549050919050565b6109b46112c5565b73ffffffffffffffffffffffffffffffffffffffff166109d2610ae9565b73ffffffffffffffffffffffffffffffffffffffff1614610a28576040517f08c379a0000000000000000000000000000000000000000000000000000000008152600401610a1f906129f3565b60405180910390fd5b600073ffffffffffffffffffffffffffffffffffffffff16600760009054906101000a900473ffffffffffffffffffffffffffffffffffffffff1673ffffffffffffffffffffffffffffffffffffffff167f8be0079c531659141344cd1fd0a4f28419497f9722a3daafe3b4186f6b6457e060405160405180910390a36000600760006101000a81548173ffffffffffffffffffffffffffffffffffffffff021916908373ffffffffffffffffffffffffffffffffffffffff160217905550565b6000600760009054906101000a900473ffffffffffffffffffffffffffffffffffffffff16905090565b60606009805480602002602001604051908101604052809291908181526020018280548015610b6157602002820191906000526020600020905b815481526020019060010190808311610b4d575b5050505050905090565b606060018054610b7a90612d22565b80601f0160208091040260200160405190810160405280929190818152602001828054610ba690612d22565b8015610bf35780601f10610bc857610100808354040283529160200191610bf3565b820191906000526020600020905b815481529060010190602001808311610bd657829003601f168201915b5050505050905090565b610c056112c5565b73ffffffffffffffffffffffffffffffffffffffff168273ffffffffffffffffffffffffffffffffffffffff161415610c73576040517f08c379a0000000000000000000000000000000000000000000000000000000008152600401610c6a906128d3565b60405180910390fd5b8060056000610c806112c5565b73ffffffffffffffffffffffffffffffffffffffff1673ffffffffffffffffffffffffffffffffffffffff16815260200190815260200160002060008473ffffffffffffffffffffffffffffffffffffffff1673ffffffffffffffffffffffffffffffffffffffff16815260200190815260200160002060006101000a81548160ff0219169083151502179055508173ffffffffffffffffffffffffffffffffffffffff16610d2d6112c5565b73ffffffffffffffffffffffffffffffffffffffff167f17307eab39ab6107e8899845ad3d59bd9653f200f220920489ca2b5937696c3183604051610d729190612816565b60405180910390a35050565b610d8f610d896112c5565b83611386565b610dce576040517f08c379a0000000000000000000000000000000000000000000000000000000008152600401610dc590612a73565b60405180910390fd5b610dda848484846116c0565b50505050565b6060610deb82611259565b610e2a576040517f08c379a0000000000000000000000000000000000000000000000000000000008152600401610e21906129b3565b60405180910390fd5b6000600660008481526020019081526020016000208054610e4a90612d22565b80601f0160208091040260200160405190810160405280929190818152602001828054610e7690612d22565b8015610ec35780601f10610e9857610100808354040283529160200191610ec3565b820191906000526020600020905b815481529060010190602001808311610ea657829003601f168201915b505050505090506000610ed461171c565b9050600081511415610eea578192505050610f2d565b600082511115610f1f578082604051602001610f07929190612769565b60405160208183030381529060405292505050610f2d565b610f28846117ae565b925050505b919050565b6000600560008473ffffffffffffffffffffffffffffffffffffffff1673ffffffffffffffffffffffffffffffffffffffff16815260200190815260200160002060008373ffffffffffffffffffffffffffffffffffffffff1673ffffffffffffffffffffffffffffffffffffffff16815260200190815260200160002060009054906101000a900460ff16905092915050565b60008084848442604051602001610fe09493929190612723565b6040516020818303038152906040528051906020012060001c90506110058582611855565b61100f8184611873565b6009819080600181540180825580915050600190039060005260206000200160009091909190915055809150509392505050565b61104b6112c5565b73ffffffffffffffffffffffffffffffffffffffff16611069610ae9565b73ffffffffffffffffffffffffffffffffffffffff16146110bf576040517f08c379a00000000000000000000000000000000000000000000000000000000081526004016110b6906129f3565b60405180910390fd5b600073ffffffffffffffffffffffffffffffffffffffff168173ffffffffffffffffffffffffffffffffffffffff16141561112f576040517f08c379a000000000000000000000000000000000000000000000000000000000815260040161112690612873565b60405180910390fd5b8073ffffffffffffffffffffffffffffffffffffffff16600760009054906101000a900473ffffffffffffffffffffffffffffffffffffffff1673ffffffffffffffffffffffffffffffffffffffff167f8be0079c531659141344cd1fd0a4f28419497f9722a3daafe3b4186f6b6457e060405160405180910390a380600760006101000a81548173ffffffffffffffffffffffffffffffffffffffff021916908373ffffffffffffffffffffffffffffffffffffffff16021790555050565b60007f01ffc9a7000000000000000000000000000000000000000000000000000000007bffffffffffffffffffffffffffffffffffffffffffffffffffffffff1916827bffffffffffffffffffffffffffffffffffffffffffffffffffffffff1916149050919050565b60008073ffffffffffffffffffffffffffffffffffffffff166002600084815260200190815260200160002060009054906101000a900473ffffffffffffffffffffffffffffffffffffffff1673ffffffffffffffffffffffffffffffffffffffff1614159050919050565b600033905090565b816004600083815260200190815260200160002060006101000a81548173ffffffffffffffffffffffffffffffffffffffff021916908373ffffffffffffffffffffffffffffffffffffffff160217905550808273ffffffffffffffffffffffffffffffffffffffff1661134083610842565b73ffffffffffffffffffffffffffffffffffffffff167f8c5be1e5ebec7d5bd14f71427d1e84f3dd0314c0f7b2291e5b200ac8c7c3b92560405160405180910390a45050565b600061139182611259565b6113d0576040517f08c379a00000000000000000000000000000000000000000000000000000000081526004016113c7906128f3565b60405180910390fd5b60006113db83610842565b90508073ffffffffffffffffffffffffffffffffffffffff168473ffffffffffffffffffffffffffffffffffffffff16148061144a57508373ffffffffffffffffffffffffffffffffffffffff166114328461056b565b73ffffffffffffffffffffffffffffffffffffffff16145b8061145b575061145a8185610f32565b5b91505092915050565b8273ffffffffffffffffffffffffffffffffffffffff1661148482610842565b73ffffffffffffffffffffffffffffffffffffffff16146114da576040517f08c379a00000000000000000000000000000000000000000000000000000000081526004016114d190612a13565b60405180910390fd5b600073ffffffffffffffffffffffffffffffffffffffff168273ffffffffffffffffffffffffffffffffffffffff16141561154a576040517f08c379a0000000000000000000000000000000000000000000000000000000008152600401611541906128b3565b60405180910390fd5b6115558383836118e7565b6115606000826112cd565b6001600360008573ffffffffffffffffffffffffffffffffffffffff1673ffffffffffffffffffffffffffffffffffffffff16815260200190815260200160002060008282546115b09190612c38565b925050819055506001600360008473ffffffffffffffffffffffffffffffffffffffff1673ffffffffffffffffffffffffffffffffffffffff16815260200190815260200160002060008282546116079190612bb1565b92505081905550816002600083815260200190815260200160002060006101000a81548173ffffffffffffffffffffffffffffffffffffffff021916908373ffffffffffffffffffffffffffffffffffffffff160217905550808273ffffffffffffffffffffffffffffffffffffffff168473ffffffffffffffffffffffffffffffffffffffff167fddf252ad1be2c89b69c2b068fc378daa952ba7f163c4a11628f55a4df523b3ef60405160405180910390a4505050565b6116cb848484611464565b6116d7848484846118ec565b611716576040517f08c379a000000000000000000000000000000000000000000000000000000000815260040161170d90612853565b60405180910390fd5b50505050565b60606008805461172b90612d22565b80601f016020809104026020016040519081016040528092919081815260200182805461175790612d22565b80156117a45780601f10611779576101008083540402835291602001916117a4565b820191906000526020600020905b81548152906001019060200180831161178757829003601f168201915b5050505050905090565b60606117b982611259565b6117f8576040517f08c379a00000000000000000000000000000000000000000000000000000000081526004016117ef90612a33565b60405180910390fd5b600061180261171c565b90506000815111611822576040518060200160405280600081525061184d565b8061182c84611a83565b60405160200161183d929190612769565b6040516020818303038152906040525b915050919050565b61186f828260405180602001604052806000815250611c30565b5050565b61187c82611259565b6118bb576040517f08c379a00000000000000000000000000000000000000000000000000000000081526004016118b290612973565b60405180910390fd5b806006600084815260200190815260200160002090805190602001906118e2929190611e6c565b505050565b505050565b600061190d8473ffffffffffffffffffffffffffffffffffffffff16611c8b565b15611a76578373ffffffffffffffffffffffffffffffffffffffff1663150b7a026119366112c5565b8786866040518563ffffffff1660e01b815260040161195894939291906127a8565b602060405180830381600087803b15801561197257600080fd5b505af19250505080156119a357506040513d601f19601f820116820180604052508101906119a09190612297565b60015b611a26573d80600081146119d3576040519150601f19603f3d011682016040523d82523d6000602084013e6119d8565b606091505b50600081511415611a1e576040517f08c379a0000000000000000000000000000000000000000000000000000000008152600401611a1590612853565b60405180910390fd5b805181602001fd5b63150b7a0260e01b7bffffffffffffffffffffffffffffffffffffffffffffffffffffffff1916817bffffffffffffffffffffffffffffffffffffffffffffffffffffffff191614915050611a7b565b600190505b949350505050565b60606000821415611acb576040518060400160405280600181526020017f30000000000000000000000000000000000000000000000000000000000000008152509050611c2b565b600082905060005b60008214611afd578080611ae690612d85565b915050600a82611af69190612c07565b9150611ad3565b60008167ffffffffffffffff811115611b3f577f4e487b7100000000000000000000000000000000000000000000000000000000600052604160045260246000fd5b6040519080825280601f01601f191660200182016040528015611b715781602001600182028036833780820191505090505b5090505b60008514611c2457600182611b8a9190612c38565b9150600a85611b999190612dfc565b6030611ba59190612bb1565b60f81b818381518110611be1577f4e487b7100000000000000000000000000000000000000000000000000000000600052603260045260246000fd5b60200101907effffffffffffffffffffffffffffffffffffffffffffffffffffffffffffff1916908160001a905350600a85611c1d9190612c07565b9450611b75565b8093505050505b919050565b611c3a8383611c9e565b611c4760008484846118ec565b611c86576040517f08c379a0000000000000000000000000000000000000000000000000000000008152600401611c7d90612853565b60405180910390fd5b505050565b600080823b905060008111915050919050565b600073ffffffffffffffffffffffffffffffffffffffff168273ffffffffffffffffffffffffffffffffffffffff161415611d0e576040517f08c379a0000000000000000000000000000000000000000000000000000000008152600401611d0590612993565b60405180910390fd5b611d1781611259565b15611d57576040517f08c379a0000000000000000000000000000000000000000000000000000000008152600401611d4e90612893565b60405180910390fd5b611d63600083836118e7565b6001600360008473ffffffffffffffffffffffffffffffffffffffff1673ffffffffffffffffffffffffffffffffffffffff1681526020019081526020016000206000828254611db39190612bb1565b92505081905550816002600083815260200190815260200160002060006101000a81548173ffffffffffffffffffffffffffffffffffffffff021916908373ffffffffffffffffffffffffffffffffffffffff160217905550808273ffffffffffffffffffffffffffffffffffffffff16600073ffffffffffffffffffffffffffffffffffffffff167fddf252ad1be2c89b69c2b068fc378daa952ba7f163c4a11628f55a4df523b3ef60405160405180910390a45050565b828054611e7890612d22565b90600052602060002090601f016020900481019282611e9a5760008555611ee1565b82601f10611eb357805160ff1916838001178555611ee1565b82800160010185558215611ee1579182015b82811115611ee0578251825591602001919060010190611ec5565b5b509050611eee9190611ef2565b5090565b5b80821115611f0b576000816000905550600101611ef3565b5090565b6000611f22611f1d84612ad3565b612aae565b905082815260208101848484011115611f3a57600080fd5b611f45848285612ce0565b509392505050565b6000611f60611f5b84612b04565b612aae565b905082815260208101848484011115611f7857600080fd5b611f83848285612ce0565b509392505050565b600081359050611f9a816133fd565b92915050565b600081359050611faf81613414565b92915050565b600081359050611fc48161342b565b92915050565b600081519050611fd98161342b565b92915050565b600082601f830112611ff057600080fd5b8135612000848260208601611f0f565b91505092915050565b600082601f83011261201a57600080fd5b813561202a848260208601611f4d565b91505092915050565b60008135905061204281613442565b92915050565b60006020828403121561205a57600080fd5b600061206884828501611f8b565b91505092915050565b6000806040838503121561208457600080fd5b600061209285828601611f8b565b92505060206120a385828601611f8b565b9150509250929050565b6000806000606084860312156120c257600080fd5b60006120d086828701611f8b565b93505060206120e186828701611f8b565b92505060406120f286828701612033565b9150509250925092565b6000806000806080858703121561211257600080fd5b600061212087828801611f8b565b945050602061213187828801611f8b565b935050604061214287828801612033565b925050606085013567ffffffffffffffff81111561215f57600080fd5b61216b87828801611fdf565b91505092959194509250565b6000806040838503121561218a57600080fd5b600061219885828601611f8b565b92505060206121a985828601611fa0565b9150509250929050565b6000806000606084860312156121c857600080fd5b60006121d686828701611f8b565b935050602084013567ffffffffffffffff8111156121f357600080fd5b6121ff86828701612009565b925050604084013567ffffffffffffffff81111561221c57600080fd5b61222886828701612009565b9150509250925092565b6000806040838503121561224557600080fd5b600061225385828601611f8b565b925050602061226485828601612033565b9150509250929050565b60006020828403121561228057600080fd5b600061228e84828501611fb5565b91505092915050565b6000602082840312156122a957600080fd5b60006122b784828501611fca565b91505092915050565b6000602082840312156122d257600080fd5b600082013567ffffffffffffffff8111156122ec57600080fd5b6122f884828501612009565b91505092915050565b60006020828403121561231357600080fd5b600061232184828501612033565b91505092915050565b600061233683836126ee565b60208301905092915050565b61234b81612c6c565b82525050565b61236261235d82612c6c565b612dce565b82525050565b600061237382612b45565b61237d8185612b73565b935061238883612b35565b8060005b838110156123b95781516123a0888261232a565b97506123ab83612b66565b92505060018101905061238c565b5085935050505092915050565b6123cf81612c7e565b82525050565b60006123e082612b50565b6123ea8185612b84565b93506123fa818560208601612cef565b61240381612ee9565b840191505092915050565b600061241982612b5b565b6124238185612b95565b9350612433818560208601612cef565b61243c81612ee9565b840191505092915050565b600061245282612b5b565b61245c8185612ba6565b935061246c818560208601612cef565b80840191505092915050565b6000612485603283612b95565b915061249082612f07565b604082019050919050565b60006124a8602683612b95565b91506124b382612f56565b604082019050919050565b60006124cb601c83612b95565b91506124d682612fa5565b602082019050919050565b60006124ee602483612b95565b91506124f982612fce565b604082019050919050565b6000612511601983612b95565b915061251c8261301d565b602082019050919050565b6000612534602c83612b95565b915061253f82613046565b604082019050919050565b6000612557603883612b95565b915061256282613095565b604082019050919050565b600061257a602a83612b95565b9150612585826130e4565b604082019050919050565b600061259d602983612b95565b91506125a882613133565b604082019050919050565b60006125c0602e83612b95565b91506125cb82613182565b604082019050919050565b60006125e3602083612b95565b91506125ee826131d1565b602082019050919050565b6000612606603183612b95565b9150612611826131fa565b604082019050919050565b6000612629602c83612b95565b915061263482613249565b604082019050919050565b600061264c602083612b95565b915061265782613298565b602082019050919050565b600061266f602983612b95565b915061267a826132c1565b604082019050919050565b6000612692602f83612b95565b915061269d82613310565b604082019050919050565b60006126b5602183612b95565b91506126c08261335f565b604082019050919050565b60006126d8603183612b95565b91506126e3826133ae565b604082019050919050565b6126f781612cd6565b82525050565b61270681612cd6565b82525050565b61271d61271882612cd6565b612df2565b82525050565b600061272f8287612351565b60148201915061273f8286612447565b915061274b8285612447565b9150612757828461270c565b60208201915081905095945050505050565b60006127758285612447565b91506127818284612447565b91508190509392505050565b60006020820190506127a26000830184612342565b92915050565b60006080820190506127bd6000830187612342565b6127ca6020830186612342565b6127d760408301856126fd565b81810360608301526127e981846123d5565b905095945050505050565b6000602082019050818103600083015261280e8184612368565b905092915050565b600060208201905061282b60008301846123c6565b92915050565b6000602082019050818103600083015261284b818461240e565b905092915050565b6000602082019050818103600083015261286c81612478565b9050919050565b6000602082019050818103600083015261288c8161249b565b9050919050565b600060208201905081810360008301526128ac816124be565b9050919050565b600060208201905081810360008301526128cc816124e1565b9050919050565b600060208201905081810360008301526128ec81612504565b9050919050565b6000602082019050818103600083015261290c81612527565b9050919050565b6000602082019050818103600083015261292c8161254a565b9050919050565b6000602082019050818103600083015261294c8161256d565b9050919050565b6000602082019050818103600083015261296c81612590565b9050919050565b6000602082019050818103600083015261298c816125b3565b9050919050565b600060208201905081810360008301526129ac816125d6565b9050919050565b600060208201905081810360008301526129cc816125f9565b9050919050565b600060208201905081810360008301526129ec8161261c565b9050919050565b60006020820190508181036000830152612a0c8161263f565b9050919050565b60006020820190508181036000830152612a2c81612662565b9050919050565b60006020820190508181036000830152612a4c81612685565b9050919050565b60006020820190508181036000830152612a6c816126a8565b9050919050565b60006020820190508181036000830152612a8c816126cb565b9050919050565b6000602082019050612aa860008301846126fd565b92915050565b6000612ab8612ac9565b9050612ac48282612d54565b919050565b6000604051905090565b600067ffffffffffffffff821115612aee57612aed612eba565b5b612af782612ee9565b9050602081019050919050565b600067ffffffffffffffff821115612b1f57612b1e612eba565b5b612b2882612ee9565b9050602081019050919050565b6000819050602082019050919050565b600081519050919050565b600081519050919050565b600081519050919050565b6000602082019050919050565b600082825260208201905092915050565b600082825260208201905092915050565b600082825260208201905092915050565b600081905092915050565b6000612bbc82612cd6565b9150612bc783612cd6565b9250827fffffffffffffffffffffffffffffffffffffffffffffffffffffffffffffffff03821115612bfc57612bfb612e2d565b5b828201905092915050565b6000612c1282612cd6565b9150612c1d83612cd6565b925082612c2d57612c2c612e5c565b5b828204905092915050565b6000612c4382612cd6565b9150612c4e83612cd6565b925082821015612c6157612c60612e2d565b5b828203905092915050565b6000612c7782612cb6565b9050919050565b60008115159050919050565b60007fffffffff0000000000000000000000000000000000000000000000000000000082169050919050565b600073ffffffffffffffffffffffffffffffffffffffff82169050919050565b6000819050919050565b82818337600083830152505050565b60005b83811015612d0d578082015181840152602081019050612cf2565b83811115612d1c576000848401525b50505050565b60006002820490506001821680612d3a57607f821691505b60208210811415612d4e57612d4d612e8b565b5b50919050565b612d5d82612ee9565b810181811067ffffffffffffffff82111715612d7c57612d7b612eba565b5b80604052505050565b6000612d9082612cd6565b91507fffffffffffffffffffffffffffffffffffffffffffffffffffffffffffffffff821415612dc357612dc2612e2d565b5b600182019050919050565b6000612dd982612de0565b9050919050565b6000612deb82612efa565b9050919050565b6000819050919050565b6000612e0782612cd6565b9150612e1283612cd6565b925082612e2257612e21612e5c565b5b828206905092915050565b7f4e487b7100000000000000000000000000000000000000000000000000000000600052601160045260246000fd5b7f4e487b7100000000000000000000000000000000000000000000000000000000600052601260045260246000fd5b7f4e487b7100000000000000000000000000000000000000000000000000000000600052602260045260246000fd5b7f4e487b7100000000000000000000000000000000000000000000000000000000600052604160045260246000fd5b6000601f19601f8301169050919050565b60008160601b9050919050565b7f4552433732313a207472616e7366657220746f206e6f6e20455243373231526560008201527f63656976657220696d706c656d656e7465720000000000000000000000000000602082015250565b7f4f776e61626c653a206e6577206f776e657220697320746865207a65726f206160008201527f6464726573730000000000000000000000000000000000000000000000000000602082015250565b7f4552433732313a20746f6b656e20616c7265616479206d696e74656400000000600082015250565b7f4552433732313a207472616e7366657220746f20746865207a65726f2061646460008201527f7265737300000000000000000000000000000000000000000000000000000000602082015250565b7f4552433732313a20617070726f766520746f2063616c6c657200000000000000600082015250565b7f4552433732313a206f70657261746f7220717565727920666f72206e6f6e657860008201527f697374656e7420746f6b656e0000000000000000000000000000000000000000602082015250565b7f4552433732313a20617070726f76652063616c6c6572206973206e6f74206f7760008201527f6e6572206e6f7220617070726f76656420666f7220616c6c0000000000000000602082015250565b7f4552433732313a2062616c616e636520717565727920666f7220746865207a6560008201527f726f206164647265737300000000000000000000000000000000000000000000602082015250565b7f4552433732313a206f776e657220717565727920666f72206e6f6e657869737460008201527f656e7420746f6b656e0000000000000000000000000000000000000000000000602082015250565b7f45524337323155524953746f726167653a2055524920736574206f66206e6f6e60008201527f6578697374656e7420746f6b656e000000000000000000000000000000000000602082015250565b7f4552433732313a206d696e7420746f20746865207a65726f2061646472657373600082015250565b7f45524337323155524953746f726167653a2055524920717565727920666f722060008201527f6e6f6e6578697374656e7420746f6b656e000000000000000000000000000000602082015250565b7f4552433732313a20617070726f76656420717565727920666f72206e6f6e657860008201527f697374656e7420746f6b656e0000000000000000000000000000000000000000602082015250565b7f4f776e61626c653a2063616c6c6572206973206e6f7420746865206f776e6572600082015250565b7f4552433732313a207472616e73666572206f6620746f6b656e2074686174206960008201527f73206e6f74206f776e0000000000000000000000000000000000000000000000602082015250565b7f4552433732314d657461646174613a2055524920717565727920666f72206e6f60008201527f6e6578697374656e7420746f6b656e0000000000000000000000000000000000602082015250565b7f4552433732313a20617070726f76616c20746f2063757272656e74206f776e6560008201527f7200000000000000000000000000000000000000000000000000000000000000602082015250565b7f4552433732313a207472616e736665722063616c6c6572206973206e6f74206f60008201527f776e6572206e6f7220617070726f766564000000000000000000000000000000602082015250565b61340681612c6c565b811461341157600080fd5b50565b61341d81612c7e565b811461342857600080fd5b50565b61343481612c8a565b811461343f57600080fd5b50565b61344b81612cd6565b811461345657600080fd5b5056fea26469706673582212208e0c22b2e99c64fd4ae0c2ccce208a5b2167dbdc292f3df226d4d911d06612ec64736f6c63430008040033",
  "immutableReferences": {},
  "source": "// SPDX-License-Identifier: MIT\npragma solidity ^0.8.0;\npragma experimental ABIEncoderV2;\n\nimport \"@openzeppelin/contracts/token/ERC721/extensions/ERC721URIStorage.sol\";\nimport \"@openzeppelin/contracts/access/Ownable.sol\";\n\ncontract ArticleNFT is ERC721URIStorage, Ownable {\n  string private _baseURIextended;\n  uint256[] public nftTokenIds;\n\n  constructor() ERC721(\"decentraStack\", \"DSTK\") {\n    // TODO deploy script to call `setBaseURI` instead of constructor\n    _baseURIextended = \"https://ipfs.io/ipfs/\";\n  }\n\n  function setBaseURI(string memory baseURI_) external onlyOwner() {\n    _baseURIextended = baseURI_;\n  }\n\n  function _baseURI() internal view virtual override returns (string memory) {\n    return _baseURIextended;\n  }\n\n  function getNftTokenIds() public view returns(uint256[] memory) {\n    return nftTokenIds;\n  }\n\n  function createCollectible(address _author, string memory _title, string memory _contentIpfsHash) public returns (uint256) {\n    uint256 newArticleId = uint256(keccak256(abi.encodePacked(_author, _title, _contentIpfsHash, block.timestamp)));\n    _safeMint(_author, newArticleId);\n    // calls ERC721URIStorage with `_contentIpfsHash` as the `tokenURI`\n    _setTokenURI(newArticleId, _contentIpfsHash);\n    nftTokenIds.push(newArticleId);\n    return newArticleId;\n  }\n}",
  "sourcePath": "/Users/db/Projects/decentraStack/contracts/ArticleNFT.sol",
  "compiler": {
    "name": "solc",
    "version": "0.8.4+commit.c7e474f2.Emscripten.clang"
  },
  "schemaVersion": "3.3.3",
  "updatedAt": "2021-05-27T00:26:59.034Z",
  "networkType": "ethereum",
  "devdoc": {
    "kind": "dev",
    "methods": {
      "approve(address,uint256)": {
        "details": "See {IERC721-approve}."
      },
      "balanceOf(address)": {
        "details": "See {IERC721-balanceOf}."
      },
      "getApproved(uint256)": {
        "details": "See {IERC721-getApproved}."
      },
      "isApprovedForAll(address,address)": {
        "details": "See {IERC721-isApprovedForAll}."
      },
      "name()": {
        "details": "See {IERC721Metadata-name}."
      },
      "owner()": {
        "details": "Returns the address of the current owner."
      },
      "ownerOf(uint256)": {
        "details": "See {IERC721-ownerOf}."
      },
      "renounceOwnership()": {
        "details": "Leaves the contract without owner. It will not be possible to call `onlyOwner` functions anymore. Can only be called by the current owner. NOTE: Renouncing ownership will leave the contract without an owner, thereby removing any functionality that is only available to the owner."
      },
      "safeTransferFrom(address,address,uint256)": {
        "details": "See {IERC721-safeTransferFrom}."
      },
      "safeTransferFrom(address,address,uint256,bytes)": {
        "details": "See {IERC721-safeTransferFrom}."
      },
      "setApprovalForAll(address,bool)": {
        "details": "See {IERC721-setApprovalForAll}."
      },
      "supportsInterface(bytes4)": {
        "details": "See {IERC165-supportsInterface}."
      },
      "symbol()": {
        "details": "See {IERC721Metadata-symbol}."
      },
      "tokenURI(uint256)": {
        "details": "See {IERC721Metadata-tokenURI}."
      },
      "transferFrom(address,address,uint256)": {
        "details": "See {IERC721-transferFrom}."
      },
      "transferOwnership(address)": {
        "details": "Transfers ownership of the contract to a new account (`newOwner`). Can only be called by the current owner."
      }
    },
    "version": 1
  },
  "userdoc": {
    "kind": "user",
    "methods": {},
    "version": 1
  }
}