{
  "contractName": "ArticleNFT",
  "abi": [
    {
      "inputs": [],
      "stateMutability": "nonpayable",
      "type": "constructor"
    },
    {
      "anonymous": false,
      "inputs": [
        {
          "indexed": true,
          "internalType": "address",
          "name": "owner",
          "type": "address"
        },
        {
          "indexed": true,
          "internalType": "address",
          "name": "approved",
          "type": "address"
        },
        {
          "indexed": true,
          "internalType": "uint256",
          "name": "tokenId",
          "type": "uint256"
        }
      ],
      "name": "Approval",
      "type": "event"
    },
    {
      "anonymous": false,
      "inputs": [
        {
          "indexed": true,
          "internalType": "address",
          "name": "owner",
          "type": "address"
        },
        {
          "indexed": true,
          "internalType": "address",
          "name": "operator",
          "type": "address"
        },
        {
          "indexed": false,
          "internalType": "bool",
          "name": "approved",
          "type": "bool"
        }
      ],
      "name": "ApprovalForAll",
      "type": "event"
    },
    {
      "anonymous": false,
      "inputs": [
        {
          "indexed": false,
          "internalType": "address",
          "name": "_owner",
          "type": "address"
        },
        {
          "indexed": false,
          "internalType": "uint256",
          "name": "_tokenId",
          "type": "uint256"
        },
        {
          "indexed": false,
          "internalType": "string",
          "name": "_tokenURI",
          "type": "string"
        }
      ],
      "name": "MintedArticleNFT",
      "type": "event"
    },
    {
      "anonymous": false,
      "inputs": [
        {
          "indexed": true,
          "internalType": "address",
          "name": "previousOwner",
          "type": "address"
        },
        {
          "indexed": true,
          "internalType": "address",
          "name": "newOwner",
          "type": "address"
        }
      ],
      "name": "OwnershipTransferred",
      "type": "event"
    },
    {
      "anonymous": false,
      "inputs": [
        {
          "indexed": true,
          "internalType": "address",
          "name": "from",
          "type": "address"
        },
        {
          "indexed": true,
          "internalType": "address",
          "name": "to",
          "type": "address"
        },
        {
          "indexed": true,
          "internalType": "uint256",
          "name": "tokenId",
          "type": "uint256"
        }
      ],
      "name": "Transfer",
      "type": "event"
    },
    {
      "inputs": [
        {
          "internalType": "address",
          "name": "to",
          "type": "address"
        },
        {
          "internalType": "uint256",
          "name": "tokenId",
          "type": "uint256"
        }
      ],
      "name": "approve",
      "outputs": [],
      "stateMutability": "nonpayable",
      "type": "function"
    },
    {
      "inputs": [
        {
          "internalType": "address",
          "name": "owner",
          "type": "address"
        }
      ],
      "name": "balanceOf",
      "outputs": [
        {
          "internalType": "uint256",
          "name": "",
          "type": "uint256"
        }
      ],
      "stateMutability": "view",
      "type": "function",
      "constant": true
    },
    {
      "inputs": [
        {
          "internalType": "uint256",
          "name": "tokenId",
          "type": "uint256"
        }
      ],
      "name": "getApproved",
      "outputs": [
        {
          "internalType": "address",
          "name": "",
          "type": "address"
        }
      ],
      "stateMutability": "view",
      "type": "function",
      "constant": true
    },
    {
      "inputs": [
        {
          "internalType": "address",
          "name": "owner",
          "type": "address"
        },
        {
          "internalType": "address",
          "name": "operator",
          "type": "address"
        }
      ],
      "name": "isApprovedForAll",
      "outputs": [
        {
          "internalType": "bool",
          "name": "",
          "type": "bool"
        }
      ],
      "stateMutability": "view",
      "type": "function",
      "constant": true
    },
    {
      "inputs": [],
      "name": "name",
      "outputs": [
        {
          "internalType": "string",
          "name": "",
          "type": "string"
        }
      ],
      "stateMutability": "view",
      "type": "function",
      "constant": true
    },
    {
      "inputs": [],
      "name": "owner",
      "outputs": [
        {
          "internalType": "address",
          "name": "",
          "type": "address"
        }
      ],
      "stateMutability": "view",
      "type": "function",
      "constant": true
    },
    {
      "inputs": [
        {
          "internalType": "uint256",
          "name": "tokenId",
          "type": "uint256"
        }
      ],
      "name": "ownerOf",
      "outputs": [
        {
          "internalType": "address",
          "name": "",
          "type": "address"
        }
      ],
      "stateMutability": "view",
      "type": "function",
      "constant": true
    },
    {
      "inputs": [],
      "name": "renounceOwnership",
      "outputs": [],
      "stateMutability": "nonpayable",
      "type": "function"
    },
    {
      "inputs": [
        {
          "internalType": "address",
          "name": "from",
          "type": "address"
        },
        {
          "internalType": "address",
          "name": "to",
          "type": "address"
        },
        {
          "internalType": "uint256",
          "name": "tokenId",
          "type": "uint256"
        }
      ],
      "name": "safeTransferFrom",
      "outputs": [],
      "stateMutability": "nonpayable",
      "type": "function"
    },
    {
      "inputs": [
        {
          "internalType": "address",
          "name": "from",
          "type": "address"
        },
        {
          "internalType": "address",
          "name": "to",
          "type": "address"
        },
        {
          "internalType": "uint256",
          "name": "tokenId",
          "type": "uint256"
        },
        {
          "internalType": "bytes",
          "name": "_data",
          "type": "bytes"
        }
      ],
      "name": "safeTransferFrom",
      "outputs": [],
      "stateMutability": "nonpayable",
      "type": "function"
    },
    {
      "inputs": [
        {
          "internalType": "address",
          "name": "operator",
          "type": "address"
        },
        {
          "internalType": "bool",
          "name": "approved",
          "type": "bool"
        }
      ],
      "name": "setApprovalForAll",
      "outputs": [],
      "stateMutability": "nonpayable",
      "type": "function"
    },
    {
      "inputs": [
        {
          "internalType": "bytes4",
          "name": "interfaceId",
          "type": "bytes4"
        }
      ],
      "name": "supportsInterface",
      "outputs": [
        {
          "internalType": "bool",
          "name": "",
          "type": "bool"
        }
      ],
      "stateMutability": "view",
      "type": "function",
      "constant": true
    },
    {
      "inputs": [],
      "name": "symbol",
      "outputs": [
        {
          "internalType": "string",
          "name": "",
          "type": "string"
        }
      ],
      "stateMutability": "view",
      "type": "function",
      "constant": true
    },
    {
      "inputs": [
        {
          "internalType": "uint256",
          "name": "tokenId",
          "type": "uint256"
        }
      ],
      "name": "tokenURI",
      "outputs": [
        {
          "internalType": "string",
          "name": "",
          "type": "string"
        }
      ],
      "stateMutability": "view",
      "type": "function",
      "constant": true
    },
    {
      "inputs": [
        {
          "internalType": "address",
          "name": "from",
          "type": "address"
        },
        {
          "internalType": "address",
          "name": "to",
          "type": "address"
        },
        {
          "internalType": "uint256",
          "name": "tokenId",
          "type": "uint256"
        }
      ],
      "name": "transferFrom",
      "outputs": [],
      "stateMutability": "nonpayable",
      "type": "function"
    },
    {
      "inputs": [
        {
          "internalType": "address",
          "name": "newOwner",
          "type": "address"
        }
      ],
      "name": "transferOwnership",
      "outputs": [],
      "stateMutability": "nonpayable",
      "type": "function"
    },
    {
      "inputs": [
        {
          "internalType": "string",
          "name": "baseURI_",
          "type": "string"
        }
      ],
      "name": "setBaseURI",
      "outputs": [],
      "stateMutability": "nonpayable",
      "type": "function"
    }
  ],
  "bytecode": "0x60806040523480156200001157600080fd5b506040518060400160405280600d81526020017f646563656e747261537461636b000000000000000000000000000000000000008152506040518060400160405280600481526020017f4453544b00000000000000000000000000000000000000000000000000000000815250816000908051906020019062000096929190620001bf565b508060019080519060200190620000af929190620001bf565b5050506000620000c4620001b760201b60201c565b905080600760006101000a81548173ffffffffffffffffffffffffffffffffffffffff021916908373ffffffffffffffffffffffffffffffffffffffff1602179055508073ffffffffffffffffffffffffffffffffffffffff16600073ffffffffffffffffffffffffffffffffffffffff167f8be0079c531659141344cd1fd0a4f28419497f9722a3daafe3b4186f6b6457e060405160405180910390a3506040518060400160405280601581526020017f68747470733a2f2f697066732e696f2f697066732f000000000000000000000081525060089080519060200190620001b0929190620001bf565b50620002d4565b600033905090565b828054620001cd906200026f565b90600052602060002090601f016020900481019282620001f157600085556200023d565b82601f106200020c57805160ff19168380011785556200023d565b828001600101855582156200023d579182015b828111156200023c5782518255916020019190600101906200021f565b5b5090506200024c919062000250565b5090565b5b808211156200026b57600081600090555060010162000251565b5090565b600060028204905060018216806200028857607f821691505b602082108114156200029f576200029e620002a5565b5b50919050565b7f4e487b7100000000000000000000000000000000000000000000000000000000600052602260045260246000fd5b612cfb80620002e46000396000f3fe608060405234801561001057600080fd5b506004361061010b5760003560e01c806370a08231116100a2578063a22cb46511610071578063a22cb465146102a4578063b88d4fde146102c0578063c87b56dd146102dc578063e985e9c51461030c578063f2fde38b1461033c5761010b565b806370a082311461022e578063715018a61461025e5780638da5cb5b1461026857806395d89b41146102865761010b565b806323b872dd116100de57806323b872dd146101aa57806342842e0e146101c657806355f804b3146101e25780636352211e146101fe5761010b565b806301ffc9a71461011057806306fdde0314610140578063081812fc1461015e578063095ea7b31461018e575b600080fd5b61012a60048036038101906101259190611d7c565b610358565b60405161013791906121b4565b60405180910390f35b61014861043a565b60405161015591906121cf565b60405180910390f35b61017860048036038101906101739190611e1f565b6104cc565b604051610185919061214d565b60405180910390f35b6101a860048036038101906101a39190611d3c565b610551565b005b6101c460048036038101906101bf9190611c26565b610669565b005b6101e060048036038101906101db9190611c26565b6106c9565b005b6101fc60048036038101906101f79190611dd6565b6106e9565b005b61021860048036038101906102139190611e1f565b61077f565b604051610225919061214d565b60405180910390f35b61024860048036038101906102439190611bb9565b610831565b60405161025591906123d1565b60405180910390f35b6102666108e9565b005b610270610a26565b60405161027d919061214d565b60405180910390f35b61028e610a50565b60405161029b91906121cf565b60405180910390f35b6102be60048036038101906102b99190611cfc565b610ae2565b005b6102da60048036038101906102d59190611c79565b610c63565b005b6102f660048036038101906102f19190611e1f565b610cc5565b60405161030391906121cf565b60405180910390f35b61032660048036038101906103219190611be6565b610e17565b60405161033391906121b4565b60405180910390f35b61035660048036038101906103519190611bb9565b610eab565b005b60007f80ac58cd000000000000000000000000000000000000000000000000000000007bffffffffffffffffffffffffffffffffffffffffffffffffffffffff1916827bffffffffffffffffffffffffffffffffffffffffffffffffffffffff1916148061042357507f5b5e139f000000000000000000000000000000000000000000000000000000007bffffffffffffffffffffffffffffffffffffffffffffffffffffffff1916827bffffffffffffffffffffffffffffffffffffffffffffffffffffffff1916145b80610433575061043282611057565b5b9050919050565b60606000805461044990612627565b80601f016020809104026020016040519081016040528092919081815260200182805461047590612627565b80156104c25780601f10610497576101008083540402835291602001916104c2565b820191906000526020600020905b8154815290600101906020018083116104a557829003601f168201915b5050505050905090565b60006104d7826110c1565b610516576040517f08c379a000000000000000000000000000000000000000000000000000000000815260040161050d90612311565b60405180910390fd5b6004600083815260200190815260200160002060009054906101000a900473ffffffffffffffffffffffffffffffffffffffff169050919050565b600061055c8261077f565b90508073ffffffffffffffffffffffffffffffffffffffff168373ffffffffffffffffffffffffffffffffffffffff1614156105cd576040517f08c379a00000000000000000000000000000000000000000000000000000000081526004016105c490612391565b60405180910390fd5b8073ffffffffffffffffffffffffffffffffffffffff166105ec61112d565b73ffffffffffffffffffffffffffffffffffffffff16148061061b575061061a8161061561112d565b610e17565b5b61065a576040517f08c379a000000000000000000000000000000000000000000000000000000000815260040161065190612291565b60405180910390fd5b6106648383611135565b505050565b61067a61067461112d565b826111ee565b6106b9576040517f08c379a00000000000000000000000000000000000000000000000000000000081526004016106b0906123b1565b60405180910390fd5b6106c48383836112cc565b505050565b6106e483838360405180602001604052806000815250610c63565b505050565b6106f161112d565b73ffffffffffffffffffffffffffffffffffffffff1661070f610a26565b73ffffffffffffffffffffffffffffffffffffffff1614610765576040517f08c379a000000000000000000000000000000000000000000000000000000000815260040161075c90612331565b60405180910390fd5b806008908051906020019061077b9291906119cd565b5050565b6000806002600084815260200190815260200160002060009054906101000a900473ffffffffffffffffffffffffffffffffffffffff169050600073ffffffffffffffffffffffffffffffffffffffff168173ffffffffffffffffffffffffffffffffffffffff161415610828576040517f08c379a000000000000000000000000000000000000000000000000000000000815260040161081f906122d1565b60405180910390fd5b80915050919050565b60008073ffffffffffffffffffffffffffffffffffffffff168273ffffffffffffffffffffffffffffffffffffffff1614156108a2576040517f08c379a0000000000000000000000000000000000000000000000000000000008152600401610899906122b1565b60405180910390fd5b600360008373ffffffffffffffffffffffffffffffffffffffff1673ffffffffffffffffffffffffffffffffffffffff168152602001908152602001600020549050919050565b6108f161112d565b73ffffffffffffffffffffffffffffffffffffffff1661090f610a26565b73ffffffffffffffffffffffffffffffffffffffff1614610965576040517f08c379a000000000000000000000000000000000000000000000000000000000815260040161095c90612331565b60405180910390fd5b600073ffffffffffffffffffffffffffffffffffffffff16600760009054906101000a900473ffffffffffffffffffffffffffffffffffffffff1673ffffffffffffffffffffffffffffffffffffffff167f8be0079c531659141344cd1fd0a4f28419497f9722a3daafe3b4186f6b6457e060405160405180910390a36000600760006101000a81548173ffffffffffffffffffffffffffffffffffffffff021916908373ffffffffffffffffffffffffffffffffffffffff160217905550565b6000600760009054906101000a900473ffffffffffffffffffffffffffffffffffffffff16905090565b606060018054610a5f90612627565b80601f0160208091040260200160405190810160405280929190818152602001828054610a8b90612627565b8015610ad85780601f10610aad57610100808354040283529160200191610ad8565b820191906000526020600020905b815481529060010190602001808311610abb57829003601f168201915b5050505050905090565b610aea61112d565b73ffffffffffffffffffffffffffffffffffffffff168273ffffffffffffffffffffffffffffffffffffffff161415610b58576040517f08c379a0000000000000000000000000000000000000000000000000000000008152600401610b4f90612251565b60405180910390fd5b8060056000610b6561112d565b73ffffffffffffffffffffffffffffffffffffffff1673ffffffffffffffffffffffffffffffffffffffff16815260200190815260200160002060008473ffffffffffffffffffffffffffffffffffffffff1673ffffffffffffffffffffffffffffffffffffffff16815260200190815260200160002060006101000a81548160ff0219169083151502179055508173ffffffffffffffffffffffffffffffffffffffff16610c1261112d565b73ffffffffffffffffffffffffffffffffffffffff167f17307eab39ab6107e8899845ad3d59bd9653f200f220920489ca2b5937696c3183604051610c5791906121b4565b60405180910390a35050565b610c74610c6e61112d565b836111ee565b610cb3576040517f08c379a0000000000000000000000000000000000000000000000000000000008152600401610caa906123b1565b60405180910390fd5b610cbf84848484611528565b50505050565b6060610cd0826110c1565b610d0f576040517f08c379a0000000000000000000000000000000000000000000000000000000008152600401610d06906122f1565b60405180910390fd5b6000600660008481526020019081526020016000208054610d2f90612627565b80601f0160208091040260200160405190810160405280929190818152602001828054610d5b90612627565b8015610da85780601f10610d7d57610100808354040283529160200191610da8565b820191906000526020600020905b815481529060010190602001808311610d8b57829003601f168201915b505050505090506000610db9611584565b9050600081511415610dcf578192505050610e12565b600082511115610e04578082604051602001610dec929190612129565b60405160208183030381529060405292505050610e12565b610e0d84611616565b925050505b919050565b6000600560008473ffffffffffffffffffffffffffffffffffffffff1673ffffffffffffffffffffffffffffffffffffffff16815260200190815260200160002060008373ffffffffffffffffffffffffffffffffffffffff1673ffffffffffffffffffffffffffffffffffffffff16815260200190815260200160002060009054906101000a900460ff16905092915050565b610eb361112d565b73ffffffffffffffffffffffffffffffffffffffff16610ed1610a26565b73ffffffffffffffffffffffffffffffffffffffff1614610f27576040517f08c379a0000000000000000000000000000000000000000000000000000000008152600401610f1e90612331565b60405180910390fd5b600073ffffffffffffffffffffffffffffffffffffffff168173ffffffffffffffffffffffffffffffffffffffff161415610f97576040517f08c379a0000000000000000000000000000000000000000000000000000000008152600401610f8e90612211565b60405180910390fd5b8073ffffffffffffffffffffffffffffffffffffffff16600760009054906101000a900473ffffffffffffffffffffffffffffffffffffffff1673ffffffffffffffffffffffffffffffffffffffff167f8be0079c531659141344cd1fd0a4f28419497f9722a3daafe3b4186f6b6457e060405160405180910390a380600760006101000a81548173ffffffffffffffffffffffffffffffffffffffff021916908373ffffffffffffffffffffffffffffffffffffffff16021790555050565b60007f01ffc9a7000000000000000000000000000000000000000000000000000000007bffffffffffffffffffffffffffffffffffffffffffffffffffffffff1916827bffffffffffffffffffffffffffffffffffffffffffffffffffffffff1916149050919050565b60008073ffffffffffffffffffffffffffffffffffffffff166002600084815260200190815260200160002060009054906101000a900473ffffffffffffffffffffffffffffffffffffffff1673ffffffffffffffffffffffffffffffffffffffff1614159050919050565b600033905090565b816004600083815260200190815260200160002060006101000a81548173ffffffffffffffffffffffffffffffffffffffff021916908373ffffffffffffffffffffffffffffffffffffffff160217905550808273ffffffffffffffffffffffffffffffffffffffff166111a88361077f565b73ffffffffffffffffffffffffffffffffffffffff167f8c5be1e5ebec7d5bd14f71427d1e84f3dd0314c0f7b2291e5b200ac8c7c3b92560405160405180910390a45050565b60006111f9826110c1565b611238576040517f08c379a000000000000000000000000000000000000000000000000000000000815260040161122f90612271565b60405180910390fd5b60006112438361077f565b90508073ffffffffffffffffffffffffffffffffffffffff168473ffffffffffffffffffffffffffffffffffffffff1614806112b257508373ffffffffffffffffffffffffffffffffffffffff1661129a846104cc565b73ffffffffffffffffffffffffffffffffffffffff16145b806112c357506112c28185610e17565b5b91505092915050565b8273ffffffffffffffffffffffffffffffffffffffff166112ec8261077f565b73ffffffffffffffffffffffffffffffffffffffff1614611342576040517f08c379a000000000000000000000000000000000000000000000000000000000815260040161133990612351565b60405180910390fd5b600073ffffffffffffffffffffffffffffffffffffffff168273ffffffffffffffffffffffffffffffffffffffff1614156113b2576040517f08c379a00000000000000000000000000000000000000000000000000000000081526004016113a990612231565b60405180910390fd5b6113bd8383836116bd565b6113c8600082611135565b6001600360008573ffffffffffffffffffffffffffffffffffffffff1673ffffffffffffffffffffffffffffffffffffffff1681526020019081526020016000206000828254611418919061253d565b925050819055506001600360008473ffffffffffffffffffffffffffffffffffffffff1673ffffffffffffffffffffffffffffffffffffffff168152602001908152602001600020600082825461146f91906124b6565b92505081905550816002600083815260200190815260200160002060006101000a81548173ffffffffffffffffffffffffffffffffffffffff021916908373ffffffffffffffffffffffffffffffffffffffff160217905550808273ffffffffffffffffffffffffffffffffffffffff168473ffffffffffffffffffffffffffffffffffffffff167fddf252ad1be2c89b69c2b068fc378daa952ba7f163c4a11628f55a4df523b3ef60405160405180910390a4505050565b6115338484846112cc565b61153f848484846116c2565b61157e576040517f08c379a0000000000000000000000000000000000000000000000000000000008152600401611575906121f1565b60405180910390fd5b50505050565b60606008805461159390612627565b80601f01602080910402602001604051908101604052809291908181526020018280546115bf90612627565b801561160c5780601f106115e15761010080835404028352916020019161160c565b820191906000526020600020905b8154815290600101906020018083116115ef57829003601f168201915b5050505050905090565b6060611621826110c1565b611660576040517f08c379a000000000000000000000000000000000000000000000000000000000815260040161165790612371565b60405180910390fd5b600061166a611584565b9050600081511161168a57604051806020016040528060008152506116b5565b8061169484611859565b6040516020016116a5929190612129565b6040516020818303038152906040525b915050919050565b505050565b60006116e38473ffffffffffffffffffffffffffffffffffffffff166119ba565b1561184c578373ffffffffffffffffffffffffffffffffffffffff1663150b7a0261170c61112d565b8786866040518563ffffffff1660e01b815260040161172e9493929190612168565b602060405180830381600087803b15801561174857600080fd5b505af192505050801561177957506040513d601f19601f820116820180604052508101906117769190611da9565b60015b6117fc573d80600081146117a9576040519150601f19603f3d011682016040523d82523d6000602084013e6117ae565b606091505b506000815114156117f4576040517f08c379a00000000000000000000000000000000000000000000000000000000081526004016117eb906121f1565b60405180910390fd5b805181602001fd5b63150b7a0260e01b7bffffffffffffffffffffffffffffffffffffffffffffffffffffffff1916817bffffffffffffffffffffffffffffffffffffffffffffffffffffffff191614915050611851565b600190505b949350505050565b606060008214156118a1576040518060400160405280600181526020017f300000000000000000000000000000000000000000000000000000000000000081525090506119b5565b600082905060005b600082146118d35780806118bc9061268a565b915050600a826118cc919061250c565b91506118a9565b60008167ffffffffffffffff8111156118ef576118ee6127c0565b5b6040519080825280601f01601f1916602001820160405280156119215781602001600182028036833780820191505090505b5090505b600085146119ae5760018261193a919061253d565b9150600a8561194991906126d3565b603061195591906124b6565b60f81b81838151811061196b5761196a612791565b5b60200101907effffffffffffffffffffffffffffffffffffffffffffffffffffffffffffff1916908160001a905350600a856119a7919061250c565b9450611925565b8093505050505b919050565b600080823b905060008111915050919050565b8280546119d990612627565b90600052602060002090601f0160209004810192826119fb5760008555611a42565b82601f10611a1457805160ff1916838001178555611a42565b82800160010185558215611a42579182015b82811115611a41578251825591602001919060010190611a26565b5b509050611a4f9190611a53565b5090565b5b80821115611a6c576000816000905550600101611a54565b5090565b6000611a83611a7e84612411565b6123ec565b905082815260208101848484011115611a9f57611a9e6127f4565b5b611aaa8482856125e5565b509392505050565b6000611ac5611ac084612442565b6123ec565b905082815260208101848484011115611ae157611ae06127f4565b5b611aec8482856125e5565b509392505050565b600081359050611b0381612c69565b92915050565b600081359050611b1881612c80565b92915050565b600081359050611b2d81612c97565b92915050565b600081519050611b4281612c97565b92915050565b600082601f830112611b5d57611b5c6127ef565b5b8135611b6d848260208601611a70565b91505092915050565b600082601f830112611b8b57611b8a6127ef565b5b8135611b9b848260208601611ab2565b91505092915050565b600081359050611bb381612cae565b92915050565b600060208284031215611bcf57611bce6127fe565b5b6000611bdd84828501611af4565b91505092915050565b60008060408385031215611bfd57611bfc6127fe565b5b6000611c0b85828601611af4565b9250506020611c1c85828601611af4565b9150509250929050565b600080600060608486031215611c3f57611c3e6127fe565b5b6000611c4d86828701611af4565b9350506020611c5e86828701611af4565b9250506040611c6f86828701611ba4565b9150509250925092565b60008060008060808587031215611c9357611c926127fe565b5b6000611ca187828801611af4565b9450506020611cb287828801611af4565b9350506040611cc387828801611ba4565b925050606085013567ffffffffffffffff811115611ce457611ce36127f9565b5b611cf087828801611b48565b91505092959194509250565b60008060408385031215611d1357611d126127fe565b5b6000611d2185828601611af4565b9250506020611d3285828601611b09565b9150509250929050565b60008060408385031215611d5357611d526127fe565b5b6000611d6185828601611af4565b9250506020611d7285828601611ba4565b9150509250929050565b600060208284031215611d9257611d916127fe565b5b6000611da084828501611b1e565b91505092915050565b600060208284031215611dbf57611dbe6127fe565b5b6000611dcd84828501611b33565b91505092915050565b600060208284031215611dec57611deb6127fe565b5b600082013567ffffffffffffffff811115611e0a57611e096127f9565b5b611e1684828501611b76565b91505092915050565b600060208284031215611e3557611e346127fe565b5b6000611e4384828501611ba4565b91505092915050565b611e5581612571565b82525050565b611e6481612583565b82525050565b6000611e7582612473565b611e7f8185612489565b9350611e8f8185602086016125f4565b611e9881612803565b840191505092915050565b6000611eae8261247e565b611eb8818561249a565b9350611ec88185602086016125f4565b611ed181612803565b840191505092915050565b6000611ee78261247e565b611ef181856124ab565b9350611f018185602086016125f4565b80840191505092915050565b6000611f1a60328361249a565b9150611f2582612814565b604082019050919050565b6000611f3d60268361249a565b9150611f4882612863565b604082019050919050565b6000611f6060248361249a565b9150611f6b826128b2565b604082019050919050565b6000611f8360198361249a565b9150611f8e82612901565b602082019050919050565b6000611fa6602c8361249a565b9150611fb18261292a565b604082019050919050565b6000611fc960388361249a565b9150611fd482612979565b604082019050919050565b6000611fec602a8361249a565b9150611ff7826129c8565b604082019050919050565b600061200f60298361249a565b915061201a82612a17565b604082019050919050565b600061203260318361249a565b915061203d82612a66565b604082019050919050565b6000612055602c8361249a565b915061206082612ab5565b604082019050919050565b600061207860208361249a565b915061208382612b04565b602082019050919050565b600061209b60298361249a565b91506120a682612b2d565b604082019050919050565b60006120be602f8361249a565b91506120c982612b7c565b604082019050919050565b60006120e160218361249a565b91506120ec82612bcb565b604082019050919050565b600061210460318361249a565b915061210f82612c1a565b604082019050919050565b612123816125db565b82525050565b60006121358285611edc565b91506121418284611edc565b91508190509392505050565b60006020820190506121626000830184611e4c565b92915050565b600060808201905061217d6000830187611e4c565b61218a6020830186611e4c565b612197604083018561211a565b81810360608301526121a98184611e6a565b905095945050505050565b60006020820190506121c96000830184611e5b565b92915050565b600060208201905081810360008301526121e98184611ea3565b905092915050565b6000602082019050818103600083015261220a81611f0d565b9050919050565b6000602082019050818103600083015261222a81611f30565b9050919050565b6000602082019050818103600083015261224a81611f53565b9050919050565b6000602082019050818103600083015261226a81611f76565b9050919050565b6000602082019050818103600083015261228a81611f99565b9050919050565b600060208201905081810360008301526122aa81611fbc565b9050919050565b600060208201905081810360008301526122ca81611fdf565b9050919050565b600060208201905081810360008301526122ea81612002565b9050919050565b6000602082019050818103600083015261230a81612025565b9050919050565b6000602082019050818103600083015261232a81612048565b9050919050565b6000602082019050818103600083015261234a8161206b565b9050919050565b6000602082019050818103600083015261236a8161208e565b9050919050565b6000602082019050818103600083015261238a816120b1565b9050919050565b600060208201905081810360008301526123aa816120d4565b9050919050565b600060208201905081810360008301526123ca816120f7565b9050919050565b60006020820190506123e6600083018461211a565b92915050565b60006123f6612407565b90506124028282612659565b919050565b6000604051905090565b600067ffffffffffffffff82111561242c5761242b6127c0565b5b61243582612803565b9050602081019050919050565b600067ffffffffffffffff82111561245d5761245c6127c0565b5b61246682612803565b9050602081019050919050565b600081519050919050565b600081519050919050565b600082825260208201905092915050565b600082825260208201905092915050565b600081905092915050565b60006124c1826125db565b91506124cc836125db565b9250827fffffffffffffffffffffffffffffffffffffffffffffffffffffffffffffffff0382111561250157612500612704565b5b828201905092915050565b6000612517826125db565b9150612522836125db565b92508261253257612531612733565b5b828204905092915050565b6000612548826125db565b9150612553836125db565b92508282101561256657612565612704565b5b828203905092915050565b600061257c826125bb565b9050919050565b60008115159050919050565b60007fffffffff0000000000000000000000000000000000000000000000000000000082169050919050565b600073ffffffffffffffffffffffffffffffffffffffff82169050919050565b6000819050919050565b82818337600083830152505050565b60005b838110156126125780820151818401526020810190506125f7565b83811115612621576000848401525b50505050565b6000600282049050600182168061263f57607f821691505b6020821081141561265357612652612762565b5b50919050565b61266282612803565b810181811067ffffffffffffffff82111715612681576126806127c0565b5b80604052505050565b6000612695826125db565b91507fffffffffffffffffffffffffffffffffffffffffffffffffffffffffffffffff8214156126c8576126c7612704565b5b600182019050919050565b60006126de826125db565b91506126e9836125db565b9250826126f9576126f8612733565b5b828206905092915050565b7f4e487b7100000000000000000000000000000000000000000000000000000000600052601160045260246000fd5b7f4e487b7100000000000000000000000000000000000000000000000000000000600052601260045260246000fd5b7f4e487b7100000000000000000000000000000000000000000000000000000000600052602260045260246000fd5b7f4e487b7100000000000000000000000000000000000000000000000000000000600052603260045260246000fd5b7f4e487b7100000000000000000000000000000000000000000000000000000000600052604160045260246000fd5b600080fd5b600080fd5b600080fd5b600080fd5b6000601f19601f8301169050919050565b7f4552433732313a207472616e7366657220746f206e6f6e20455243373231526560008201527f63656976657220696d706c656d656e7465720000000000000000000000000000602082015250565b7f4f776e61626c653a206e6577206f776e657220697320746865207a65726f206160008201527f6464726573730000000000000000000000000000000000000000000000000000602082015250565b7f4552433732313a207472616e7366657220746f20746865207a65726f2061646460008201527f7265737300000000000000000000000000000000000000000000000000000000602082015250565b7f4552433732313a20617070726f766520746f2063616c6c657200000000000000600082015250565b7f4552433732313a206f70657261746f7220717565727920666f72206e6f6e657860008201527f697374656e7420746f6b656e0000000000000000000000000000000000000000602082015250565b7f4552433732313a20617070726f76652063616c6c6572206973206e6f74206f7760008201527f6e6572206e6f7220617070726f76656420666f7220616c6c0000000000000000602082015250565b7f4552433732313a2062616c616e636520717565727920666f7220746865207a6560008201527f726f206164647265737300000000000000000000000000000000000000000000602082015250565b7f4552433732313a206f776e657220717565727920666f72206e6f6e657869737460008201527f656e7420746f6b656e0000000000000000000000000000000000000000000000602082015250565b7f45524337323155524953746f726167653a2055524920717565727920666f722060008201527f6e6f6e6578697374656e7420746f6b656e000000000000000000000000000000602082015250565b7f4552433732313a20617070726f76656420717565727920666f72206e6f6e657860008201527f697374656e7420746f6b656e0000000000000000000000000000000000000000602082015250565b7f4f776e61626c653a2063616c6c6572206973206e6f7420746865206f776e6572600082015250565b7f4552433732313a207472616e73666572206f6620746f6b656e2074686174206960008201527f73206e6f74206f776e0000000000000000000000000000000000000000000000602082015250565b7f4552433732314d657461646174613a2055524920717565727920666f72206e6f60008201527f6e6578697374656e7420746f6b656e0000000000000000000000000000000000602082015250565b7f4552433732313a20617070726f76616c20746f2063757272656e74206f776e6560008201527f7200000000000000000000000000000000000000000000000000000000000000602082015250565b7f4552433732313a207472616e736665722063616c6c6572206973206e6f74206f60008201527f776e6572206e6f7220617070726f766564000000000000000000000000000000602082015250565b612c7281612571565b8114612c7d57600080fd5b50565b612c8981612583565b8114612c9457600080fd5b50565b612ca08161258f565b8114612cab57600080fd5b50565b612cb7816125db565b8114612cc257600080fd5b5056fea26469706673582212204a53fd7f65c40f4967e6e85d0dbb97c90d0ce3ce1408298b6b8d7423c9671ede64736f6c63430008070033",
  "immutableReferences": {},
  "source": "// SPDX-License-Identifier: MIT\npragma solidity ^0.8.0;\npragma experimental ABIEncoderV2;\n\nimport \"@openzeppelin/contracts/token/ERC721/extensions/ERC721URIStorage.sol\";\nimport \"@openzeppelin/contracts/access/Ownable.sol\";\n\n/**\n * @dev extends ERC721 contract to mint articles as an NFT, as part of the decentraStack \"DSTK\" collection\n */\ncontract ArticleNFT is ERC721URIStorage, Ownable {\n  string private _baseURIextended;\n\n  // @dev Set the NFT base URI upon deployment\n  constructor() ERC721(\"decentraStack\", \"DSTK\") {\n    _baseURIextended = \"https://ipfs.io/ipfs/\";\n  }\n\n  /** \n   * @dev emit an event whenever a new article is minted as an NFT\n  */\n  event MintedArticleNFT(address _owner, uint256 _tokenId, string _tokenURI);\n\n  /**\n   * @dev update the base URI in case of changes in future providers\n   * @param baseURI_ new value, replacing _baseURIextended in storage\n   */\n  function setBaseURI(string memory baseURI_) external onlyOwner() {\n    _baseURIextended = baseURI_;\n  }\n\n  /**\n   * @dev override ERC721URIStorage function\n   */\n  function _baseURI() internal view virtual override returns (string memory) {\n    return _baseURIextended;\n  }\n\n  /**\n   * @dev calculate the unique NFT tokenId & mint the NFT\n   * @param _author address of the article's authoring user\n   * @param _title title of the original article\n   * @param _contentIpfsHash ipfs hash, storing ONLY the content / body of the article\n   */\n  function createCollectible(address _author, string memory _title, string memory _contentIpfsHash) internal returns (uint256) {\n    uint256 newArticleId = uint256(keccak256(abi.encodePacked(_author, _title, _contentIpfsHash, block.timestamp)));\n    // Calls ERC721 with `newArticleId` as `tokenId`\n    _safeMint(_author, newArticleId);\n    // Calls ERC721URIStorage with `_contentIpfsHash` as the `tokenURI`\n    _setTokenURI(newArticleId, _contentIpfsHash);\n    \n    emit MintedArticleNFT(_author, newArticleId, _contentIpfsHash);\n    return newArticleId;\n  }\n}",
  "sourcePath": "/Users/db/Projects/decentraStack/contracts/ArticleNFT.sol",
  "compiler": {
    "name": "solc",
    "version": "0.8.7+commit.e28d00a7.Emscripten.clang"
  },
  "schemaVersion": "3.3.3",
  "updatedAt": "2021-09-13T20:31:30.158Z",
  "networkType": "ethereum",
  "devdoc": {
    "details": "extends ERC721 contract to mint articles as an NFT, as part of the decentraStack \"DSTK\" collection",
    "events": {
      "MintedArticleNFT(address,uint256,string)": {
        "details": "emit an event whenever a new article is minted as an NFT"
      }
    },
    "kind": "dev",
    "methods": {
      "approve(address,uint256)": {
        "details": "See {IERC721-approve}."
      },
      "balanceOf(address)": {
        "details": "See {IERC721-balanceOf}."
      },
      "getApproved(uint256)": {
        "details": "See {IERC721-getApproved}."
      },
      "isApprovedForAll(address,address)": {
        "details": "See {IERC721-isApprovedForAll}."
      },
      "name()": {
        "details": "See {IERC721Metadata-name}."
      },
      "owner()": {
        "details": "Returns the address of the current owner."
      },
      "ownerOf(uint256)": {
        "details": "See {IERC721-ownerOf}."
      },
      "renounceOwnership()": {
        "details": "Leaves the contract without owner. It will not be possible to call `onlyOwner` functions anymore. Can only be called by the current owner. NOTE: Renouncing ownership will leave the contract without an owner, thereby removing any functionality that is only available to the owner."
      },
      "safeTransferFrom(address,address,uint256)": {
        "details": "See {IERC721-safeTransferFrom}."
      },
      "safeTransferFrom(address,address,uint256,bytes)": {
        "details": "See {IERC721-safeTransferFrom}."
      },
      "setApprovalForAll(address,bool)": {
        "details": "See {IERC721-setApprovalForAll}."
      },
      "setBaseURI(string)": {
        "details": "update the base URI in case of changes in future providers",
        "params": {
          "baseURI_": "new value, replacing _baseURIextended in storage"
        }
      },
      "supportsInterface(bytes4)": {
        "details": "See {IERC165-supportsInterface}."
      },
      "symbol()": {
        "details": "See {IERC721Metadata-symbol}."
      },
      "tokenURI(uint256)": {
        "details": "See {IERC721Metadata-tokenURI}."
      },
      "transferFrom(address,address,uint256)": {
        "details": "See {IERC721-transferFrom}."
      },
      "transferOwnership(address)": {
        "details": "Transfers ownership of the contract to a new account (`newOwner`). Can only be called by the current owner."
      }
    },
    "version": 1
  },
  "userdoc": {
    "kind": "user",
    "methods": {},
    "version": 1
  }
}