{
  "contractName": "ArticleNFT",
  "abi": [
    {
      "inputs": [],
      "stateMutability": "nonpayable",
      "type": "constructor"
    },
    {
      "anonymous": false,
      "inputs": [
        {
          "indexed": true,
          "internalType": "address",
          "name": "owner",
          "type": "address"
        },
        {
          "indexed": true,
          "internalType": "address",
          "name": "approved",
          "type": "address"
        },
        {
          "indexed": true,
          "internalType": "uint256",
          "name": "tokenId",
          "type": "uint256"
        }
      ],
      "name": "Approval",
      "type": "event"
    },
    {
      "anonymous": false,
      "inputs": [
        {
          "indexed": true,
          "internalType": "address",
          "name": "owner",
          "type": "address"
        },
        {
          "indexed": true,
          "internalType": "address",
          "name": "operator",
          "type": "address"
        },
        {
          "indexed": false,
          "internalType": "bool",
          "name": "approved",
          "type": "bool"
        }
      ],
      "name": "ApprovalForAll",
      "type": "event"
    },
    {
      "anonymous": false,
      "inputs": [
        {
          "indexed": true,
          "internalType": "address",
          "name": "previousOwner",
          "type": "address"
        },
        {
          "indexed": true,
          "internalType": "address",
          "name": "newOwner",
          "type": "address"
        }
      ],
      "name": "OwnershipTransferred",
      "type": "event"
    },
    {
      "anonymous": false,
      "inputs": [
        {
          "indexed": true,
          "internalType": "address",
          "name": "from",
          "type": "address"
        },
        {
          "indexed": true,
          "internalType": "address",
          "name": "to",
          "type": "address"
        },
        {
          "indexed": true,
          "internalType": "uint256",
          "name": "tokenId",
          "type": "uint256"
        }
      ],
      "name": "Transfer",
      "type": "event"
    },
    {
      "inputs": [],
      "name": "_name",
      "outputs": [
        {
          "internalType": "string",
          "name": "",
          "type": "string"
        }
      ],
      "stateMutability": "view",
      "type": "function",
      "constant": true
    },
    {
      "inputs": [],
      "name": "_symbol",
      "outputs": [
        {
          "internalType": "string",
          "name": "",
          "type": "string"
        }
      ],
      "stateMutability": "view",
      "type": "function",
      "constant": true
    },
    {
      "inputs": [
        {
          "internalType": "address",
          "name": "to",
          "type": "address"
        },
        {
          "internalType": "uint256",
          "name": "tokenId",
          "type": "uint256"
        }
      ],
      "name": "approve",
      "outputs": [],
      "stateMutability": "nonpayable",
      "type": "function"
    },
    {
      "inputs": [
        {
          "internalType": "address",
          "name": "owner",
          "type": "address"
        }
      ],
      "name": "balanceOf",
      "outputs": [
        {
          "internalType": "uint256",
          "name": "",
          "type": "uint256"
        }
      ],
      "stateMutability": "view",
      "type": "function",
      "constant": true
    },
    {
      "inputs": [
        {
          "internalType": "uint256",
          "name": "tokenId",
          "type": "uint256"
        }
      ],
      "name": "getApproved",
      "outputs": [
        {
          "internalType": "address",
          "name": "",
          "type": "address"
        }
      ],
      "stateMutability": "view",
      "type": "function",
      "constant": true
    },
    {
      "inputs": [
        {
          "internalType": "address",
          "name": "owner",
          "type": "address"
        },
        {
          "internalType": "address",
          "name": "operator",
          "type": "address"
        }
      ],
      "name": "isApprovedForAll",
      "outputs": [
        {
          "internalType": "bool",
          "name": "",
          "type": "bool"
        }
      ],
      "stateMutability": "view",
      "type": "function",
      "constant": true
    },
    {
      "inputs": [],
      "name": "name",
      "outputs": [
        {
          "internalType": "string",
          "name": "",
          "type": "string"
        }
      ],
      "stateMutability": "view",
      "type": "function",
      "constant": true
    },
    {
      "inputs": [],
      "name": "owner",
      "outputs": [
        {
          "internalType": "address",
          "name": "",
          "type": "address"
        }
      ],
      "stateMutability": "view",
      "type": "function",
      "constant": true
    },
    {
      "inputs": [
        {
          "internalType": "uint256",
          "name": "tokenId",
          "type": "uint256"
        }
      ],
      "name": "ownerOf",
      "outputs": [
        {
          "internalType": "address",
          "name": "",
          "type": "address"
        }
      ],
      "stateMutability": "view",
      "type": "function",
      "constant": true
    },
    {
      "inputs": [],
      "name": "renounceOwnership",
      "outputs": [],
      "stateMutability": "nonpayable",
      "type": "function"
    },
    {
      "inputs": [
        {
          "internalType": "address",
          "name": "from",
          "type": "address"
        },
        {
          "internalType": "address",
          "name": "to",
          "type": "address"
        },
        {
          "internalType": "uint256",
          "name": "tokenId",
          "type": "uint256"
        }
      ],
      "name": "safeTransferFrom",
      "outputs": [],
      "stateMutability": "nonpayable",
      "type": "function"
    },
    {
      "inputs": [
        {
          "internalType": "address",
          "name": "from",
          "type": "address"
        },
        {
          "internalType": "address",
          "name": "to",
          "type": "address"
        },
        {
          "internalType": "uint256",
          "name": "tokenId",
          "type": "uint256"
        },
        {
          "internalType": "bytes",
          "name": "_data",
          "type": "bytes"
        }
      ],
      "name": "safeTransferFrom",
      "outputs": [],
      "stateMutability": "nonpayable",
      "type": "function"
    },
    {
      "inputs": [
        {
          "internalType": "address",
          "name": "operator",
          "type": "address"
        },
        {
          "internalType": "bool",
          "name": "approved",
          "type": "bool"
        }
      ],
      "name": "setApprovalForAll",
      "outputs": [],
      "stateMutability": "nonpayable",
      "type": "function"
    },
    {
      "inputs": [
        {
          "internalType": "bytes4",
          "name": "interfaceId",
          "type": "bytes4"
        }
      ],
      "name": "supportsInterface",
      "outputs": [
        {
          "internalType": "bool",
          "name": "",
          "type": "bool"
        }
      ],
      "stateMutability": "view",
      "type": "function",
      "constant": true
    },
    {
      "inputs": [],
      "name": "symbol",
      "outputs": [
        {
          "internalType": "string",
          "name": "",
          "type": "string"
        }
      ],
      "stateMutability": "view",
      "type": "function",
      "constant": true
    },
    {
      "inputs": [
        {
          "internalType": "uint256",
          "name": "tokenId",
          "type": "uint256"
        }
      ],
      "name": "tokenURI",
      "outputs": [
        {
          "internalType": "string",
          "name": "",
          "type": "string"
        }
      ],
      "stateMutability": "view",
      "type": "function",
      "constant": true
    },
    {
      "inputs": [
        {
          "internalType": "address",
          "name": "from",
          "type": "address"
        },
        {
          "internalType": "address",
          "name": "to",
          "type": "address"
        },
        {
          "internalType": "uint256",
          "name": "tokenId",
          "type": "uint256"
        }
      ],
      "name": "transferFrom",
      "outputs": [],
      "stateMutability": "nonpayable",
      "type": "function"
    },
    {
      "inputs": [
        {
          "internalType": "address",
          "name": "newOwner",
          "type": "address"
        }
      ],
      "name": "transferOwnership",
      "outputs": [],
      "stateMutability": "nonpayable",
      "type": "function"
    },
    {
      "inputs": [
        {
          "internalType": "string",
          "name": "baseURI_",
          "type": "string"
        }
      ],
      "name": "setBaseURI",
      "outputs": [],
      "stateMutability": "nonpayable",
      "type": "function"
    },
    {
      "inputs": [
        {
          "internalType": "address",
          "name": "_author",
          "type": "address"
        },
        {
          "internalType": "string",
          "name": "_title",
          "type": "string"
        },
        {
          "internalType": "string",
          "name": "_contentIpfsHash",
          "type": "string"
        }
      ],
      "name": "createCollectible",
      "outputs": [
        {
          "internalType": "uint256",
          "name": "",
          "type": "uint256"
        }
      ],
      "stateMutability": "nonpayable",
      "type": "function"
    }
  ],
  "bytecode": "0x60806040523480156200001157600080fd5b506040518060400160405280600d81526020017f646563656e747261537461636b000000000000000000000000000000000000008152506040518060400160405280600481526020017f4453544b00000000000000000000000000000000000000000000000000000000815250816000908051906020019062000096929190620001bf565b508060019080519060200190620000af929190620001bf565b5050506000620000c4620001b760201b60201c565b905080600760006101000a81548173ffffffffffffffffffffffffffffffffffffffff021916908373ffffffffffffffffffffffffffffffffffffffff1602179055508073ffffffffffffffffffffffffffffffffffffffff16600073ffffffffffffffffffffffffffffffffffffffff167f8be0079c531659141344cd1fd0a4f28419497f9722a3daafe3b4186f6b6457e060405160405180910390a3506040518060400160405280601581526020017f68747470733a2f2f697066732e696f2f697066732f000000000000000000000081525060089080519060200190620001b0929190620001bf565b50620002d4565b600033905090565b828054620001cd906200026f565b90600052602060002090601f016020900481019282620001f157600085556200023d565b82601f106200020c57805160ff19168380011785556200023d565b828001600101855582156200023d579182015b828111156200023c5782518255916020019190600101906200021f565b5b5090506200024c919062000250565b5090565b5b808211156200026b57600081600090555060010162000251565b5090565b600060028204905060018216806200028857607f821691505b602082108114156200029f576200029e620002a5565b5b50919050565b7f4e487b7100000000000000000000000000000000000000000000000000000000600052602260045260246000fd5b61336a80620002e46000396000f3fe608060405234801561001057600080fd5b506004361061012c5760003560e01c80638da5cb5b116100ad578063c87b56dd11610071578063c87b56dd1461031b578063d28d88521461034b578063e985e9c514610369578063f16dd9a214610399578063f2fde38b146103c95761012c565b80638da5cb5b1461028957806395d89b41146102a7578063a22cb465146102c5578063b09f1266146102e1578063b88d4fde146102ff5761012c565b806342842e0e116100f457806342842e0e146101e757806355f804b3146102035780636352211e1461021f57806370a082311461024f578063715018a61461027f5761012c565b806301ffc9a71461013157806306fdde0314610161578063081812fc1461017f578063095ea7b3146101af57806323b872dd146101cb575b600080fd5b61014b60048036038101906101469190612229565b6103e5565b604051610158919061272a565b60405180910390f35b6101696104c7565b6040516101769190612745565b60405180910390f35b610199600480360381019061019491906122bc565b610559565b6040516101a691906126c3565b60405180910390f35b6101c960048036038101906101c491906121ed565b6105de565b005b6101e560048036038101906101e09190612068565b6106f6565b005b61020160048036038101906101fc9190612068565b610756565b005b61021d6004803603810190610218919061227b565b610776565b005b610239600480360381019061023491906122bc565b61080c565b60405161024691906126c3565b60405180910390f35b61026960048036038101906102649190612003565b6108be565b60405161027691906129a7565b60405180910390f35b610287610976565b005b610291610ab3565b60405161029e91906126c3565b60405180910390f35b6102af610add565b6040516102bc9190612745565b60405180910390f35b6102df60048036038101906102da9190612132565b610b6f565b005b6102e9610cf0565b6040516102f69190612745565b60405180910390f35b610319600480360381019061031491906120b7565b610d29565b005b610335600480360381019061033091906122bc565b610d8b565b6040516103429190612745565b60405180910390f35b610353610edd565b6040516103609190612745565b60405180910390f35b610383600480360381019061037e919061202c565b610f16565b604051610390919061272a565b60405180910390f35b6103b360048036038101906103ae919061216e565b610faa565b6040516103c091906129a7565b60405180910390f35b6103e360048036038101906103de9190612003565b610ffe565b005b60007f80ac58cd000000000000000000000000000000000000000000000000000000007bffffffffffffffffffffffffffffffffffffffffffffffffffffffff1916827bffffffffffffffffffffffffffffffffffffffffffffffffffffffff191614806104b057507f5b5e139f000000000000000000000000000000000000000000000000000000007bffffffffffffffffffffffffffffffffffffffffffffffffffffffff1916827bffffffffffffffffffffffffffffffffffffffffffffffffffffffff1916145b806104c057506104bf826111aa565b5b9050919050565b6060600080546104d690612bfd565b80601f016020809104026020016040519081016040528092919081815260200182805461050290612bfd565b801561054f5780601f106105245761010080835404028352916020019161054f565b820191906000526020600020905b81548152906001019060200180831161053257829003601f168201915b5050505050905090565b600061056482611214565b6105a3576040517f08c379a000000000000000000000000000000000000000000000000000000000815260040161059a906128e7565b60405180910390fd5b6004600083815260200190815260200160002060009054906101000a900473ffffffffffffffffffffffffffffffffffffffff169050919050565b60006105e98261080c565b90508073ffffffffffffffffffffffffffffffffffffffff168373ffffffffffffffffffffffffffffffffffffffff16141561065a576040517f08c379a000000000000000000000000000000000000000000000000000000000815260040161065190612967565b60405180910390fd5b8073ffffffffffffffffffffffffffffffffffffffff16610679611280565b73ffffffffffffffffffffffffffffffffffffffff1614806106a857506106a7816106a2611280565b610f16565b5b6106e7576040517f08c379a00000000000000000000000000000000000000000000000000000000081526004016106de90612827565b60405180910390fd5b6106f18383611288565b505050565b610707610701611280565b82611341565b610746576040517f08c379a000000000000000000000000000000000000000000000000000000000815260040161073d90612987565b60405180910390fd5b61075183838361141f565b505050565b61077183838360405180602001604052806000815250610d29565b505050565b61077e611280565b73ffffffffffffffffffffffffffffffffffffffff1661079c610ab3565b73ffffffffffffffffffffffffffffffffffffffff16146107f2576040517f08c379a00000000000000000000000000000000000000000000000000000000081526004016107e990612907565b60405180910390fd5b8060089080519060200190610808929190611e27565b5050565b6000806002600084815260200190815260200160002060009054906101000a900473ffffffffffffffffffffffffffffffffffffffff169050600073ffffffffffffffffffffffffffffffffffffffff168173ffffffffffffffffffffffffffffffffffffffff1614156108b5576040517f08c379a00000000000000000000000000000000000000000000000000000000081526004016108ac90612867565b60405180910390fd5b80915050919050565b60008073ffffffffffffffffffffffffffffffffffffffff168273ffffffffffffffffffffffffffffffffffffffff16141561092f576040517f08c379a000000000000000000000000000000000000000000000000000000000815260040161092690612847565b60405180910390fd5b600360008373ffffffffffffffffffffffffffffffffffffffff1673ffffffffffffffffffffffffffffffffffffffff168152602001908152602001600020549050919050565b61097e611280565b73ffffffffffffffffffffffffffffffffffffffff1661099c610ab3565b73ffffffffffffffffffffffffffffffffffffffff16146109f2576040517f08c379a00000000000000000000000000000000000000000000000000000000081526004016109e990612907565b60405180910390fd5b600073ffffffffffffffffffffffffffffffffffffffff16600760009054906101000a900473ffffffffffffffffffffffffffffffffffffffff1673ffffffffffffffffffffffffffffffffffffffff167f8be0079c531659141344cd1fd0a4f28419497f9722a3daafe3b4186f6b6457e060405160405180910390a36000600760006101000a81548173ffffffffffffffffffffffffffffffffffffffff021916908373ffffffffffffffffffffffffffffffffffffffff160217905550565b6000600760009054906101000a900473ffffffffffffffffffffffffffffffffffffffff16905090565b606060018054610aec90612bfd565b80601f0160208091040260200160405190810160405280929190818152602001828054610b1890612bfd565b8015610b655780601f10610b3a57610100808354040283529160200191610b65565b820191906000526020600020905b815481529060010190602001808311610b4857829003601f168201915b5050505050905090565b610b77611280565b73ffffffffffffffffffffffffffffffffffffffff168273ffffffffffffffffffffffffffffffffffffffff161415610be5576040517f08c379a0000000000000000000000000000000000000000000000000000000008152600401610bdc906127e7565b60405180910390fd5b8060056000610bf2611280565b73ffffffffffffffffffffffffffffffffffffffff1673ffffffffffffffffffffffffffffffffffffffff16815260200190815260200160002060008473ffffffffffffffffffffffffffffffffffffffff1673ffffffffffffffffffffffffffffffffffffffff16815260200190815260200160002060006101000a81548160ff0219169083151502179055508173ffffffffffffffffffffffffffffffffffffffff16610c9f611280565b73ffffffffffffffffffffffffffffffffffffffff167f17307eab39ab6107e8899845ad3d59bd9653f200f220920489ca2b5937696c3183604051610ce4919061272a565b60405180910390a35050565b6040518060400160405280600481526020017f4453544b0000000000000000000000000000000000000000000000000000000081525081565b610d3a610d34611280565b83611341565b610d79576040517f08c379a0000000000000000000000000000000000000000000000000000000008152600401610d7090612987565b60405180910390fd5b610d858484848461167b565b50505050565b6060610d9682611214565b610dd5576040517f08c379a0000000000000000000000000000000000000000000000000000000008152600401610dcc906128c7565b60405180910390fd5b6000600660008481526020019081526020016000208054610df590612bfd565b80601f0160208091040260200160405190810160405280929190818152602001828054610e2190612bfd565b8015610e6e5780601f10610e4357610100808354040283529160200191610e6e565b820191906000526020600020905b815481529060010190602001808311610e5157829003601f168201915b505050505090506000610e7f6116d7565b9050600081511415610e95578192505050610ed8565b600082511115610eca578082604051602001610eb292919061269f565b60405160208183030381529060405292505050610ed8565b610ed384611769565b925050505b919050565b6040518060400160405280600d81526020017f646563656e747261537461636b0000000000000000000000000000000000000081525081565b6000600560008473ffffffffffffffffffffffffffffffffffffffff1673ffffffffffffffffffffffffffffffffffffffff16815260200190815260200160002060008373ffffffffffffffffffffffffffffffffffffffff1673ffffffffffffffffffffffffffffffffffffffff16815260200190815260200160002060009054906101000a900460ff16905092915050565b60008084848442604051602001610fc49493929190612659565b6040516020818303038152906040528051906020012060001c9050610fe98582611810565b610ff3818461182e565b809150509392505050565b611006611280565b73ffffffffffffffffffffffffffffffffffffffff16611024610ab3565b73ffffffffffffffffffffffffffffffffffffffff161461107a576040517f08c379a000000000000000000000000000000000000000000000000000000000815260040161107190612907565b60405180910390fd5b600073ffffffffffffffffffffffffffffffffffffffff168173ffffffffffffffffffffffffffffffffffffffff1614156110ea576040517f08c379a00000000000000000000000000000000000000000000000000000000081526004016110e190612787565b60405180910390fd5b8073ffffffffffffffffffffffffffffffffffffffff16600760009054906101000a900473ffffffffffffffffffffffffffffffffffffffff1673ffffffffffffffffffffffffffffffffffffffff167f8be0079c531659141344cd1fd0a4f28419497f9722a3daafe3b4186f6b6457e060405160405180910390a380600760006101000a81548173ffffffffffffffffffffffffffffffffffffffff021916908373ffffffffffffffffffffffffffffffffffffffff16021790555050565b60007f01ffc9a7000000000000000000000000000000000000000000000000000000007bffffffffffffffffffffffffffffffffffffffffffffffffffffffff1916827bffffffffffffffffffffffffffffffffffffffffffffffffffffffff1916149050919050565b60008073ffffffffffffffffffffffffffffffffffffffff166002600084815260200190815260200160002060009054906101000a900473ffffffffffffffffffffffffffffffffffffffff1673ffffffffffffffffffffffffffffffffffffffff1614159050919050565b600033905090565b816004600083815260200190815260200160002060006101000a81548173ffffffffffffffffffffffffffffffffffffffff021916908373ffffffffffffffffffffffffffffffffffffffff160217905550808273ffffffffffffffffffffffffffffffffffffffff166112fb8361080c565b73ffffffffffffffffffffffffffffffffffffffff167f8c5be1e5ebec7d5bd14f71427d1e84f3dd0314c0f7b2291e5b200ac8c7c3b92560405160405180910390a45050565b600061134c82611214565b61138b576040517f08c379a000000000000000000000000000000000000000000000000000000000815260040161138290612807565b60405180910390fd5b60006113968361080c565b90508073ffffffffffffffffffffffffffffffffffffffff168473ffffffffffffffffffffffffffffffffffffffff16148061140557508373ffffffffffffffffffffffffffffffffffffffff166113ed84610559565b73ffffffffffffffffffffffffffffffffffffffff16145b8061141657506114158185610f16565b5b91505092915050565b8273ffffffffffffffffffffffffffffffffffffffff1661143f8261080c565b73ffffffffffffffffffffffffffffffffffffffff1614611495576040517f08c379a000000000000000000000000000000000000000000000000000000000815260040161148c90612927565b60405180910390fd5b600073ffffffffffffffffffffffffffffffffffffffff168273ffffffffffffffffffffffffffffffffffffffff161415611505576040517f08c379a00000000000000000000000000000000000000000000000000000000081526004016114fc906127c7565b60405180910390fd5b6115108383836118a2565b61151b600082611288565b6001600360008573ffffffffffffffffffffffffffffffffffffffff1673ffffffffffffffffffffffffffffffffffffffff168152602001908152602001600020600082825461156b9190612b13565b925050819055506001600360008473ffffffffffffffffffffffffffffffffffffffff1673ffffffffffffffffffffffffffffffffffffffff16815260200190815260200160002060008282546115c29190612a8c565b92505081905550816002600083815260200190815260200160002060006101000a81548173ffffffffffffffffffffffffffffffffffffffff021916908373ffffffffffffffffffffffffffffffffffffffff160217905550808273ffffffffffffffffffffffffffffffffffffffff168473ffffffffffffffffffffffffffffffffffffffff167fddf252ad1be2c89b69c2b068fc378daa952ba7f163c4a11628f55a4df523b3ef60405160405180910390a4505050565b61168684848461141f565b611692848484846118a7565b6116d1576040517f08c379a00000000000000000000000000000000000000000000000000000000081526004016116c890612767565b60405180910390fd5b50505050565b6060600880546116e690612bfd565b80601f016020809104026020016040519081016040528092919081815260200182805461171290612bfd565b801561175f5780601f106117345761010080835404028352916020019161175f565b820191906000526020600020905b81548152906001019060200180831161174257829003601f168201915b5050505050905090565b606061177482611214565b6117b3576040517f08c379a00000000000000000000000000000000000000000000000000000000081526004016117aa90612947565b60405180910390fd5b60006117bd6116d7565b905060008151116117dd5760405180602001604052806000815250611808565b806117e784611a3e565b6040516020016117f892919061269f565b6040516020818303038152906040525b915050919050565b61182a828260405180602001604052806000815250611beb565b5050565b61183782611214565b611876576040517f08c379a000000000000000000000000000000000000000000000000000000000815260040161186d90612887565b60405180910390fd5b8060066000848152602001908152602001600020908051906020019061189d929190611e27565b505050565b505050565b60006118c88473ffffffffffffffffffffffffffffffffffffffff16611c46565b15611a31578373ffffffffffffffffffffffffffffffffffffffff1663150b7a026118f1611280565b8786866040518563ffffffff1660e01b815260040161191394939291906126de565b602060405180830381600087803b15801561192d57600080fd5b505af192505050801561195e57506040513d601f19601f8201168201806040525081019061195b9190612252565b60015b6119e1573d806000811461198e576040519150601f19603f3d011682016040523d82523d6000602084013e611993565b606091505b506000815114156119d9576040517f08c379a00000000000000000000000000000000000000000000000000000000081526004016119d090612767565b60405180910390fd5b805181602001fd5b63150b7a0260e01b7bffffffffffffffffffffffffffffffffffffffffffffffffffffffff1916817bffffffffffffffffffffffffffffffffffffffffffffffffffffffff191614915050611a36565b600190505b949350505050565b60606000821415611a86576040518060400160405280600181526020017f30000000000000000000000000000000000000000000000000000000000000008152509050611be6565b600082905060005b60008214611ab8578080611aa190612c60565b915050600a82611ab19190612ae2565b9150611a8e565b60008167ffffffffffffffff811115611afa577f4e487b7100000000000000000000000000000000000000000000000000000000600052604160045260246000fd5b6040519080825280601f01601f191660200182016040528015611b2c5781602001600182028036833780820191505090505b5090505b60008514611bdf57600182611b459190612b13565b9150600a85611b549190612cd7565b6030611b609190612a8c565b60f81b818381518110611b9c577f4e487b7100000000000000000000000000000000000000000000000000000000600052603260045260246000fd5b60200101907effffffffffffffffffffffffffffffffffffffffffffffffffffffffffffff1916908160001a905350600a85611bd89190612ae2565b9450611b30565b8093505050505b919050565b611bf58383611c59565b611c0260008484846118a7565b611c41576040517f08c379a0000000000000000000000000000000000000000000000000000000008152600401611c3890612767565b60405180910390fd5b505050565b600080823b905060008111915050919050565b600073ffffffffffffffffffffffffffffffffffffffff168273ffffffffffffffffffffffffffffffffffffffff161415611cc9576040517f08c379a0000000000000000000000000000000000000000000000000000000008152600401611cc0906128a7565b60405180910390fd5b611cd281611214565b15611d12576040517f08c379a0000000000000000000000000000000000000000000000000000000008152600401611d09906127a7565b60405180910390fd5b611d1e600083836118a2565b6001600360008473ffffffffffffffffffffffffffffffffffffffff1673ffffffffffffffffffffffffffffffffffffffff1681526020019081526020016000206000828254611d6e9190612a8c565b92505081905550816002600083815260200190815260200160002060006101000a81548173ffffffffffffffffffffffffffffffffffffffff021916908373ffffffffffffffffffffffffffffffffffffffff160217905550808273ffffffffffffffffffffffffffffffffffffffff16600073ffffffffffffffffffffffffffffffffffffffff167fddf252ad1be2c89b69c2b068fc378daa952ba7f163c4a11628f55a4df523b3ef60405160405180910390a45050565b828054611e3390612bfd565b90600052602060002090601f016020900481019282611e555760008555611e9c565b82601f10611e6e57805160ff1916838001178555611e9c565b82800160010185558215611e9c579182015b82811115611e9b578251825591602001919060010190611e80565b5b509050611ea99190611ead565b5090565b5b80821115611ec6576000816000905550600101611eae565b5090565b6000611edd611ed8846129e7565b6129c2565b905082815260208101848484011115611ef557600080fd5b611f00848285612bbb565b509392505050565b6000611f1b611f1684612a18565b6129c2565b905082815260208101848484011115611f3357600080fd5b611f3e848285612bbb565b509392505050565b600081359050611f55816132d8565b92915050565b600081359050611f6a816132ef565b92915050565b600081359050611f7f81613306565b92915050565b600081519050611f9481613306565b92915050565b600082601f830112611fab57600080fd5b8135611fbb848260208601611eca565b91505092915050565b600082601f830112611fd557600080fd5b8135611fe5848260208601611f08565b91505092915050565b600081359050611ffd8161331d565b92915050565b60006020828403121561201557600080fd5b600061202384828501611f46565b91505092915050565b6000806040838503121561203f57600080fd5b600061204d85828601611f46565b925050602061205e85828601611f46565b9150509250929050565b60008060006060848603121561207d57600080fd5b600061208b86828701611f46565b935050602061209c86828701611f46565b92505060406120ad86828701611fee565b9150509250925092565b600080600080608085870312156120cd57600080fd5b60006120db87828801611f46565b94505060206120ec87828801611f46565b93505060406120fd87828801611fee565b925050606085013567ffffffffffffffff81111561211a57600080fd5b61212687828801611f9a565b91505092959194509250565b6000806040838503121561214557600080fd5b600061215385828601611f46565b925050602061216485828601611f5b565b9150509250929050565b60008060006060848603121561218357600080fd5b600061219186828701611f46565b935050602084013567ffffffffffffffff8111156121ae57600080fd5b6121ba86828701611fc4565b925050604084013567ffffffffffffffff8111156121d757600080fd5b6121e386828701611fc4565b9150509250925092565b6000806040838503121561220057600080fd5b600061220e85828601611f46565b925050602061221f85828601611fee565b9150509250929050565b60006020828403121561223b57600080fd5b600061224984828501611f70565b91505092915050565b60006020828403121561226457600080fd5b600061227284828501611f85565b91505092915050565b60006020828403121561228d57600080fd5b600082013567ffffffffffffffff8111156122a757600080fd5b6122b384828501611fc4565b91505092915050565b6000602082840312156122ce57600080fd5b60006122dc84828501611fee565b91505092915050565b6122ee81612b47565b82525050565b61230561230082612b47565b612ca9565b82525050565b61231481612b59565b82525050565b600061232582612a49565b61232f8185612a5f565b935061233f818560208601612bca565b61234881612dc4565b840191505092915050565b600061235e82612a54565b6123688185612a70565b9350612378818560208601612bca565b61238181612dc4565b840191505092915050565b600061239782612a54565b6123a18185612a81565b93506123b1818560208601612bca565b80840191505092915050565b60006123ca603283612a70565b91506123d582612de2565b604082019050919050565b60006123ed602683612a70565b91506123f882612e31565b604082019050919050565b6000612410601c83612a70565b915061241b82612e80565b602082019050919050565b6000612433602483612a70565b915061243e82612ea9565b604082019050919050565b6000612456601983612a70565b915061246182612ef8565b602082019050919050565b6000612479602c83612a70565b915061248482612f21565b604082019050919050565b600061249c603883612a70565b91506124a782612f70565b604082019050919050565b60006124bf602a83612a70565b91506124ca82612fbf565b604082019050919050565b60006124e2602983612a70565b91506124ed8261300e565b604082019050919050565b6000612505602e83612a70565b91506125108261305d565b604082019050919050565b6000612528602083612a70565b9150612533826130ac565b602082019050919050565b600061254b603183612a70565b9150612556826130d5565b604082019050919050565b600061256e602c83612a70565b915061257982613124565b604082019050919050565b6000612591602083612a70565b915061259c82613173565b602082019050919050565b60006125b4602983612a70565b91506125bf8261319c565b604082019050919050565b60006125d7602f83612a70565b91506125e2826131eb565b604082019050919050565b60006125fa602183612a70565b91506126058261323a565b604082019050919050565b600061261d603183612a70565b915061262882613289565b604082019050919050565b61263c81612bb1565b82525050565b61265361264e82612bb1565b612ccd565b82525050565b600061266582876122f4565b601482019150612675828661238c565b9150612681828561238c565b915061268d8284612642565b60208201915081905095945050505050565b60006126ab828561238c565b91506126b7828461238c565b91508190509392505050565b60006020820190506126d860008301846122e5565b92915050565b60006080820190506126f360008301876122e5565b61270060208301866122e5565b61270d6040830185612633565b818103606083015261271f818461231a565b905095945050505050565b600060208201905061273f600083018461230b565b92915050565b6000602082019050818103600083015261275f8184612353565b905092915050565b60006020820190508181036000830152612780816123bd565b9050919050565b600060208201905081810360008301526127a0816123e0565b9050919050565b600060208201905081810360008301526127c081612403565b9050919050565b600060208201905081810360008301526127e081612426565b9050919050565b6000602082019050818103600083015261280081612449565b9050919050565b600060208201905081810360008301526128208161246c565b9050919050565b600060208201905081810360008301526128408161248f565b9050919050565b60006020820190508181036000830152612860816124b2565b9050919050565b60006020820190508181036000830152612880816124d5565b9050919050565b600060208201905081810360008301526128a0816124f8565b9050919050565b600060208201905081810360008301526128c08161251b565b9050919050565b600060208201905081810360008301526128e08161253e565b9050919050565b6000602082019050818103600083015261290081612561565b9050919050565b6000602082019050818103600083015261292081612584565b9050919050565b60006020820190508181036000830152612940816125a7565b9050919050565b60006020820190508181036000830152612960816125ca565b9050919050565b60006020820190508181036000830152612980816125ed565b9050919050565b600060208201905081810360008301526129a081612610565b9050919050565b60006020820190506129bc6000830184612633565b92915050565b60006129cc6129dd565b90506129d88282612c2f565b919050565b6000604051905090565b600067ffffffffffffffff821115612a0257612a01612d95565b5b612a0b82612dc4565b9050602081019050919050565b600067ffffffffffffffff821115612a3357612a32612d95565b5b612a3c82612dc4565b9050602081019050919050565b600081519050919050565b600081519050919050565b600082825260208201905092915050565b600082825260208201905092915050565b600081905092915050565b6000612a9782612bb1565b9150612aa283612bb1565b9250827fffffffffffffffffffffffffffffffffffffffffffffffffffffffffffffffff03821115612ad757612ad6612d08565b5b828201905092915050565b6000612aed82612bb1565b9150612af883612bb1565b925082612b0857612b07612d37565b5b828204905092915050565b6000612b1e82612bb1565b9150612b2983612bb1565b925082821015612b3c57612b3b612d08565b5b828203905092915050565b6000612b5282612b91565b9050919050565b60008115159050919050565b60007fffffffff0000000000000000000000000000000000000000000000000000000082169050919050565b600073ffffffffffffffffffffffffffffffffffffffff82169050919050565b6000819050919050565b82818337600083830152505050565b60005b83811015612be8578082015181840152602081019050612bcd565b83811115612bf7576000848401525b50505050565b60006002820490506001821680612c1557607f821691505b60208210811415612c2957612c28612d66565b5b50919050565b612c3882612dc4565b810181811067ffffffffffffffff82111715612c5757612c56612d95565b5b80604052505050565b6000612c6b82612bb1565b91507fffffffffffffffffffffffffffffffffffffffffffffffffffffffffffffffff821415612c9e57612c9d612d08565b5b600182019050919050565b6000612cb482612cbb565b9050919050565b6000612cc682612dd5565b9050919050565b6000819050919050565b6000612ce282612bb1565b9150612ced83612bb1565b925082612cfd57612cfc612d37565b5b828206905092915050565b7f4e487b7100000000000000000000000000000000000000000000000000000000600052601160045260246000fd5b7f4e487b7100000000000000000000000000000000000000000000000000000000600052601260045260246000fd5b7f4e487b7100000000000000000000000000000000000000000000000000000000600052602260045260246000fd5b7f4e487b7100000000000000000000000000000000000000000000000000000000600052604160045260246000fd5b6000601f19601f8301169050919050565b60008160601b9050919050565b7f4552433732313a207472616e7366657220746f206e6f6e20455243373231526560008201527f63656976657220696d706c656d656e7465720000000000000000000000000000602082015250565b7f4f776e61626c653a206e6577206f776e657220697320746865207a65726f206160008201527f6464726573730000000000000000000000000000000000000000000000000000602082015250565b7f4552433732313a20746f6b656e20616c7265616479206d696e74656400000000600082015250565b7f4552433732313a207472616e7366657220746f20746865207a65726f2061646460008201527f7265737300000000000000000000000000000000000000000000000000000000602082015250565b7f4552433732313a20617070726f766520746f2063616c6c657200000000000000600082015250565b7f4552433732313a206f70657261746f7220717565727920666f72206e6f6e657860008201527f697374656e7420746f6b656e0000000000000000000000000000000000000000602082015250565b7f4552433732313a20617070726f76652063616c6c6572206973206e6f74206f7760008201527f6e6572206e6f7220617070726f76656420666f7220616c6c0000000000000000602082015250565b7f4552433732313a2062616c616e636520717565727920666f7220746865207a6560008201527f726f206164647265737300000000000000000000000000000000000000000000602082015250565b7f4552433732313a206f776e657220717565727920666f72206e6f6e657869737460008201527f656e7420746f6b656e0000000000000000000000000000000000000000000000602082015250565b7f45524337323155524953746f726167653a2055524920736574206f66206e6f6e60008201527f6578697374656e7420746f6b656e000000000000000000000000000000000000602082015250565b7f4552433732313a206d696e7420746f20746865207a65726f2061646472657373600082015250565b7f45524337323155524953746f726167653a2055524920717565727920666f722060008201527f6e6f6e6578697374656e7420746f6b656e000000000000000000000000000000602082015250565b7f4552433732313a20617070726f76656420717565727920666f72206e6f6e657860008201527f697374656e7420746f6b656e0000000000000000000000000000000000000000602082015250565b7f4f776e61626c653a2063616c6c6572206973206e6f7420746865206f776e6572600082015250565b7f4552433732313a207472616e73666572206f6620746f6b656e2074686174206960008201527f73206e6f74206f776e0000000000000000000000000000000000000000000000602082015250565b7f4552433732314d657461646174613a2055524920717565727920666f72206e6f60008201527f6e6578697374656e7420746f6b656e0000000000000000000000000000000000602082015250565b7f4552433732313a20617070726f76616c20746f2063757272656e74206f776e6560008201527f7200000000000000000000000000000000000000000000000000000000000000602082015250565b7f4552433732313a207472616e736665722063616c6c6572206973206e6f74206f60008201527f776e6572206e6f7220617070726f766564000000000000000000000000000000602082015250565b6132e181612b47565b81146132ec57600080fd5b50565b6132f881612b59565b811461330357600080fd5b50565b61330f81612b65565b811461331a57600080fd5b50565b61332681612bb1565b811461333157600080fd5b5056fea2646970667358221220f1a2c3d0dd222d5d9abe4da7ff4ee9306d1c66f27ce4af26f17b8f51ec52140b64736f6c63430008040033",
  "immutableReferences": {},
  "source": "// SPDX-License-Identifier: MIT\npragma solidity ^0.8.0;\npragma experimental ABIEncoderV2;\n\nimport \"@openzeppelin/contracts/token/ERC721/extensions/ERC721URIStorage.sol\";\nimport \"@openzeppelin/contracts/access/Ownable.sol\";\n\ncontract ArticleNFT is ERC721URIStorage, Ownable {\n  string public constant _name = \"decentraStack\";\n  string public constant _symbol = \"DSTK\";\n  string private _baseURIextended;\n\n  constructor() ERC721(_name, _symbol) {\n    // TODO deploy script to call `setBaseURI` instead of constructor\n    _baseURIextended = \"https://ipfs.io/ipfs/\";\n  }\n\n  function setBaseURI(string memory baseURI_) external onlyOwner() {\n    _baseURIextended = baseURI_;\n  }\n\n  function _baseURI() internal view virtual override returns (string memory) {\n    return _baseURIextended;\n  }\n\n  function createCollectible(address _author, string memory _title, string memory _contentIpfsHash) public returns (uint256) {\n    uint256 newArticleId = uint256(keccak256(abi.encodePacked(_author, _title, _contentIpfsHash, block.timestamp)));\n    _safeMint(_author, newArticleId);\n    // calls ERC721URIStorage with `_contentIpfsHash` as the `tokenURI`\n    _setTokenURI(newArticleId, _contentIpfsHash);\n    return newArticleId;\n  }\n}",
  "sourcePath": "/Users/db/Projects/decentraStack/contracts/ArticleNFT.sol",
  "compiler": {
    "name": "solc",
    "version": "0.8.4+commit.c7e474f2.Emscripten.clang"
  },
  "schemaVersion": "3.3.3",
  "updatedAt": "2021-05-26T21:52:18.337Z",
  "networkType": "ethereum",
  "devdoc": {
    "kind": "dev",
    "methods": {
      "approve(address,uint256)": {
        "details": "See {IERC721-approve}."
      },
      "balanceOf(address)": {
        "details": "See {IERC721-balanceOf}."
      },
      "getApproved(uint256)": {
        "details": "See {IERC721-getApproved}."
      },
      "isApprovedForAll(address,address)": {
        "details": "See {IERC721-isApprovedForAll}."
      },
      "name()": {
        "details": "See {IERC721Metadata-name}."
      },
      "owner()": {
        "details": "Returns the address of the current owner."
      },
      "ownerOf(uint256)": {
        "details": "See {IERC721-ownerOf}."
      },
      "renounceOwnership()": {
        "details": "Leaves the contract without owner. It will not be possible to call `onlyOwner` functions anymore. Can only be called by the current owner. NOTE: Renouncing ownership will leave the contract without an owner, thereby removing any functionality that is only available to the owner."
      },
      "safeTransferFrom(address,address,uint256)": {
        "details": "See {IERC721-safeTransferFrom}."
      },
      "safeTransferFrom(address,address,uint256,bytes)": {
        "details": "See {IERC721-safeTransferFrom}."
      },
      "setApprovalForAll(address,bool)": {
        "details": "See {IERC721-setApprovalForAll}."
      },
      "supportsInterface(bytes4)": {
        "details": "See {IERC165-supportsInterface}."
      },
      "symbol()": {
        "details": "See {IERC721Metadata-symbol}."
      },
      "tokenURI(uint256)": {
        "details": "See {IERC721Metadata-tokenURI}."
      },
      "transferFrom(address,address,uint256)": {
        "details": "See {IERC721-transferFrom}."
      },
      "transferOwnership(address)": {
        "details": "Transfers ownership of the contract to a new account (`newOwner`). Can only be called by the current owner."
      }
    },
    "version": 1
  },
  "userdoc": {
    "kind": "user",
    "methods": {},
    "version": 1
  }
}