{
  "contractName": "Decentrastack",
  "abi": [
    {
      "anonymous": false,
      "inputs": [
        {
          "indexed": true,
          "internalType": "address",
          "name": "owner",
          "type": "address"
        },
        {
          "indexed": true,
          "internalType": "address",
          "name": "approved",
          "type": "address"
        },
        {
          "indexed": true,
          "internalType": "uint256",
          "name": "tokenId",
          "type": "uint256"
        }
      ],
      "name": "Approval",
      "type": "event"
    },
    {
      "anonymous": false,
      "inputs": [
        {
          "indexed": true,
          "internalType": "address",
          "name": "owner",
          "type": "address"
        },
        {
          "indexed": true,
          "internalType": "address",
          "name": "operator",
          "type": "address"
        },
        {
          "indexed": false,
          "internalType": "bool",
          "name": "approved",
          "type": "bool"
        }
      ],
      "name": "ApprovalForAll",
      "type": "event"
    },
    {
      "anonymous": false,
      "inputs": [
        {
          "indexed": true,
          "internalType": "address",
          "name": "_author",
          "type": "address"
        },
        {
          "indexed": false,
          "internalType": "string",
          "name": "_title",
          "type": "string"
        },
        {
          "indexed": true,
          "internalType": "string",
          "name": "_contentIpfsHash",
          "type": "string"
        },
        {
          "indexed": false,
          "internalType": "uint256",
          "name": "_date",
          "type": "uint256"
        },
        {
          "indexed": true,
          "internalType": "uint256",
          "name": "_articleId",
          "type": "uint256"
        }
      ],
      "name": "ArticlePublished",
      "type": "event"
    },
    {
      "anonymous": false,
      "inputs": [
        {
          "indexed": false,
          "internalType": "address",
          "name": "_owner",
          "type": "address"
        },
        {
          "indexed": false,
          "internalType": "uint256",
          "name": "_tokenId",
          "type": "uint256"
        },
        {
          "indexed": false,
          "internalType": "string",
          "name": "_tokenURI",
          "type": "string"
        }
      ],
      "name": "MintedArticleNFT",
      "type": "event"
    },
    {
      "anonymous": false,
      "inputs": [
        {
          "indexed": true,
          "internalType": "address",
          "name": "_follower",
          "type": "address"
        },
        {
          "indexed": true,
          "internalType": "address",
          "name": "_author",
          "type": "address"
        }
      ],
      "name": "NewUserSubscription",
      "type": "event"
    },
    {
      "anonymous": false,
      "inputs": [
        {
          "indexed": true,
          "internalType": "address",
          "name": "previousOwner",
          "type": "address"
        },
        {
          "indexed": true,
          "internalType": "address",
          "name": "newOwner",
          "type": "address"
        }
      ],
      "name": "OwnershipTransferred",
      "type": "event"
    },
    {
      "anonymous": false,
      "inputs": [
        {
          "indexed": true,
          "internalType": "address",
          "name": "from",
          "type": "address"
        },
        {
          "indexed": true,
          "internalType": "address",
          "name": "to",
          "type": "address"
        },
        {
          "indexed": true,
          "internalType": "uint256",
          "name": "tokenId",
          "type": "uint256"
        }
      ],
      "name": "Transfer",
      "type": "event"
    },
    {
      "anonymous": false,
      "inputs": [
        {
          "indexed": true,
          "internalType": "address",
          "name": "_follower",
          "type": "address"
        },
        {
          "indexed": true,
          "internalType": "address",
          "name": "_author",
          "type": "address"
        }
      ],
      "name": "UserUnsubscribedFromAuthor",
      "type": "event"
    },
    {
      "inputs": [
        {
          "internalType": "address",
          "name": "to",
          "type": "address"
        },
        {
          "internalType": "uint256",
          "name": "tokenId",
          "type": "uint256"
        }
      ],
      "name": "approve",
      "outputs": [],
      "stateMutability": "nonpayable",
      "type": "function"
    },
    {
      "inputs": [
        {
          "internalType": "uint256",
          "name": "",
          "type": "uint256"
        }
      ],
      "name": "articles",
      "outputs": [
        {
          "internalType": "address",
          "name": "author",
          "type": "address"
        },
        {
          "internalType": "string",
          "name": "title",
          "type": "string"
        },
        {
          "internalType": "string",
          "name": "contentIpfsHash",
          "type": "string"
        },
        {
          "internalType": "uint256",
          "name": "date",
          "type": "uint256"
        },
        {
          "internalType": "uint256",
          "name": "articleId",
          "type": "uint256"
        }
      ],
      "stateMutability": "view",
      "type": "function"
    },
    {
      "inputs": [
        {
          "internalType": "address",
          "name": "",
          "type": "address"
        },
        {
          "internalType": "uint256",
          "name": "",
          "type": "uint256"
        }
      ],
      "name": "authorToArticles",
      "outputs": [
        {
          "internalType": "address",
          "name": "author",
          "type": "address"
        },
        {
          "internalType": "string",
          "name": "title",
          "type": "string"
        },
        {
          "internalType": "string",
          "name": "contentIpfsHash",
          "type": "string"
        },
        {
          "internalType": "uint256",
          "name": "date",
          "type": "uint256"
        },
        {
          "internalType": "uint256",
          "name": "articleId",
          "type": "uint256"
        }
      ],
      "stateMutability": "view",
      "type": "function"
    },
    {
      "inputs": [
        {
          "internalType": "address",
          "name": "owner",
          "type": "address"
        }
      ],
      "name": "balanceOf",
      "outputs": [
        {
          "internalType": "uint256",
          "name": "",
          "type": "uint256"
        }
      ],
      "stateMutability": "view",
      "type": "function"
    },
    {
      "inputs": [
        {
          "internalType": "uint256",
          "name": "tokenId",
          "type": "uint256"
        }
      ],
      "name": "getApproved",
      "outputs": [
        {
          "internalType": "address",
          "name": "",
          "type": "address"
        }
      ],
      "stateMutability": "view",
      "type": "function"
    },
    {
      "inputs": [],
      "name": "getNftTokenIds",
      "outputs": [
        {
          "internalType": "uint256[]",
          "name": "",
          "type": "uint256[]"
        }
      ],
      "stateMutability": "view",
      "type": "function"
    },
    {
      "inputs": [
        {
          "internalType": "address",
          "name": "owner",
          "type": "address"
        },
        {
          "internalType": "address",
          "name": "operator",
          "type": "address"
        }
      ],
      "name": "isApprovedForAll",
      "outputs": [
        {
          "internalType": "bool",
          "name": "",
          "type": "bool"
        }
      ],
      "stateMutability": "view",
      "type": "function"
    },
    {
      "inputs": [],
      "name": "name",
      "outputs": [
        {
          "internalType": "string",
          "name": "",
          "type": "string"
        }
      ],
      "stateMutability": "view",
      "type": "function"
    },
    {
      "inputs": [
        {
          "internalType": "uint256",
          "name": "",
          "type": "uint256"
        }
      ],
      "name": "nftTokenIds",
      "outputs": [
        {
          "internalType": "uint256",
          "name": "",
          "type": "uint256"
        }
      ],
      "stateMutability": "view",
      "type": "function"
    },
    {
      "inputs": [],
      "name": "owner",
      "outputs": [
        {
          "internalType": "address",
          "name": "",
          "type": "address"
        }
      ],
      "stateMutability": "view",
      "type": "function"
    },
    {
      "inputs": [
        {
          "internalType": "uint256",
          "name": "tokenId",
          "type": "uint256"
        }
      ],
      "name": "ownerOf",
      "outputs": [
        {
          "internalType": "address",
          "name": "",
          "type": "address"
        }
      ],
      "stateMutability": "view",
      "type": "function"
    },
    {
      "inputs": [],
      "name": "renounceOwnership",
      "outputs": [],
      "stateMutability": "nonpayable",
      "type": "function"
    },
    {
      "inputs": [
        {
          "internalType": "address",
          "name": "from",
          "type": "address"
        },
        {
          "internalType": "address",
          "name": "to",
          "type": "address"
        },
        {
          "internalType": "uint256",
          "name": "tokenId",
          "type": "uint256"
        }
      ],
      "name": "safeTransferFrom",
      "outputs": [],
      "stateMutability": "nonpayable",
      "type": "function"
    },
    {
      "inputs": [
        {
          "internalType": "address",
          "name": "from",
          "type": "address"
        },
        {
          "internalType": "address",
          "name": "to",
          "type": "address"
        },
        {
          "internalType": "uint256",
          "name": "tokenId",
          "type": "uint256"
        },
        {
          "internalType": "bytes",
          "name": "_data",
          "type": "bytes"
        }
      ],
      "name": "safeTransferFrom",
      "outputs": [],
      "stateMutability": "nonpayable",
      "type": "function"
    },
    {
      "inputs": [
        {
          "internalType": "address",
          "name": "operator",
          "type": "address"
        },
        {
          "internalType": "bool",
          "name": "approved",
          "type": "bool"
        }
      ],
      "name": "setApprovalForAll",
      "outputs": [],
      "stateMutability": "nonpayable",
      "type": "function"
    },
    {
      "inputs": [
        {
          "internalType": "string",
          "name": "baseURI_",
          "type": "string"
        }
      ],
      "name": "setBaseURI",
      "outputs": [],
      "stateMutability": "nonpayable",
      "type": "function"
    },
    {
      "inputs": [
        {
          "internalType": "bytes4",
          "name": "interfaceId",
          "type": "bytes4"
        }
      ],
      "name": "supportsInterface",
      "outputs": [
        {
          "internalType": "bool",
          "name": "",
          "type": "bool"
        }
      ],
      "stateMutability": "view",
      "type": "function"
    },
    {
      "inputs": [],
      "name": "symbol",
      "outputs": [
        {
          "internalType": "string",
          "name": "",
          "type": "string"
        }
      ],
      "stateMutability": "view",
      "type": "function"
    },
    {
      "inputs": [
        {
          "internalType": "uint256",
          "name": "tokenId",
          "type": "uint256"
        }
      ],
      "name": "tokenURI",
      "outputs": [
        {
          "internalType": "string",
          "name": "",
          "type": "string"
        }
      ],
      "stateMutability": "view",
      "type": "function"
    },
    {
      "inputs": [
        {
          "internalType": "address",
          "name": "from",
          "type": "address"
        },
        {
          "internalType": "address",
          "name": "to",
          "type": "address"
        },
        {
          "internalType": "uint256",
          "name": "tokenId",
          "type": "uint256"
        }
      ],
      "name": "transferFrom",
      "outputs": [],
      "stateMutability": "nonpayable",
      "type": "function"
    },
    {
      "inputs": [
        {
          "internalType": "address",
          "name": "newOwner",
          "type": "address"
        }
      ],
      "name": "transferOwnership",
      "outputs": [],
      "stateMutability": "nonpayable",
      "type": "function"
    },
    {
      "inputs": [
        {
          "internalType": "address",
          "name": "",
          "type": "address"
        },
        {
          "internalType": "uint256",
          "name": "",
          "type": "uint256"
        }
      ],
      "name": "usersToSubscribedAuthors",
      "outputs": [
        {
          "internalType": "address",
          "name": "",
          "type": "address"
        }
      ],
      "stateMutability": "view",
      "type": "function"
    },
    {
      "inputs": [
        {
          "internalType": "string",
          "name": "_title",
          "type": "string"
        },
        {
          "internalType": "string",
          "name": "_contentIpfsHash",
          "type": "string"
        }
      ],
      "name": "createArticle",
      "outputs": [
        {
          "internalType": "uint256",
          "name": "newArticleId",
          "type": "uint256"
        }
      ],
      "stateMutability": "nonpayable",
      "type": "function"
    },
    {
      "inputs": [],
      "name": "getArticles",
      "outputs": [
        {
          "components": [
            {
              "internalType": "address",
              "name": "author",
              "type": "address"
            },
            {
              "internalType": "string",
              "name": "title",
              "type": "string"
            },
            {
              "internalType": "string",
              "name": "contentIpfsHash",
              "type": "string"
            },
            {
              "internalType": "uint256",
              "name": "date",
              "type": "uint256"
            },
            {
              "internalType": "uint256",
              "name": "articleId",
              "type": "uint256"
            }
          ],
          "internalType": "struct Decentrastack.Article[]",
          "name": "",
          "type": "tuple[]"
        }
      ],
      "stateMutability": "view",
      "type": "function"
    },
    {
      "inputs": [
        {
          "internalType": "address",
          "name": "_user",
          "type": "address"
        }
      ],
      "name": "getUserToSubscribedAuthors",
      "outputs": [
        {
          "internalType": "address[]",
          "name": "",
          "type": "address[]"
        }
      ],
      "stateMutability": "view",
      "type": "function"
    },
    {
      "inputs": [
        {
          "internalType": "address",
          "name": "_author",
          "type": "address"
        }
      ],
      "name": "subscribeToAuthor",
      "outputs": [],
      "stateMutability": "nonpayable",
      "type": "function"
    },
    {
      "inputs": [
        {
          "internalType": "address",
          "name": "_author",
          "type": "address"
        }
      ],
      "name": "unsubscribeFromAuthor",
      "outputs": [],
      "stateMutability": "nonpayable",
      "type": "function"
    }
  ],
  "bytecode": "0x60806040523480156200001157600080fd5b506040518060400160405280600d81526020017f646563656e747261537461636b000000000000000000000000000000000000008152506040518060400160405280600481526020017f4453544b00000000000000000000000000000000000000000000000000000000815250816000908051906020019062000096929190620001bf565b508060019080519060200190620000af929190620001bf565b5050506000620000c4620001b760201b60201c565b905080600760006101000a81548173ffffffffffffffffffffffffffffffffffffffff021916908373ffffffffffffffffffffffffffffffffffffffff1602179055508073ffffffffffffffffffffffffffffffffffffffff16600073ffffffffffffffffffffffffffffffffffffffff167f8be0079c531659141344cd1fd0a4f28419497f9722a3daafe3b4186f6b6457e060405160405180910390a3506040518060400160405280601581526020017f68747470733a2f2f697066732e696f2f697066732f000000000000000000000081525060089080519060200190620001b0929190620001bf565b50620002d4565b600033905090565b828054620001cd906200026f565b90600052602060002090601f016020900481019282620001f157600085556200023d565b82601f106200020c57805160ff19168380011785556200023d565b828001600101855582156200023d579182015b828111156200023c5782518255916020019190600101906200021f565b5b5090506200024c919062000250565b5090565b5b808211156200026b57600081600090555060010162000251565b5090565b600060028204905060018216806200028857607f821691505b602082108114156200029f576200029e620002a5565b5b50919050565b7f4e487b7100000000000000000000000000000000000000000000000000000000600052602260045260246000fd5b614cf280620002e46000396000f3fe608060405234801561001057600080fd5b50600436106101a95760003560e01c80638cfa2272116100f9578063c87b56dd11610097578063edcfafe611610071578063edcfafe6146104f2578063f2fde38b14610526578063f7367cce14610542578063f9c26c181461055e576101a9565b8063c87b56dd14610476578063ce278e75146104a6578063e985e9c5146104c2576101a9565b806395d89b41116100d357806395d89b41146103f0578063963cde7e1461040e578063a22cb4651461043e578063b88d4fde1461045a576101a9565b80638cfa2272146103845780638da5cb5b146103b457806393a6871e146103d2576101a9565b806342842e0e116101665780636352211e116101405780636352211e146102fc5780636529f44a1461032c57806370a082311461034a578063715018a61461037a576101a9565b806342842e0e1461029457806355f804b3146102b057806356eedd37146102cc576101a9565b806301ffc9a7146101ae57806306fdde03146101de578063081812fc146101fc578063095ea7b31461022c57806322d544a31461024857806323b872dd14610278575b600080fd5b6101c860048036038101906101c39190613466565b610592565b6040516101d59190613de7565b60405180910390f35b6101e6610674565b6040516101f39190613e02565b60405180910390f35b61021660048036038101906102119190613565565b610706565b6040516102239190613c7b565b60405180910390f35b6102466004803603810190610241919061342a565b61078b565b005b610262600480360381019061025d9190613565565b6108a3565b60405161026f9190614134565b60405180910390f35b610292600480360381019061028d9190613324565b6108c7565b005b6102ae60048036038101906102a99190613324565b610927565b005b6102ca60048036038101906102c591906134b8565b610947565b005b6102e660048036038101906102e191906132bf565b6109dd565b6040516102f39190613d81565b60405180910390f35b61031660048036038101906103119190613565565b610aaa565b6040516103239190613c7b565b60405180910390f35b610334610b5c565b6040516103419190613da3565b60405180910390f35b610364600480360381019061035f91906132bf565b610d49565b6040516103719190614134565b60405180910390f35b610382610e01565b005b61039e600480360381019061039991906134f9565b610f3e565b6040516103ab9190614134565b60405180910390f35b6103bc61125a565b6040516103c99190613c7b565b60405180910390f35b6103da611284565b6040516103e79190613dc5565b60405180910390f35b6103f86112dc565b6040516104059190613e02565b60405180910390f35b6104286004803603810190610423919061342a565b61136e565b6040516104359190613c7b565b60405180910390f35b610458600480360381019061045391906133ee565b6113bc565b005b610474600480360381019061046f9190613373565b61153d565b005b610490600480360381019061048b9190613565565b61159f565b60405161049d9190613e02565b60405180910390f35b6104c060048036038101906104bb91906132bf565b6116f1565b005b6104dc60048036038101906104d791906132e8565b611a14565b6040516104e99190613de7565b60405180910390f35b61050c60048036038101906105079190613565565b611aa8565b60405161051d959493929190613ce2565b60405180910390f35b610540600480360381019061053b91906132bf565b611c1e565b005b61055c600480360381019061055791906132bf565b611dca565b005b6105786004803603810190610573919061342a565b61222b565b604051610589959493929190613ce2565b60405180910390f35b60007f80ac58cd000000000000000000000000000000000000000000000000000000007bffffffffffffffffffffffffffffffffffffffffffffffffffffffff1916827bffffffffffffffffffffffffffffffffffffffffffffffffffffffff1916148061065d57507f5b5e139f000000000000000000000000000000000000000000000000000000007bffffffffffffffffffffffffffffffffffffffffffffffffffffffff1916827bffffffffffffffffffffffffffffffffffffffffffffffffffffffff1916145b8061066d575061066c826123ae565b5b9050919050565b60606000805461068390614446565b80601f01602080910402602001604051908101604052809291908181526020018280546106af90614446565b80156106fc5780601f106106d1576101008083540402835291602001916106fc565b820191906000526020600020905b8154815290600101906020018083116106df57829003601f168201915b5050505050905090565b600061071182612418565b610750576040517f08c379a000000000000000000000000000000000000000000000000000000000815260040161074790614054565b60405180910390fd5b6004600083815260200190815260200160002060009054906101000a900473ffffffffffffffffffffffffffffffffffffffff169050919050565b600061079682610aaa565b90508073ffffffffffffffffffffffffffffffffffffffff168373ffffffffffffffffffffffffffffffffffffffff161415610807576040517f08c379a00000000000000000000000000000000000000000000000000000000081526004016107fe906140d4565b60405180910390fd5b8073ffffffffffffffffffffffffffffffffffffffff16610826612484565b73ffffffffffffffffffffffffffffffffffffffff16148061085557506108548161084f612484565b611a14565b5b610894576040517f08c379a000000000000000000000000000000000000000000000000000000000815260040161088b90613f14565b60405180910390fd5b61089e838361248c565b505050565b600981815481106108b357600080fd5b906000526020600020016000915090505481565b6108d86108d2612484565b82612545565b610917576040517f08c379a000000000000000000000000000000000000000000000000000000000815260040161090e906140f4565b60405180910390fd5b610922838383612623565b505050565b6109428383836040518060200160405280600081525061153d565b505050565b61094f612484565b73ffffffffffffffffffffffffffffffffffffffff1661096d61125a565b73ffffffffffffffffffffffffffffffffffffffff16146109c3576040517f08c379a00000000000000000000000000000000000000000000000000000000081526004016109ba90614074565b60405180910390fd5b80600890805190602001906109d99291906130e3565b5050565b6060600c60008373ffffffffffffffffffffffffffffffffffffffff1673ffffffffffffffffffffffffffffffffffffffff168152602001908152602001600020805480602002602001604051908101604052809291908181526020018280548015610a9e57602002820191906000526020600020905b8160009054906101000a900473ffffffffffffffffffffffffffffffffffffffff1673ffffffffffffffffffffffffffffffffffffffff1681526020019060010190808311610a54575b50505050509050919050565b6000806002600084815260200190815260200160002060009054906101000a900473ffffffffffffffffffffffffffffffffffffffff169050600073ffffffffffffffffffffffffffffffffffffffff168173ffffffffffffffffffffffffffffffffffffffff161415610b53576040517f08c379a0000000000000000000000000000000000000000000000000000000008152600401610b4a90613f74565b60405180910390fd5b80915050919050565b6060600a805480602002602001604051908101604052809291908181526020016000905b82821015610d4057838290600052602060002090600502016040518060a00160405290816000820160009054906101000a900473ffffffffffffffffffffffffffffffffffffffff1673ffffffffffffffffffffffffffffffffffffffff1673ffffffffffffffffffffffffffffffffffffffff168152602001600182018054610c0990614446565b80601f0160208091040260200160405190810160405280929190818152602001828054610c3590614446565b8015610c825780601f10610c5757610100808354040283529160200191610c82565b820191906000526020600020905b815481529060010190602001808311610c6557829003601f168201915b50505050508152602001600282018054610c9b90614446565b80601f0160208091040260200160405190810160405280929190818152602001828054610cc790614446565b8015610d145780601f10610ce957610100808354040283529160200191610d14565b820191906000526020600020905b815481529060010190602001808311610cf757829003601f168201915b505050505081526020016003820154815260200160048201548152505081526020019060010190610b80565b50505050905090565b60008073ffffffffffffffffffffffffffffffffffffffff168273ffffffffffffffffffffffffffffffffffffffff161415610dba576040517f08c379a0000000000000000000000000000000000000000000000000000000008152600401610db190613f34565b60405180910390fd5b600360008373ffffffffffffffffffffffffffffffffffffffff1673ffffffffffffffffffffffffffffffffffffffff168152602001908152602001600020549050919050565b610e09612484565b73ffffffffffffffffffffffffffffffffffffffff16610e2761125a565b73ffffffffffffffffffffffffffffffffffffffff1614610e7d576040517f08c379a0000000000000000000000000000000000000000000000000000000008152600401610e7490614074565b60405180910390fd5b600073ffffffffffffffffffffffffffffffffffffffff16600760009054906101000a900473ffffffffffffffffffffffffffffffffffffffff1673ffffffffffffffffffffffffffffffffffffffff167f8be0079c531659141344cd1fd0a4f28419497f9722a3daafe3b4186f6b6457e060405160405180910390a36000600760006101000a81548173ffffffffffffffffffffffffffffffffffffffff021916908373ffffffffffffffffffffffffffffffffffffffff160217905550565b600080835111610f83576040517f08c379a0000000000000000000000000000000000000000000000000000000008152600401610f7a90613fd4565b60405180910390fd5b6000825111610fc7576040517f08c379a0000000000000000000000000000000000000000000000000000000008152600401610fbe90614114565b60405180910390fd5b610fd233848461287f565b905060006040518060a001604052803373ffffffffffffffffffffffffffffffffffffffff168152602001858152602001848152602001428152602001838152509050600b60003373ffffffffffffffffffffffffffffffffffffffff1673ffffffffffffffffffffffffffffffffffffffff16815260200190815260200160002081908060018154018082558091505060019003906000526020600020906005020160009091909190915060008201518160000160006101000a81548173ffffffffffffffffffffffffffffffffffffffff021916908373ffffffffffffffffffffffffffffffffffffffff16021790555060208201518160010190805190602001906110e19291906130e3565b5060408201518160020190805190602001906110fe9291906130e3565b5060608201518160030155608082015181600401555050600a81908060018154018082558091505060019003906000526020600020906005020160009091909190915060008201518160000160006101000a81548173ffffffffffffffffffffffffffffffffffffffff021916908373ffffffffffffffffffffffffffffffffffffffff16021790555060208201518160010190805190602001906111a49291906130e3565b5060408201518160020190805190602001906111c19291906130e3565b5060608201518160030155608082015181600401555050806080015181604001516040516111ef9190613c40565b6040518091039020826000015173ffffffffffffffffffffffffffffffffffffffff167fd2c271e18976fb68dd0629ceba8cdd5b0d5ea409dfc95e3ea4f1e3a4317f01de8460200151856060015160405161124b929190613e24565b60405180910390a45092915050565b6000600760009054906101000a900473ffffffffffffffffffffffffffffffffffffffff16905090565b606060098054806020026020016040519081016040528092919081815260200182805480156112d257602002820191906000526020600020905b8154815260200190600101908083116112be575b5050505050905090565b6060600180546112eb90614446565b80601f016020809104026020016040519081016040528092919081815260200182805461131790614446565b80156113645780601f1061133957610100808354040283529160200191611364565b820191906000526020600020905b81548152906001019060200180831161134757829003601f168201915b5050505050905090565b600c602052816000526040600020818154811061138a57600080fd5b906000526020600020016000915091509054906101000a900473ffffffffffffffffffffffffffffffffffffffff1681565b6113c4612484565b73ffffffffffffffffffffffffffffffffffffffff168273ffffffffffffffffffffffffffffffffffffffff161415611432576040517f08c379a000000000000000000000000000000000000000000000000000000000815260040161142990613ed4565b60405180910390fd5b806005600061143f612484565b73ffffffffffffffffffffffffffffffffffffffff1673ffffffffffffffffffffffffffffffffffffffff16815260200190815260200160002060008473ffffffffffffffffffffffffffffffffffffffff1673ffffffffffffffffffffffffffffffffffffffff16815260200190815260200160002060006101000a81548160ff0219169083151502179055508173ffffffffffffffffffffffffffffffffffffffff166114ec612484565b73ffffffffffffffffffffffffffffffffffffffff167f17307eab39ab6107e8899845ad3d59bd9653f200f220920489ca2b5937696c31836040516115319190613de7565b60405180910390a35050565b61154e611548612484565b83612545565b61158d576040517f08c379a0000000000000000000000000000000000000000000000000000000008152600401611584906140f4565b60405180910390fd5b61159984848484612937565b50505050565b60606115aa82612418565b6115e9576040517f08c379a00000000000000000000000000000000000000000000000000000000081526004016115e090614014565b60405180910390fd5b600060066000848152602001908152602001600020805461160990614446565b80601f016020809104026020016040519081016040528092919081815260200182805461163590614446565b80156116825780601f1061165757610100808354040283529160200191611682565b820191906000526020600020905b81548152906001019060200180831161166557829003601f168201915b505050505090506000611693612993565b90506000815114156116a95781925050506116ec565b6000825111156116de5780826040516020016116c6929190613c57565b604051602081830303815290604052925050506116ec565b6116e784612a25565b925050505b919050565b600073ffffffffffffffffffffffffffffffffffffffff168173ffffffffffffffffffffffffffffffffffffffff161415611761576040517f08c379a000000000000000000000000000000000000000000000000000000000815260040161175890614034565b60405180910390fd5b3373ffffffffffffffffffffffffffffffffffffffff168173ffffffffffffffffffffffffffffffffffffffff1614156117d0576040517f08c379a00000000000000000000000000000000000000000000000000000000081526004016117c790613fb4565b60405180910390fd5b6000805b600c60003373ffffffffffffffffffffffffffffffffffffffff1673ffffffffffffffffffffffffffffffffffffffff1681526020019081526020016000208054905081101561190f578273ffffffffffffffffffffffffffffffffffffffff16600c60003373ffffffffffffffffffffffffffffffffffffffff1673ffffffffffffffffffffffffffffffffffffffff16815260200190815260200160002082815481106118ac577f4e487b7100000000000000000000000000000000000000000000000000000000600052603260045260246000fd5b9060005260206000200160009054906101000a900473ffffffffffffffffffffffffffffffffffffffff1673ffffffffffffffffffffffffffffffffffffffff1614156118fc576001915061190f565b8080611907906144a9565b9150506117d4565b5080611a1057600c60003373ffffffffffffffffffffffffffffffffffffffff1673ffffffffffffffffffffffffffffffffffffffff168152602001908152602001600020829080600181540180825580915050600190039060005260206000200160009091909190916101000a81548173ffffffffffffffffffffffffffffffffffffffff021916908373ffffffffffffffffffffffffffffffffffffffff1602179055508173ffffffffffffffffffffffffffffffffffffffff163373ffffffffffffffffffffffffffffffffffffffff167f26e36b227ec3fc4bcf7dd57ac632530d294bf00aa858151df37d8f4e5dc5402660405160405180910390a35b5050565b6000600560008473ffffffffffffffffffffffffffffffffffffffff1673ffffffffffffffffffffffffffffffffffffffff16815260200190815260200160002060008373ffffffffffffffffffffffffffffffffffffffff1673ffffffffffffffffffffffffffffffffffffffff16815260200190815260200160002060009054906101000a900460ff16905092915050565b600a8181548110611ab857600080fd5b90600052602060002090600502016000915090508060000160009054906101000a900473ffffffffffffffffffffffffffffffffffffffff1690806001018054611b0190614446565b80601f0160208091040260200160405190810160405280929190818152602001828054611b2d90614446565b8015611b7a5780601f10611b4f57610100808354040283529160200191611b7a565b820191906000526020600020905b815481529060010190602001808311611b5d57829003601f168201915b505050505090806002018054611b8f90614446565b80601f0160208091040260200160405190810160405280929190818152602001828054611bbb90614446565b8015611c085780601f10611bdd57610100808354040283529160200191611c08565b820191906000526020600020905b815481529060010190602001808311611beb57829003601f168201915b5050505050908060030154908060040154905085565b611c26612484565b73ffffffffffffffffffffffffffffffffffffffff16611c4461125a565b73ffffffffffffffffffffffffffffffffffffffff1614611c9a576040517f08c379a0000000000000000000000000000000000000000000000000000000008152600401611c9190614074565b60405180910390fd5b600073ffffffffffffffffffffffffffffffffffffffff168173ffffffffffffffffffffffffffffffffffffffff161415611d0a576040517f08c379a0000000000000000000000000000000000000000000000000000000008152600401611d0190613e74565b60405180910390fd5b8073ffffffffffffffffffffffffffffffffffffffff16600760009054906101000a900473ffffffffffffffffffffffffffffffffffffffff1673ffffffffffffffffffffffffffffffffffffffff167f8be0079c531659141344cd1fd0a4f28419497f9722a3daafe3b4186f6b6457e060405160405180910390a380600760006101000a81548173ffffffffffffffffffffffffffffffffffffffff021916908373ffffffffffffffffffffffffffffffffffffffff16021790555050565b600073ffffffffffffffffffffffffffffffffffffffff168173ffffffffffffffffffffffffffffffffffffffff161415611e3a576040517f08c379a0000000000000000000000000000000000000000000000000000000008152600401611e3190613f54565b60405180910390fd5b60005b600c60003373ffffffffffffffffffffffffffffffffffffffff1673ffffffffffffffffffffffffffffffffffffffff16815260200190815260200160002080549050811015612227578173ffffffffffffffffffffffffffffffffffffffff16600c60003373ffffffffffffffffffffffffffffffffffffffff1673ffffffffffffffffffffffffffffffffffffffff1681526020019081526020016000208281548110611f15577f4e487b7100000000000000000000000000000000000000000000000000000000600052603260045260246000fd5b9060005260206000200160009054906101000a900473ffffffffffffffffffffffffffffffffffffffff1673ffffffffffffffffffffffffffffffffffffffff16141561221457600c60003373ffffffffffffffffffffffffffffffffffffffff1673ffffffffffffffffffffffffffffffffffffffff1681526020019081526020016000206001600c60003373ffffffffffffffffffffffffffffffffffffffff1673ffffffffffffffffffffffffffffffffffffffff16815260200190815260200160002080549050611fea919061435c565b81548110612021577f4e487b7100000000000000000000000000000000000000000000000000000000600052603260045260246000fd5b9060005260206000200160009054906101000a900473ffffffffffffffffffffffffffffffffffffffff16600c60003373ffffffffffffffffffffffffffffffffffffffff1673ffffffffffffffffffffffffffffffffffffffff16815260200190815260200160002082815481106120c3577f4e487b7100000000000000000000000000000000000000000000000000000000600052603260045260246000fd5b9060005260206000200160006101000a81548173ffffffffffffffffffffffffffffffffffffffff021916908373ffffffffffffffffffffffffffffffffffffffff160217905550600c60003373ffffffffffffffffffffffffffffffffffffffff1673ffffffffffffffffffffffffffffffffffffffff168152602001908152602001600020805480612180577f4e487b7100000000000000000000000000000000000000000000000000000000600052603160045260246000fd5b6001900381819060005260206000200160006101000a81549073ffffffffffffffffffffffffffffffffffffffff021916905590558173ffffffffffffffffffffffffffffffffffffffff163373ffffffffffffffffffffffffffffffffffffffff167fe8e915cd6d448d72358fdb7e7ed3f2ba3eb6293f6213b42830a7c1476df87f2b60405160405180910390a3612227565b808061221f906144a9565b915050611e3d565b5050565b600b602052816000526040600020818154811061224757600080fd5b9060005260206000209060050201600091509150508060000160009054906101000a900473ffffffffffffffffffffffffffffffffffffffff169080600101805461229190614446565b80601f01602080910402602001604051908101604052809291908181526020018280546122bd90614446565b801561230a5780601f106122df5761010080835404028352916020019161230a565b820191906000526020600020905b8154815290600101906020018083116122ed57829003601f168201915b50505050509080600201805461231f90614446565b80601f016020809104026020016040519081016040528092919081815260200182805461234b90614446565b80156123985780601f1061236d57610100808354040283529160200191612398565b820191906000526020600020905b81548152906001019060200180831161237b57829003601f168201915b5050505050908060030154908060040154905085565b60007f01ffc9a7000000000000000000000000000000000000000000000000000000007bffffffffffffffffffffffffffffffffffffffffffffffffffffffff1916827bffffffffffffffffffffffffffffffffffffffffffffffffffffffff1916149050919050565b60008073ffffffffffffffffffffffffffffffffffffffff166002600084815260200190815260200160002060009054906101000a900473ffffffffffffffffffffffffffffffffffffffff1673ffffffffffffffffffffffffffffffffffffffff1614159050919050565b600033905090565b816004600083815260200190815260200160002060006101000a81548173ffffffffffffffffffffffffffffffffffffffff021916908373ffffffffffffffffffffffffffffffffffffffff160217905550808273ffffffffffffffffffffffffffffffffffffffff166124ff83610aaa565b73ffffffffffffffffffffffffffffffffffffffff167f8c5be1e5ebec7d5bd14f71427d1e84f3dd0314c0f7b2291e5b200ac8c7c3b92560405160405180910390a45050565b600061255082612418565b61258f576040517f08c379a000000000000000000000000000000000000000000000000000000000815260040161258690613ef4565b60405180910390fd5b600061259a83610aaa565b90508073ffffffffffffffffffffffffffffffffffffffff168473ffffffffffffffffffffffffffffffffffffffff16148061260957508373ffffffffffffffffffffffffffffffffffffffff166125f184610706565b73ffffffffffffffffffffffffffffffffffffffff16145b8061261a57506126198185611a14565b5b91505092915050565b8273ffffffffffffffffffffffffffffffffffffffff1661264382610aaa565b73ffffffffffffffffffffffffffffffffffffffff1614612699576040517f08c379a000000000000000000000000000000000000000000000000000000000815260040161269090614094565b60405180910390fd5b600073ffffffffffffffffffffffffffffffffffffffff168273ffffffffffffffffffffffffffffffffffffffff161415612709576040517f08c379a000000000000000000000000000000000000000000000000000000000815260040161270090613eb4565b60405180910390fd5b612714838383612acc565b61271f60008261248c565b6001600360008573ffffffffffffffffffffffffffffffffffffffff1673ffffffffffffffffffffffffffffffffffffffff168152602001908152602001600020600082825461276f919061435c565b925050819055506001600360008473ffffffffffffffffffffffffffffffffffffffff1673ffffffffffffffffffffffffffffffffffffffff16815260200190815260200160002060008282546127c691906142d5565b92505081905550816002600083815260200190815260200160002060006101000a81548173ffffffffffffffffffffffffffffffffffffffff021916908373ffffffffffffffffffffffffffffffffffffffff160217905550808273ffffffffffffffffffffffffffffffffffffffff168473ffffffffffffffffffffffffffffffffffffffff167fddf252ad1be2c89b69c2b068fc378daa952ba7f163c4a11628f55a4df523b3ef60405160405180910390a4505050565b600080848484426040516020016128999493929190613bfa565b6040516020818303038152906040528051906020012060001c90506128be8582612ad1565b6128c88184612aef565b60098190806001815401808255809150506001900390600052602060002001600090919091909150557f34f69852134dfe83c523370afb749e8aeb750da43e24d0e9a15e7e69055f25cb85828560405161292493929190613d43565b60405180910390a1809150509392505050565b612942848484612623565b61294e84848484612b63565b61298d576040517f08c379a000000000000000000000000000000000000000000000000000000000815260040161298490613e54565b60405180910390fd5b50505050565b6060600880546129a290614446565b80601f01602080910402602001604051908101604052809291908181526020018280546129ce90614446565b8015612a1b5780601f106129f057610100808354040283529160200191612a1b565b820191906000526020600020905b8154815290600101906020018083116129fe57829003601f168201915b5050505050905090565b6060612a3082612418565b612a6f576040517f08c379a0000000000000000000000000000000000000000000000000000000008152600401612a66906140b4565b60405180910390fd5b6000612a79612993565b90506000815111612a995760405180602001604052806000815250612ac4565b80612aa384612cfa565b604051602001612ab4929190613c57565b6040516020818303038152906040525b915050919050565b505050565b612aeb828260405180602001604052806000815250612ea7565b5050565b612af882612418565b612b37576040517f08c379a0000000000000000000000000000000000000000000000000000000008152600401612b2e90613f94565b60405180910390fd5b80600660008481526020019081526020016000209080519060200190612b5e9291906130e3565b505050565b6000612b848473ffffffffffffffffffffffffffffffffffffffff16612f02565b15612ced578373ffffffffffffffffffffffffffffffffffffffff1663150b7a02612bad612484565b8786866040518563ffffffff1660e01b8152600401612bcf9493929190613c96565b602060405180830381600087803b158015612be957600080fd5b505af1925050508015612c1a57506040513d601f19601f82011682018060405250810190612c17919061348f565b60015b612c9d573d8060008114612c4a576040519150601f19603f3d011682016040523d82523d6000602084013e612c4f565b606091505b50600081511415612c95576040517f08c379a0000000000000000000000000000000000000000000000000000000008152600401612c8c90613e54565b60405180910390fd5b805181602001fd5b63150b7a0260e01b7bffffffffffffffffffffffffffffffffffffffffffffffffffffffff1916817bffffffffffffffffffffffffffffffffffffffffffffffffffffffff191614915050612cf2565b600190505b949350505050565b60606000821415612d42576040518060400160405280600181526020017f30000000000000000000000000000000000000000000000000000000000000008152509050612ea2565b600082905060005b60008214612d74578080612d5d906144a9565b915050600a82612d6d919061432b565b9150612d4a565b60008167ffffffffffffffff811115612db6577f4e487b7100000000000000000000000000000000000000000000000000000000600052604160045260246000fd5b6040519080825280601f01601f191660200182016040528015612de85781602001600182028036833780820191505090505b5090505b60008514612e9b57600182612e01919061435c565b9150600a85612e109190614520565b6030612e1c91906142d5565b60f81b818381518110612e58577f4e487b7100000000000000000000000000000000000000000000000000000000600052603260045260246000fd5b60200101907effffffffffffffffffffffffffffffffffffffffffffffffffffffffffffff1916908160001a905350600a85612e94919061432b565b9450612dec565b8093505050505b919050565b612eb18383612f15565b612ebe6000848484612b63565b612efd576040517f08c379a0000000000000000000000000000000000000000000000000000000008152600401612ef490613e54565b60405180910390fd5b505050565b600080823b905060008111915050919050565b600073ffffffffffffffffffffffffffffffffffffffff168273ffffffffffffffffffffffffffffffffffffffff161415612f85576040517f08c379a0000000000000000000000000000000000000000000000000000000008152600401612f7c90613ff4565b60405180910390fd5b612f8e81612418565b15612fce576040517f08c379a0000000000000000000000000000000000000000000000000000000008152600401612fc590613e94565b60405180910390fd5b612fda60008383612acc565b6001600360008473ffffffffffffffffffffffffffffffffffffffff1673ffffffffffffffffffffffffffffffffffffffff168152602001908152602001600020600082825461302a91906142d5565b92505081905550816002600083815260200190815260200160002060006101000a81548173ffffffffffffffffffffffffffffffffffffffff021916908373ffffffffffffffffffffffffffffffffffffffff160217905550808273ffffffffffffffffffffffffffffffffffffffff16600073ffffffffffffffffffffffffffffffffffffffff167fddf252ad1be2c89b69c2b068fc378daa952ba7f163c4a11628f55a4df523b3ef60405160405180910390a45050565b8280546130ef90614446565b90600052602060002090601f0160209004810192826131115760008555613158565b82601f1061312a57805160ff1916838001178555613158565b82800160010185558215613158579182015b8281111561315757825182559160200191906001019061313c565b5b5090506131659190613169565b5090565b5b8082111561318257600081600090555060010161316a565b5090565b600061319961319484614174565b61414f565b9050828152602081018484840111156131b157600080fd5b6131bc848285614404565b509392505050565b60006131d76131d2846141a5565b61414f565b9050828152602081018484840111156131ef57600080fd5b6131fa848285614404565b509392505050565b60008135905061321181614c60565b92915050565b60008135905061322681614c77565b92915050565b60008135905061323b81614c8e565b92915050565b60008151905061325081614c8e565b92915050565b600082601f83011261326757600080fd5b8135613277848260208601613186565b91505092915050565b600082601f83011261329157600080fd5b81356132a18482602086016131c4565b91505092915050565b6000813590506132b981614ca5565b92915050565b6000602082840312156132d157600080fd5b60006132df84828501613202565b91505092915050565b600080604083850312156132fb57600080fd5b600061330985828601613202565b925050602061331a85828601613202565b9150509250929050565b60008060006060848603121561333957600080fd5b600061334786828701613202565b935050602061335886828701613202565b9250506040613369868287016132aa565b9150509250925092565b6000806000806080858703121561338957600080fd5b600061339787828801613202565b94505060206133a887828801613202565b93505060406133b9878288016132aa565b925050606085013567ffffffffffffffff8111156133d657600080fd5b6133e287828801613256565b91505092959194509250565b6000806040838503121561340157600080fd5b600061340f85828601613202565b925050602061342085828601613217565b9150509250929050565b6000806040838503121561343d57600080fd5b600061344b85828601613202565b925050602061345c858286016132aa565b9150509250929050565b60006020828403121561347857600080fd5b60006134868482850161322c565b91505092915050565b6000602082840312156134a157600080fd5b60006134af84828501613241565b91505092915050565b6000602082840312156134ca57600080fd5b600082013567ffffffffffffffff8111156134e457600080fd5b6134f084828501613280565b91505092915050565b6000806040838503121561350c57600080fd5b600083013567ffffffffffffffff81111561352657600080fd5b61353285828601613280565b925050602083013567ffffffffffffffff81111561354f57600080fd5b61355b85828601613280565b9150509250929050565b60006020828403121561357757600080fd5b6000613585848285016132aa565b91505092915050565b600061359a83836135d2565b60208301905092915050565b60006135b28383613b48565b905092915050565b60006135c68383613bc5565b60208301905092915050565b6135db81614390565b82525050565b6135ea81614390565b82525050565b6136016135fc82614390565b6144f2565b82525050565b600061361282614206565b61361c8185614264565b9350613627836141d6565b8060005b8381101561365857815161363f888261358e565b975061364a8361423d565b92505060018101905061362b565b5085935050505092915050565b600061367082614211565b61367a8185614275565b93508360208202850161368c856141e6565b8060005b858110156136c857848403895281516136a985826135a6565b94506136b48361424a565b925060208a01995050600181019050613690565b50829750879550505050505092915050565b60006136e58261421c565b6136ef8185614286565b93506136fa836141f6565b8060005b8381101561372b57815161371288826135ba565b975061371d83614257565b9250506001810190506136fe565b5085935050505092915050565b613741816143a2565b82525050565b600061375282614227565b61375c8185614297565b935061376c818560208601614413565b6137758161460d565b840191505092915050565b600061378b82614232565b61379581856142a8565b93506137a5818560208601614413565b6137ae8161460d565b840191505092915050565b60006137c482614232565b6137ce81856142b9565b93506137de818560208601614413565b6137e78161460d565b840191505092915050565b60006137fd82614232565b61380781856142ca565b9350613817818560208601614413565b80840191505092915050565b60006138306032836142b9565b915061383b8261462b565b604082019050919050565b60006138536026836142b9565b915061385e8261467a565b604082019050919050565b6000613876601c836142b9565b9150613881826146c9565b602082019050919050565b60006138996024836142b9565b91506138a4826146f2565b604082019050919050565b60006138bc6019836142b9565b91506138c782614741565b602082019050919050565b60006138df602c836142b9565b91506138ea8261476a565b604082019050919050565b60006139026038836142b9565b915061390d826147b9565b604082019050919050565b6000613925602a836142b9565b915061393082614808565b604082019050919050565b6000613948600f836142b9565b915061395382614857565b602082019050919050565b600061396b6029836142b9565b915061397682614880565b604082019050919050565b600061398e602e836142b9565b9150613999826148cf565b604082019050919050565b60006139b16021836142b9565b91506139bc8261491e565b604082019050919050565b60006139d46021836142b9565b91506139df8261496d565b604082019050919050565b60006139f76020836142b9565b9150613a02826149bc565b602082019050919050565b6000613a1a6031836142b9565b9150613a25826149e5565b604082019050919050565b6000613a3d600e836142b9565b9150613a4882614a34565b602082019050919050565b6000613a60602c836142b9565b9150613a6b82614a5d565b604082019050919050565b6000613a836020836142b9565b9150613a8e82614aac565b602082019050919050565b6000613aa66029836142b9565b9150613ab182614ad5565b604082019050919050565b6000613ac9602f836142b9565b9150613ad482614b24565b604082019050919050565b6000613aec6021836142b9565b9150613af782614b73565b604082019050919050565b6000613b0f6031836142b9565b9150613b1a82614bc2565b604082019050919050565b6000613b32602b836142b9565b9150613b3d82614c11565b604082019050919050565b600060a083016000830151613b6060008601826135d2565b5060208301518482036020860152613b788282613780565b91505060408301518482036040860152613b928282613780565b9150506060830151613ba76060860182613bc5565b506080830151613bba6080860182613bc5565b508091505092915050565b613bce816143fa565b82525050565b613bdd816143fa565b82525050565b613bf4613bef826143fa565b614516565b82525050565b6000613c0682876135f0565b601482019150613c1682866137f2565b9150613c2282856137f2565b9150613c2e8284613be3565b60208201915081905095945050505050565b6000613c4c82846137f2565b915081905092915050565b6000613c6382856137f2565b9150613c6f82846137f2565b91508190509392505050565b6000602082019050613c9060008301846135e1565b92915050565b6000608082019050613cab60008301876135e1565b613cb860208301866135e1565b613cc56040830185613bd4565b8181036060830152613cd78184613747565b905095945050505050565b600060a082019050613cf760008301886135e1565b8181036020830152613d0981876137b9565b90508181036040830152613d1d81866137b9565b9050613d2c6060830185613bd4565b613d396080830184613bd4565b9695505050505050565b6000606082019050613d5860008301866135e1565b613d656020830185613bd4565b8181036040830152613d7781846137b9565b9050949350505050565b60006020820190508181036000830152613d9b8184613607565b905092915050565b60006020820190508181036000830152613dbd8184613665565b905092915050565b60006020820190508181036000830152613ddf81846136da565b905092915050565b6000602082019050613dfc6000830184613738565b92915050565b60006020820190508181036000830152613e1c81846137b9565b905092915050565b60006040820190508181036000830152613e3e81856137b9565b9050613e4d6020830184613bd4565b9392505050565b60006020820190508181036000830152613e6d81613823565b9050919050565b60006020820190508181036000830152613e8d81613846565b9050919050565b60006020820190508181036000830152613ead81613869565b9050919050565b60006020820190508181036000830152613ecd8161388c565b9050919050565b60006020820190508181036000830152613eed816138af565b9050919050565b60006020820190508181036000830152613f0d816138d2565b9050919050565b60006020820190508181036000830152613f2d816138f5565b9050919050565b60006020820190508181036000830152613f4d81613918565b9050919050565b60006020820190508181036000830152613f6d8161393b565b9050919050565b60006020820190508181036000830152613f8d8161395e565b9050919050565b60006020820190508181036000830152613fad81613981565b9050919050565b60006020820190508181036000830152613fcd816139a4565b9050919050565b60006020820190508181036000830152613fed816139c7565b9050919050565b6000602082019050818103600083015261400d816139ea565b9050919050565b6000602082019050818103600083015261402d81613a0d565b9050919050565b6000602082019050818103600083015261404d81613a30565b9050919050565b6000602082019050818103600083015261406d81613a53565b9050919050565b6000602082019050818103600083015261408d81613a76565b9050919050565b600060208201905081810360008301526140ad81613a99565b9050919050565b600060208201905081810360008301526140cd81613abc565b9050919050565b600060208201905081810360008301526140ed81613adf565b9050919050565b6000602082019050818103600083015261410d81613b02565b9050919050565b6000602082019050818103600083015261412d81613b25565b9050919050565b60006020820190506141496000830184613bd4565b92915050565b600061415961416a565b90506141658282614478565b919050565b6000604051905090565b600067ffffffffffffffff82111561418f5761418e6145de565b5b6141988261460d565b9050602081019050919050565b600067ffffffffffffffff8211156141c0576141bf6145de565b5b6141c98261460d565b9050602081019050919050565b6000819050602082019050919050565b6000819050602082019050919050565b6000819050602082019050919050565b600081519050919050565b600081519050919050565b600081519050919050565b600081519050919050565b600081519050919050565b6000602082019050919050565b6000602082019050919050565b6000602082019050919050565b600082825260208201905092915050565b600082825260208201905092915050565b600082825260208201905092915050565b600082825260208201905092915050565b600082825260208201905092915050565b600082825260208201905092915050565b600081905092915050565b60006142e0826143fa565b91506142eb836143fa565b9250827fffffffffffffffffffffffffffffffffffffffffffffffffffffffffffffffff038211156143205761431f614551565b5b828201905092915050565b6000614336826143fa565b9150614341836143fa565b92508261435157614350614580565b5b828204905092915050565b6000614367826143fa565b9150614372836143fa565b92508282101561438557614384614551565b5b828203905092915050565b600061439b826143da565b9050919050565b60008115159050919050565b60007fffffffff0000000000000000000000000000000000000000000000000000000082169050919050565b600073ffffffffffffffffffffffffffffffffffffffff82169050919050565b6000819050919050565b82818337600083830152505050565b60005b83811015614431578082015181840152602081019050614416565b83811115614440576000848401525b50505050565b6000600282049050600182168061445e57607f821691505b60208210811415614472576144716145af565b5b50919050565b6144818261460d565b810181811067ffffffffffffffff821117156144a05761449f6145de565b5b80604052505050565b60006144b4826143fa565b91507fffffffffffffffffffffffffffffffffffffffffffffffffffffffffffffffff8214156144e7576144e6614551565b5b600182019050919050565b60006144fd82614504565b9050919050565b600061450f8261461e565b9050919050565b6000819050919050565b600061452b826143fa565b9150614536836143fa565b92508261454657614545614580565b5b828206905092915050565b7f4e487b7100000000000000000000000000000000000000000000000000000000600052601160045260246000fd5b7f4e487b7100000000000000000000000000000000000000000000000000000000600052601260045260246000fd5b7f4e487b7100000000000000000000000000000000000000000000000000000000600052602260045260246000fd5b7f4e487b7100000000000000000000000000000000000000000000000000000000600052604160045260246000fd5b6000601f19601f8301169050919050565b60008160601b9050919050565b7f4552433732313a207472616e7366657220746f206e6f6e20455243373231526560008201527f63656976657220696d706c656d656e7465720000000000000000000000000000602082015250565b7f4f776e61626c653a206e6577206f776e657220697320746865207a65726f206160008201527f6464726573730000000000000000000000000000000000000000000000000000602082015250565b7f4552433732313a20746f6b656e20616c7265616479206d696e74656400000000600082015250565b7f4552433732313a207472616e7366657220746f20746865207a65726f2061646460008201527f7265737300000000000000000000000000000000000000000000000000000000602082015250565b7f4552433732313a20617070726f766520746f2063616c6c657200000000000000600082015250565b7f4552433732313a206f70657261746f7220717565727920666f72206e6f6e657860008201527f697374656e7420746f6b656e0000000000000000000000000000000000000000602082015250565b7f4552433732313a20617070726f76652063616c6c6572206973206e6f74206f7760008201527f6e6572206e6f7220617070726f76656420666f7220616c6c0000000000000000602082015250565b7f4552433732313a2062616c616e636520717565727920666f7220746865207a6560008201527f726f206164647265737300000000000000000000000000000000000000000000602082015250565b7f496e76616c6964205f617574686f720000000000000000000000000000000000600082015250565b7f4552433732313a206f776e657220717565727920666f72206e6f6e657869737460008201527f656e7420746f6b656e0000000000000000000000000000000000000000000000602082015250565b7f45524337323155524953746f726167653a2055524920736574206f66206e6f6e60008201527f6578697374656e7420746f6b656e000000000000000000000000000000000000602082015250565b7f417574686f722063616e6e6f742073756273637269626520746f20697473656c60008201527f6600000000000000000000000000000000000000000000000000000000000000602082015250565b7f5469746c65206d75737420686176652061206e6f6e2d656d7074792076616c7560008201527f6500000000000000000000000000000000000000000000000000000000000000602082015250565b7f4552433732313a206d696e7420746f20746865207a65726f2061646472657373600082015250565b7f45524337323155524953746f726167653a2055524920717565727920666f722060008201527f6e6f6e6578697374656e7420746f6b656e000000000000000000000000000000602082015250565b7f496e76616c696420617574686f72000000000000000000000000000000000000600082015250565b7f4552433732313a20617070726f76656420717565727920666f72206e6f6e657860008201527f697374656e7420746f6b656e0000000000000000000000000000000000000000602082015250565b7f4f776e61626c653a2063616c6c6572206973206e6f7420746865206f776e6572600082015250565b7f4552433732313a207472616e73666572206f6620746f6b656e2074686174206960008201527f73206e6f74206f776e0000000000000000000000000000000000000000000000602082015250565b7f4552433732314d657461646174613a2055524920717565727920666f72206e6f60008201527f6e6578697374656e7420746f6b656e0000000000000000000000000000000000602082015250565b7f4552433732313a20617070726f76616c20746f2063757272656e74206f776e6560008201527f7200000000000000000000000000000000000000000000000000000000000000602082015250565b7f4552433732313a207472616e736665722063616c6c6572206973206e6f74206f60008201527f776e6572206e6f7220617070726f766564000000000000000000000000000000602082015250565b7f41727469636c6520636f6e74656e74206d75737420686176652061206e6f6e2d60008201527f656d7074792076616c7565000000000000000000000000000000000000000000602082015250565b614c6981614390565b8114614c7457600080fd5b50565b614c80816143a2565b8114614c8b57600080fd5b50565b614c97816143ae565b8114614ca257600080fd5b50565b614cae816143fa565b8114614cb957600080fd5b5056fea264697066735822122063e8b439af6defa68c5dd90a6183e8e8438a8f27d5dba26d068df37ede1d9cf864736f6c63430008040033",
  "immutableReferences": {},
  "source": "// SPDX-License-Identifier: MIT\npragma solidity ^0.8.0;\npragma experimental ABIEncoderV2;\n\nimport \"./ArticleNFT.sol\";\n\ncontract Decentrastack is ArticleNFT {\n  // get all articles ever written\n  Article[] public articles;\n  \n  struct Article {\n    address author; // 20 bytes\n    string title; // TODO max characters for an article title *should be* 70 chars via UI\n    string contentIpfsHash; // ipfs hash of body content, to reduce storage costs\n    // ipfs hash is 46 bytes so maybe find way to byte pack via separating into:\n    /* struct Multihash {\n        bytes32 hash\n        uint8 hash_function\n        uint8 size\n    } */\n    uint256 date; // uint32 would make max date in year 2106\n    uint256 articleId; // articleId can be cheaper if just a counter instead of keccak hash\n  }\n\n  // @dev consider adding index variable for each array; to help with lookups instead of for loop\n  mapping(address => Article[]) public authorToArticles;\n  mapping(address => address[]) public usersToSubscribedAuthors;\n\n  event ArticlePublished(address indexed _author, string _title, string indexed _contentIpfsHash, uint256 _date, uint256 indexed _articleId);\n  event NewUserSubscription(address indexed _follower, address indexed _author);\n  event UserUnsubscribedFromAuthor(address indexed _follower, address indexed _author);\n\n  function createArticle(string memory _title, string memory _contentIpfsHash) public returns(uint256 newArticleId) {\n    require(bytes(_title).length > 0, \"Title must have a non-empty value\");\n    require(bytes(_contentIpfsHash).length > 0, \"Article content must have a non-empty value\");\n   \n    newArticleId = createCollectible(msg.sender, _title, _contentIpfsHash);\n\n    Article memory newArticle = Article({\n      author: msg.sender,\n      title: _title,\n      contentIpfsHash: _contentIpfsHash,\n      date: block.timestamp,\n      articleId: newArticleId\n    });\n\n    authorToArticles[msg.sender].push(newArticle);\n    articles.push(newArticle);\n    \n    emit ArticlePublished(newArticle.author, newArticle.title, newArticle.contentIpfsHash, newArticle.date, newArticle.articleId);\n  }\n\n  function getArticles() public view returns(Article[] memory) {\n      return articles;\n  }\n\n  function getUserToSubscribedAuthors(address _user) public view returns(address[] memory) {\n      return usersToSubscribedAuthors[_user];\n  }\n\n  // subscribe to author\n  function subscribeToAuthor(address _author) public {\n    require(_author != address(0), 'Invalid author');\n    require(_author != msg.sender, 'Author cannot subscribe to itself');\n    bool alreadySubscribed = false;\n    for(uint i = 0; i < usersToSubscribedAuthors[msg.sender].length; i++) {\n      if(usersToSubscribedAuthors[msg.sender][i] == _author) {\n        alreadySubscribed = true;\n        break;\n      }\n    }\n    if(!alreadySubscribed) {\n        usersToSubscribedAuthors[msg.sender].push(_author);\n        emit NewUserSubscription(msg.sender, _author);\n    }\n  }\n\n  // unsubscribe from author\n  function unsubscribeFromAuthor(address _author) public {\n    require(_author != address(0), 'Invalid _author');\n    for(uint i = 0; i < usersToSubscribedAuthors[msg.sender].length; i++) {\n      if(usersToSubscribedAuthors[msg.sender][i] == _author) {\n        // swap index with the last item in the array and then `delete` & shorten array\n        // @dev this is to prevent 0x0 value being written to author & bloating array\n        usersToSubscribedAuthors[msg.sender][i] = usersToSubscribedAuthors[msg.sender][usersToSubscribedAuthors[msg.sender].length - 1];\n        usersToSubscribedAuthors[msg.sender].pop();\n        emit UserUnsubscribedFromAuthor(msg.sender, _author);\n        break;\n      }\n    }\n  }\n}\n",
  "sourcePath": "/Users/db/Projects/decentraStack/contracts/Decentrastack.sol",
  "compiler": {
    "name": "solc",
    "version": "0.8.4+commit.c7e474f2.Emscripten.clang"
  },
  "schemaVersion": "3.3.3",
  "updatedAt": "2021-05-27T22:49:54.794Z",
  "devdoc": {
    "kind": "dev",
    "methods": {
      "approve(address,uint256)": {
        "details": "See {IERC721-approve}."
      },
      "balanceOf(address)": {
        "details": "See {IERC721-balanceOf}."
      },
      "getApproved(uint256)": {
        "details": "See {IERC721-getApproved}."
      },
      "isApprovedForAll(address,address)": {
        "details": "See {IERC721-isApprovedForAll}."
      },
      "name()": {
        "details": "See {IERC721Metadata-name}."
      },
      "owner()": {
        "details": "Returns the address of the current owner."
      },
      "ownerOf(uint256)": {
        "details": "See {IERC721-ownerOf}."
      },
      "renounceOwnership()": {
        "details": "Leaves the contract without owner. It will not be possible to call `onlyOwner` functions anymore. Can only be called by the current owner. NOTE: Renouncing ownership will leave the contract without an owner, thereby removing any functionality that is only available to the owner."
      },
      "safeTransferFrom(address,address,uint256)": {
        "details": "See {IERC721-safeTransferFrom}."
      },
      "safeTransferFrom(address,address,uint256,bytes)": {
        "details": "See {IERC721-safeTransferFrom}."
      },
      "setApprovalForAll(address,bool)": {
        "details": "See {IERC721-setApprovalForAll}."
      },
      "supportsInterface(bytes4)": {
        "details": "See {IERC165-supportsInterface}."
      },
      "symbol()": {
        "details": "See {IERC721Metadata-symbol}."
      },
      "tokenURI(uint256)": {
        "details": "See {IERC721Metadata-tokenURI}."
      },
      "transferFrom(address,address,uint256)": {
        "details": "See {IERC721-transferFrom}."
      },
      "transferOwnership(address)": {
        "details": "Transfers ownership of the contract to a new account (`newOwner`). Can only be called by the current owner."
      }
    },
    "version": 1
  },
  "userdoc": {
    "kind": "user",
    "methods": {},
    "version": 1
  }
}