{
  "contractName": "Decentrastack",
  "abi": [
    {
      "anonymous": false,
      "inputs": [
        {
          "indexed": true,
          "internalType": "address",
          "name": "owner",
          "type": "address"
        },
        {
          "indexed": true,
          "internalType": "address",
          "name": "approved",
          "type": "address"
        },
        {
          "indexed": true,
          "internalType": "uint256",
          "name": "tokenId",
          "type": "uint256"
        }
      ],
      "name": "Approval",
      "type": "event"
    },
    {
      "anonymous": false,
      "inputs": [
        {
          "indexed": true,
          "internalType": "address",
          "name": "owner",
          "type": "address"
        },
        {
          "indexed": true,
          "internalType": "address",
          "name": "operator",
          "type": "address"
        },
        {
          "indexed": false,
          "internalType": "bool",
          "name": "approved",
          "type": "bool"
        }
      ],
      "name": "ApprovalForAll",
      "type": "event"
    },
    {
      "anonymous": false,
      "inputs": [
        {
          "indexed": true,
          "internalType": "address",
          "name": "_author",
          "type": "address"
        },
        {
          "indexed": false,
          "internalType": "string",
          "name": "_title",
          "type": "string"
        },
        {
          "indexed": true,
          "internalType": "string",
          "name": "_contentIpfsHash",
          "type": "string"
        },
        {
          "indexed": false,
          "internalType": "uint256",
          "name": "_date",
          "type": "uint256"
        },
        {
          "indexed": true,
          "internalType": "uint256",
          "name": "_articleId",
          "type": "uint256"
        }
      ],
      "name": "ArticlePublished",
      "type": "event"
    },
    {
      "anonymous": false,
      "inputs": [
        {
          "indexed": true,
          "internalType": "address",
          "name": "_follower",
          "type": "address"
        },
        {
          "indexed": true,
          "internalType": "address",
          "name": "_author",
          "type": "address"
        }
      ],
      "name": "NewUserSubscription",
      "type": "event"
    },
    {
      "anonymous": false,
      "inputs": [
        {
          "indexed": true,
          "internalType": "address",
          "name": "previousOwner",
          "type": "address"
        },
        {
          "indexed": true,
          "internalType": "address",
          "name": "newOwner",
          "type": "address"
        }
      ],
      "name": "OwnershipTransferred",
      "type": "event"
    },
    {
      "anonymous": false,
      "inputs": [
        {
          "indexed": true,
          "internalType": "address",
          "name": "from",
          "type": "address"
        },
        {
          "indexed": true,
          "internalType": "address",
          "name": "to",
          "type": "address"
        },
        {
          "indexed": true,
          "internalType": "uint256",
          "name": "tokenId",
          "type": "uint256"
        }
      ],
      "name": "Transfer",
      "type": "event"
    },
    {
      "anonymous": false,
      "inputs": [
        {
          "indexed": true,
          "internalType": "address",
          "name": "_follower",
          "type": "address"
        },
        {
          "indexed": true,
          "internalType": "address",
          "name": "_author",
          "type": "address"
        }
      ],
      "name": "UserUnsubscribedFromAuthor",
      "type": "event"
    },
    {
      "inputs": [
        {
          "internalType": "address",
          "name": "to",
          "type": "address"
        },
        {
          "internalType": "uint256",
          "name": "tokenId",
          "type": "uint256"
        }
      ],
      "name": "approve",
      "outputs": [],
      "stateMutability": "nonpayable",
      "type": "function"
    },
    {
      "inputs": [
        {
          "internalType": "uint256",
          "name": "",
          "type": "uint256"
        }
      ],
      "name": "articles",
      "outputs": [
        {
          "internalType": "address",
          "name": "author",
          "type": "address"
        },
        {
          "internalType": "string",
          "name": "title",
          "type": "string"
        },
        {
          "internalType": "string",
          "name": "contentIpfsHash",
          "type": "string"
        },
        {
          "internalType": "uint256",
          "name": "date",
          "type": "uint256"
        },
        {
          "internalType": "uint256",
          "name": "articleId",
          "type": "uint256"
        }
      ],
      "stateMutability": "view",
      "type": "function",
      "constant": true
    },
    {
      "inputs": [
        {
          "internalType": "address",
          "name": "",
          "type": "address"
        },
        {
          "internalType": "uint256",
          "name": "",
          "type": "uint256"
        }
      ],
      "name": "authorToArticles",
      "outputs": [
        {
          "internalType": "address",
          "name": "author",
          "type": "address"
        },
        {
          "internalType": "string",
          "name": "title",
          "type": "string"
        },
        {
          "internalType": "string",
          "name": "contentIpfsHash",
          "type": "string"
        },
        {
          "internalType": "uint256",
          "name": "date",
          "type": "uint256"
        },
        {
          "internalType": "uint256",
          "name": "articleId",
          "type": "uint256"
        }
      ],
      "stateMutability": "view",
      "type": "function",
      "constant": true
    },
    {
      "inputs": [
        {
          "internalType": "address",
          "name": "owner",
          "type": "address"
        }
      ],
      "name": "balanceOf",
      "outputs": [
        {
          "internalType": "uint256",
          "name": "",
          "type": "uint256"
        }
      ],
      "stateMutability": "view",
      "type": "function",
      "constant": true
    },
    {
      "inputs": [
        {
          "internalType": "address",
          "name": "_author",
          "type": "address"
        },
        {
          "internalType": "string",
          "name": "_title",
          "type": "string"
        },
        {
          "internalType": "string",
          "name": "_contentIpfsHash",
          "type": "string"
        }
      ],
      "name": "createCollectible",
      "outputs": [
        {
          "internalType": "uint256",
          "name": "",
          "type": "uint256"
        }
      ],
      "stateMutability": "nonpayable",
      "type": "function"
    },
    {
      "inputs": [
        {
          "internalType": "uint256",
          "name": "tokenId",
          "type": "uint256"
        }
      ],
      "name": "getApproved",
      "outputs": [
        {
          "internalType": "address",
          "name": "",
          "type": "address"
        }
      ],
      "stateMutability": "view",
      "type": "function",
      "constant": true
    },
    {
      "inputs": [],
      "name": "getNftTokenIds",
      "outputs": [
        {
          "internalType": "uint256[]",
          "name": "",
          "type": "uint256[]"
        }
      ],
      "stateMutability": "view",
      "type": "function",
      "constant": true
    },
    {
      "inputs": [
        {
          "internalType": "address",
          "name": "owner",
          "type": "address"
        },
        {
          "internalType": "address",
          "name": "operator",
          "type": "address"
        }
      ],
      "name": "isApprovedForAll",
      "outputs": [
        {
          "internalType": "bool",
          "name": "",
          "type": "bool"
        }
      ],
      "stateMutability": "view",
      "type": "function",
      "constant": true
    },
    {
      "inputs": [],
      "name": "name",
      "outputs": [
        {
          "internalType": "string",
          "name": "",
          "type": "string"
        }
      ],
      "stateMutability": "view",
      "type": "function",
      "constant": true
    },
    {
      "inputs": [
        {
          "internalType": "uint256",
          "name": "",
          "type": "uint256"
        }
      ],
      "name": "nftTokenIds",
      "outputs": [
        {
          "internalType": "uint256",
          "name": "",
          "type": "uint256"
        }
      ],
      "stateMutability": "view",
      "type": "function",
      "constant": true
    },
    {
      "inputs": [],
      "name": "owner",
      "outputs": [
        {
          "internalType": "address",
          "name": "",
          "type": "address"
        }
      ],
      "stateMutability": "view",
      "type": "function",
      "constant": true
    },
    {
      "inputs": [
        {
          "internalType": "uint256",
          "name": "tokenId",
          "type": "uint256"
        }
      ],
      "name": "ownerOf",
      "outputs": [
        {
          "internalType": "address",
          "name": "",
          "type": "address"
        }
      ],
      "stateMutability": "view",
      "type": "function",
      "constant": true
    },
    {
      "inputs": [],
      "name": "renounceOwnership",
      "outputs": [],
      "stateMutability": "nonpayable",
      "type": "function"
    },
    {
      "inputs": [
        {
          "internalType": "address",
          "name": "from",
          "type": "address"
        },
        {
          "internalType": "address",
          "name": "to",
          "type": "address"
        },
        {
          "internalType": "uint256",
          "name": "tokenId",
          "type": "uint256"
        }
      ],
      "name": "safeTransferFrom",
      "outputs": [],
      "stateMutability": "nonpayable",
      "type": "function"
    },
    {
      "inputs": [
        {
          "internalType": "address",
          "name": "from",
          "type": "address"
        },
        {
          "internalType": "address",
          "name": "to",
          "type": "address"
        },
        {
          "internalType": "uint256",
          "name": "tokenId",
          "type": "uint256"
        },
        {
          "internalType": "bytes",
          "name": "_data",
          "type": "bytes"
        }
      ],
      "name": "safeTransferFrom",
      "outputs": [],
      "stateMutability": "nonpayable",
      "type": "function"
    },
    {
      "inputs": [
        {
          "internalType": "address",
          "name": "operator",
          "type": "address"
        },
        {
          "internalType": "bool",
          "name": "approved",
          "type": "bool"
        }
      ],
      "name": "setApprovalForAll",
      "outputs": [],
      "stateMutability": "nonpayable",
      "type": "function"
    },
    {
      "inputs": [
        {
          "internalType": "string",
          "name": "baseURI_",
          "type": "string"
        }
      ],
      "name": "setBaseURI",
      "outputs": [],
      "stateMutability": "nonpayable",
      "type": "function"
    },
    {
      "inputs": [
        {
          "internalType": "bytes4",
          "name": "interfaceId",
          "type": "bytes4"
        }
      ],
      "name": "supportsInterface",
      "outputs": [
        {
          "internalType": "bool",
          "name": "",
          "type": "bool"
        }
      ],
      "stateMutability": "view",
      "type": "function",
      "constant": true
    },
    {
      "inputs": [],
      "name": "symbol",
      "outputs": [
        {
          "internalType": "string",
          "name": "",
          "type": "string"
        }
      ],
      "stateMutability": "view",
      "type": "function",
      "constant": true
    },
    {
      "inputs": [
        {
          "internalType": "uint256",
          "name": "tokenId",
          "type": "uint256"
        }
      ],
      "name": "tokenURI",
      "outputs": [
        {
          "internalType": "string",
          "name": "",
          "type": "string"
        }
      ],
      "stateMutability": "view",
      "type": "function",
      "constant": true
    },
    {
      "inputs": [
        {
          "internalType": "address",
          "name": "from",
          "type": "address"
        },
        {
          "internalType": "address",
          "name": "to",
          "type": "address"
        },
        {
          "internalType": "uint256",
          "name": "tokenId",
          "type": "uint256"
        }
      ],
      "name": "transferFrom",
      "outputs": [],
      "stateMutability": "nonpayable",
      "type": "function"
    },
    {
      "inputs": [
        {
          "internalType": "address",
          "name": "newOwner",
          "type": "address"
        }
      ],
      "name": "transferOwnership",
      "outputs": [],
      "stateMutability": "nonpayable",
      "type": "function"
    },
    {
      "inputs": [
        {
          "internalType": "address",
          "name": "",
          "type": "address"
        },
        {
          "internalType": "uint256",
          "name": "",
          "type": "uint256"
        }
      ],
      "name": "usersToSubscribedAuthors",
      "outputs": [
        {
          "internalType": "address",
          "name": "",
          "type": "address"
        }
      ],
      "stateMutability": "view",
      "type": "function",
      "constant": true
    },
    {
      "inputs": [
        {
          "internalType": "string",
          "name": "_title",
          "type": "string"
        },
        {
          "internalType": "string",
          "name": "_contentIpfsHash",
          "type": "string"
        }
      ],
      "name": "createArticle",
      "outputs": [
        {
          "internalType": "uint256",
          "name": "newArticleId",
          "type": "uint256"
        }
      ],
      "stateMutability": "nonpayable",
      "type": "function"
    },
    {
      "inputs": [],
      "name": "getArticles",
      "outputs": [
        {
          "components": [
            {
              "internalType": "address",
              "name": "author",
              "type": "address"
            },
            {
              "internalType": "string",
              "name": "title",
              "type": "string"
            },
            {
              "internalType": "string",
              "name": "contentIpfsHash",
              "type": "string"
            },
            {
              "internalType": "uint256",
              "name": "date",
              "type": "uint256"
            },
            {
              "internalType": "uint256",
              "name": "articleId",
              "type": "uint256"
            }
          ],
          "internalType": "struct Decentrastack.Article[]",
          "name": "",
          "type": "tuple[]"
        }
      ],
      "stateMutability": "view",
      "type": "function",
      "constant": true
    },
    {
      "inputs": [
        {
          "internalType": "address",
          "name": "_user",
          "type": "address"
        }
      ],
      "name": "getUserToSubscribedAuthors",
      "outputs": [
        {
          "internalType": "address[]",
          "name": "",
          "type": "address[]"
        }
      ],
      "stateMutability": "view",
      "type": "function",
      "constant": true
    },
    {
      "inputs": [
        {
          "internalType": "address",
          "name": "_author",
          "type": "address"
        }
      ],
      "name": "subscribeToAuthor",
      "outputs": [],
      "stateMutability": "nonpayable",
      "type": "function"
    },
    {
      "inputs": [
        {
          "internalType": "address",
          "name": "_author",
          "type": "address"
        }
      ],
      "name": "unsubscribeFromAuthor",
      "outputs": [],
      "stateMutability": "nonpayable",
      "type": "function"
    }
  ],
  "bytecode": "0x60806040523480156200001157600080fd5b506040518060400160405280600d81526020017f646563656e747261537461636b000000000000000000000000000000000000008152506040518060400160405280600481526020017f4453544b00000000000000000000000000000000000000000000000000000000815250816000908051906020019062000096929190620001bf565b508060019080519060200190620000af929190620001bf565b5050506000620000c4620001b760201b60201c565b905080600760006101000a81548173ffffffffffffffffffffffffffffffffffffffff021916908373ffffffffffffffffffffffffffffffffffffffff1602179055508073ffffffffffffffffffffffffffffffffffffffff16600073ffffffffffffffffffffffffffffffffffffffff167f8be0079c531659141344cd1fd0a4f28419497f9722a3daafe3b4186f6b6457e060405160405180910390a3506040518060400160405280601581526020017f68747470733a2f2f697066732e696f2f697066732f000000000000000000000081525060089080519060200190620001b0929190620001bf565b50620002d4565b600033905090565b828054620001cd906200026f565b90600052602060002090601f016020900481019282620001f157600085556200023d565b82601f106200020c57805160ff19168380011785556200023d565b828001600101855582156200023d579182015b828111156200023c5782518255916020019190600101906200021f565b5b5090506200024c919062000250565b5090565b5b808211156200026b57600081600090555060010162000251565b5090565b600060028204905060018216806200028857607f821691505b602082108114156200029f576200029e620002a5565b5b50919050565b7f4e487b7100000000000000000000000000000000000000000000000000000000600052602260045260246000fd5b614d4380620002e46000396000f3fe608060405234801561001057600080fd5b50600436106101c45760003560e01c80638da5cb5b116100f9578063ce278e7511610097578063f16dd9a211610071578063f16dd9a214610541578063f2fde38b14610571578063f7367cce1461058d578063f9c26c18146105a9576101c4565b8063ce278e75146104c1578063e985e9c5146104dd578063edcfafe61461050d576101c4565b8063963cde7e116100d3578063963cde7e14610429578063a22cb46514610459578063b88d4fde14610475578063c87b56dd14610491576101c4565b80638da5cb5b146103cf57806393a6871e146103ed57806395d89b411461040b576101c4565b806355f804b3116101665780636529f44a116101405780636529f44a1461034757806370a0823114610365578063715018a6146103955780638cfa22721461039f576101c4565b806355f804b3146102cb57806356eedd37146102e75780636352211e14610317576101c4565b8063095ea7b3116101a2578063095ea7b31461024757806322d544a31461026357806323b872dd1461029357806342842e0e146102af576101c4565b806301ffc9a7146101c957806306fdde03146101f9578063081812fc14610217575b600080fd5b6101e360048036038101906101de91906134f5565b6105dd565b6040516101f09190613e38565b60405180910390f35b6102016106bf565b60405161020e9190613e53565b60405180910390f35b610231600480360381019061022c91906135f4565b610751565b60405161023e9190613d0a565b60405180910390f35b610261600480360381019061025c91906134b9565b6107d6565b005b61027d600480360381019061027891906135f4565b6108ee565b60405161028a9190614185565b60405180910390f35b6102ad60048036038101906102a89190613334565b610912565b005b6102c960048036038101906102c49190613334565b610972565b005b6102e560048036038101906102e09190613547565b610992565b005b61030160048036038101906102fc91906132cf565b610a28565b60405161030e9190613dd2565b60405180910390f35b610331600480360381019061032c91906135f4565b610af5565b60405161033e9190613d0a565b60405180910390f35b61034f610ba7565b60405161035c9190613df4565b60405180910390f35b61037f600480360381019061037a91906132cf565b610d94565b60405161038c9190614185565b60405180910390f35b61039d610e4c565b005b6103b960048036038101906103b49190613588565b610f89565b6040516103c69190614185565b60405180910390f35b6103d76112a5565b6040516103e49190613d0a565b60405180910390f35b6103f56112cf565b6040516104029190613e16565b60405180910390f35b610413611327565b6040516104209190613e53565b60405180910390f35b610443600480360381019061043e91906134b9565b6113b9565b6040516104509190613d0a565b60405180910390f35b610473600480360381019061046e91906133fe565b611407565b005b61048f600480360381019061048a9190613383565b611588565b005b6104ab60048036038101906104a691906135f4565b6115ea565b6040516104b89190613e53565b60405180910390f35b6104db60048036038101906104d691906132cf565b61173c565b005b6104f760048036038101906104f291906132f8565b611a5f565b6040516105049190613e38565b60405180910390f35b610527600480360381019061052291906135f4565b611af3565b604051610538959493929190613d71565b60405180910390f35b61055b6004803603810190610556919061343a565b611c69565b6040516105689190614185565b60405180910390f35b61058b600480360381019061058691906132cf565b611ce6565b005b6105a760048036038101906105a291906132cf565b611e92565b005b6105c360048036038101906105be91906134b9565b6122f3565b6040516105d4959493929190613d71565b60405180910390f35b60007f80ac58cd000000000000000000000000000000000000000000000000000000007bffffffffffffffffffffffffffffffffffffffffffffffffffffffff1916827bffffffffffffffffffffffffffffffffffffffffffffffffffffffff191614806106a857507f5b5e139f000000000000000000000000000000000000000000000000000000007bffffffffffffffffffffffffffffffffffffffffffffffffffffffff1916827bffffffffffffffffffffffffffffffffffffffffffffffffffffffff1916145b806106b857506106b782612476565b5b9050919050565b6060600080546106ce90614497565b80601f01602080910402602001604051908101604052809291908181526020018280546106fa90614497565b80156107475780601f1061071c57610100808354040283529160200191610747565b820191906000526020600020905b81548152906001019060200180831161072a57829003601f168201915b5050505050905090565b600061075c826124e0565b61079b576040517f08c379a0000000000000000000000000000000000000000000000000000000008152600401610792906140a5565b60405180910390fd5b6004600083815260200190815260200160002060009054906101000a900473ffffffffffffffffffffffffffffffffffffffff169050919050565b60006107e182610af5565b90508073ffffffffffffffffffffffffffffffffffffffff168373ffffffffffffffffffffffffffffffffffffffff161415610852576040517f08c379a000000000000000000000000000000000000000000000000000000000815260040161084990614125565b60405180910390fd5b8073ffffffffffffffffffffffffffffffffffffffff1661087161254c565b73ffffffffffffffffffffffffffffffffffffffff1614806108a0575061089f8161089a61254c565b611a5f565b5b6108df576040517f08c379a00000000000000000000000000000000000000000000000000000000081526004016108d690613f65565b60405180910390fd5b6108e98383612554565b505050565b600981815481106108fe57600080fd5b906000526020600020016000915090505481565b61092361091d61254c565b8261260d565b610962576040517f08c379a000000000000000000000000000000000000000000000000000000000815260040161095990614145565b60405180910390fd5b61096d8383836126eb565b505050565b61098d83838360405180602001604052806000815250611588565b505050565b61099a61254c565b73ffffffffffffffffffffffffffffffffffffffff166109b86112a5565b73ffffffffffffffffffffffffffffffffffffffff1614610a0e576040517f08c379a0000000000000000000000000000000000000000000000000000000008152600401610a05906140c5565b60405180910390fd5b8060089080519060200190610a249291906130f3565b5050565b6060600c60008373ffffffffffffffffffffffffffffffffffffffff1673ffffffffffffffffffffffffffffffffffffffff168152602001908152602001600020805480602002602001604051908101604052809291908181526020018280548015610ae957602002820191906000526020600020905b8160009054906101000a900473ffffffffffffffffffffffffffffffffffffffff1673ffffffffffffffffffffffffffffffffffffffff1681526020019060010190808311610a9f575b50505050509050919050565b6000806002600084815260200190815260200160002060009054906101000a900473ffffffffffffffffffffffffffffffffffffffff169050600073ffffffffffffffffffffffffffffffffffffffff168173ffffffffffffffffffffffffffffffffffffffff161415610b9e576040517f08c379a0000000000000000000000000000000000000000000000000000000008152600401610b9590613fc5565b60405180910390fd5b80915050919050565b6060600a805480602002602001604051908101604052809291908181526020016000905b82821015610d8b57838290600052602060002090600502016040518060a00160405290816000820160009054906101000a900473ffffffffffffffffffffffffffffffffffffffff1673ffffffffffffffffffffffffffffffffffffffff1673ffffffffffffffffffffffffffffffffffffffff168152602001600182018054610c5490614497565b80601f0160208091040260200160405190810160405280929190818152602001828054610c8090614497565b8015610ccd5780601f10610ca257610100808354040283529160200191610ccd565b820191906000526020600020905b815481529060010190602001808311610cb057829003601f168201915b50505050508152602001600282018054610ce690614497565b80601f0160208091040260200160405190810160405280929190818152602001828054610d1290614497565b8015610d5f5780601f10610d3457610100808354040283529160200191610d5f565b820191906000526020600020905b815481529060010190602001808311610d4257829003601f168201915b505050505081526020016003820154815260200160048201548152505081526020019060010190610bcb565b50505050905090565b60008073ffffffffffffffffffffffffffffffffffffffff168273ffffffffffffffffffffffffffffffffffffffff161415610e05576040517f08c379a0000000000000000000000000000000000000000000000000000000008152600401610dfc90613f85565b60405180910390fd5b600360008373ffffffffffffffffffffffffffffffffffffffff1673ffffffffffffffffffffffffffffffffffffffff168152602001908152602001600020549050919050565b610e5461254c565b73ffffffffffffffffffffffffffffffffffffffff16610e726112a5565b73ffffffffffffffffffffffffffffffffffffffff1614610ec8576040517f08c379a0000000000000000000000000000000000000000000000000000000008152600401610ebf906140c5565b60405180910390fd5b600073ffffffffffffffffffffffffffffffffffffffff16600760009054906101000a900473ffffffffffffffffffffffffffffffffffffffff1673ffffffffffffffffffffffffffffffffffffffff167f8be0079c531659141344cd1fd0a4f28419497f9722a3daafe3b4186f6b6457e060405160405180910390a36000600760006101000a81548173ffffffffffffffffffffffffffffffffffffffff021916908373ffffffffffffffffffffffffffffffffffffffff160217905550565b600080835111610fce576040517f08c379a0000000000000000000000000000000000000000000000000000000008152600401610fc590614025565b60405180910390fd5b6000825111611012576040517f08c379a000000000000000000000000000000000000000000000000000000000815260040161100990614165565b60405180910390fd5b61101d338484611c69565b905060006040518060a001604052803373ffffffffffffffffffffffffffffffffffffffff168152602001858152602001848152602001428152602001838152509050600b60003373ffffffffffffffffffffffffffffffffffffffff1673ffffffffffffffffffffffffffffffffffffffff16815260200190815260200160002081908060018154018082558091505060019003906000526020600020906005020160009091909190915060008201518160000160006101000a81548173ffffffffffffffffffffffffffffffffffffffff021916908373ffffffffffffffffffffffffffffffffffffffff160217905550602082015181600101908051906020019061112c9291906130f3565b5060408201518160020190805190602001906111499291906130f3565b5060608201518160030155608082015181600401555050600a81908060018154018082558091505060019003906000526020600020906005020160009091909190915060008201518160000160006101000a81548173ffffffffffffffffffffffffffffffffffffffff021916908373ffffffffffffffffffffffffffffffffffffffff16021790555060208201518160010190805190602001906111ef9291906130f3565b50604082015181600201908051906020019061120c9291906130f3565b50606082015181600301556080820151816004015550508060800151816040015160405161123a9190613ccf565b6040518091039020826000015173ffffffffffffffffffffffffffffffffffffffff167fd2c271e18976fb68dd0629ceba8cdd5b0d5ea409dfc95e3ea4f1e3a4317f01de84602001518560600151604051611296929190613e75565b60405180910390a45092915050565b6000600760009054906101000a900473ffffffffffffffffffffffffffffffffffffffff16905090565b6060600980548060200260200160405190810160405280929190818152602001828054801561131d57602002820191906000526020600020905b815481526020019060010190808311611309575b5050505050905090565b60606001805461133690614497565b80601f016020809104026020016040519081016040528092919081815260200182805461136290614497565b80156113af5780601f10611384576101008083540402835291602001916113af565b820191906000526020600020905b81548152906001019060200180831161139257829003601f168201915b5050505050905090565b600c60205281600052604060002081815481106113d557600080fd5b906000526020600020016000915091509054906101000a900473ffffffffffffffffffffffffffffffffffffffff1681565b61140f61254c565b73ffffffffffffffffffffffffffffffffffffffff168273ffffffffffffffffffffffffffffffffffffffff16141561147d576040517f08c379a000000000000000000000000000000000000000000000000000000000815260040161147490613f25565b60405180910390fd5b806005600061148a61254c565b73ffffffffffffffffffffffffffffffffffffffff1673ffffffffffffffffffffffffffffffffffffffff16815260200190815260200160002060008473ffffffffffffffffffffffffffffffffffffffff1673ffffffffffffffffffffffffffffffffffffffff16815260200190815260200160002060006101000a81548160ff0219169083151502179055508173ffffffffffffffffffffffffffffffffffffffff1661153761254c565b73ffffffffffffffffffffffffffffffffffffffff167f17307eab39ab6107e8899845ad3d59bd9653f200f220920489ca2b5937696c318360405161157c9190613e38565b60405180910390a35050565b61159961159361254c565b8361260d565b6115d8576040517f08c379a00000000000000000000000000000000000000000000000000000000081526004016115cf90614145565b60405180910390fd5b6115e484848484612947565b50505050565b60606115f5826124e0565b611634576040517f08c379a000000000000000000000000000000000000000000000000000000000815260040161162b90614065565b60405180910390fd5b600060066000848152602001908152602001600020805461165490614497565b80601f016020809104026020016040519081016040528092919081815260200182805461168090614497565b80156116cd5780601f106116a2576101008083540402835291602001916116cd565b820191906000526020600020905b8154815290600101906020018083116116b057829003601f168201915b5050505050905060006116de6129a3565b90506000815114156116f4578192505050611737565b600082511115611729578082604051602001611711929190613ce6565b60405160208183030381529060405292505050611737565b61173284612a35565b925050505b919050565b600073ffffffffffffffffffffffffffffffffffffffff168173ffffffffffffffffffffffffffffffffffffffff1614156117ac576040517f08c379a00000000000000000000000000000000000000000000000000000000081526004016117a390614085565b60405180910390fd5b3373ffffffffffffffffffffffffffffffffffffffff168173ffffffffffffffffffffffffffffffffffffffff16141561181b576040517f08c379a000000000000000000000000000000000000000000000000000000000815260040161181290614005565b60405180910390fd5b6000805b600c60003373ffffffffffffffffffffffffffffffffffffffff1673ffffffffffffffffffffffffffffffffffffffff1681526020019081526020016000208054905081101561195a578273ffffffffffffffffffffffffffffffffffffffff16600c60003373ffffffffffffffffffffffffffffffffffffffff1673ffffffffffffffffffffffffffffffffffffffff16815260200190815260200160002082815481106118f7577f4e487b7100000000000000000000000000000000000000000000000000000000600052603260045260246000fd5b9060005260206000200160009054906101000a900473ffffffffffffffffffffffffffffffffffffffff1673ffffffffffffffffffffffffffffffffffffffff161415611947576001915061195a565b8080611952906144fa565b91505061181f565b5080611a5b57600c60003373ffffffffffffffffffffffffffffffffffffffff1673ffffffffffffffffffffffffffffffffffffffff168152602001908152602001600020829080600181540180825580915050600190039060005260206000200160009091909190916101000a81548173ffffffffffffffffffffffffffffffffffffffff021916908373ffffffffffffffffffffffffffffffffffffffff1602179055508173ffffffffffffffffffffffffffffffffffffffff163373ffffffffffffffffffffffffffffffffffffffff167f26e36b227ec3fc4bcf7dd57ac632530d294bf00aa858151df37d8f4e5dc5402660405160405180910390a35b5050565b6000600560008473ffffffffffffffffffffffffffffffffffffffff1673ffffffffffffffffffffffffffffffffffffffff16815260200190815260200160002060008373ffffffffffffffffffffffffffffffffffffffff1673ffffffffffffffffffffffffffffffffffffffff16815260200190815260200160002060009054906101000a900460ff16905092915050565b600a8181548110611b0357600080fd5b90600052602060002090600502016000915090508060000160009054906101000a900473ffffffffffffffffffffffffffffffffffffffff1690806001018054611b4c90614497565b80601f0160208091040260200160405190810160405280929190818152602001828054611b7890614497565b8015611bc55780601f10611b9a57610100808354040283529160200191611bc5565b820191906000526020600020905b815481529060010190602001808311611ba857829003601f168201915b505050505090806002018054611bda90614497565b80601f0160208091040260200160405190810160405280929190818152602001828054611c0690614497565b8015611c535780601f10611c2857610100808354040283529160200191611c53565b820191906000526020600020905b815481529060010190602001808311611c3657829003601f168201915b5050505050908060030154908060040154905085565b60008084848442604051602001611c839493929190613c89565b6040516020818303038152906040528051906020012060001c9050611ca88582612adc565b611cb28184612afa565b6009819080600181540180825580915050600190039060005260206000200160009091909190915055809150509392505050565b611cee61254c565b73ffffffffffffffffffffffffffffffffffffffff16611d0c6112a5565b73ffffffffffffffffffffffffffffffffffffffff1614611d62576040517f08c379a0000000000000000000000000000000000000000000000000000000008152600401611d59906140c5565b60405180910390fd5b600073ffffffffffffffffffffffffffffffffffffffff168173ffffffffffffffffffffffffffffffffffffffff161415611dd2576040517f08c379a0000000000000000000000000000000000000000000000000000000008152600401611dc990613ec5565b60405180910390fd5b8073ffffffffffffffffffffffffffffffffffffffff16600760009054906101000a900473ffffffffffffffffffffffffffffffffffffffff1673ffffffffffffffffffffffffffffffffffffffff167f8be0079c531659141344cd1fd0a4f28419497f9722a3daafe3b4186f6b6457e060405160405180910390a380600760006101000a81548173ffffffffffffffffffffffffffffffffffffffff021916908373ffffffffffffffffffffffffffffffffffffffff16021790555050565b600073ffffffffffffffffffffffffffffffffffffffff168173ffffffffffffffffffffffffffffffffffffffff161415611f02576040517f08c379a0000000000000000000000000000000000000000000000000000000008152600401611ef990613fa5565b60405180910390fd5b60005b600c60003373ffffffffffffffffffffffffffffffffffffffff1673ffffffffffffffffffffffffffffffffffffffff168152602001908152602001600020805490508110156122ef578173ffffffffffffffffffffffffffffffffffffffff16600c60003373ffffffffffffffffffffffffffffffffffffffff1673ffffffffffffffffffffffffffffffffffffffff1681526020019081526020016000208281548110611fdd577f4e487b7100000000000000000000000000000000000000000000000000000000600052603260045260246000fd5b9060005260206000200160009054906101000a900473ffffffffffffffffffffffffffffffffffffffff1673ffffffffffffffffffffffffffffffffffffffff1614156122dc57600c60003373ffffffffffffffffffffffffffffffffffffffff1673ffffffffffffffffffffffffffffffffffffffff1681526020019081526020016000206001600c60003373ffffffffffffffffffffffffffffffffffffffff1673ffffffffffffffffffffffffffffffffffffffff168152602001908152602001600020805490506120b291906143ad565b815481106120e9577f4e487b7100000000000000000000000000000000000000000000000000000000600052603260045260246000fd5b9060005260206000200160009054906101000a900473ffffffffffffffffffffffffffffffffffffffff16600c60003373ffffffffffffffffffffffffffffffffffffffff1673ffffffffffffffffffffffffffffffffffffffff168152602001908152602001600020828154811061218b577f4e487b7100000000000000000000000000000000000000000000000000000000600052603260045260246000fd5b9060005260206000200160006101000a81548173ffffffffffffffffffffffffffffffffffffffff021916908373ffffffffffffffffffffffffffffffffffffffff160217905550600c60003373ffffffffffffffffffffffffffffffffffffffff1673ffffffffffffffffffffffffffffffffffffffff168152602001908152602001600020805480612248577f4e487b7100000000000000000000000000000000000000000000000000000000600052603160045260246000fd5b6001900381819060005260206000200160006101000a81549073ffffffffffffffffffffffffffffffffffffffff021916905590558173ffffffffffffffffffffffffffffffffffffffff163373ffffffffffffffffffffffffffffffffffffffff167fe8e915cd6d448d72358fdb7e7ed3f2ba3eb6293f6213b42830a7c1476df87f2b60405160405180910390a36122ef565b80806122e7906144fa565b915050611f05565b5050565b600b602052816000526040600020818154811061230f57600080fd5b9060005260206000209060050201600091509150508060000160009054906101000a900473ffffffffffffffffffffffffffffffffffffffff169080600101805461235990614497565b80601f016020809104026020016040519081016040528092919081815260200182805461238590614497565b80156123d25780601f106123a7576101008083540402835291602001916123d2565b820191906000526020600020905b8154815290600101906020018083116123b557829003601f168201915b5050505050908060020180546123e790614497565b80601f016020809104026020016040519081016040528092919081815260200182805461241390614497565b80156124605780601f1061243557610100808354040283529160200191612460565b820191906000526020600020905b81548152906001019060200180831161244357829003601f168201915b5050505050908060030154908060040154905085565b60007f01ffc9a7000000000000000000000000000000000000000000000000000000007bffffffffffffffffffffffffffffffffffffffffffffffffffffffff1916827bffffffffffffffffffffffffffffffffffffffffffffffffffffffff1916149050919050565b60008073ffffffffffffffffffffffffffffffffffffffff166002600084815260200190815260200160002060009054906101000a900473ffffffffffffffffffffffffffffffffffffffff1673ffffffffffffffffffffffffffffffffffffffff1614159050919050565b600033905090565b816004600083815260200190815260200160002060006101000a81548173ffffffffffffffffffffffffffffffffffffffff021916908373ffffffffffffffffffffffffffffffffffffffff160217905550808273ffffffffffffffffffffffffffffffffffffffff166125c783610af5565b73ffffffffffffffffffffffffffffffffffffffff167f8c5be1e5ebec7d5bd14f71427d1e84f3dd0314c0f7b2291e5b200ac8c7c3b92560405160405180910390a45050565b6000612618826124e0565b612657576040517f08c379a000000000000000000000000000000000000000000000000000000000815260040161264e90613f45565b60405180910390fd5b600061266283610af5565b90508073ffffffffffffffffffffffffffffffffffffffff168473ffffffffffffffffffffffffffffffffffffffff1614806126d157508373ffffffffffffffffffffffffffffffffffffffff166126b984610751565b73ffffffffffffffffffffffffffffffffffffffff16145b806126e257506126e18185611a5f565b5b91505092915050565b8273ffffffffffffffffffffffffffffffffffffffff1661270b82610af5565b73ffffffffffffffffffffffffffffffffffffffff1614612761576040517f08c379a0000000000000000000000000000000000000000000000000000000008152600401612758906140e5565b60405180910390fd5b600073ffffffffffffffffffffffffffffffffffffffff168273ffffffffffffffffffffffffffffffffffffffff1614156127d1576040517f08c379a00000000000000000000000000000000000000000000000000000000081526004016127c890613f05565b60405180910390fd5b6127dc838383612b6e565b6127e7600082612554565b6001600360008573ffffffffffffffffffffffffffffffffffffffff1673ffffffffffffffffffffffffffffffffffffffff168152602001908152602001600020600082825461283791906143ad565b925050819055506001600360008473ffffffffffffffffffffffffffffffffffffffff1673ffffffffffffffffffffffffffffffffffffffff168152602001908152602001600020600082825461288e9190614326565b92505081905550816002600083815260200190815260200160002060006101000a81548173ffffffffffffffffffffffffffffffffffffffff021916908373ffffffffffffffffffffffffffffffffffffffff160217905550808273ffffffffffffffffffffffffffffffffffffffff168473ffffffffffffffffffffffffffffffffffffffff167fddf252ad1be2c89b69c2b068fc378daa952ba7f163c4a11628f55a4df523b3ef60405160405180910390a4505050565b6129528484846126eb565b61295e84848484612b73565b61299d576040517f08c379a000000000000000000000000000000000000000000000000000000000815260040161299490613ea5565b60405180910390fd5b50505050565b6060600880546129b290614497565b80601f01602080910402602001604051908101604052809291908181526020018280546129de90614497565b8015612a2b5780601f10612a0057610100808354040283529160200191612a2b565b820191906000526020600020905b815481529060010190602001808311612a0e57829003601f168201915b5050505050905090565b6060612a40826124e0565b612a7f576040517f08c379a0000000000000000000000000000000000000000000000000000000008152600401612a7690614105565b60405180910390fd5b6000612a896129a3565b90506000815111612aa95760405180602001604052806000815250612ad4565b80612ab384612d0a565b604051602001612ac4929190613ce6565b6040516020818303038152906040525b915050919050565b612af6828260405180602001604052806000815250612eb7565b5050565b612b03826124e0565b612b42576040517f08c379a0000000000000000000000000000000000000000000000000000000008152600401612b3990613fe5565b60405180910390fd5b80600660008481526020019081526020016000209080519060200190612b699291906130f3565b505050565b505050565b6000612b948473ffffffffffffffffffffffffffffffffffffffff16612f12565b15612cfd578373ffffffffffffffffffffffffffffffffffffffff1663150b7a02612bbd61254c565b8786866040518563ffffffff1660e01b8152600401612bdf9493929190613d25565b602060405180830381600087803b158015612bf957600080fd5b505af1925050508015612c2a57506040513d601f19601f82011682018060405250810190612c27919061351e565b60015b612cad573d8060008114612c5a576040519150601f19603f3d011682016040523d82523d6000602084013e612c5f565b606091505b50600081511415612ca5576040517f08c379a0000000000000000000000000000000000000000000000000000000008152600401612c9c90613ea5565b60405180910390fd5b805181602001fd5b63150b7a0260e01b7bffffffffffffffffffffffffffffffffffffffffffffffffffffffff1916817bffffffffffffffffffffffffffffffffffffffffffffffffffffffff191614915050612d02565b600190505b949350505050565b60606000821415612d52576040518060400160405280600181526020017f30000000000000000000000000000000000000000000000000000000000000008152509050612eb2565b600082905060005b60008214612d84578080612d6d906144fa565b915050600a82612d7d919061437c565b9150612d5a565b60008167ffffffffffffffff811115612dc6577f4e487b7100000000000000000000000000000000000000000000000000000000600052604160045260246000fd5b6040519080825280601f01601f191660200182016040528015612df85781602001600182028036833780820191505090505b5090505b60008514612eab57600182612e1191906143ad565b9150600a85612e209190614571565b6030612e2c9190614326565b60f81b818381518110612e68577f4e487b7100000000000000000000000000000000000000000000000000000000600052603260045260246000fd5b60200101907effffffffffffffffffffffffffffffffffffffffffffffffffffffffffffff1916908160001a905350600a85612ea4919061437c565b9450612dfc565b8093505050505b919050565b612ec18383612f25565b612ece6000848484612b73565b612f0d576040517f08c379a0000000000000000000000000000000000000000000000000000000008152600401612f0490613ea5565b60405180910390fd5b505050565b600080823b905060008111915050919050565b600073ffffffffffffffffffffffffffffffffffffffff168273ffffffffffffffffffffffffffffffffffffffff161415612f95576040517f08c379a0000000000000000000000000000000000000000000000000000000008152600401612f8c90614045565b60405180910390fd5b612f9e816124e0565b15612fde576040517f08c379a0000000000000000000000000000000000000000000000000000000008152600401612fd590613ee5565b60405180910390fd5b612fea60008383612b6e565b6001600360008473ffffffffffffffffffffffffffffffffffffffff1673ffffffffffffffffffffffffffffffffffffffff168152602001908152602001600020600082825461303a9190614326565b92505081905550816002600083815260200190815260200160002060006101000a81548173ffffffffffffffffffffffffffffffffffffffff021916908373ffffffffffffffffffffffffffffffffffffffff160217905550808273ffffffffffffffffffffffffffffffffffffffff16600073ffffffffffffffffffffffffffffffffffffffff167fddf252ad1be2c89b69c2b068fc378daa952ba7f163c4a11628f55a4df523b3ef60405160405180910390a45050565b8280546130ff90614497565b90600052602060002090601f0160209004810192826131215760008555613168565b82601f1061313a57805160ff1916838001178555613168565b82800160010185558215613168579182015b8281111561316757825182559160200191906001019061314c565b5b5090506131759190613179565b5090565b5b8082111561319257600081600090555060010161317a565b5090565b60006131a96131a4846141c5565b6141a0565b9050828152602081018484840111156131c157600080fd5b6131cc848285614455565b509392505050565b60006131e76131e2846141f6565b6141a0565b9050828152602081018484840111156131ff57600080fd5b61320a848285614455565b509392505050565b60008135905061322181614cb1565b92915050565b60008135905061323681614cc8565b92915050565b60008135905061324b81614cdf565b92915050565b60008151905061326081614cdf565b92915050565b600082601f83011261327757600080fd5b8135613287848260208601613196565b91505092915050565b600082601f8301126132a157600080fd5b81356132b18482602086016131d4565b91505092915050565b6000813590506132c981614cf6565b92915050565b6000602082840312156132e157600080fd5b60006132ef84828501613212565b91505092915050565b6000806040838503121561330b57600080fd5b600061331985828601613212565b925050602061332a85828601613212565b9150509250929050565b60008060006060848603121561334957600080fd5b600061335786828701613212565b935050602061336886828701613212565b9250506040613379868287016132ba565b9150509250925092565b6000806000806080858703121561339957600080fd5b60006133a787828801613212565b94505060206133b887828801613212565b93505060406133c9878288016132ba565b925050606085013567ffffffffffffffff8111156133e657600080fd5b6133f287828801613266565b91505092959194509250565b6000806040838503121561341157600080fd5b600061341f85828601613212565b925050602061343085828601613227565b9150509250929050565b60008060006060848603121561344f57600080fd5b600061345d86828701613212565b935050602084013567ffffffffffffffff81111561347a57600080fd5b61348686828701613290565b925050604084013567ffffffffffffffff8111156134a357600080fd5b6134af86828701613290565b9150509250925092565b600080604083850312156134cc57600080fd5b60006134da85828601613212565b92505060206134eb858286016132ba565b9150509250929050565b60006020828403121561350757600080fd5b60006135158482850161323c565b91505092915050565b60006020828403121561353057600080fd5b600061353e84828501613251565b91505092915050565b60006020828403121561355957600080fd5b600082013567ffffffffffffffff81111561357357600080fd5b61357f84828501613290565b91505092915050565b6000806040838503121561359b57600080fd5b600083013567ffffffffffffffff8111156135b557600080fd5b6135c185828601613290565b925050602083013567ffffffffffffffff8111156135de57600080fd5b6135ea85828601613290565b9150509250929050565b60006020828403121561360657600080fd5b6000613614848285016132ba565b91505092915050565b60006136298383613661565b60208301905092915050565b60006136418383613bd7565b905092915050565b60006136558383613c54565b60208301905092915050565b61366a816143e1565b82525050565b613679816143e1565b82525050565b61369061368b826143e1565b614543565b82525050565b60006136a182614257565b6136ab81856142b5565b93506136b683614227565b8060005b838110156136e75781516136ce888261361d565b97506136d98361428e565b9250506001810190506136ba565b5085935050505092915050565b60006136ff82614262565b61370981856142c6565b93508360208202850161371b85614237565b8060005b8581101561375757848403895281516137388582613635565b94506137438361429b565b925060208a0199505060018101905061371f565b50829750879550505050505092915050565b60006137748261426d565b61377e81856142d7565b935061378983614247565b8060005b838110156137ba5781516137a18882613649565b97506137ac836142a8565b92505060018101905061378d565b5085935050505092915050565b6137d0816143f3565b82525050565b60006137e182614278565b6137eb81856142e8565b93506137fb818560208601614464565b6138048161465e565b840191505092915050565b600061381a82614283565b61382481856142f9565b9350613834818560208601614464565b61383d8161465e565b840191505092915050565b600061385382614283565b61385d818561430a565b935061386d818560208601614464565b6138768161465e565b840191505092915050565b600061388c82614283565b613896818561431b565b93506138a6818560208601614464565b80840191505092915050565b60006138bf60328361430a565b91506138ca8261467c565b604082019050919050565b60006138e260268361430a565b91506138ed826146cb565b604082019050919050565b6000613905601c8361430a565b91506139108261471a565b602082019050919050565b600061392860248361430a565b915061393382614743565b604082019050919050565b600061394b60198361430a565b915061395682614792565b602082019050919050565b600061396e602c8361430a565b9150613979826147bb565b604082019050919050565b600061399160388361430a565b915061399c8261480a565b604082019050919050565b60006139b4602a8361430a565b91506139bf82614859565b604082019050919050565b60006139d7600f8361430a565b91506139e2826148a8565b602082019050919050565b60006139fa60298361430a565b9150613a05826148d1565b604082019050919050565b6000613a1d602e8361430a565b9150613a2882614920565b604082019050919050565b6000613a4060218361430a565b9150613a4b8261496f565b604082019050919050565b6000613a6360218361430a565b9150613a6e826149be565b604082019050919050565b6000613a8660208361430a565b9150613a9182614a0d565b602082019050919050565b6000613aa960318361430a565b9150613ab482614a36565b604082019050919050565b6000613acc600e8361430a565b9150613ad782614a85565b602082019050919050565b6000613aef602c8361430a565b9150613afa82614aae565b604082019050919050565b6000613b1260208361430a565b9150613b1d82614afd565b602082019050919050565b6000613b3560298361430a565b9150613b4082614b26565b604082019050919050565b6000613b58602f8361430a565b9150613b6382614b75565b604082019050919050565b6000613b7b60218361430a565b9150613b8682614bc4565b604082019050919050565b6000613b9e60318361430a565b9150613ba982614c13565b604082019050919050565b6000613bc1602b8361430a565b9150613bcc82614c62565b604082019050919050565b600060a083016000830151613bef6000860182613661565b5060208301518482036020860152613c07828261380f565b91505060408301518482036040860152613c21828261380f565b9150506060830151613c366060860182613c54565b506080830151613c496080860182613c54565b508091505092915050565b613c5d8161444b565b82525050565b613c6c8161444b565b82525050565b613c83613c7e8261444b565b614567565b82525050565b6000613c95828761367f565b601482019150613ca58286613881565b9150613cb18285613881565b9150613cbd8284613c72565b60208201915081905095945050505050565b6000613cdb8284613881565b915081905092915050565b6000613cf28285613881565b9150613cfe8284613881565b91508190509392505050565b6000602082019050613d1f6000830184613670565b92915050565b6000608082019050613d3a6000830187613670565b613d476020830186613670565b613d546040830185613c63565b8181036060830152613d6681846137d6565b905095945050505050565b600060a082019050613d866000830188613670565b8181036020830152613d988187613848565b90508181036040830152613dac8186613848565b9050613dbb6060830185613c63565b613dc86080830184613c63565b9695505050505050565b60006020820190508181036000830152613dec8184613696565b905092915050565b60006020820190508181036000830152613e0e81846136f4565b905092915050565b60006020820190508181036000830152613e308184613769565b905092915050565b6000602082019050613e4d60008301846137c7565b92915050565b60006020820190508181036000830152613e6d8184613848565b905092915050565b60006040820190508181036000830152613e8f8185613848565b9050613e9e6020830184613c63565b9392505050565b60006020820190508181036000830152613ebe816138b2565b9050919050565b60006020820190508181036000830152613ede816138d5565b9050919050565b60006020820190508181036000830152613efe816138f8565b9050919050565b60006020820190508181036000830152613f1e8161391b565b9050919050565b60006020820190508181036000830152613f3e8161393e565b9050919050565b60006020820190508181036000830152613f5e81613961565b9050919050565b60006020820190508181036000830152613f7e81613984565b9050919050565b60006020820190508181036000830152613f9e816139a7565b9050919050565b60006020820190508181036000830152613fbe816139ca565b9050919050565b60006020820190508181036000830152613fde816139ed565b9050919050565b60006020820190508181036000830152613ffe81613a10565b9050919050565b6000602082019050818103600083015261401e81613a33565b9050919050565b6000602082019050818103600083015261403e81613a56565b9050919050565b6000602082019050818103600083015261405e81613a79565b9050919050565b6000602082019050818103600083015261407e81613a9c565b9050919050565b6000602082019050818103600083015261409e81613abf565b9050919050565b600060208201905081810360008301526140be81613ae2565b9050919050565b600060208201905081810360008301526140de81613b05565b9050919050565b600060208201905081810360008301526140fe81613b28565b9050919050565b6000602082019050818103600083015261411e81613b4b565b9050919050565b6000602082019050818103600083015261413e81613b6e565b9050919050565b6000602082019050818103600083015261415e81613b91565b9050919050565b6000602082019050818103600083015261417e81613bb4565b9050919050565b600060208201905061419a6000830184613c63565b92915050565b60006141aa6141bb565b90506141b682826144c9565b919050565b6000604051905090565b600067ffffffffffffffff8211156141e0576141df61462f565b5b6141e98261465e565b9050602081019050919050565b600067ffffffffffffffff8211156142115761421061462f565b5b61421a8261465e565b9050602081019050919050565b6000819050602082019050919050565b6000819050602082019050919050565b6000819050602082019050919050565b600081519050919050565b600081519050919050565b600081519050919050565b600081519050919050565b600081519050919050565b6000602082019050919050565b6000602082019050919050565b6000602082019050919050565b600082825260208201905092915050565b600082825260208201905092915050565b600082825260208201905092915050565b600082825260208201905092915050565b600082825260208201905092915050565b600082825260208201905092915050565b600081905092915050565b60006143318261444b565b915061433c8361444b565b9250827fffffffffffffffffffffffffffffffffffffffffffffffffffffffffffffffff03821115614371576143706145a2565b5b828201905092915050565b60006143878261444b565b91506143928361444b565b9250826143a2576143a16145d1565b5b828204905092915050565b60006143b88261444b565b91506143c38361444b565b9250828210156143d6576143d56145a2565b5b828203905092915050565b60006143ec8261442b565b9050919050565b60008115159050919050565b60007fffffffff0000000000000000000000000000000000000000000000000000000082169050919050565b600073ffffffffffffffffffffffffffffffffffffffff82169050919050565b6000819050919050565b82818337600083830152505050565b60005b83811015614482578082015181840152602081019050614467565b83811115614491576000848401525b50505050565b600060028204905060018216806144af57607f821691505b602082108114156144c3576144c2614600565b5b50919050565b6144d28261465e565b810181811067ffffffffffffffff821117156144f1576144f061462f565b5b80604052505050565b60006145058261444b565b91507fffffffffffffffffffffffffffffffffffffffffffffffffffffffffffffffff821415614538576145376145a2565b5b600182019050919050565b600061454e82614555565b9050919050565b60006145608261466f565b9050919050565b6000819050919050565b600061457c8261444b565b91506145878361444b565b925082614597576145966145d1565b5b828206905092915050565b7f4e487b7100000000000000000000000000000000000000000000000000000000600052601160045260246000fd5b7f4e487b7100000000000000000000000000000000000000000000000000000000600052601260045260246000fd5b7f4e487b7100000000000000000000000000000000000000000000000000000000600052602260045260246000fd5b7f4e487b7100000000000000000000000000000000000000000000000000000000600052604160045260246000fd5b6000601f19601f8301169050919050565b60008160601b9050919050565b7f4552433732313a207472616e7366657220746f206e6f6e20455243373231526560008201527f63656976657220696d706c656d656e7465720000000000000000000000000000602082015250565b7f4f776e61626c653a206e6577206f776e657220697320746865207a65726f206160008201527f6464726573730000000000000000000000000000000000000000000000000000602082015250565b7f4552433732313a20746f6b656e20616c7265616479206d696e74656400000000600082015250565b7f4552433732313a207472616e7366657220746f20746865207a65726f2061646460008201527f7265737300000000000000000000000000000000000000000000000000000000602082015250565b7f4552433732313a20617070726f766520746f2063616c6c657200000000000000600082015250565b7f4552433732313a206f70657261746f7220717565727920666f72206e6f6e657860008201527f697374656e7420746f6b656e0000000000000000000000000000000000000000602082015250565b7f4552433732313a20617070726f76652063616c6c6572206973206e6f74206f7760008201527f6e6572206e6f7220617070726f76656420666f7220616c6c0000000000000000602082015250565b7f4552433732313a2062616c616e636520717565727920666f7220746865207a6560008201527f726f206164647265737300000000000000000000000000000000000000000000602082015250565b7f496e76616c6964205f617574686f720000000000000000000000000000000000600082015250565b7f4552433732313a206f776e657220717565727920666f72206e6f6e657869737460008201527f656e7420746f6b656e0000000000000000000000000000000000000000000000602082015250565b7f45524337323155524953746f726167653a2055524920736574206f66206e6f6e60008201527f6578697374656e7420746f6b656e000000000000000000000000000000000000602082015250565b7f417574686f722063616e6e6f742073756273637269626520746f20697473656c60008201527f6600000000000000000000000000000000000000000000000000000000000000602082015250565b7f5469746c65206d75737420686176652061206e6f6e2d656d7074792076616c7560008201527f6500000000000000000000000000000000000000000000000000000000000000602082015250565b7f4552433732313a206d696e7420746f20746865207a65726f2061646472657373600082015250565b7f45524337323155524953746f726167653a2055524920717565727920666f722060008201527f6e6f6e6578697374656e7420746f6b656e000000000000000000000000000000602082015250565b7f496e76616c696420617574686f72000000000000000000000000000000000000600082015250565b7f4552433732313a20617070726f76656420717565727920666f72206e6f6e657860008201527f697374656e7420746f6b656e0000000000000000000000000000000000000000602082015250565b7f4f776e61626c653a2063616c6c6572206973206e6f7420746865206f776e6572600082015250565b7f4552433732313a207472616e73666572206f6620746f6b656e2074686174206960008201527f73206e6f74206f776e0000000000000000000000000000000000000000000000602082015250565b7f4552433732314d657461646174613a2055524920717565727920666f72206e6f60008201527f6e6578697374656e7420746f6b656e0000000000000000000000000000000000602082015250565b7f4552433732313a20617070726f76616c20746f2063757272656e74206f776e6560008201527f7200000000000000000000000000000000000000000000000000000000000000602082015250565b7f4552433732313a207472616e736665722063616c6c6572206973206e6f74206f60008201527f776e6572206e6f7220617070726f766564000000000000000000000000000000602082015250565b7f41727469636c6520636f6e74656e74206d75737420686176652061206e6f6e2d60008201527f656d7074792076616c7565000000000000000000000000000000000000000000602082015250565b614cba816143e1565b8114614cc557600080fd5b50565b614cd1816143f3565b8114614cdc57600080fd5b50565b614ce8816143ff565b8114614cf357600080fd5b50565b614cff8161444b565b8114614d0a57600080fd5b5056fea26469706673582212203a63b9b343744682309db45ee91f42a82f180f801a739e66eb15b0242d886ecc64736f6c63430008040033",
  "immutableReferences": {},
  "source": "// SPDX-License-Identifier: MIT\npragma solidity ^0.8.0;\npragma experimental ABIEncoderV2;\n\nimport \"./ArticleNFT.sol\";\n\ncontract Decentrastack is ArticleNFT {\n  // get all articles ever written\n  Article[] public articles;\n  \n  struct Article {\n    address author; // 20 bytes\n    string title; // TODO max characters for an article title *should be* 70 chars via UI\n    string contentIpfsHash; // ipfs hash of body content, to reduce storage costs\n    // ipfs hash is 46 bytes so maybe find way to byte pack via separating into:\n    /* struct Multihash {\n        bytes32 hash\n        uint8 hash_function\n        uint8 size\n    } */\n    uint256 date; // uint32 would make max date in year 2106\n    uint256 articleId; // articleId can be cheaper if just a counter instead of keccak hash\n  }\n\n  // @dev consider adding index variable for each array; to help with lookups instead of for loop\n  mapping(address => Article[]) public authorToArticles;\n  mapping(address => address[]) public usersToSubscribedAuthors;\n\n  event ArticlePublished(address indexed _author, string _title, string indexed _contentIpfsHash, uint256 _date, uint256 indexed _articleId);\n  event NewUserSubscription(address indexed _follower, address indexed _author);\n  event UserUnsubscribedFromAuthor(address indexed _follower, address indexed _author);\n\n  function createArticle(string memory _title, string memory _contentIpfsHash) public returns(uint256 newArticleId) {\n    require(bytes(_title).length > 0, \"Title must have a non-empty value\");\n    require(bytes(_contentIpfsHash).length > 0, \"Article content must have a non-empty value\");\n   \n    newArticleId = createCollectible(msg.sender, _title, _contentIpfsHash);\n\n    Article memory newArticle = Article({\n      author: msg.sender,\n      title: _title,\n      contentIpfsHash: _contentIpfsHash,\n      date: block.timestamp,\n      articleId: newArticleId\n    });\n\n    authorToArticles[msg.sender].push(newArticle);\n    articles.push(newArticle);\n    \n    emit ArticlePublished(newArticle.author, newArticle.title, newArticle.contentIpfsHash, newArticle.date, newArticle.articleId);\n  }\n\n  function getArticles() public view returns(Article[] memory) {\n      return articles;\n  }\n\n  function getUserToSubscribedAuthors(address _user) public view returns(address[] memory) {\n      return usersToSubscribedAuthors[_user];\n  }\n\n  // subscribe to author\n  function subscribeToAuthor(address _author) public {\n    require(_author != address(0), 'Invalid author');\n    require(_author != msg.sender, 'Author cannot subscribe to itself');\n    bool alreadySubscribed = false;\n    for(uint i = 0; i < usersToSubscribedAuthors[msg.sender].length; i++) {\n      if(usersToSubscribedAuthors[msg.sender][i] == _author) {\n        alreadySubscribed = true;\n        break;\n      }\n    }\n    if(!alreadySubscribed) {\n        usersToSubscribedAuthors[msg.sender].push(_author);\n        emit NewUserSubscription(msg.sender, _author);\n    }\n  }\n\n  // unsubscribe from author\n  function unsubscribeFromAuthor(address _author) public {\n    require(_author != address(0), 'Invalid _author');\n    for(uint i = 0; i < usersToSubscribedAuthors[msg.sender].length; i++) {\n      if(usersToSubscribedAuthors[msg.sender][i] == _author) {\n        // swap index with the last item in the array and then `delete` & shorten array\n        // @dev this is to prevent 0x0 value being written to author & bloating array\n        usersToSubscribedAuthors[msg.sender][i] = usersToSubscribedAuthors[msg.sender][usersToSubscribedAuthors[msg.sender].length - 1];\n        usersToSubscribedAuthors[msg.sender].pop();\n        emit UserUnsubscribedFromAuthor(msg.sender, _author);\n        break;\n      }\n    }\n  }\n}\n",
  "sourcePath": "/Users/db/Projects/decentraStack/contracts/Decentrastack.sol",
  "compiler": {
    "name": "solc",
    "version": "0.8.4+commit.c7e474f2.Emscripten.clang"
  },
  "schemaVersion": "3.3.3",
  "updatedAt": "2021-05-27T00:26:59.015Z",
  "networkType": "ethereum",
  "devdoc": {
    "kind": "dev",
    "methods": {
      "approve(address,uint256)": {
        "details": "See {IERC721-approve}."
      },
      "balanceOf(address)": {
        "details": "See {IERC721-balanceOf}."
      },
      "getApproved(uint256)": {
        "details": "See {IERC721-getApproved}."
      },
      "isApprovedForAll(address,address)": {
        "details": "See {IERC721-isApprovedForAll}."
      },
      "name()": {
        "details": "See {IERC721Metadata-name}."
      },
      "owner()": {
        "details": "Returns the address of the current owner."
      },
      "ownerOf(uint256)": {
        "details": "See {IERC721-ownerOf}."
      },
      "renounceOwnership()": {
        "details": "Leaves the contract without owner. It will not be possible to call `onlyOwner` functions anymore. Can only be called by the current owner. NOTE: Renouncing ownership will leave the contract without an owner, thereby removing any functionality that is only available to the owner."
      },
      "safeTransferFrom(address,address,uint256)": {
        "details": "See {IERC721-safeTransferFrom}."
      },
      "safeTransferFrom(address,address,uint256,bytes)": {
        "details": "See {IERC721-safeTransferFrom}."
      },
      "setApprovalForAll(address,bool)": {
        "details": "See {IERC721-setApprovalForAll}."
      },
      "supportsInterface(bytes4)": {
        "details": "See {IERC165-supportsInterface}."
      },
      "symbol()": {
        "details": "See {IERC721Metadata-symbol}."
      },
      "tokenURI(uint256)": {
        "details": "See {IERC721Metadata-tokenURI}."
      },
      "transferFrom(address,address,uint256)": {
        "details": "See {IERC721-transferFrom}."
      },
      "transferOwnership(address)": {
        "details": "Transfers ownership of the contract to a new account (`newOwner`). Can only be called by the current owner."
      }
    },
    "version": 1
  },
  "userdoc": {
    "kind": "user",
    "methods": {},
    "version": 1
  }
}