{
  "contractName": "Decentrastack",
  "abi": [
    {
      "anonymous": false,
      "inputs": [
        {
          "indexed": true,
          "internalType": "address",
          "name": "_author",
          "type": "address"
        },
        {
          "indexed": false,
          "internalType": "string",
          "name": "_title",
          "type": "string"
        },
        {
          "indexed": true,
          "internalType": "string",
          "name": "_contentIpfsHash",
          "type": "string"
        },
        {
          "indexed": false,
          "internalType": "uint256",
          "name": "_date",
          "type": "uint256"
        },
        {
          "indexed": true,
          "internalType": "uint256",
          "name": "_articleId",
          "type": "uint256"
        }
      ],
      "name": "ArticlePublished",
      "type": "event"
    },
    {
      "anonymous": false,
      "inputs": [
        {
          "indexed": true,
          "internalType": "address",
          "name": "_follower",
          "type": "address"
        },
        {
          "indexed": true,
          "internalType": "address",
          "name": "_author",
          "type": "address"
        }
      ],
      "name": "NewUserSubscription",
      "type": "event"
    },
    {
      "anonymous": false,
      "inputs": [
        {
          "indexed": true,
          "internalType": "address",
          "name": "_follower",
          "type": "address"
        },
        {
          "indexed": true,
          "internalType": "address",
          "name": "_author",
          "type": "address"
        }
      ],
      "name": "UserUnsubscribedFromAuthor",
      "type": "event"
    },
    {
      "inputs": [
        {
          "internalType": "uint256",
          "name": "",
          "type": "uint256"
        }
      ],
      "name": "articles",
      "outputs": [
        {
          "internalType": "address",
          "name": "author",
          "type": "address"
        },
        {
          "internalType": "string",
          "name": "title",
          "type": "string"
        },
        {
          "internalType": "string",
          "name": "contentIpfsHash",
          "type": "string"
        },
        {
          "internalType": "uint256",
          "name": "date",
          "type": "uint256"
        },
        {
          "internalType": "uint256",
          "name": "articleId",
          "type": "uint256"
        }
      ],
      "stateMutability": "view",
      "type": "function",
      "constant": true
    },
    {
      "inputs": [
        {
          "internalType": "address",
          "name": "",
          "type": "address"
        },
        {
          "internalType": "uint256",
          "name": "",
          "type": "uint256"
        }
      ],
      "name": "authorToArticles",
      "outputs": [
        {
          "internalType": "address",
          "name": "author",
          "type": "address"
        },
        {
          "internalType": "string",
          "name": "title",
          "type": "string"
        },
        {
          "internalType": "string",
          "name": "contentIpfsHash",
          "type": "string"
        },
        {
          "internalType": "uint256",
          "name": "date",
          "type": "uint256"
        },
        {
          "internalType": "uint256",
          "name": "articleId",
          "type": "uint256"
        }
      ],
      "stateMutability": "view",
      "type": "function",
      "constant": true
    },
    {
      "inputs": [
        {
          "internalType": "address",
          "name": "",
          "type": "address"
        },
        {
          "internalType": "uint256",
          "name": "",
          "type": "uint256"
        }
      ],
      "name": "usersToSubscribedAuthors",
      "outputs": [
        {
          "internalType": "address",
          "name": "",
          "type": "address"
        }
      ],
      "stateMutability": "view",
      "type": "function",
      "constant": true
    },
    {
      "inputs": [
        {
          "internalType": "string",
          "name": "_title",
          "type": "string"
        },
        {
          "internalType": "string",
          "name": "_content",
          "type": "string"
        }
      ],
      "name": "createArticle",
      "outputs": [],
      "stateMutability": "nonpayable",
      "type": "function"
    },
    {
      "inputs": [],
      "name": "getArticles",
      "outputs": [
        {
          "components": [
            {
              "internalType": "address",
              "name": "author",
              "type": "address"
            },
            {
              "internalType": "string",
              "name": "title",
              "type": "string"
            },
            {
              "internalType": "string",
              "name": "contentIpfsHash",
              "type": "string"
            },
            {
              "internalType": "uint256",
              "name": "date",
              "type": "uint256"
            },
            {
              "internalType": "uint256",
              "name": "articleId",
              "type": "uint256"
            }
          ],
          "internalType": "struct Decentrastack.Article[]",
          "name": "",
          "type": "tuple[]"
        }
      ],
      "stateMutability": "view",
      "type": "function",
      "constant": true
    },
    {
      "inputs": [
        {
          "internalType": "address",
          "name": "_user",
          "type": "address"
        }
      ],
      "name": "getUserToSubscribedAuthors",
      "outputs": [
        {
          "internalType": "address[]",
          "name": "",
          "type": "address[]"
        }
      ],
      "stateMutability": "view",
      "type": "function",
      "constant": true
    },
    {
      "inputs": [
        {
          "internalType": "address",
          "name": "_author",
          "type": "address"
        }
      ],
      "name": "subscribeToAuthor",
      "outputs": [],
      "stateMutability": "nonpayable",
      "type": "function"
    },
    {
      "inputs": [
        {
          "internalType": "address",
          "name": "_author",
          "type": "address"
        }
      ],
      "name": "unsubscribeFromAuthor",
      "outputs": [],
      "stateMutability": "nonpayable",
      "type": "function"
    }
  ],
  "bytecode": "0x608060405234801561001057600080fd5b50611eb5806100206000396000f3fe608060405234801561001057600080fd5b50600436106100885760003560e01c8063ce278e751161005b578063ce278e7514610127578063edcfafe614610143578063f7367cce14610177578063f9c26c181461019357610088565b806356eedd371461008d5780636529f44a146100bd5780638cfa2272146100db578063963cde7e146100f7575b600080fd5b6100a760048036038101906100a291906113bc565b6101c7565b6040516100b491906118c7565b60405180910390f35b6100c5610294565b6040516100d291906118e9565b60405180910390f35b6100f560048036038101906100f09190611421565b610481565b005b610111600480360381019061010c91906113e5565b6107bc565b60405161011e919061184b565b60405180910390f35b610141600480360381019061013c91906113bc565b61080a565b005b61015d6004803603810190610158919061148d565b610b2d565b60405161016e959493929190611866565b60405180910390f35b610191600480360381019061018c91906113bc565b610ca3565b005b6101ad60048036038101906101a891906113e5565b611104565b6040516101be959493929190611866565b60405180910390f35b6060600260008373ffffffffffffffffffffffffffffffffffffffff1673ffffffffffffffffffffffffffffffffffffffff16815260200190815260200160002080548060200260200160405190810160405280929190818152602001828054801561028857602002820191906000526020600020905b8160009054906101000a900473ffffffffffffffffffffffffffffffffffffffff1673ffffffffffffffffffffffffffffffffffffffff168152602001906001019080831161023e575b50505050509050919050565b60606000805480602002602001604051908101604052809291908181526020016000905b8282101561047857838290600052602060002090600502016040518060a00160405290816000820160009054906101000a900473ffffffffffffffffffffffffffffffffffffffff1673ffffffffffffffffffffffffffffffffffffffff1673ffffffffffffffffffffffffffffffffffffffff16815260200160018201805461034190611b8d565b80601f016020809104026020016040519081016040528092919081815260200182805461036d90611b8d565b80156103ba5780601f1061038f576101008083540402835291602001916103ba565b820191906000526020600020905b81548152906001019060200180831161039d57829003601f168201915b505050505081526020016002820180546103d390611b8d565b80601f01602080910402602001604051908101604052809291908181526020018280546103ff90611b8d565b801561044c5780601f106104215761010080835404028352916020019161044c565b820191906000526020600020905b81548152906001019060200180831161042f57829003601f168201915b5050505050815260200160038201548152602001600482015481525050815260200190600101906102b8565b50505050905090565b60008251116104c5576040517f08c379a00000000000000000000000000000000000000000000000000000000081526004016104bc9061197b565b60405180910390fd5b6000815111610509576040517f08c379a0000000000000000000000000000000000000000000000000000000008152600401610500906119bb565b60405180910390fd5b60006040518060a001604052803373ffffffffffffffffffffffffffffffffffffffff1681526020018481526020018381526020014281526020013385854260405160200161055b94939291906117ee565b6040516020818303038152906040528051906020012060001c8152509050600160003373ffffffffffffffffffffffffffffffffffffffff1673ffffffffffffffffffffffffffffffffffffffff16815260200190815260200160002081908060018154018082558091505060019003906000526020600020906005020160009091909190915060008201518160000160006101000a81548173ffffffffffffffffffffffffffffffffffffffff021916908373ffffffffffffffffffffffffffffffffffffffff1602179055506020820151816001019080519060200190610645929190611287565b506040820151816002019080519060200190610662929190611287565b5060608201518160030155608082015181600401555050600081908060018154018082558091505060019003906000526020600020906005020160009091909190915060008201518160000160006101000a81548173ffffffffffffffffffffffffffffffffffffffff021916908373ffffffffffffffffffffffffffffffffffffffff1602179055506020820151816001019080519060200190610708929190611287565b506040820151816002019080519060200190610725929190611287565b5060608201518160030155608082015181600401555050806080015181604001516040516107539190611834565b6040518091039020826000015173ffffffffffffffffffffffffffffffffffffffff167fd2c271e18976fb68dd0629ceba8cdd5b0d5ea409dfc95e3ea4f1e3a4317f01de846020015185606001516040516107af92919061190b565b60405180910390a4505050565b600260205281600052604060002081815481106107d857600080fd5b906000526020600020016000915091509054906101000a900473ffffffffffffffffffffffffffffffffffffffff1681565b600073ffffffffffffffffffffffffffffffffffffffff168173ffffffffffffffffffffffffffffffffffffffff16141561087a576040517f08c379a00000000000000000000000000000000000000000000000000000000081526004016108719061199b565b60405180910390fd5b3373ffffffffffffffffffffffffffffffffffffffff168173ffffffffffffffffffffffffffffffffffffffff1614156108e9576040517f08c379a00000000000000000000000000000000000000000000000000000000081526004016108e09061195b565b60405180910390fd5b6000805b600260003373ffffffffffffffffffffffffffffffffffffffff1673ffffffffffffffffffffffffffffffffffffffff16815260200190815260200160002080549050811015610a28578273ffffffffffffffffffffffffffffffffffffffff16600260003373ffffffffffffffffffffffffffffffffffffffff1673ffffffffffffffffffffffffffffffffffffffff16815260200190815260200160002082815481106109c5577f4e487b7100000000000000000000000000000000000000000000000000000000600052603260045260246000fd5b9060005260206000200160009054906101000a900473ffffffffffffffffffffffffffffffffffffffff1673ffffffffffffffffffffffffffffffffffffffff161415610a155760019150610a28565b8080610a2090611bf0565b9150506108ed565b5080610b2957600260003373ffffffffffffffffffffffffffffffffffffffff1673ffffffffffffffffffffffffffffffffffffffff168152602001908152602001600020829080600181540180825580915050600190039060005260206000200160009091909190916101000a81548173ffffffffffffffffffffffffffffffffffffffff021916908373ffffffffffffffffffffffffffffffffffffffff1602179055508173ffffffffffffffffffffffffffffffffffffffff163373ffffffffffffffffffffffffffffffffffffffff167f26e36b227ec3fc4bcf7dd57ac632530d294bf00aa858151df37d8f4e5dc5402660405160405180910390a35b5050565b60008181548110610b3d57600080fd5b90600052602060002090600502016000915090508060000160009054906101000a900473ffffffffffffffffffffffffffffffffffffffff1690806001018054610b8690611b8d565b80601f0160208091040260200160405190810160405280929190818152602001828054610bb290611b8d565b8015610bff5780601f10610bd457610100808354040283529160200191610bff565b820191906000526020600020905b815481529060010190602001808311610be257829003601f168201915b505050505090806002018054610c1490611b8d565b80601f0160208091040260200160405190810160405280929190818152602001828054610c4090611b8d565b8015610c8d5780601f10610c6257610100808354040283529160200191610c8d565b820191906000526020600020905b815481529060010190602001808311610c7057829003601f168201915b5050505050908060030154908060040154905085565b600073ffffffffffffffffffffffffffffffffffffffff168173ffffffffffffffffffffffffffffffffffffffff161415610d13576040517f08c379a0000000000000000000000000000000000000000000000000000000008152600401610d0a9061193b565b60405180910390fd5b60005b600260003373ffffffffffffffffffffffffffffffffffffffff1673ffffffffffffffffffffffffffffffffffffffff16815260200190815260200160002080549050811015611100578173ffffffffffffffffffffffffffffffffffffffff16600260003373ffffffffffffffffffffffffffffffffffffffff1673ffffffffffffffffffffffffffffffffffffffff1681526020019081526020016000208281548110610dee577f4e487b7100000000000000000000000000000000000000000000000000000000600052603260045260246000fd5b9060005260206000200160009054906101000a900473ffffffffffffffffffffffffffffffffffffffff1673ffffffffffffffffffffffffffffffffffffffff1614156110ed57600260003373ffffffffffffffffffffffffffffffffffffffff1673ffffffffffffffffffffffffffffffffffffffff1681526020019081526020016000206001600260003373ffffffffffffffffffffffffffffffffffffffff1673ffffffffffffffffffffffffffffffffffffffff16815260200190815260200160002080549050610ec39190611adb565b81548110610efa577f4e487b7100000000000000000000000000000000000000000000000000000000600052603260045260246000fd5b9060005260206000200160009054906101000a900473ffffffffffffffffffffffffffffffffffffffff16600260003373ffffffffffffffffffffffffffffffffffffffff1673ffffffffffffffffffffffffffffffffffffffff1681526020019081526020016000208281548110610f9c577f4e487b7100000000000000000000000000000000000000000000000000000000600052603260045260246000fd5b9060005260206000200160006101000a81548173ffffffffffffffffffffffffffffffffffffffff021916908373ffffffffffffffffffffffffffffffffffffffff160217905550600260003373ffffffffffffffffffffffffffffffffffffffff1673ffffffffffffffffffffffffffffffffffffffff168152602001908152602001600020805480611059577f4e487b7100000000000000000000000000000000000000000000000000000000600052603160045260246000fd5b6001900381819060005260206000200160006101000a81549073ffffffffffffffffffffffffffffffffffffffff021916905590558173ffffffffffffffffffffffffffffffffffffffff163373ffffffffffffffffffffffffffffffffffffffff167fe8e915cd6d448d72358fdb7e7ed3f2ba3eb6293f6213b42830a7c1476df87f2b60405160405180910390a3611100565b80806110f890611bf0565b915050610d16565b5050565b6001602052816000526040600020818154811061112057600080fd5b9060005260206000209060050201600091509150508060000160009054906101000a900473ffffffffffffffffffffffffffffffffffffffff169080600101805461116a90611b8d565b80601f016020809104026020016040519081016040528092919081815260200182805461119690611b8d565b80156111e35780601f106111b8576101008083540402835291602001916111e3565b820191906000526020600020905b8154815290600101906020018083116111c657829003601f168201915b5050505050908060020180546111f890611b8d565b80601f016020809104026020016040519081016040528092919081815260200182805461122490611b8d565b80156112715780601f1061124657610100808354040283529160200191611271565b820191906000526020600020905b81548152906001019060200180831161125457829003601f168201915b5050505050908060030154908060040154905085565b82805461129390611b8d565b90600052602060002090601f0160209004810192826112b557600085556112fc565b82601f106112ce57805160ff19168380011785556112fc565b828001600101855582156112fc579182015b828111156112fb5782518255916020019190600101906112e0565b5b509050611309919061130d565b5090565b5b8082111561132657600081600090555060010161130e565b5090565b600061133d61133884611a00565b6119db565b90508281526020810184848401111561135557600080fd5b611360848285611b4b565b509392505050565b60008135905061137781611e51565b92915050565b600082601f83011261138e57600080fd5b813561139e84826020860161132a565b91505092915050565b6000813590506113b681611e68565b92915050565b6000602082840312156113ce57600080fd5b60006113dc84828501611368565b91505092915050565b600080604083850312156113f857600080fd5b600061140685828601611368565b9250506020611417858286016113a7565b9150509250929050565b6000806040838503121561143457600080fd5b600083013567ffffffffffffffff81111561144e57600080fd5b61145a8582860161137d565b925050602083013567ffffffffffffffff81111561147757600080fd5b6114838582860161137d565b9150509250929050565b60006020828403121561149f57600080fd5b60006114ad848285016113a7565b91505092915050565b60006114c283836114e2565b60208301905092915050565b60006114da838361173c565b905092915050565b6114eb81611b0f565b82525050565b6114fa81611b0f565b82525050565b61151161150c82611b0f565b611c39565b82525050565b600061152282611a51565b61152c8185611a8c565b935061153783611a31565b8060005b8381101561156857815161154f88826114b6565b975061155a83611a72565b92505060018101905061153b565b5085935050505092915050565b600061158082611a5c565b61158a8185611a9d565b93508360208202850161159c85611a41565b8060005b858110156115d857848403895281516115b985826114ce565b94506115c483611a7f565b925060208a019950506001810190506115a0565b50829750879550505050505092915050565b60006115f582611a67565b6115ff8185611aae565b935061160f818560208601611b5a565b61161881611cf4565b840191505092915050565b600061162e82611a67565b6116388185611abf565b9350611648818560208601611b5a565b61165181611cf4565b840191505092915050565b600061166782611a67565b6116718185611ad0565b9350611681818560208601611b5a565b80840191505092915050565b600061169a600f83611abf565b91506116a582611d12565b602082019050919050565b60006116bd602183611abf565b91506116c882611d3b565b604082019050919050565b60006116e0602183611abf565b91506116eb82611d8a565b604082019050919050565b6000611703600e83611abf565b915061170e82611dd9565b602082019050919050565b6000611726602b83611abf565b915061173182611e02565b604082019050919050565b600060a08301600083015161175460008601826114e2565b506020830151848203602086015261176c82826115ea565b9150506040830151848203604086015261178682826115ea565b915050606083015161179b60608601826117b9565b5060808301516117ae60808601826117b9565b508091505092915050565b6117c281611b41565b82525050565b6117d181611b41565b82525050565b6117e86117e382611b41565b611c5d565b82525050565b60006117fa8287611500565b60148201915061180a828661165c565b9150611816828561165c565b915061182282846117d7565b60208201915081905095945050505050565b6000611840828461165c565b915081905092915050565b600060208201905061186060008301846114f1565b92915050565b600060a08201905061187b60008301886114f1565b818103602083015261188d8187611623565b905081810360408301526118a18186611623565b90506118b060608301856117c8565b6118bd60808301846117c8565b9695505050505050565b600060208201905081810360008301526118e18184611517565b905092915050565b600060208201905081810360008301526119038184611575565b905092915050565b600060408201905081810360008301526119258185611623565b905061193460208301846117c8565b9392505050565b600060208201905081810360008301526119548161168d565b9050919050565b60006020820190508181036000830152611974816116b0565b9050919050565b60006020820190508181036000830152611994816116d3565b9050919050565b600060208201905081810360008301526119b4816116f6565b9050919050565b600060208201905081810360008301526119d481611719565b9050919050565b60006119e56119f6565b90506119f18282611bbf565b919050565b6000604051905090565b600067ffffffffffffffff821115611a1b57611a1a611cc5565b5b611a2482611cf4565b9050602081019050919050565b6000819050602082019050919050565b6000819050602082019050919050565b600081519050919050565b600081519050919050565b600081519050919050565b6000602082019050919050565b6000602082019050919050565b600082825260208201905092915050565b600082825260208201905092915050565b600082825260208201905092915050565b600082825260208201905092915050565b600081905092915050565b6000611ae682611b41565b9150611af183611b41565b925082821015611b0457611b03611c67565b5b828203905092915050565b6000611b1a82611b21565b9050919050565b600073ffffffffffffffffffffffffffffffffffffffff82169050919050565b6000819050919050565b82818337600083830152505050565b60005b83811015611b78578082015181840152602081019050611b5d565b83811115611b87576000848401525b50505050565b60006002820490506001821680611ba557607f821691505b60208210811415611bb957611bb8611c96565b5b50919050565b611bc882611cf4565b810181811067ffffffffffffffff82111715611be757611be6611cc5565b5b80604052505050565b6000611bfb82611b41565b91507fffffffffffffffffffffffffffffffffffffffffffffffffffffffffffffffff821415611c2e57611c2d611c67565b5b600182019050919050565b6000611c4482611c4b565b9050919050565b6000611c5682611d05565b9050919050565b6000819050919050565b7f4e487b7100000000000000000000000000000000000000000000000000000000600052601160045260246000fd5b7f4e487b7100000000000000000000000000000000000000000000000000000000600052602260045260246000fd5b7f4e487b7100000000000000000000000000000000000000000000000000000000600052604160045260246000fd5b6000601f19601f8301169050919050565b60008160601b9050919050565b7f496e76616c6964205f617574686f720000000000000000000000000000000000600082015250565b7f417574686f722063616e6e6f742073756273637269626520746f20697473656c60008201527f6600000000000000000000000000000000000000000000000000000000000000602082015250565b7f5469746c65206d75737420686176652061206e6f6e2d656d7074792076616c7560008201527f6500000000000000000000000000000000000000000000000000000000000000602082015250565b7f496e76616c696420617574686f72000000000000000000000000000000000000600082015250565b7f41727469636c6520636f6e74656e74206d75737420686176652061206e6f6e2d60008201527f656d7074792076616c7565000000000000000000000000000000000000000000602082015250565b611e5a81611b0f565b8114611e6557600080fd5b50565b611e7181611b41565b8114611e7c57600080fd5b5056fea2646970667358221220b7efa7bb771d782173a5a1cceb7c513d56ed40207fc13e603538abec2776a6b664736f6c63430008040033",
  "immutableReferences": {},
  "source": "// SPDX-License-Identifier: MIT\npragma solidity ^0.8.0;\npragma experimental ABIEncoderV2;\n\n// import \"./ArticleNFT.sol\";\n\ncontract Decentrastack {\n  // get all articles ever written\n  Article[] public articles;\n  \n  struct Article {\n    address author; // 20 bytes\n    string title; // TODO max characters for an article title *should be* 70 chars via UI\n    string contentIpfsHash; // ipfs hash of body content, to reduce storage costs\n    // ipfs hash is 46 bytes so maybe find way to byte pack via separating into:\n    /* struct Multihash {\n        bytes32 hash\n        uint8 hash_function\n        uint8 size\n    } */\n    uint256 date; // uint32 would make max date in year 2106\n    uint256 articleId; // articleId can be cheaper if just a counter instead of keccak hash\n  }\n\n  // @dev consider adding index variable for each array; to help with lookups instead of for loop\n  mapping(address => Article[]) public authorToArticles;\n  mapping(address => address[]) public usersToSubscribedAuthors;\n\n  event ArticlePublished(address indexed _author, string _title, string indexed _contentIpfsHash, uint256 _date, uint256 indexed _articleId);\n  event NewUserSubscription(address indexed _follower, address indexed _author);\n  event UserUnsubscribedFromAuthor(address indexed _follower, address indexed _author);\n\n  function createArticle(string memory _title, string memory _content) public {\n    require(bytes(_title).length > 0, \"Title must have a non-empty value\");\n    require(bytes(_content).length > 0, \"Article content must have a non-empty value\");\n    Article memory newArticle = Article({\n      author: msg.sender,\n      title: _title,\n      contentIpfsHash: _content,\n      date: block.timestamp,\n      articleId: uint256(keccak256(abi.encodePacked(msg.sender, _title, _content, block.timestamp)))\n    });\n\n    authorToArticles[msg.sender].push(newArticle);\n    articles.push(newArticle);\n    \n    emit ArticlePublished(newArticle.author, newArticle.title, newArticle.contentIpfsHash, newArticle.date, newArticle.articleId);\n  }\n\n  function getArticles() public view returns(Article[] memory) {\n      return articles;\n  }\n\n  function getUserToSubscribedAuthors(address _user) public view returns(address[] memory) {\n      return usersToSubscribedAuthors[_user];\n  }\n\n  // subscribe to author\n  function subscribeToAuthor(address _author) public {\n    require(_author != address(0), 'Invalid author');\n    require(_author != msg.sender, 'Author cannot subscribe to itself');\n    bool alreadySubscribed = false;\n    for(uint i = 0; i < usersToSubscribedAuthors[msg.sender].length; i++) {\n      if(usersToSubscribedAuthors[msg.sender][i] == _author) {\n        alreadySubscribed = true;\n        break;\n      }\n    }\n    if(!alreadySubscribed) {\n        usersToSubscribedAuthors[msg.sender].push(_author);\n        emit NewUserSubscription(msg.sender, _author);\n    }\n  }\n\n  // unsubscribe from author\n  function unsubscribeFromAuthor(address _author) public {\n    require(_author != address(0), 'Invalid _author');\n    for(uint i = 0; i < usersToSubscribedAuthors[msg.sender].length; i++) {\n      if(usersToSubscribedAuthors[msg.sender][i] == _author) {\n        // swap index with the last item in the array and then `delete` & shorten array\n        // @dev this is to prevent 0x0 value being written to author & bloating array\n        usersToSubscribedAuthors[msg.sender][i] = usersToSubscribedAuthors[msg.sender][usersToSubscribedAuthors[msg.sender].length - 1];\n        usersToSubscribedAuthors[msg.sender].pop();\n        emit UserUnsubscribedFromAuthor(msg.sender, _author);\n        break;\n      }\n    }\n  }\n}\n",
  "sourcePath": "/Users/db/Projects/decentraStack/contracts/Decentrastack.sol",
  "compiler": {
    "name": "solc",
    "version": "0.8.4+commit.c7e474f2.Emscripten.clang"
  },
  "schemaVersion": "3.3.3",
  "updatedAt": "2021-05-26T19:24:47.225Z",
  "networkType": "ethereum",
  "devdoc": {
    "kind": "dev",
    "methods": {},
    "version": 1
  },
  "userdoc": {
    "kind": "user",
    "methods": {},
    "version": 1
  }
}