{
  "contractName": "Decentrastack",
  "abi": [
    {
      "anonymous": false,
      "inputs": [
        {
          "indexed": true,
          "internalType": "address",
          "name": "owner",
          "type": "address"
        },
        {
          "indexed": true,
          "internalType": "address",
          "name": "approved",
          "type": "address"
        },
        {
          "indexed": true,
          "internalType": "uint256",
          "name": "tokenId",
          "type": "uint256"
        }
      ],
      "name": "Approval",
      "type": "event"
    },
    {
      "anonymous": false,
      "inputs": [
        {
          "indexed": true,
          "internalType": "address",
          "name": "owner",
          "type": "address"
        },
        {
          "indexed": true,
          "internalType": "address",
          "name": "operator",
          "type": "address"
        },
        {
          "indexed": false,
          "internalType": "bool",
          "name": "approved",
          "type": "bool"
        }
      ],
      "name": "ApprovalForAll",
      "type": "event"
    },
    {
      "anonymous": false,
      "inputs": [
        {
          "indexed": true,
          "internalType": "address",
          "name": "_author",
          "type": "address"
        },
        {
          "indexed": false,
          "internalType": "string",
          "name": "_title",
          "type": "string"
        },
        {
          "indexed": true,
          "internalType": "string",
          "name": "_contentIpfsHash",
          "type": "string"
        },
        {
          "indexed": false,
          "internalType": "uint256",
          "name": "_date",
          "type": "uint256"
        },
        {
          "indexed": true,
          "internalType": "uint256",
          "name": "_articleId",
          "type": "uint256"
        }
      ],
      "name": "ArticlePublished",
      "type": "event"
    },
    {
      "anonymous": false,
      "inputs": [
        {
          "indexed": false,
          "internalType": "address",
          "name": "_owner",
          "type": "address"
        },
        {
          "indexed": false,
          "internalType": "uint256",
          "name": "_tokenId",
          "type": "uint256"
        },
        {
          "indexed": false,
          "internalType": "string",
          "name": "_tokenURI",
          "type": "string"
        }
      ],
      "name": "MintedArticleNFT",
      "type": "event"
    },
    {
      "anonymous": false,
      "inputs": [
        {
          "indexed": true,
          "internalType": "address",
          "name": "_follower",
          "type": "address"
        },
        {
          "indexed": true,
          "internalType": "address",
          "name": "_author",
          "type": "address"
        }
      ],
      "name": "NewUserSubscription",
      "type": "event"
    },
    {
      "anonymous": false,
      "inputs": [
        {
          "indexed": true,
          "internalType": "address",
          "name": "previousOwner",
          "type": "address"
        },
        {
          "indexed": true,
          "internalType": "address",
          "name": "newOwner",
          "type": "address"
        }
      ],
      "name": "OwnershipTransferred",
      "type": "event"
    },
    {
      "anonymous": false,
      "inputs": [
        {
          "indexed": true,
          "internalType": "address",
          "name": "from",
          "type": "address"
        },
        {
          "indexed": true,
          "internalType": "address",
          "name": "to",
          "type": "address"
        },
        {
          "indexed": true,
          "internalType": "uint256",
          "name": "tokenId",
          "type": "uint256"
        }
      ],
      "name": "Transfer",
      "type": "event"
    },
    {
      "anonymous": false,
      "inputs": [
        {
          "indexed": true,
          "internalType": "address",
          "name": "_follower",
          "type": "address"
        },
        {
          "indexed": true,
          "internalType": "address",
          "name": "_author",
          "type": "address"
        }
      ],
      "name": "UserUnsubscribedFromAuthor",
      "type": "event"
    },
    {
      "inputs": [
        {
          "internalType": "address",
          "name": "to",
          "type": "address"
        },
        {
          "internalType": "uint256",
          "name": "tokenId",
          "type": "uint256"
        }
      ],
      "name": "approve",
      "outputs": [],
      "stateMutability": "nonpayable",
      "type": "function"
    },
    {
      "inputs": [
        {
          "internalType": "uint256",
          "name": "",
          "type": "uint256"
        }
      ],
      "name": "articles",
      "outputs": [
        {
          "internalType": "address",
          "name": "author",
          "type": "address"
        },
        {
          "internalType": "string",
          "name": "title",
          "type": "string"
        },
        {
          "internalType": "string",
          "name": "contentIpfsHash",
          "type": "string"
        },
        {
          "internalType": "uint256",
          "name": "date",
          "type": "uint256"
        },
        {
          "internalType": "uint256",
          "name": "articleId",
          "type": "uint256"
        }
      ],
      "stateMutability": "view",
      "type": "function",
      "constant": true
    },
    {
      "inputs": [
        {
          "internalType": "address",
          "name": "",
          "type": "address"
        },
        {
          "internalType": "uint256",
          "name": "",
          "type": "uint256"
        }
      ],
      "name": "authorToArticles",
      "outputs": [
        {
          "internalType": "address",
          "name": "author",
          "type": "address"
        },
        {
          "internalType": "string",
          "name": "title",
          "type": "string"
        },
        {
          "internalType": "string",
          "name": "contentIpfsHash",
          "type": "string"
        },
        {
          "internalType": "uint256",
          "name": "date",
          "type": "uint256"
        },
        {
          "internalType": "uint256",
          "name": "articleId",
          "type": "uint256"
        }
      ],
      "stateMutability": "view",
      "type": "function",
      "constant": true
    },
    {
      "inputs": [
        {
          "internalType": "address",
          "name": "owner",
          "type": "address"
        }
      ],
      "name": "balanceOf",
      "outputs": [
        {
          "internalType": "uint256",
          "name": "",
          "type": "uint256"
        }
      ],
      "stateMutability": "view",
      "type": "function",
      "constant": true
    },
    {
      "inputs": [
        {
          "internalType": "uint256",
          "name": "tokenId",
          "type": "uint256"
        }
      ],
      "name": "getApproved",
      "outputs": [
        {
          "internalType": "address",
          "name": "",
          "type": "address"
        }
      ],
      "stateMutability": "view",
      "type": "function",
      "constant": true
    },
    {
      "inputs": [
        {
          "internalType": "address",
          "name": "owner",
          "type": "address"
        },
        {
          "internalType": "address",
          "name": "operator",
          "type": "address"
        }
      ],
      "name": "isApprovedForAll",
      "outputs": [
        {
          "internalType": "bool",
          "name": "",
          "type": "bool"
        }
      ],
      "stateMutability": "view",
      "type": "function",
      "constant": true
    },
    {
      "inputs": [],
      "name": "name",
      "outputs": [
        {
          "internalType": "string",
          "name": "",
          "type": "string"
        }
      ],
      "stateMutability": "view",
      "type": "function",
      "constant": true
    },
    {
      "inputs": [],
      "name": "owner",
      "outputs": [
        {
          "internalType": "address",
          "name": "",
          "type": "address"
        }
      ],
      "stateMutability": "view",
      "type": "function",
      "constant": true
    },
    {
      "inputs": [
        {
          "internalType": "uint256",
          "name": "tokenId",
          "type": "uint256"
        }
      ],
      "name": "ownerOf",
      "outputs": [
        {
          "internalType": "address",
          "name": "",
          "type": "address"
        }
      ],
      "stateMutability": "view",
      "type": "function",
      "constant": true
    },
    {
      "inputs": [],
      "name": "renounceOwnership",
      "outputs": [],
      "stateMutability": "nonpayable",
      "type": "function"
    },
    {
      "inputs": [
        {
          "internalType": "address",
          "name": "from",
          "type": "address"
        },
        {
          "internalType": "address",
          "name": "to",
          "type": "address"
        },
        {
          "internalType": "uint256",
          "name": "tokenId",
          "type": "uint256"
        }
      ],
      "name": "safeTransferFrom",
      "outputs": [],
      "stateMutability": "nonpayable",
      "type": "function"
    },
    {
      "inputs": [
        {
          "internalType": "address",
          "name": "from",
          "type": "address"
        },
        {
          "internalType": "address",
          "name": "to",
          "type": "address"
        },
        {
          "internalType": "uint256",
          "name": "tokenId",
          "type": "uint256"
        },
        {
          "internalType": "bytes",
          "name": "_data",
          "type": "bytes"
        }
      ],
      "name": "safeTransferFrom",
      "outputs": [],
      "stateMutability": "nonpayable",
      "type": "function"
    },
    {
      "inputs": [
        {
          "internalType": "address",
          "name": "operator",
          "type": "address"
        },
        {
          "internalType": "bool",
          "name": "approved",
          "type": "bool"
        }
      ],
      "name": "setApprovalForAll",
      "outputs": [],
      "stateMutability": "nonpayable",
      "type": "function"
    },
    {
      "inputs": [
        {
          "internalType": "string",
          "name": "baseURI_",
          "type": "string"
        }
      ],
      "name": "setBaseURI",
      "outputs": [],
      "stateMutability": "nonpayable",
      "type": "function"
    },
    {
      "inputs": [
        {
          "internalType": "bytes4",
          "name": "interfaceId",
          "type": "bytes4"
        }
      ],
      "name": "supportsInterface",
      "outputs": [
        {
          "internalType": "bool",
          "name": "",
          "type": "bool"
        }
      ],
      "stateMutability": "view",
      "type": "function",
      "constant": true
    },
    {
      "inputs": [],
      "name": "symbol",
      "outputs": [
        {
          "internalType": "string",
          "name": "",
          "type": "string"
        }
      ],
      "stateMutability": "view",
      "type": "function",
      "constant": true
    },
    {
      "inputs": [
        {
          "internalType": "uint256",
          "name": "tokenId",
          "type": "uint256"
        }
      ],
      "name": "tokenURI",
      "outputs": [
        {
          "internalType": "string",
          "name": "",
          "type": "string"
        }
      ],
      "stateMutability": "view",
      "type": "function",
      "constant": true
    },
    {
      "inputs": [
        {
          "internalType": "address",
          "name": "from",
          "type": "address"
        },
        {
          "internalType": "address",
          "name": "to",
          "type": "address"
        },
        {
          "internalType": "uint256",
          "name": "tokenId",
          "type": "uint256"
        }
      ],
      "name": "transferFrom",
      "outputs": [],
      "stateMutability": "nonpayable",
      "type": "function"
    },
    {
      "inputs": [
        {
          "internalType": "address",
          "name": "newOwner",
          "type": "address"
        }
      ],
      "name": "transferOwnership",
      "outputs": [],
      "stateMutability": "nonpayable",
      "type": "function"
    },
    {
      "inputs": [
        {
          "internalType": "address",
          "name": "",
          "type": "address"
        },
        {
          "internalType": "uint256",
          "name": "",
          "type": "uint256"
        }
      ],
      "name": "usersToSubscribedAuthors",
      "outputs": [
        {
          "internalType": "address",
          "name": "",
          "type": "address"
        }
      ],
      "stateMutability": "view",
      "type": "function",
      "constant": true
    },
    {
      "inputs": [
        {
          "internalType": "string",
          "name": "_title",
          "type": "string"
        },
        {
          "internalType": "string",
          "name": "_contentIpfsHash",
          "type": "string"
        }
      ],
      "name": "createArticle",
      "outputs": [
        {
          "internalType": "uint256",
          "name": "newArticleId",
          "type": "uint256"
        }
      ],
      "stateMutability": "nonpayable",
      "type": "function"
    },
    {
      "inputs": [],
      "name": "getArticles",
      "outputs": [
        {
          "components": [
            {
              "internalType": "address",
              "name": "author",
              "type": "address"
            },
            {
              "internalType": "string",
              "name": "title",
              "type": "string"
            },
            {
              "internalType": "string",
              "name": "contentIpfsHash",
              "type": "string"
            },
            {
              "internalType": "uint256",
              "name": "date",
              "type": "uint256"
            },
            {
              "internalType": "uint256",
              "name": "articleId",
              "type": "uint256"
            }
          ],
          "internalType": "struct Decentrastack.Article[]",
          "name": "",
          "type": "tuple[]"
        }
      ],
      "stateMutability": "view",
      "type": "function",
      "constant": true
    },
    {
      "inputs": [
        {
          "internalType": "address",
          "name": "_user",
          "type": "address"
        }
      ],
      "name": "getUserToSubscribedAuthors",
      "outputs": [
        {
          "internalType": "address[]",
          "name": "",
          "type": "address[]"
        }
      ],
      "stateMutability": "view",
      "type": "function",
      "constant": true
    },
    {
      "inputs": [
        {
          "internalType": "address",
          "name": "_author",
          "type": "address"
        }
      ],
      "name": "subscribeToAuthor",
      "outputs": [],
      "stateMutability": "nonpayable",
      "type": "function"
    },
    {
      "inputs": [
        {
          "internalType": "address",
          "name": "_author",
          "type": "address"
        }
      ],
      "name": "unsubscribeFromAuthor",
      "outputs": [],
      "stateMutability": "nonpayable",
      "type": "function"
    }
  ],
  "bytecode": "0x60806040523480156200001157600080fd5b506040518060400160405280600d81526020017f646563656e747261537461636b000000000000000000000000000000000000008152506040518060400160405280600481526020017f4453544b00000000000000000000000000000000000000000000000000000000815250816000908051906020019062000096929190620001bf565b508060019080519060200190620000af929190620001bf565b5050506000620000c4620001b760201b60201c565b905080600760006101000a81548173ffffffffffffffffffffffffffffffffffffffff021916908373ffffffffffffffffffffffffffffffffffffffff1602179055508073ffffffffffffffffffffffffffffffffffffffff16600073ffffffffffffffffffffffffffffffffffffffff167f8be0079c531659141344cd1fd0a4f28419497f9722a3daafe3b4186f6b6457e060405160405180910390a3506040518060400160405280601581526020017f68747470733a2f2f697066732e696f2f697066732f000000000000000000000081525060089080519060200190620001b0929190620001bf565b50620002d4565b600033905090565b828054620001cd906200026f565b90600052602060002090601f016020900481019282620001f157600085556200023d565b82601f106200020c57805160ff19168380011785556200023d565b828001600101855582156200023d579182015b828111156200023c5782518255916020019190600101906200021f565b5b5090506200024c919062000250565b5090565b5b808211156200026b57600081600090555060010162000251565b5090565b600060028204905060018216806200028857607f821691505b602082108114156200029f576200029e620002a5565b5b50919050565b7f4e487b7100000000000000000000000000000000000000000000000000000000600052602260045260246000fd5b614aac80620002e46000396000f3fe608060405234801561001057600080fd5b50600436106101735760003560e01c80638cfa2272116100de578063c87b56dd11610097578063edcfafe611610071578063edcfafe61461046e578063f2fde38b146104a2578063f7367cce146104be578063f9c26c18146104da57610173565b8063c87b56dd146103f2578063ce278e7514610422578063e985e9c51461043e57610173565b80638cfa22721461031e5780638da5cb5b1461034e57806395d89b411461036c578063963cde7e1461038a578063a22cb465146103ba578063b88d4fde146103d657610173565b806355f804b31161013057806355f804b31461024a57806356eedd37146102665780636352211e146102965780636529f44a146102c657806370a08231146102e4578063715018a61461031457610173565b806301ffc9a71461017857806306fdde03146101a8578063081812fc146101c6578063095ea7b3146101f657806323b872dd1461021257806342842e0e1461022e575b600080fd5b610192600480360381019061018d919061325f565b61050e565b60405161019f9190613b68565b60405180910390f35b6101b06105f0565b6040516101bd9190613b83565b60405180910390f35b6101e060048036038101906101db919061337a565b610682565b6040516101ed9190613a1e565b60405180910390f35b610210600480360381019061020b919061321f565b610707565b005b61022c60048036038101906102279190613109565b61081f565b005b61024860048036038101906102439190613109565b61087f565b005b610264600480360381019061025f91906132b9565b61089f565b005b610280600480360381019061027b919061309c565b610935565b60405161028d9190613b24565b60405180910390f35b6102b060048036038101906102ab919061337a565b610a02565b6040516102bd9190613a1e565b60405180910390f35b6102ce610ab4565b6040516102db9190613b46565b60405180910390f35b6102fe60048036038101906102f9919061309c565b610ca1565b60405161030b9190613eb5565b60405180910390f35b61031c610d59565b005b61033860048036038101906103339190613302565b610e96565b6040516103459190613eb5565b60405180910390f35b6103566111b2565b6040516103639190613a1e565b60405180910390f35b6103746111dc565b6040516103819190613b83565b60405180910390f35b6103a4600480360381019061039f919061321f565b61126e565b6040516103b19190613a1e565b60405180910390f35b6103d460048036038101906103cf91906131df565b6112bc565b005b6103f060048036038101906103eb919061315c565b61143d565b005b61040c6004803603810190610407919061337a565b61149f565b6040516104199190613b83565b60405180910390f35b61043c6004803603810190610437919061309c565b6115f1565b005b610458600480360381019061045391906130c9565b6118ee565b6040516104659190613b68565b60405180910390f35b6104886004803603810190610483919061337a565b611982565b604051610499959493929190613a85565b60405180910390f35b6104bc60048036038101906104b7919061309c565b611af8565b005b6104d860048036038101906104d3919061309c565b611ca4565b005b6104f460048036038101906104ef919061321f565b61206d565b604051610505959493929190613a85565b60405180910390f35b60007f80ac58cd000000000000000000000000000000000000000000000000000000007bffffffffffffffffffffffffffffffffffffffffffffffffffffffff1916827bffffffffffffffffffffffffffffffffffffffffffffffffffffffff191614806105d957507f5b5e139f000000000000000000000000000000000000000000000000000000007bffffffffffffffffffffffffffffffffffffffffffffffffffffffff1916827bffffffffffffffffffffffffffffffffffffffffffffffffffffffff1916145b806105e957506105e8826121f0565b5b9050919050565b6060600080546105ff9061418e565b80601f016020809104026020016040519081016040528092919081815260200182805461062b9061418e565b80156106785780601f1061064d57610100808354040283529160200191610678565b820191906000526020600020905b81548152906001019060200180831161065b57829003601f168201915b5050505050905090565b600061068d8261225a565b6106cc576040517f08c379a00000000000000000000000000000000000000000000000000000000081526004016106c390613dd5565b60405180910390fd5b6004600083815260200190815260200160002060009054906101000a900473ffffffffffffffffffffffffffffffffffffffff169050919050565b600061071282610a02565b90508073ffffffffffffffffffffffffffffffffffffffff168373ffffffffffffffffffffffffffffffffffffffff161415610783576040517f08c379a000000000000000000000000000000000000000000000000000000000815260040161077a90613e55565b60405180910390fd5b8073ffffffffffffffffffffffffffffffffffffffff166107a26122c6565b73ffffffffffffffffffffffffffffffffffffffff1614806107d157506107d0816107cb6122c6565b6118ee565b5b610810576040517f08c379a000000000000000000000000000000000000000000000000000000000815260040161080790613c95565b60405180910390fd5b61081a83836122ce565b505050565b61083061082a6122c6565b82612387565b61086f576040517f08c379a000000000000000000000000000000000000000000000000000000000815260040161086690613e75565b60405180910390fd5b61087a838383612465565b505050565b61089a8383836040518060200160405280600081525061143d565b505050565b6108a76122c6565b73ffffffffffffffffffffffffffffffffffffffff166108c56111b2565b73ffffffffffffffffffffffffffffffffffffffff161461091b576040517f08c379a000000000000000000000000000000000000000000000000000000000815260040161091290613df5565b60405180910390fd5b8060089080519060200190610931929190612eb0565b5050565b6060600b60008373ffffffffffffffffffffffffffffffffffffffff1673ffffffffffffffffffffffffffffffffffffffff1681526020019081526020016000208054806020026020016040519081016040528092919081815260200182805480156109f657602002820191906000526020600020905b8160009054906101000a900473ffffffffffffffffffffffffffffffffffffffff1673ffffffffffffffffffffffffffffffffffffffff16815260200190600101908083116109ac575b50505050509050919050565b6000806002600084815260200190815260200160002060009054906101000a900473ffffffffffffffffffffffffffffffffffffffff169050600073ffffffffffffffffffffffffffffffffffffffff168173ffffffffffffffffffffffffffffffffffffffff161415610aab576040517f08c379a0000000000000000000000000000000000000000000000000000000008152600401610aa290613cf5565b60405180910390fd5b80915050919050565b60606009805480602002602001604051908101604052809291908181526020016000905b82821015610c9857838290600052602060002090600502016040518060a00160405290816000820160009054906101000a900473ffffffffffffffffffffffffffffffffffffffff1673ffffffffffffffffffffffffffffffffffffffff1673ffffffffffffffffffffffffffffffffffffffff168152602001600182018054610b619061418e565b80601f0160208091040260200160405190810160405280929190818152602001828054610b8d9061418e565b8015610bda5780601f10610baf57610100808354040283529160200191610bda565b820191906000526020600020905b815481529060010190602001808311610bbd57829003601f168201915b50505050508152602001600282018054610bf39061418e565b80601f0160208091040260200160405190810160405280929190818152602001828054610c1f9061418e565b8015610c6c5780601f10610c4157610100808354040283529160200191610c6c565b820191906000526020600020905b815481529060010190602001808311610c4f57829003601f168201915b505050505081526020016003820154815260200160048201548152505081526020019060010190610ad8565b50505050905090565b60008073ffffffffffffffffffffffffffffffffffffffff168273ffffffffffffffffffffffffffffffffffffffff161415610d12576040517f08c379a0000000000000000000000000000000000000000000000000000000008152600401610d0990613cb5565b60405180910390fd5b600360008373ffffffffffffffffffffffffffffffffffffffff1673ffffffffffffffffffffffffffffffffffffffff168152602001908152602001600020549050919050565b610d616122c6565b73ffffffffffffffffffffffffffffffffffffffff16610d7f6111b2565b73ffffffffffffffffffffffffffffffffffffffff1614610dd5576040517f08c379a0000000000000000000000000000000000000000000000000000000008152600401610dcc90613df5565b60405180910390fd5b600073ffffffffffffffffffffffffffffffffffffffff16600760009054906101000a900473ffffffffffffffffffffffffffffffffffffffff1673ffffffffffffffffffffffffffffffffffffffff167f8be0079c531659141344cd1fd0a4f28419497f9722a3daafe3b4186f6b6457e060405160405180910390a36000600760006101000a81548173ffffffffffffffffffffffffffffffffffffffff021916908373ffffffffffffffffffffffffffffffffffffffff160217905550565b600080835111610edb576040517f08c379a0000000000000000000000000000000000000000000000000000000008152600401610ed290613d55565b60405180910390fd5b6000825111610f1f576040517f08c379a0000000000000000000000000000000000000000000000000000000008152600401610f1690613e95565b60405180910390fd5b610f2a3384846126c1565b905060006040518060a001604052803373ffffffffffffffffffffffffffffffffffffffff168152602001858152602001848152602001428152602001838152509050600a60003373ffffffffffffffffffffffffffffffffffffffff1673ffffffffffffffffffffffffffffffffffffffff16815260200190815260200160002081908060018154018082558091505060019003906000526020600020906005020160009091909190915060008201518160000160006101000a81548173ffffffffffffffffffffffffffffffffffffffff021916908373ffffffffffffffffffffffffffffffffffffffff1602179055506020820151816001019080519060200190611039929190612eb0565b506040820151816002019080519060200190611056929190612eb0565b5060608201518160030155608082015181600401555050600981908060018154018082558091505060019003906000526020600020906005020160009091909190915060008201518160000160006101000a81548173ffffffffffffffffffffffffffffffffffffffff021916908373ffffffffffffffffffffffffffffffffffffffff16021790555060208201518160010190805190602001906110fc929190612eb0565b506040820151816002019080519060200190611119929190612eb0565b50606082015181600301556080820151816004015550508060800151816040015160405161114791906139e3565b6040518091039020826000015173ffffffffffffffffffffffffffffffffffffffff167fd2c271e18976fb68dd0629ceba8cdd5b0d5ea409dfc95e3ea4f1e3a4317f01de846020015185606001516040516111a3929190613ba5565b60405180910390a45092915050565b6000600760009054906101000a900473ffffffffffffffffffffffffffffffffffffffff16905090565b6060600180546111eb9061418e565b80601f01602080910402602001604051908101604052809291908181526020018280546112179061418e565b80156112645780601f1061123957610100808354040283529160200191611264565b820191906000526020600020905b81548152906001019060200180831161124757829003601f168201915b5050505050905090565b600b602052816000526040600020818154811061128a57600080fd5b906000526020600020016000915091509054906101000a900473ffffffffffffffffffffffffffffffffffffffff1681565b6112c46122c6565b73ffffffffffffffffffffffffffffffffffffffff168273ffffffffffffffffffffffffffffffffffffffff161415611332576040517f08c379a000000000000000000000000000000000000000000000000000000000815260040161132990613c55565b60405180910390fd5b806005600061133f6122c6565b73ffffffffffffffffffffffffffffffffffffffff1673ffffffffffffffffffffffffffffffffffffffff16815260200190815260200160002060008473ffffffffffffffffffffffffffffffffffffffff1673ffffffffffffffffffffffffffffffffffffffff16815260200190815260200160002060006101000a81548160ff0219169083151502179055508173ffffffffffffffffffffffffffffffffffffffff166113ec6122c6565b73ffffffffffffffffffffffffffffffffffffffff167f17307eab39ab6107e8899845ad3d59bd9653f200f220920489ca2b5937696c31836040516114319190613b68565b60405180910390a35050565b61144e6114486122c6565b83612387565b61148d576040517f08c379a000000000000000000000000000000000000000000000000000000000815260040161148490613e75565b60405180910390fd5b61149984848484612750565b50505050565b60606114aa8261225a565b6114e9576040517f08c379a00000000000000000000000000000000000000000000000000000000081526004016114e090613d95565b60405180910390fd5b60006006600084815260200190815260200160002080546115099061418e565b80601f01602080910402602001604051908101604052809291908181526020018280546115359061418e565b80156115825780601f1061155757610100808354040283529160200191611582565b820191906000526020600020905b81548152906001019060200180831161156557829003601f168201915b5050505050905060006115936127ac565b90506000815114156115a95781925050506115ec565b6000825111156115de5780826040516020016115c69291906139fa565b604051602081830303815290604052925050506115ec565b6115e78461283e565b925050505b919050565b600073ffffffffffffffffffffffffffffffffffffffff168173ffffffffffffffffffffffffffffffffffffffff161415611661576040517f08c379a000000000000000000000000000000000000000000000000000000000815260040161165890613db5565b60405180910390fd5b3373ffffffffffffffffffffffffffffffffffffffff168173ffffffffffffffffffffffffffffffffffffffff1614156116d0576040517f08c379a00000000000000000000000000000000000000000000000000000000081526004016116c790613d35565b60405180910390fd5b6000805b600b60003373ffffffffffffffffffffffffffffffffffffffff1673ffffffffffffffffffffffffffffffffffffffff168152602001908152602001600020805490508110156117e9578273ffffffffffffffffffffffffffffffffffffffff16600b60003373ffffffffffffffffffffffffffffffffffffffff1673ffffffffffffffffffffffffffffffffffffffff168152602001908152602001600020828154811061178657611785614355565b5b9060005260206000200160009054906101000a900473ffffffffffffffffffffffffffffffffffffffff1673ffffffffffffffffffffffffffffffffffffffff1614156117d657600191506117e9565b80806117e1906141f1565b9150506116d4565b50806118ea57600b60003373ffffffffffffffffffffffffffffffffffffffff1673ffffffffffffffffffffffffffffffffffffffff168152602001908152602001600020829080600181540180825580915050600190039060005260206000200160009091909190916101000a81548173ffffffffffffffffffffffffffffffffffffffff021916908373ffffffffffffffffffffffffffffffffffffffff1602179055508173ffffffffffffffffffffffffffffffffffffffff163373ffffffffffffffffffffffffffffffffffffffff167f26e36b227ec3fc4bcf7dd57ac632530d294bf00aa858151df37d8f4e5dc5402660405160405180910390a35b5050565b6000600560008473ffffffffffffffffffffffffffffffffffffffff1673ffffffffffffffffffffffffffffffffffffffff16815260200190815260200160002060008373ffffffffffffffffffffffffffffffffffffffff1673ffffffffffffffffffffffffffffffffffffffff16815260200190815260200160002060009054906101000a900460ff16905092915050565b6009818154811061199257600080fd5b90600052602060002090600502016000915090508060000160009054906101000a900473ffffffffffffffffffffffffffffffffffffffff16908060010180546119db9061418e565b80601f0160208091040260200160405190810160405280929190818152602001828054611a079061418e565b8015611a545780601f10611a2957610100808354040283529160200191611a54565b820191906000526020600020905b815481529060010190602001808311611a3757829003601f168201915b505050505090806002018054611a699061418e565b80601f0160208091040260200160405190810160405280929190818152602001828054611a959061418e565b8015611ae25780601f10611ab757610100808354040283529160200191611ae2565b820191906000526020600020905b815481529060010190602001808311611ac557829003601f168201915b5050505050908060030154908060040154905085565b611b006122c6565b73ffffffffffffffffffffffffffffffffffffffff16611b1e6111b2565b73ffffffffffffffffffffffffffffffffffffffff1614611b74576040517f08c379a0000000000000000000000000000000000000000000000000000000008152600401611b6b90613df5565b60405180910390fd5b600073ffffffffffffffffffffffffffffffffffffffff168173ffffffffffffffffffffffffffffffffffffffff161415611be4576040517f08c379a0000000000000000000000000000000000000000000000000000000008152600401611bdb90613bf5565b60405180910390fd5b8073ffffffffffffffffffffffffffffffffffffffff16600760009054906101000a900473ffffffffffffffffffffffffffffffffffffffff1673ffffffffffffffffffffffffffffffffffffffff167f8be0079c531659141344cd1fd0a4f28419497f9722a3daafe3b4186f6b6457e060405160405180910390a380600760006101000a81548173ffffffffffffffffffffffffffffffffffffffff021916908373ffffffffffffffffffffffffffffffffffffffff16021790555050565b600073ffffffffffffffffffffffffffffffffffffffff168173ffffffffffffffffffffffffffffffffffffffff161415611d14576040517f08c379a0000000000000000000000000000000000000000000000000000000008152600401611d0b90613cd5565b60405180910390fd5b60005b600b60003373ffffffffffffffffffffffffffffffffffffffff1673ffffffffffffffffffffffffffffffffffffffff16815260200190815260200160002080549050811015612069578173ffffffffffffffffffffffffffffffffffffffff16600b60003373ffffffffffffffffffffffffffffffffffffffff1673ffffffffffffffffffffffffffffffffffffffff1681526020019081526020016000208281548110611dc957611dc8614355565b5b9060005260206000200160009054906101000a900473ffffffffffffffffffffffffffffffffffffffff1673ffffffffffffffffffffffffffffffffffffffff16141561205657600b60003373ffffffffffffffffffffffffffffffffffffffff1673ffffffffffffffffffffffffffffffffffffffff1681526020019081526020016000206001600b60003373ffffffffffffffffffffffffffffffffffffffff1673ffffffffffffffffffffffffffffffffffffffff16815260200190815260200160002080549050611e9e91906140a4565b81548110611eaf57611eae614355565b5b9060005260206000200160009054906101000a900473ffffffffffffffffffffffffffffffffffffffff16600b60003373ffffffffffffffffffffffffffffffffffffffff1673ffffffffffffffffffffffffffffffffffffffff1681526020019081526020016000208281548110611f2b57611f2a614355565b5b9060005260206000200160006101000a81548173ffffffffffffffffffffffffffffffffffffffff021916908373ffffffffffffffffffffffffffffffffffffffff160217905550600b60003373ffffffffffffffffffffffffffffffffffffffff1673ffffffffffffffffffffffffffffffffffffffff168152602001908152602001600020805480611fc257611fc1614326565b5b6001900381819060005260206000200160006101000a81549073ffffffffffffffffffffffffffffffffffffffff021916905590558173ffffffffffffffffffffffffffffffffffffffff163373ffffffffffffffffffffffffffffffffffffffff167fe8e915cd6d448d72358fdb7e7ed3f2ba3eb6293f6213b42830a7c1476df87f2b60405160405180910390a3612069565b8080612061906141f1565b915050611d17565b5050565b600a602052816000526040600020818154811061208957600080fd5b9060005260206000209060050201600091509150508060000160009054906101000a900473ffffffffffffffffffffffffffffffffffffffff16908060010180546120d39061418e565b80601f01602080910402602001604051908101604052809291908181526020018280546120ff9061418e565b801561214c5780601f106121215761010080835404028352916020019161214c565b820191906000526020600020905b81548152906001019060200180831161212f57829003601f168201915b5050505050908060020180546121619061418e565b80601f016020809104026020016040519081016040528092919081815260200182805461218d9061418e565b80156121da5780601f106121af576101008083540402835291602001916121da565b820191906000526020600020905b8154815290600101906020018083116121bd57829003601f168201915b5050505050908060030154908060040154905085565b60007f01ffc9a7000000000000000000000000000000000000000000000000000000007bffffffffffffffffffffffffffffffffffffffffffffffffffffffff1916827bffffffffffffffffffffffffffffffffffffffffffffffffffffffff1916149050919050565b60008073ffffffffffffffffffffffffffffffffffffffff166002600084815260200190815260200160002060009054906101000a900473ffffffffffffffffffffffffffffffffffffffff1673ffffffffffffffffffffffffffffffffffffffff1614159050919050565b600033905090565b816004600083815260200190815260200160002060006101000a81548173ffffffffffffffffffffffffffffffffffffffff021916908373ffffffffffffffffffffffffffffffffffffffff160217905550808273ffffffffffffffffffffffffffffffffffffffff1661234183610a02565b73ffffffffffffffffffffffffffffffffffffffff167f8c5be1e5ebec7d5bd14f71427d1e84f3dd0314c0f7b2291e5b200ac8c7c3b92560405160405180910390a45050565b60006123928261225a565b6123d1576040517f08c379a00000000000000000000000000000000000000000000000000000000081526004016123c890613c75565b60405180910390fd5b60006123dc83610a02565b90508073ffffffffffffffffffffffffffffffffffffffff168473ffffffffffffffffffffffffffffffffffffffff16148061244b57508373ffffffffffffffffffffffffffffffffffffffff1661243384610682565b73ffffffffffffffffffffffffffffffffffffffff16145b8061245c575061245b81856118ee565b5b91505092915050565b8273ffffffffffffffffffffffffffffffffffffffff1661248582610a02565b73ffffffffffffffffffffffffffffffffffffffff16146124db576040517f08c379a00000000000000000000000000000000000000000000000000000000081526004016124d290613e15565b60405180910390fd5b600073ffffffffffffffffffffffffffffffffffffffff168273ffffffffffffffffffffffffffffffffffffffff16141561254b576040517f08c379a000000000000000000000000000000000000000000000000000000000815260040161254290613c35565b60405180910390fd5b6125568383836128e5565b6125616000826122ce565b6001600360008573ffffffffffffffffffffffffffffffffffffffff1673ffffffffffffffffffffffffffffffffffffffff16815260200190815260200160002060008282546125b191906140a4565b925050819055506001600360008473ffffffffffffffffffffffffffffffffffffffff1673ffffffffffffffffffffffffffffffffffffffff1681526020019081526020016000206000828254612608919061401d565b92505081905550816002600083815260200190815260200160002060006101000a81548173ffffffffffffffffffffffffffffffffffffffff021916908373ffffffffffffffffffffffffffffffffffffffff160217905550808273ffffffffffffffffffffffffffffffffffffffff168473ffffffffffffffffffffffffffffffffffffffff167fddf252ad1be2c89b69c2b068fc378daa952ba7f163c4a11628f55a4df523b3ef60405160405180910390a4505050565b600080848484426040516020016126db949392919061399d565b6040516020818303038152906040528051906020012060001c905061270085826128ea565b61270a8184612908565b7f34f69852134dfe83c523370afb749e8aeb750da43e24d0e9a15e7e69055f25cb85828560405161273d93929190613ae6565b60405180910390a1809150509392505050565b61275b848484612465565b6127678484848461297c565b6127a6576040517f08c379a000000000000000000000000000000000000000000000000000000000815260040161279d90613bd5565b60405180910390fd5b50505050565b6060600880546127bb9061418e565b80601f01602080910402602001604051908101604052809291908181526020018280546127e79061418e565b80156128345780601f1061280957610100808354040283529160200191612834565b820191906000526020600020905b81548152906001019060200180831161281757829003601f168201915b5050505050905090565b60606128498261225a565b612888576040517f08c379a000000000000000000000000000000000000000000000000000000000815260040161287f90613e35565b60405180910390fd5b60006128926127ac565b905060008151116128b257604051806020016040528060008152506128dd565b806128bc84612b13565b6040516020016128cd9291906139fa565b6040516020818303038152906040525b915050919050565b505050565b612904828260405180602001604052806000815250612c74565b5050565b6129118261225a565b612950576040517f08c379a000000000000000000000000000000000000000000000000000000000815260040161294790613d15565b60405180910390fd5b80600660008481526020019081526020016000209080519060200190612977929190612eb0565b505050565b600061299d8473ffffffffffffffffffffffffffffffffffffffff16612ccf565b15612b06578373ffffffffffffffffffffffffffffffffffffffff1663150b7a026129c66122c6565b8786866040518563ffffffff1660e01b81526004016129e89493929190613a39565b602060405180830381600087803b158015612a0257600080fd5b505af1925050508015612a3357506040513d601f19601f82011682018060405250810190612a30919061328c565b60015b612ab6573d8060008114612a63576040519150601f19603f3d011682016040523d82523d6000602084013e612a68565b606091505b50600081511415612aae576040517f08c379a0000000000000000000000000000000000000000000000000000000008152600401612aa590613bd5565b60405180910390fd5b805181602001fd5b63150b7a0260e01b7bffffffffffffffffffffffffffffffffffffffffffffffffffffffff1916817bffffffffffffffffffffffffffffffffffffffffffffffffffffffff191614915050612b0b565b600190505b949350505050565b60606000821415612b5b576040518060400160405280600181526020017f30000000000000000000000000000000000000000000000000000000000000008152509050612c6f565b600082905060005b60008214612b8d578080612b76906141f1565b915050600a82612b869190614073565b9150612b63565b60008167ffffffffffffffff811115612ba957612ba8614384565b5b6040519080825280601f01601f191660200182016040528015612bdb5781602001600182028036833780820191505090505b5090505b60008514612c6857600182612bf491906140a4565b9150600a85612c039190614268565b6030612c0f919061401d565b60f81b818381518110612c2557612c24614355565b5b60200101907effffffffffffffffffffffffffffffffffffffffffffffffffffffffffffff1916908160001a905350600a85612c619190614073565b9450612bdf565b8093505050505b919050565b612c7e8383612ce2565b612c8b600084848461297c565b612cca576040517f08c379a0000000000000000000000000000000000000000000000000000000008152600401612cc190613bd5565b60405180910390fd5b505050565b600080823b905060008111915050919050565b600073ffffffffffffffffffffffffffffffffffffffff168273ffffffffffffffffffffffffffffffffffffffff161415612d52576040517f08c379a0000000000000000000000000000000000000000000000000000000008152600401612d4990613d75565b60405180910390fd5b612d5b8161225a565b15612d9b576040517f08c379a0000000000000000000000000000000000000000000000000000000008152600401612d9290613c15565b60405180910390fd5b612da7600083836128e5565b6001600360008473ffffffffffffffffffffffffffffffffffffffff1673ffffffffffffffffffffffffffffffffffffffff1681526020019081526020016000206000828254612df7919061401d565b92505081905550816002600083815260200190815260200160002060006101000a81548173ffffffffffffffffffffffffffffffffffffffff021916908373ffffffffffffffffffffffffffffffffffffffff160217905550808273ffffffffffffffffffffffffffffffffffffffff16600073ffffffffffffffffffffffffffffffffffffffff167fddf252ad1be2c89b69c2b068fc378daa952ba7f163c4a11628f55a4df523b3ef60405160405180910390a45050565b828054612ebc9061418e565b90600052602060002090601f016020900481019282612ede5760008555612f25565b82601f10612ef757805160ff1916838001178555612f25565b82800160010185558215612f25579182015b82811115612f24578251825591602001919060010190612f09565b5b509050612f329190612f36565b5090565b5b80821115612f4f576000816000905550600101612f37565b5090565b6000612f66612f6184613ef5565b613ed0565b905082815260208101848484011115612f8257612f816143b8565b5b612f8d84828561414c565b509392505050565b6000612fa8612fa384613f26565b613ed0565b905082815260208101848484011115612fc457612fc36143b8565b5b612fcf84828561414c565b509392505050565b600081359050612fe681614a1a565b92915050565b600081359050612ffb81614a31565b92915050565b60008135905061301081614a48565b92915050565b60008151905061302581614a48565b92915050565b600082601f8301126130405761303f6143b3565b5b8135613050848260208601612f53565b91505092915050565b600082601f83011261306e5761306d6143b3565b5b813561307e848260208601612f95565b91505092915050565b60008135905061309681614a5f565b92915050565b6000602082840312156130b2576130b16143c2565b5b60006130c084828501612fd7565b91505092915050565b600080604083850312156130e0576130df6143c2565b5b60006130ee85828601612fd7565b92505060206130ff85828601612fd7565b9150509250929050565b600080600060608486031215613122576131216143c2565b5b600061313086828701612fd7565b935050602061314186828701612fd7565b925050604061315286828701613087565b9150509250925092565b60008060008060808587031215613176576131756143c2565b5b600061318487828801612fd7565b945050602061319587828801612fd7565b93505060406131a687828801613087565b925050606085013567ffffffffffffffff8111156131c7576131c66143bd565b5b6131d38782880161302b565b91505092959194509250565b600080604083850312156131f6576131f56143c2565b5b600061320485828601612fd7565b925050602061321585828601612fec565b9150509250929050565b60008060408385031215613236576132356143c2565b5b600061324485828601612fd7565b925050602061325585828601613087565b9150509250929050565b600060208284031215613275576132746143c2565b5b600061328384828501613001565b91505092915050565b6000602082840312156132a2576132a16143c2565b5b60006132b084828501613016565b91505092915050565b6000602082840312156132cf576132ce6143c2565b5b600082013567ffffffffffffffff8111156132ed576132ec6143bd565b5b6132f984828501613059565b91505092915050565b60008060408385031215613319576133186143c2565b5b600083013567ffffffffffffffff811115613337576133366143bd565b5b61334385828601613059565b925050602083013567ffffffffffffffff811115613364576133636143bd565b5b61337085828601613059565b9150509250929050565b6000602082840312156133905761338f6143c2565b5b600061339e84828501613087565b91505092915050565b60006133b383836133d3565b60208301905092915050565b60006133cb83836138eb565b905092915050565b6133dc816140d8565b82525050565b6133eb816140d8565b82525050565b6134026133fd826140d8565b61423a565b82525050565b600061341382613f77565b61341d8185613fbd565b935061342883613f57565b8060005b8381101561345957815161344088826133a7565b975061344b83613fa3565b92505060018101905061342c565b5085935050505092915050565b600061347182613f82565b61347b8185613fce565b93508360208202850161348d85613f67565b8060005b858110156134c957848403895281516134aa85826133bf565b94506134b583613fb0565b925060208a01995050600181019050613491565b50829750879550505050505092915050565b6134e4816140ea565b82525050565b60006134f582613f8d565b6134ff8185613fdf565b935061350f81856020860161415b565b613518816143c7565b840191505092915050565b600061352e82613f98565b6135388185613ff0565b935061354881856020860161415b565b613551816143c7565b840191505092915050565b600061356782613f98565b6135718185614001565b935061358181856020860161415b565b61358a816143c7565b840191505092915050565b60006135a082613f98565b6135aa8185614012565b93506135ba81856020860161415b565b80840191505092915050565b60006135d3603283614001565b91506135de826143e5565b604082019050919050565b60006135f6602683614001565b915061360182614434565b604082019050919050565b6000613619601c83614001565b915061362482614483565b602082019050919050565b600061363c602483614001565b9150613647826144ac565b604082019050919050565b600061365f601983614001565b915061366a826144fb565b602082019050919050565b6000613682602c83614001565b915061368d82614524565b604082019050919050565b60006136a5603883614001565b91506136b082614573565b604082019050919050565b60006136c8602a83614001565b91506136d3826145c2565b604082019050919050565b60006136eb600f83614001565b91506136f682614611565b602082019050919050565b600061370e602983614001565b91506137198261463a565b604082019050919050565b6000613731602e83614001565b915061373c82614689565b604082019050919050565b6000613754602183614001565b915061375f826146d8565b604082019050919050565b6000613777602183614001565b915061378282614727565b604082019050919050565b600061379a602083614001565b91506137a582614776565b602082019050919050565b60006137bd603183614001565b91506137c88261479f565b604082019050919050565b60006137e0600e83614001565b91506137eb826147ee565b602082019050919050565b6000613803602c83614001565b915061380e82614817565b604082019050919050565b6000613826602083614001565b915061383182614866565b602082019050919050565b6000613849602983614001565b91506138548261488f565b604082019050919050565b600061386c602f83614001565b9150613877826148de565b604082019050919050565b600061388f602183614001565b915061389a8261492d565b604082019050919050565b60006138b2603183614001565b91506138bd8261497c565b604082019050919050565b60006138d5602b83614001565b91506138e0826149cb565b604082019050919050565b600060a08301600083015161390360008601826133d3565b506020830151848203602086015261391b8282613523565b915050604083015184820360408601526139358282613523565b915050606083015161394a6060860182613968565b50608083015161395d6080860182613968565b508091505092915050565b61397181614142565b82525050565b61398081614142565b82525050565b61399761399282614142565b61425e565b82525050565b60006139a982876133f1565b6014820191506139b98286613595565b91506139c58285613595565b91506139d18284613986565b60208201915081905095945050505050565b60006139ef8284613595565b915081905092915050565b6000613a068285613595565b9150613a128284613595565b91508190509392505050565b6000602082019050613a3360008301846133e2565b92915050565b6000608082019050613a4e60008301876133e2565b613a5b60208301866133e2565b613a686040830185613977565b8181036060830152613a7a81846134ea565b905095945050505050565b600060a082019050613a9a60008301886133e2565b8181036020830152613aac818761355c565b90508181036040830152613ac0818661355c565b9050613acf6060830185613977565b613adc6080830184613977565b9695505050505050565b6000606082019050613afb60008301866133e2565b613b086020830185613977565b8181036040830152613b1a818461355c565b9050949350505050565b60006020820190508181036000830152613b3e8184613408565b905092915050565b60006020820190508181036000830152613b608184613466565b905092915050565b6000602082019050613b7d60008301846134db565b92915050565b60006020820190508181036000830152613b9d818461355c565b905092915050565b60006040820190508181036000830152613bbf818561355c565b9050613bce6020830184613977565b9392505050565b60006020820190508181036000830152613bee816135c6565b9050919050565b60006020820190508181036000830152613c0e816135e9565b9050919050565b60006020820190508181036000830152613c2e8161360c565b9050919050565b60006020820190508181036000830152613c4e8161362f565b9050919050565b60006020820190508181036000830152613c6e81613652565b9050919050565b60006020820190508181036000830152613c8e81613675565b9050919050565b60006020820190508181036000830152613cae81613698565b9050919050565b60006020820190508181036000830152613cce816136bb565b9050919050565b60006020820190508181036000830152613cee816136de565b9050919050565b60006020820190508181036000830152613d0e81613701565b9050919050565b60006020820190508181036000830152613d2e81613724565b9050919050565b60006020820190508181036000830152613d4e81613747565b9050919050565b60006020820190508181036000830152613d6e8161376a565b9050919050565b60006020820190508181036000830152613d8e8161378d565b9050919050565b60006020820190508181036000830152613dae816137b0565b9050919050565b60006020820190508181036000830152613dce816137d3565b9050919050565b60006020820190508181036000830152613dee816137f6565b9050919050565b60006020820190508181036000830152613e0e81613819565b9050919050565b60006020820190508181036000830152613e2e8161383c565b9050919050565b60006020820190508181036000830152613e4e8161385f565b9050919050565b60006020820190508181036000830152613e6e81613882565b9050919050565b60006020820190508181036000830152613e8e816138a5565b9050919050565b60006020820190508181036000830152613eae816138c8565b9050919050565b6000602082019050613eca6000830184613977565b92915050565b6000613eda613eeb565b9050613ee682826141c0565b919050565b6000604051905090565b600067ffffffffffffffff821115613f1057613f0f614384565b5b613f19826143c7565b9050602081019050919050565b600067ffffffffffffffff821115613f4157613f40614384565b5b613f4a826143c7565b9050602081019050919050565b6000819050602082019050919050565b6000819050602082019050919050565b600081519050919050565b600081519050919050565b600081519050919050565b600081519050919050565b6000602082019050919050565b6000602082019050919050565b600082825260208201905092915050565b600082825260208201905092915050565b600082825260208201905092915050565b600082825260208201905092915050565b600082825260208201905092915050565b600081905092915050565b600061402882614142565b915061403383614142565b9250827fffffffffffffffffffffffffffffffffffffffffffffffffffffffffffffffff0382111561406857614067614299565b5b828201905092915050565b600061407e82614142565b915061408983614142565b925082614099576140986142c8565b5b828204905092915050565b60006140af82614142565b91506140ba83614142565b9250828210156140cd576140cc614299565b5b828203905092915050565b60006140e382614122565b9050919050565b60008115159050919050565b60007fffffffff0000000000000000000000000000000000000000000000000000000082169050919050565b600073ffffffffffffffffffffffffffffffffffffffff82169050919050565b6000819050919050565b82818337600083830152505050565b60005b8381101561417957808201518184015260208101905061415e565b83811115614188576000848401525b50505050565b600060028204905060018216806141a657607f821691505b602082108114156141ba576141b96142f7565b5b50919050565b6141c9826143c7565b810181811067ffffffffffffffff821117156141e8576141e7614384565b5b80604052505050565b60006141fc82614142565b91507fffffffffffffffffffffffffffffffffffffffffffffffffffffffffffffffff82141561422f5761422e614299565b5b600182019050919050565b60006142458261424c565b9050919050565b6000614257826143d8565b9050919050565b6000819050919050565b600061427382614142565b915061427e83614142565b92508261428e5761428d6142c8565b5b828206905092915050565b7f4e487b7100000000000000000000000000000000000000000000000000000000600052601160045260246000fd5b7f4e487b7100000000000000000000000000000000000000000000000000000000600052601260045260246000fd5b7f4e487b7100000000000000000000000000000000000000000000000000000000600052602260045260246000fd5b7f4e487b7100000000000000000000000000000000000000000000000000000000600052603160045260246000fd5b7f4e487b7100000000000000000000000000000000000000000000000000000000600052603260045260246000fd5b7f4e487b7100000000000000000000000000000000000000000000000000000000600052604160045260246000fd5b600080fd5b600080fd5b600080fd5b600080fd5b6000601f19601f8301169050919050565b60008160601b9050919050565b7f4552433732313a207472616e7366657220746f206e6f6e20455243373231526560008201527f63656976657220696d706c656d656e7465720000000000000000000000000000602082015250565b7f4f776e61626c653a206e6577206f776e657220697320746865207a65726f206160008201527f6464726573730000000000000000000000000000000000000000000000000000602082015250565b7f4552433732313a20746f6b656e20616c7265616479206d696e74656400000000600082015250565b7f4552433732313a207472616e7366657220746f20746865207a65726f2061646460008201527f7265737300000000000000000000000000000000000000000000000000000000602082015250565b7f4552433732313a20617070726f766520746f2063616c6c657200000000000000600082015250565b7f4552433732313a206f70657261746f7220717565727920666f72206e6f6e657860008201527f697374656e7420746f6b656e0000000000000000000000000000000000000000602082015250565b7f4552433732313a20617070726f76652063616c6c6572206973206e6f74206f7760008201527f6e6572206e6f7220617070726f76656420666f7220616c6c0000000000000000602082015250565b7f4552433732313a2062616c616e636520717565727920666f7220746865207a6560008201527f726f206164647265737300000000000000000000000000000000000000000000602082015250565b7f496e76616c6964205f617574686f720000000000000000000000000000000000600082015250565b7f4552433732313a206f776e657220717565727920666f72206e6f6e657869737460008201527f656e7420746f6b656e0000000000000000000000000000000000000000000000602082015250565b7f45524337323155524953746f726167653a2055524920736574206f66206e6f6e60008201527f6578697374656e7420746f6b656e000000000000000000000000000000000000602082015250565b7f417574686f722063616e6e6f742073756273637269626520746f20697473656c60008201527f6600000000000000000000000000000000000000000000000000000000000000602082015250565b7f5469746c65206d75737420686176652061206e6f6e2d656d7074792076616c7560008201527f6500000000000000000000000000000000000000000000000000000000000000602082015250565b7f4552433732313a206d696e7420746f20746865207a65726f2061646472657373600082015250565b7f45524337323155524953746f726167653a2055524920717565727920666f722060008201527f6e6f6e6578697374656e7420746f6b656e000000000000000000000000000000602082015250565b7f496e76616c696420617574686f72000000000000000000000000000000000000600082015250565b7f4552433732313a20617070726f76656420717565727920666f72206e6f6e657860008201527f697374656e7420746f6b656e0000000000000000000000000000000000000000602082015250565b7f4f776e61626c653a2063616c6c6572206973206e6f7420746865206f776e6572600082015250565b7f4552433732313a207472616e73666572206f6620746f6b656e2074686174206960008201527f73206e6f74206f776e0000000000000000000000000000000000000000000000602082015250565b7f4552433732314d657461646174613a2055524920717565727920666f72206e6f60008201527f6e6578697374656e7420746f6b656e0000000000000000000000000000000000602082015250565b7f4552433732313a20617070726f76616c20746f2063757272656e74206f776e6560008201527f7200000000000000000000000000000000000000000000000000000000000000602082015250565b7f4552433732313a207472616e736665722063616c6c6572206973206e6f74206f60008201527f776e6572206e6f7220617070726f766564000000000000000000000000000000602082015250565b7f41727469636c6520636f6e74656e74206d75737420686176652061206e6f6e2d60008201527f656d7074792076616c7565000000000000000000000000000000000000000000602082015250565b614a23816140d8565b8114614a2e57600080fd5b50565b614a3a816140ea565b8114614a4557600080fd5b50565b614a51816140f6565b8114614a5c57600080fd5b50565b614a6881614142565b8114614a7357600080fd5b5056fea264697066735822122077fc48abc0a1df90c0b3656f7094b806ce0edccf0c5c3304e255f3049340a73664736f6c63430008070033",
  "immutableReferences": {},
  "source": "// SPDX-License-Identifier: MIT\npragma solidity ^0.8.0;\npragma experimental ABIEncoderV2;\n\nimport \"./ArticleNFT.sol\";\n\n/**\n * @title Decentrastack\n * @dev dApp is a simple publishing platform that allows web3-connected users to \n * publish articles, view other authors publishings, and subscribe/unsubscribe to/from authors.\n * Every new article is also minted as an ERC721 standard NFT, where the ownership is transferred\n * to the authoring user.\n */\ncontract Decentrastack is ArticleNFT {  \n  \n  struct Article {\n    address author;\n    string title;\n    string contentIpfsHash; // ipfs hash of body content, to reduce storage costs\n    uint256 date; // date of publication (via block.timestamp)\n    uint256 articleId; // keccak hash of author, title, contentIpfsHash, date (block.timestamp)\n  }\n\n  // @dev All articles ever written\n  Article[] public articles;\n\n  // @dev `authorToArticles` maps all authoring addresses to corresponding authored article(s)\n  // @dev `usersToSubscribedAuthors` maps all user addresses to corresponding subscribed authors\n  mapping(address => Article[]) public authorToArticles;\n  mapping(address => address[]) public usersToSubscribedAuthors;\n\n  // @dev events for new article publications & user (un)subscribing\n  event ArticlePublished(address indexed _author, string _title, string indexed _contentIpfsHash, uint256 _date, uint256 indexed _articleId);\n  event NewUserSubscription(address indexed _follower, address indexed _author);\n  event UserUnsubscribedFromAuthor(address indexed _follower, address indexed _author);\n\n  /**\n   * @dev Creates a new article & mint as NFT via `createCollectible`\n   * @param _title Article's associated title\n   * @param _contentIpfsHash Hash calculated / returned by ipfs\n   */\n  function createArticle(string memory _title, string memory _contentIpfsHash) public returns(uint256 newArticleId) {\n    require(bytes(_title).length > 0, \"Title must have a non-empty value\");\n    require(bytes(_contentIpfsHash).length > 0, \"Article content must have a non-empty value\");\n   \n    // @dev `createCollectible` is part of ArticleNFT contract; mints NFT & returns tokenId\n    newArticleId = createCollectible(msg.sender, _title, _contentIpfsHash);\n\n    Article memory newArticle = Article({\n      author: msg.sender,\n      title: _title,\n      contentIpfsHash: _contentIpfsHash,\n      date: block.timestamp,\n      articleId: newArticleId\n    });\n\n    authorToArticles[msg.sender].push(newArticle);\n    articles.push(newArticle);\n    \n    emit ArticlePublished(newArticle.author, newArticle.title, newArticle.contentIpfsHash, newArticle.date, newArticle.articleId);\n  }\n\n  // @dev Retrieve all articles ever published\n  function getArticles() public view returns(Article[] memory) {\n      return articles;\n  }\n\n  /** \n   * @dev Retrieve authors in which a user is subsribed to\n   * @param _user Address of user requesting associated subscriptions\n   */\n  function getUserToSubscribedAuthors(address _user) public view returns(address[] memory) {\n      return usersToSubscribedAuthors[_user];\n  }\n\n  /**\n   * @dev Allow a user to subscribe to a publishing article's author\n   * @param _author Address associated with article's publishing author\n   */\n  function subscribeToAuthor(address _author) public {\n    require(_author != address(0), 'Invalid author');\n    require(_author != msg.sender, 'Author cannot subscribe to itself');\n    bool alreadySubscribed = false;\n    for(uint i = 0; i < usersToSubscribedAuthors[msg.sender].length; i++) {\n      if(usersToSubscribedAuthors[msg.sender][i] == _author) {\n        alreadySubscribed = true;\n        break;\n      }\n    }\n    if(!alreadySubscribed) {\n        usersToSubscribedAuthors[msg.sender].push(_author);\n        emit NewUserSubscription(msg.sender, _author);\n    }\n  }\n\n  /**\n   * @dev Allow a user to unsubscribe from an author\n   * @param _author Address associated with article's publishing author\n   */\n  function unsubscribeFromAuthor(address _author) public {\n    require(_author != address(0), 'Invalid _author');\n    for(uint i = 0; i < usersToSubscribedAuthors[msg.sender].length; i++) {\n      if(usersToSubscribedAuthors[msg.sender][i] == _author) {\n        // @dev swap index with the last item in the array and then `delete` & shorten array\n        // Note: this is to prevent 0x0 value being written to author & bloating array\n        usersToSubscribedAuthors[msg.sender][i] = usersToSubscribedAuthors[msg.sender][usersToSubscribedAuthors[msg.sender].length - 1];\n        usersToSubscribedAuthors[msg.sender].pop();\n        emit UserUnsubscribedFromAuthor(msg.sender, _author);\n        break;\n      }\n    }\n  }\n}\n",
  "sourcePath": "/Users/db/Projects/decentraStack/contracts/Decentrastack.sol",
  "compiler": {
    "name": "solc",
    "version": "0.8.7+commit.e28d00a7.Emscripten.clang"
  },
  "schemaVersion": "3.3.3",
  "updatedAt": "2021-09-13T20:31:30.143Z",
  "networkType": "ethereum",
  "devdoc": {
    "details": "dApp is a simple publishing platform that allows web3-connected users to  publish articles, view other authors publishings, and subscribe/unsubscribe to/from authors. Every new article is also minted as an ERC721 standard NFT, where the ownership is transferred to the authoring user.",
    "kind": "dev",
    "methods": {
      "approve(address,uint256)": {
        "details": "See {IERC721-approve}."
      },
      "balanceOf(address)": {
        "details": "See {IERC721-balanceOf}."
      },
      "createArticle(string,string)": {
        "details": "Creates a new article & mint as NFT via `createCollectible`",
        "params": {
          "_contentIpfsHash": "Hash calculated / returned by ipfs",
          "_title": "Article's associated title"
        }
      },
      "getApproved(uint256)": {
        "details": "See {IERC721-getApproved}."
      },
      "getUserToSubscribedAuthors(address)": {
        "details": "Retrieve authors in which a user is subsribed to",
        "params": {
          "_user": "Address of user requesting associated subscriptions"
        }
      },
      "isApprovedForAll(address,address)": {
        "details": "See {IERC721-isApprovedForAll}."
      },
      "name()": {
        "details": "See {IERC721Metadata-name}."
      },
      "owner()": {
        "details": "Returns the address of the current owner."
      },
      "ownerOf(uint256)": {
        "details": "See {IERC721-ownerOf}."
      },
      "renounceOwnership()": {
        "details": "Leaves the contract without owner. It will not be possible to call `onlyOwner` functions anymore. Can only be called by the current owner. NOTE: Renouncing ownership will leave the contract without an owner, thereby removing any functionality that is only available to the owner."
      },
      "safeTransferFrom(address,address,uint256)": {
        "details": "See {IERC721-safeTransferFrom}."
      },
      "safeTransferFrom(address,address,uint256,bytes)": {
        "details": "See {IERC721-safeTransferFrom}."
      },
      "setApprovalForAll(address,bool)": {
        "details": "See {IERC721-setApprovalForAll}."
      },
      "setBaseURI(string)": {
        "details": "update the base URI in case of changes in future providers",
        "params": {
          "baseURI_": "new value, replacing _baseURIextended in storage"
        }
      },
      "subscribeToAuthor(address)": {
        "details": "Allow a user to subscribe to a publishing article's author",
        "params": {
          "_author": "Address associated with article's publishing author"
        }
      },
      "supportsInterface(bytes4)": {
        "details": "See {IERC165-supportsInterface}."
      },
      "symbol()": {
        "details": "See {IERC721Metadata-symbol}."
      },
      "tokenURI(uint256)": {
        "details": "See {IERC721Metadata-tokenURI}."
      },
      "transferFrom(address,address,uint256)": {
        "details": "See {IERC721-transferFrom}."
      },
      "transferOwnership(address)": {
        "details": "Transfers ownership of the contract to a new account (`newOwner`). Can only be called by the current owner."
      },
      "unsubscribeFromAuthor(address)": {
        "details": "Allow a user to unsubscribe from an author",
        "params": {
          "_author": "Address associated with article's publishing author"
        }
      }
    },
    "title": "Decentrastack",
    "version": 1
  },
  "userdoc": {
    "kind": "user",
    "methods": {},
    "version": 1
  }
}