{
  "contractName": "Decentrastack",
  "abi": [
    {
      "anonymous": false,
      "inputs": [
        {
          "indexed": true,
          "internalType": "address",
          "name": "_author",
          "type": "address"
        },
        {
          "indexed": false,
          "internalType": "string",
          "name": "_title",
          "type": "string"
        },
        {
          "indexed": true,
          "internalType": "string",
          "name": "_body",
          "type": "string"
        },
        {
          "indexed": false,
          "internalType": "uint256",
          "name": "_date",
          "type": "uint256"
        },
        {
          "indexed": true,
          "internalType": "bytes32",
          "name": "_articleId",
          "type": "bytes32"
        }
      ],
      "name": "ArticlePublished",
      "type": "event"
    },
    {
      "anonymous": false,
      "inputs": [
        {
          "indexed": true,
          "internalType": "address",
          "name": "_follower",
          "type": "address"
        },
        {
          "indexed": true,
          "internalType": "address",
          "name": "_author",
          "type": "address"
        }
      ],
      "name": "NewUserSubscription",
      "type": "event"
    },
    {
      "anonymous": false,
      "inputs": [
        {
          "indexed": true,
          "internalType": "address",
          "name": "_follower",
          "type": "address"
        },
        {
          "indexed": true,
          "internalType": "address",
          "name": "_author",
          "type": "address"
        }
      ],
      "name": "UserUnsubscribedFromAuthor",
      "type": "event"
    },
    {
      "constant": true,
      "inputs": [
        {
          "internalType": "uint256",
          "name": "",
          "type": "uint256"
        }
      ],
      "name": "articles",
      "outputs": [
        {
          "internalType": "address",
          "name": "author",
          "type": "address"
        },
        {
          "internalType": "string",
          "name": "title",
          "type": "string"
        },
        {
          "internalType": "string",
          "name": "body",
          "type": "string"
        },
        {
          "internalType": "uint256",
          "name": "date",
          "type": "uint256"
        },
        {
          "internalType": "bytes32",
          "name": "articleId",
          "type": "bytes32"
        }
      ],
      "payable": false,
      "stateMutability": "view",
      "type": "function"
    },
    {
      "constant": true,
      "inputs": [
        {
          "internalType": "address",
          "name": "",
          "type": "address"
        },
        {
          "internalType": "uint256",
          "name": "",
          "type": "uint256"
        }
      ],
      "name": "authorToArticles",
      "outputs": [
        {
          "internalType": "address",
          "name": "author",
          "type": "address"
        },
        {
          "internalType": "string",
          "name": "title",
          "type": "string"
        },
        {
          "internalType": "string",
          "name": "body",
          "type": "string"
        },
        {
          "internalType": "uint256",
          "name": "date",
          "type": "uint256"
        },
        {
          "internalType": "bytes32",
          "name": "articleId",
          "type": "bytes32"
        }
      ],
      "payable": false,
      "stateMutability": "view",
      "type": "function"
    },
    {
      "constant": true,
      "inputs": [
        {
          "internalType": "address",
          "name": "",
          "type": "address"
        },
        {
          "internalType": "uint256",
          "name": "",
          "type": "uint256"
        }
      ],
      "name": "usersToSubscribedAuthors",
      "outputs": [
        {
          "internalType": "address",
          "name": "",
          "type": "address"
        }
      ],
      "payable": false,
      "stateMutability": "view",
      "type": "function"
    },
    {
      "constant": false,
      "inputs": [
        {
          "internalType": "string",
          "name": "_title",
          "type": "string"
        },
        {
          "internalType": "string",
          "name": "_body",
          "type": "string"
        }
      ],
      "name": "createArticle",
      "outputs": [],
      "payable": false,
      "stateMutability": "nonpayable",
      "type": "function"
    },
    {
      "constant": true,
      "inputs": [],
      "name": "getArticles",
      "outputs": [
        {
          "components": [
            {
              "internalType": "address",
              "name": "author",
              "type": "address"
            },
            {
              "internalType": "string",
              "name": "title",
              "type": "string"
            },
            {
              "internalType": "string",
              "name": "body",
              "type": "string"
            },
            {
              "internalType": "uint256",
              "name": "date",
              "type": "uint256"
            },
            {
              "internalType": "bytes32",
              "name": "articleId",
              "type": "bytes32"
            }
          ],
          "internalType": "struct Decentrastack.Article[]",
          "name": "",
          "type": "tuple[]"
        }
      ],
      "payable": false,
      "stateMutability": "view",
      "type": "function"
    },
    {
      "constant": true,
      "inputs": [
        {
          "internalType": "address",
          "name": "_user",
          "type": "address"
        }
      ],
      "name": "getUserToSubscribedAuthors",
      "outputs": [
        {
          "internalType": "address[]",
          "name": "",
          "type": "address[]"
        }
      ],
      "payable": false,
      "stateMutability": "view",
      "type": "function"
    },
    {
      "constant": false,
      "inputs": [
        {
          "internalType": "address",
          "name": "_author",
          "type": "address"
        }
      ],
      "name": "subscribeToAuthor",
      "outputs": [],
      "payable": false,
      "stateMutability": "nonpayable",
      "type": "function"
    },
    {
      "constant": false,
      "inputs": [
        {
          "internalType": "address",
          "name": "_author",
          "type": "address"
        }
      ],
      "name": "unsubscribeFromAuthor",
      "outputs": [],
      "payable": false,
      "stateMutability": "nonpayable",
      "type": "function"
    }
  ],
  "bytecode": "0x608060405234801561001057600080fd5b50611dfd806100206000396000f3fe608060405234801561001057600080fd5b50600436106100885760003560e01c8063ce278e751161005b578063ce278e7514610127578063edcfafe614610143578063f7367cce14610177578063f9c26c181461019357610088565b806356eedd371461008d5780636529f44a146100bd5780638cfa2272146100db578063963cde7e146100f7575b600080fd5b6100a760048036036100a29190810190611427565b6101c7565b6040516100b49190611a84565b60405180910390f35b6100c5610294565b6040516100d29190611aa6565b60405180910390f35b6100f560048036036100f0919081019061148c565b6104a1565b005b610111600480360361010c9190810190611450565b6107e5565b60405161011e9190611a08565b60405180910390f35b610141600480360361013c9190810190611427565b610830565b005b61015d600480360361015891908101906114f8565b610b2a565b60405161016e959493929190611a23565b60405180910390f35b610191600480360361018c9190810190611427565b610cbd565b005b6101ad60048036036101a89190810190611450565b6110f0565b6040516101be959493929190611a23565b60405180910390f35b6060600260008373ffffffffffffffffffffffffffffffffffffffff1673ffffffffffffffffffffffffffffffffffffffff16815260200190815260200160002080548060200260200160405190810160405280929190818152602001828054801561028857602002820191906000526020600020905b8160009054906101000a900473ffffffffffffffffffffffffffffffffffffffff1673ffffffffffffffffffffffffffffffffffffffff168152602001906001019080831161023e575b50505050509050919050565b60606000805480602002602001604051908101604052809291908181526020016000905b8282101561049857838290600052602060002090600502016040518060a00160405290816000820160009054906101000a900473ffffffffffffffffffffffffffffffffffffffff1673ffffffffffffffffffffffffffffffffffffffff1673ffffffffffffffffffffffffffffffffffffffff168152602001600182018054600181600116156101000203166002900480601f0160208091040260200160405190810160405280929190818152602001828054600181600116156101000203166002900480156103ca5780601f1061039f576101008083540402835291602001916103ca565b820191906000526020600020905b8154815290600101906020018083116103ad57829003601f168201915b50505050508152602001600282018054600181600116156101000203166002900480601f01602080910402602001604051908101604052809291908181526020018280546001816001161561010002031660029004801561046c5780601f106104415761010080835404028352916020019161046c565b820191906000526020600020905b81548152906001019060200180831161044f57829003601f168201915b5050505050815260200160038201548152602001600482015481525050815260200190600101906102b8565b50505050905090565b60008251116104e5576040517f08c379a00000000000000000000000000000000000000000000000000000000081526004016104dc90611b38565b60405180910390fd5b6000815111610529576040517f08c379a000000000000000000000000000000000000000000000000000000000815260040161052090611b78565b60405180910390fd5b610531611290565b6040518060a001604052803373ffffffffffffffffffffffffffffffffffffffff1681526020018481526020018381526020014281526020013385854260405160200161058194939291906119ab565b604051602081830303815290604052805190602001208152509050600160003373ffffffffffffffffffffffffffffffffffffffff1673ffffffffffffffffffffffffffffffffffffffff168152602001908152602001600020819080600181540180825580915050906001820390600052602060002090600502016000909192909190915060008201518160000160006101000a81548173ffffffffffffffffffffffffffffffffffffffff021916908373ffffffffffffffffffffffffffffffffffffffff160217905550602082015181600101908051906020019061066a9291906112d8565b5060408201518160020190805190602001906106879291906112d8565b5060608201518160030155608082015181600401555050506000819080600181540180825580915050906001820390600052602060002090600502016000909192909190915060008201518160000160006101000a81548173ffffffffffffffffffffffffffffffffffffffff021916908373ffffffffffffffffffffffffffffffffffffffff16021790555060208201518160010190805190602001906107309291906112d8565b50604082015181600201908051906020019061074d9291906112d8565b5060608201518160030155608082015181600401555050508060800151816040015160405161077c91906119f1565b6040518091039020826000015173ffffffffffffffffffffffffffffffffffffffff167f5c2ec88dba01b8c918e6b894fa5de5adef505adb1c9c134348bfca523749b735846020015185606001516040516107d8929190611ac8565b60405180910390a4505050565b600260205281600052604060002081815481106107fe57fe5b906000526020600020016000915091509054906101000a900473ffffffffffffffffffffffffffffffffffffffff1681565b600073ffffffffffffffffffffffffffffffffffffffff168173ffffffffffffffffffffffffffffffffffffffff1614156108a0576040517f08c379a000000000000000000000000000000000000000000000000000000000815260040161089790611b58565b60405180910390fd5b3373ffffffffffffffffffffffffffffffffffffffff168173ffffffffffffffffffffffffffffffffffffffff16141561090f576040517f08c379a000000000000000000000000000000000000000000000000000000000815260040161090690611b18565b60405180910390fd5b600080905060008090505b600260003373ffffffffffffffffffffffffffffffffffffffff1673ffffffffffffffffffffffffffffffffffffffff16815260200190815260200160002080549050811015610a22578273ffffffffffffffffffffffffffffffffffffffff16600260003373ffffffffffffffffffffffffffffffffffffffff1673ffffffffffffffffffffffffffffffffffffffff16815260200190815260200160002082815481106109c557fe5b9060005260206000200160009054906101000a900473ffffffffffffffffffffffffffffffffffffffff1673ffffffffffffffffffffffffffffffffffffffff161415610a155760019150610a22565b808060010191505061091a565b5080610b2657600260003373ffffffffffffffffffffffffffffffffffffffff1673ffffffffffffffffffffffffffffffffffffffff1681526020019081526020016000208290806001815401808255809150509060018203906000526020600020016000909192909190916101000a81548173ffffffffffffffffffffffffffffffffffffffff021916908373ffffffffffffffffffffffffffffffffffffffff160217905550508173ffffffffffffffffffffffffffffffffffffffff163373ffffffffffffffffffffffffffffffffffffffff167f26e36b227ec3fc4bcf7dd57ac632530d294bf00aa858151df37d8f4e5dc5402660405160405180910390a35b5050565b60008181548110610b3757fe5b90600052602060002090600502016000915090508060000160009054906101000a900473ffffffffffffffffffffffffffffffffffffffff1690806001018054600181600116156101000203166002900480601f016020809104026020016040519081016040528092919081815260200182805460018160011615610100020316600290048015610c095780601f10610bde57610100808354040283529160200191610c09565b820191906000526020600020905b815481529060010190602001808311610bec57829003601f168201915b505050505090806002018054600181600116156101000203166002900480601f016020809104026020016040519081016040528092919081815260200182805460018160011615610100020316600290048015610ca75780601f10610c7c57610100808354040283529160200191610ca7565b820191906000526020600020905b815481529060010190602001808311610c8a57829003601f168201915b5050505050908060030154908060040154905085565b600073ffffffffffffffffffffffffffffffffffffffff168173ffffffffffffffffffffffffffffffffffffffff161415610d2d576040517f08c379a0000000000000000000000000000000000000000000000000000000008152600401610d2490611af8565b60405180910390fd5b60008090505b600260003373ffffffffffffffffffffffffffffffffffffffff1673ffffffffffffffffffffffffffffffffffffffff168152602001908152602001600020805490508110156110ec578173ffffffffffffffffffffffffffffffffffffffff16600260003373ffffffffffffffffffffffffffffffffffffffff1673ffffffffffffffffffffffffffffffffffffffff1681526020019081526020016000208281548110610dde57fe5b9060005260206000200160009054906101000a900473ffffffffffffffffffffffffffffffffffffffff1673ffffffffffffffffffffffffffffffffffffffff1614156110df57600260003373ffffffffffffffffffffffffffffffffffffffff1673ffffffffffffffffffffffffffffffffffffffff1681526020019081526020016000206001600260003373ffffffffffffffffffffffffffffffffffffffff1673ffffffffffffffffffffffffffffffffffffffff168152602001908152602001600020805490500381548110610eb457fe5b9060005260206000200160009054906101000a900473ffffffffffffffffffffffffffffffffffffffff16600260003373ffffffffffffffffffffffffffffffffffffffff1673ffffffffffffffffffffffffffffffffffffffff1681526020019081526020016000208281548110610f2957fe5b9060005260206000200160006101000a81548173ffffffffffffffffffffffffffffffffffffffff021916908373ffffffffffffffffffffffffffffffffffffffff160217905550600260003373ffffffffffffffffffffffffffffffffffffffff1673ffffffffffffffffffffffffffffffffffffffff1681526020019081526020016000206001600260003373ffffffffffffffffffffffffffffffffffffffff1673ffffffffffffffffffffffffffffffffffffffff16815260200190815260200160002080549050038154811061100057fe5b9060005260206000200160006101000a81549073ffffffffffffffffffffffffffffffffffffffff0219169055600260003373ffffffffffffffffffffffffffffffffffffffff1673ffffffffffffffffffffffffffffffffffffffff16815260200190815260200160002080548091906001900361107f9190611358565b508173ffffffffffffffffffffffffffffffffffffffff163373ffffffffffffffffffffffffffffffffffffffff167fe8e915cd6d448d72358fdb7e7ed3f2ba3eb6293f6213b42830a7c1476df87f2b60405160405180910390a36110ec565b8080600101915050610d33565b5050565b6001602052816000526040600020818154811061110957fe5b9060005260206000209060050201600091509150508060000160009054906101000a900473ffffffffffffffffffffffffffffffffffffffff1690806001018054600181600116156101000203166002900480601f0160208091040260200160405190810160405280929190818152602001828054600181600116156101000203166002900480156111dc5780601f106111b1576101008083540402835291602001916111dc565b820191906000526020600020905b8154815290600101906020018083116111bf57829003601f168201915b505050505090806002018054600181600116156101000203166002900480601f01602080910402602001604051908101604052809291908181526020018280546001816001161561010002031660029004801561127a5780601f1061124f5761010080835404028352916020019161127a565b820191906000526020600020905b81548152906001019060200180831161125d57829003601f168201915b5050505050908060030154908060040154905085565b6040518060a00160405280600073ffffffffffffffffffffffffffffffffffffffff168152602001606081526020016060815260200160008152602001600080191681525090565b828054600181600116156101000203166002900490600052602060002090601f016020900481019282601f1061131957805160ff1916838001178555611347565b82800160010185558215611347579182015b8281111561134657825182559160200191906001019061132b565b5b5090506113549190611384565b5090565b81548183558181111561137f5781836000526020600020918201910161137e9190611384565b5b505050565b6113a691905b808211156113a257600081600090555060010161138a565b5090565b90565b6000813590506113b881611d8c565b92915050565b600082601f8301126113cf57600080fd5b81356113e26113dd82611bc5565b611b98565b915080825260208301602083018583830111156113fe57600080fd5b611409838284611cfe565b50505092915050565b60008135905061142181611da3565b92915050565b60006020828403121561143957600080fd5b6000611447848285016113a9565b91505092915050565b6000806040838503121561146357600080fd5b6000611471858286016113a9565b925050602061148285828601611412565b9150509250929050565b6000806040838503121561149f57600080fd5b600083013567ffffffffffffffff8111156114b957600080fd5b6114c5858286016113be565b925050602083013567ffffffffffffffff8111156114e257600080fd5b6114ee858286016113be565b9150509250929050565b60006020828403121561150a57600080fd5b600061151884828501611412565b91505092915050565b600061152d8383611564565b60208301905092915050565b600061154583836118f9565b905092915050565b61155e61155982611cb8565b611d40565b82525050565b61156d81611ca6565b82525050565b61157c81611ca6565b82525050565b600061158d82611c11565b6115978185611c57565b93506115a283611bf1565b8060005b838110156115d35781516115ba8882611521565b97506115c583611c3d565b9250506001810190506115a6565b5085935050505092915050565b60006115eb82611c1c565b6115f58185611c68565b93508360208202850161160785611c01565b8060005b8581101561164357848403895281516116248582611539565b945061162f83611c4a565b925060208a0199505060018101905061160b565b50829750879550505050505092915050565b61165e81611cca565b82525050565b61166d81611cca565b82525050565b600061167e82611c32565b6116888185611c9b565b9350611698818560208601611d0d565b80840191505092915050565b60006116af82611c27565b6116b98185611c79565b93506116c9818560208601611d0d565b6116d281611d6e565b840191505092915050565b60006116e882611c27565b6116f28185611c8a565b9350611702818560208601611d0d565b61170b81611d6e565b840191505092915050565b600061172182611c27565b61172b8185611c9b565b935061173b818560208601611d0d565b80840191505092915050565b6000611754600f83611c8a565b91507f496e76616c6964205f617574686f7200000000000000000000000000000000006000830152602082019050919050565b6000611794602183611c8a565b91507f417574686f722063616e6e6f742073756273637269626520746f20697473656c60008301527f66000000000000000000000000000000000000000000000000000000000000006020830152604082019050919050565b60006117fa602183611c8a565b91507f5469746c65206d75737420686176652061206e6f6e2d656d7074792076616c7560008301527f65000000000000000000000000000000000000000000000000000000000000006020830152604082019050919050565b6000611860600e83611c8a565b91507f496e76616c696420617574686f720000000000000000000000000000000000006000830152602082019050919050565b60006118a0602883611c8a565b91507f426f647920636f6e74656e74206d75737420686176652061206e6f6e2d656d7060008301527f74792076616c75650000000000000000000000000000000000000000000000006020830152604082019050919050565b600060a0830160008301516119116000860182611564565b506020830151848203602086015261192982826116a4565b9150506040830151848203604086015261194382826116a4565b91505060608301516119586060860182611976565b50608083015161196b6080860182611655565b508091505092915050565b61197f81611cf4565b82525050565b61198e81611cf4565b82525050565b6119a56119a082611cf4565b611d64565b82525050565b60006119b7828761154d565b6014820191506119c78286611673565b91506119d38285611673565b91506119df8284611994565b60208201915081905095945050505050565b60006119fd8284611716565b915081905092915050565b6000602082019050611a1d6000830184611573565b92915050565b600060a082019050611a386000830188611573565b8181036020830152611a4a81876116dd565b90508181036040830152611a5e81866116dd565b9050611a6d6060830185611985565b611a7a6080830184611664565b9695505050505050565b60006020820190508181036000830152611a9e8184611582565b905092915050565b60006020820190508181036000830152611ac081846115e0565b905092915050565b60006040820190508181036000830152611ae281856116dd565b9050611af16020830184611985565b9392505050565b60006020820190508181036000830152611b1181611747565b9050919050565b60006020820190508181036000830152611b3181611787565b9050919050565b60006020820190508181036000830152611b51816117ed565b9050919050565b60006020820190508181036000830152611b7181611853565b9050919050565b60006020820190508181036000830152611b9181611893565b9050919050565b6000604051905081810181811067ffffffffffffffff82111715611bbb57600080fd5b8060405250919050565b600067ffffffffffffffff821115611bdc57600080fd5b601f19601f8301169050602081019050919050565b6000819050602082019050919050565b6000819050602082019050919050565b600081519050919050565b600081519050919050565b600081519050919050565b600081519050919050565b6000602082019050919050565b6000602082019050919050565b600082825260208201905092915050565b600082825260208201905092915050565b600082825260208201905092915050565b600082825260208201905092915050565b600081905092915050565b6000611cb182611cd4565b9050919050565b6000611cc382611cd4565b9050919050565b6000819050919050565b600073ffffffffffffffffffffffffffffffffffffffff82169050919050565b6000819050919050565b82818337600083830152505050565b60005b83811015611d2b578082015181840152602081019050611d10565b83811115611d3a576000848401525b50505050565b6000611d4b82611d52565b9050919050565b6000611d5d82611d7f565b9050919050565b6000819050919050565b6000601f19601f8301169050919050565b60008160601b9050919050565b611d9581611ca6565b8114611da057600080fd5b50565b611dac81611cf4565b8114611db757600080fd5b5056fea365627a7a72315820d1a7dcb81ce8cf9e97f5d5dfab674501a2a061a00878271a816193e1c7f6a7716c6578706572696d656e74616cf564736f6c63430005100040",
  "source": "// SPDX-License-Identifier: MIT\npragma solidity >=0.4.21 <0.7.0;\npragma experimental ABIEncoderV2;\n\ncontract Decentrastack {\n  // get all articles ever written\n  Article[] public articles;\n  \n  struct Article {\n    address author;\n    string title; // TODO max characters for an article title *should be* 70\n    string body; // ipfs hash of body content, to reduce storage costs\n    // ipfs hash is 46 bytes so maybe find way to byte pack via sepaarting into:\n    /* struct Multihash {\n        bytes32 hash\n        uint8 hash_function\n        uint8 size\n    } */\n    uint256 date; // uint32 would make max data in year 2106\n    bytes32 articleId; // articleId can be cheaper if just a counter instead of keccak hash\n  }\n\n  // @dev consider adding index variable for each array; to help with lookups instead of for loop\n  mapping(address => Article[]) public authorToArticles;\n  mapping(address => address[]) public usersToSubscribedAuthors;\n\n  event ArticlePublished(address indexed _author, string _title, string indexed _body, uint256 _date, bytes32 indexed _articleId);\n  event NewUserSubscription(address indexed _follower, address indexed _author);\n  event UserUnsubscribedFromAuthor(address indexed _follower, address indexed _author);\n\n  function createArticle(string memory _title, string memory _body) public {\n    require(bytes(_title).length > 0, \"Title must have a non-empty value\");\n    require(bytes(_body).length > 0, \"Body content must have a non-empty value\");\n    Article memory newArticle = Article({\n      author: msg.sender,\n      title: _title,\n      body: _body,\n      date: now,\n      articleId: keccak256(abi.encodePacked(msg.sender, _title, _body, now))\n    });\n\n    authorToArticles[msg.sender].push(newArticle);\n    articles.push(newArticle);\n    \n    emit ArticlePublished(newArticle.author, newArticle.title, newArticle.body, newArticle.date, newArticle.articleId);\n  }\n\n  function getArticles() public view returns(Article[] memory) {\n      return articles;\n  }\n\n  function getUserToSubscribedAuthors(address _user) public view returns(address[] memory) {\n      return usersToSubscribedAuthors[_user];\n  }\n\n  // subscribe to author\n  function subscribeToAuthor(address _author) public {\n    require(_author != address(0), 'Invalid author');\n    require(_author != msg.sender, 'Author cannot subscribe to itself');\n    bool alreadySubscribed = false;\n    for(uint i = 0; i < usersToSubscribedAuthors[msg.sender].length; i++) {\n      if(usersToSubscribedAuthors[msg.sender][i] == _author) {\n        alreadySubscribed = true;\n        break;\n      }\n    }\n    if(!alreadySubscribed) {\n        usersToSubscribedAuthors[msg.sender].push(_author);\n        emit NewUserSubscription(msg.sender, _author);\n    }\n  }\n\n  // unsubscribe from author\n  function unsubscribeFromAuthor(address _author) public {\n    require(_author != address(0), 'Invalid _author');\n    for(uint i = 0; i < usersToSubscribedAuthors[msg.sender].length; i++) {\n      if(usersToSubscribedAuthors[msg.sender][i] == _author) {\n        // swap index with the last item in the array and then `delete` & shorten array\n        // @dev this is to prevent 0x0 value being written to author & bloating array\n        usersToSubscribedAuthors[msg.sender][i] = usersToSubscribedAuthors[msg.sender][usersToSubscribedAuthors[msg.sender].length - 1];\n        delete usersToSubscribedAuthors[msg.sender][usersToSubscribedAuthors[msg.sender].length - 1];\n        usersToSubscribedAuthors[msg.sender].length--;\n        emit UserUnsubscribedFromAuthor(msg.sender, _author);\n        break;\n      }\n    }\n  }\n}\n",
  "sourcePath": "/Users/db/Projects/decentraStack/contracts/Decentrastack.sol",
  "compiler": {
    "name": "solc",
    "version": "0.5.16+commit.9c3226ce.Emscripten.clang"
  },
  "schemaVersion": "3.3.3",
  "updatedAt": "2021-05-25T19:51:25.073Z",
  "networkType": "ethereum",
  "devdoc": {
    "methods": {}
  },
  "userdoc": {
    "methods": {}
  }
}