{
  "contractName": "Post",
  "abi": [
    {
      "anonymous": false,
      "inputs": [
        {
          "indexed": false,
          "internalType": "address",
          "name": "_follower",
          "type": "address"
        },
        {
          "indexed": false,
          "internalType": "address",
          "name": "_author",
          "type": "address"
        }
      ],
      "name": "NewUserSubscription",
      "type": "event"
    },
    {
      "anonymous": false,
      "inputs": [
        {
          "indexed": false,
          "internalType": "address",
          "name": "_author",
          "type": "address"
        },
        {
          "indexed": false,
          "internalType": "string",
          "name": "_title",
          "type": "string"
        },
        {
          "indexed": false,
          "internalType": "string",
          "name": "_body",
          "type": "string"
        },
        {
          "indexed": false,
          "internalType": "uint256",
          "name": "_date",
          "type": "uint256"
        },
        {
          "indexed": false,
          "internalType": "bytes32",
          "name": "_postId",
          "type": "bytes32"
        }
      ],
      "name": "PostCreated",
      "type": "event"
    },
    {
      "anonymous": false,
      "inputs": [
        {
          "indexed": false,
          "internalType": "address",
          "name": "_follower",
          "type": "address"
        },
        {
          "indexed": false,
          "internalType": "address",
          "name": "_author",
          "type": "address"
        }
      ],
      "name": "UserUnsubscribedFromAuthor",
      "type": "event"
    },
    {
      "constant": true,
      "inputs": [
        {
          "internalType": "uint256",
          "name": "",
          "type": "uint256"
        }
      ],
      "name": "articles",
      "outputs": [
        {
          "internalType": "address",
          "name": "author",
          "type": "address"
        },
        {
          "internalType": "string",
          "name": "title",
          "type": "string"
        },
        {
          "internalType": "string",
          "name": "body",
          "type": "string"
        },
        {
          "internalType": "uint256",
          "name": "date",
          "type": "uint256"
        },
        {
          "internalType": "bytes32",
          "name": "postId",
          "type": "bytes32"
        }
      ],
      "payable": false,
      "stateMutability": "view",
      "type": "function"
    },
    {
      "constant": true,
      "inputs": [
        {
          "internalType": "address",
          "name": "",
          "type": "address"
        },
        {
          "internalType": "uint256",
          "name": "",
          "type": "uint256"
        }
      ],
      "name": "authorToArticles",
      "outputs": [
        {
          "internalType": "address",
          "name": "author",
          "type": "address"
        },
        {
          "internalType": "string",
          "name": "title",
          "type": "string"
        },
        {
          "internalType": "string",
          "name": "body",
          "type": "string"
        },
        {
          "internalType": "uint256",
          "name": "date",
          "type": "uint256"
        },
        {
          "internalType": "bytes32",
          "name": "postId",
          "type": "bytes32"
        }
      ],
      "payable": false,
      "stateMutability": "view",
      "type": "function"
    },
    {
      "constant": true,
      "inputs": [
        {
          "internalType": "address",
          "name": "",
          "type": "address"
        },
        {
          "internalType": "uint256",
          "name": "",
          "type": "uint256"
        }
      ],
      "name": "usersToSubscribedAuthors",
      "outputs": [
        {
          "internalType": "address",
          "name": "",
          "type": "address"
        }
      ],
      "payable": false,
      "stateMutability": "view",
      "type": "function"
    },
    {
      "constant": false,
      "inputs": [
        {
          "internalType": "string",
          "name": "_title",
          "type": "string"
        },
        {
          "internalType": "string",
          "name": "_body",
          "type": "string"
        }
      ],
      "name": "createPost",
      "outputs": [],
      "payable": false,
      "stateMutability": "nonpayable",
      "type": "function"
    },
    {
      "constant": true,
      "inputs": [],
      "name": "getArticles",
      "outputs": [
        {
          "components": [
            {
              "internalType": "address",
              "name": "author",
              "type": "address"
            },
            {
              "internalType": "string",
              "name": "title",
              "type": "string"
            },
            {
              "internalType": "string",
              "name": "body",
              "type": "string"
            },
            {
              "internalType": "uint256",
              "name": "date",
              "type": "uint256"
            },
            {
              "internalType": "bytes32",
              "name": "postId",
              "type": "bytes32"
            }
          ],
          "internalType": "struct Post.Article[]",
          "name": "",
          "type": "tuple[]"
        }
      ],
      "payable": false,
      "stateMutability": "view",
      "type": "function"
    },
    {
      "constant": true,
      "inputs": [
        {
          "internalType": "address",
          "name": "_user",
          "type": "address"
        }
      ],
      "name": "getUserToSubscribedAuthors",
      "outputs": [
        {
          "internalType": "address[]",
          "name": "",
          "type": "address[]"
        }
      ],
      "payable": false,
      "stateMutability": "view",
      "type": "function"
    },
    {
      "constant": false,
      "inputs": [
        {
          "internalType": "address",
          "name": "_author",
          "type": "address"
        }
      ],
      "name": "subscribeToAuthor",
      "outputs": [],
      "payable": false,
      "stateMutability": "nonpayable",
      "type": "function"
    },
    {
      "constant": false,
      "inputs": [
        {
          "internalType": "address",
          "name": "_author",
          "type": "address"
        }
      ],
      "name": "unsubscribeFromAuthor",
      "outputs": [],
      "payable": false,
      "stateMutability": "nonpayable",
      "type": "function"
    }
  ],
  "bytecode": "0x608060405234801561001057600080fd5b50611bf5806100206000396000f3fe608060405234801561001057600080fd5b50600436106100885760003560e01c8063ce278e751161005b578063ce278e7514610127578063edcfafe614610143578063f7367cce14610177578063f9c26c181461019357610088565b8063392338f51461008d57806356eedd37146100a95780636529f44a146100d9578063963cde7e146100f7575b600080fd5b6100a760048036036100a2919081019061139a565b6101c7565b005b6100c360048036036100be9190810190611335565b61045b565b6040516100d091906118b6565b60405180910390f35b6100e1610528565b6040516100ee91906118d8565b60405180910390f35b610111600480360361010c919081019061135e565b610735565b60405161011e9190611811565b60405180910390f35b610141600480360361013c9190810190611335565b610780565b005b61015d60048036036101589190810190611406565b610a59565b60405161016e959493929190611855565b60405180910390f35b610191600480360361018c9190810190611335565b610bec565b005b6101ad60048036036101a8919081019061135e565b610ffe565b6040516101be959493929190611855565b60405180910390f35b6101cf61119e565b6040518060a001604052803373ffffffffffffffffffffffffffffffffffffffff1681526020018481526020018381526020014281526020013385854260405160200161021f94939291906117cb565b604051602081830303815290604052805190602001208152509050600160003373ffffffffffffffffffffffffffffffffffffffff1673ffffffffffffffffffffffffffffffffffffffff168152602001908152602001600020819080600181540180825580915050906001820390600052602060002090600502016000909192909190915060008201518160000160006101000a81548173ffffffffffffffffffffffffffffffffffffffff021916908373ffffffffffffffffffffffffffffffffffffffff16021790555060208201518160010190805190602001906103089291906111e6565b5060408201518160020190805190602001906103259291906111e6565b5060608201518160030155608082015181600401555050506000819080600181540180825580915050906001820390600052602060002090600502016000909192909190915060008201518160000160006101000a81548173ffffffffffffffffffffffffffffffffffffffff021916908373ffffffffffffffffffffffffffffffffffffffff16021790555060208201518160010190805190602001906103ce9291906111e6565b5060408201518160020190805190602001906103eb9291906111e6565b5060608201518160030155608082015181600401555050507f011fea8e70cf04a69eb78d400b2747c587002cfeedfdb1211007593aedd406868160000151826020015183604001518460600151856080015160405161044e959493929190611855565b60405180910390a1505050565b6060600260008373ffffffffffffffffffffffffffffffffffffffff1673ffffffffffffffffffffffffffffffffffffffff16815260200190815260200160002080548060200260200160405190810160405280929190818152602001828054801561051c57602002820191906000526020600020905b8160009054906101000a900473ffffffffffffffffffffffffffffffffffffffff1673ffffffffffffffffffffffffffffffffffffffff16815260200190600101908083116104d2575b50505050509050919050565b60606000805480602002602001604051908101604052809291908181526020016000905b8282101561072c57838290600052602060002090600502016040518060a00160405290816000820160009054906101000a900473ffffffffffffffffffffffffffffffffffffffff1673ffffffffffffffffffffffffffffffffffffffff1673ffffffffffffffffffffffffffffffffffffffff168152602001600182018054600181600116156101000203166002900480601f01602080910402602001604051908101604052809291908181526020018280546001816001161561010002031660029004801561065e5780601f106106335761010080835404028352916020019161065e565b820191906000526020600020905b81548152906001019060200180831161064157829003601f168201915b50505050508152602001600282018054600181600116156101000203166002900480601f0160208091040260200160405190810160405280929190818152602001828054600181600116156101000203166002900480156107005780601f106106d557610100808354040283529160200191610700565b820191906000526020600020905b8154815290600101906020018083116106e357829003601f168201915b50505050508152602001600382015481526020016004820154815250508152602001906001019061054c565b50505050905090565b6002602052816000526040600020818154811061074e57fe5b906000526020600020016000915091509054906101000a900473ffffffffffffffffffffffffffffffffffffffff1681565b600073ffffffffffffffffffffffffffffffffffffffff168173ffffffffffffffffffffffffffffffffffffffff1614156107f0576040517f08c379a00000000000000000000000000000000000000000000000000000000081526004016107e79061193a565b60405180910390fd5b3373ffffffffffffffffffffffffffffffffffffffff168173ffffffffffffffffffffffffffffffffffffffff16141561085f576040517f08c379a00000000000000000000000000000000000000000000000000000000081526004016108569061191a565b60405180910390fd5b600080905060008090505b600260003373ffffffffffffffffffffffffffffffffffffffff1673ffffffffffffffffffffffffffffffffffffffff16815260200190815260200160002080549050811015610972578273ffffffffffffffffffffffffffffffffffffffff16600260003373ffffffffffffffffffffffffffffffffffffffff1673ffffffffffffffffffffffffffffffffffffffff168152602001908152602001600020828154811061091557fe5b9060005260206000200160009054906101000a900473ffffffffffffffffffffffffffffffffffffffff1673ffffffffffffffffffffffffffffffffffffffff1614156109655760019150610972565b808060010191505061086a565b5080610a5557600260003373ffffffffffffffffffffffffffffffffffffffff1673ffffffffffffffffffffffffffffffffffffffff1681526020019081526020016000208290806001815401808255809150509060018203906000526020600020016000909192909190916101000a81548173ffffffffffffffffffffffffffffffffffffffff021916908373ffffffffffffffffffffffffffffffffffffffff160217905550507f26e36b227ec3fc4bcf7dd57ac632530d294bf00aa858151df37d8f4e5dc540263383604051610a4c92919061182c565b60405180910390a15b5050565b60008181548110610a6657fe5b90600052602060002090600502016000915090508060000160009054906101000a900473ffffffffffffffffffffffffffffffffffffffff1690806001018054600181600116156101000203166002900480601f016020809104026020016040519081016040528092919081815260200182805460018160011615610100020316600290048015610b385780601f10610b0d57610100808354040283529160200191610b38565b820191906000526020600020905b815481529060010190602001808311610b1b57829003601f168201915b505050505090806002018054600181600116156101000203166002900480601f016020809104026020016040519081016040528092919081815260200182805460018160011615610100020316600290048015610bd65780601f10610bab57610100808354040283529160200191610bd6565b820191906000526020600020905b815481529060010190602001808311610bb957829003601f168201915b5050505050908060030154908060040154905085565b600073ffffffffffffffffffffffffffffffffffffffff168173ffffffffffffffffffffffffffffffffffffffff161415610c5c576040517f08c379a0000000000000000000000000000000000000000000000000000000008152600401610c53906118fa565b60405180910390fd5b60008090505b600260003373ffffffffffffffffffffffffffffffffffffffff1673ffffffffffffffffffffffffffffffffffffffff16815260200190815260200160002080549050811015610ffa578173ffffffffffffffffffffffffffffffffffffffff16600260003373ffffffffffffffffffffffffffffffffffffffff1673ffffffffffffffffffffffffffffffffffffffff1681526020019081526020016000208281548110610d0d57fe5b9060005260206000200160009054906101000a900473ffffffffffffffffffffffffffffffffffffffff1673ffffffffffffffffffffffffffffffffffffffff161415610fed57600260003373ffffffffffffffffffffffffffffffffffffffff1673ffffffffffffffffffffffffffffffffffffffff1681526020019081526020016000206001600260003373ffffffffffffffffffffffffffffffffffffffff1673ffffffffffffffffffffffffffffffffffffffff168152602001908152602001600020805490500381548110610de357fe5b9060005260206000200160009054906101000a900473ffffffffffffffffffffffffffffffffffffffff16600260003373ffffffffffffffffffffffffffffffffffffffff1673ffffffffffffffffffffffffffffffffffffffff1681526020019081526020016000208281548110610e5857fe5b9060005260206000200160006101000a81548173ffffffffffffffffffffffffffffffffffffffff021916908373ffffffffffffffffffffffffffffffffffffffff160217905550600260003373ffffffffffffffffffffffffffffffffffffffff1673ffffffffffffffffffffffffffffffffffffffff1681526020019081526020016000206001600260003373ffffffffffffffffffffffffffffffffffffffff1673ffffffffffffffffffffffffffffffffffffffff168152602001908152602001600020805490500381548110610f2f57fe5b9060005260206000200160006101000a81549073ffffffffffffffffffffffffffffffffffffffff0219169055600260003373ffffffffffffffffffffffffffffffffffffffff1673ffffffffffffffffffffffffffffffffffffffff168152602001908152602001600020805480919060019003610fae9190611266565b507fe8e915cd6d448d72358fdb7e7ed3f2ba3eb6293f6213b42830a7c1476df87f2b3383604051610fe092919061182c565b60405180910390a1610ffa565b8080600101915050610c62565b5050565b6001602052816000526040600020818154811061101757fe5b9060005260206000209060050201600091509150508060000160009054906101000a900473ffffffffffffffffffffffffffffffffffffffff1690806001018054600181600116156101000203166002900480601f0160208091040260200160405190810160405280929190818152602001828054600181600116156101000203166002900480156110ea5780601f106110bf576101008083540402835291602001916110ea565b820191906000526020600020905b8154815290600101906020018083116110cd57829003601f168201915b505050505090806002018054600181600116156101000203166002900480601f0160208091040260200160405190810160405280929190818152602001828054600181600116156101000203166002900480156111885780601f1061115d57610100808354040283529160200191611188565b820191906000526020600020905b81548152906001019060200180831161116b57829003601f168201915b5050505050908060030154908060040154905085565b6040518060a00160405280600073ffffffffffffffffffffffffffffffffffffffff168152602001606081526020016060815260200160008152602001600080191681525090565b828054600181600116156101000203166002900490600052602060002090601f016020900481019282601f1061122757805160ff1916838001178555611255565b82800160010185558215611255579182015b82811115611254578251825591602001919060010190611239565b5b5090506112629190611292565b5090565b81548183558181111561128d5781836000526020600020918201910161128c9190611292565b5b505050565b6112b491905b808211156112b0576000816000905550600101611298565b5090565b90565b6000813590506112c681611b84565b92915050565b600082601f8301126112dd57600080fd5b81356112f06112eb82611987565b61195a565b9150808252602083016020830185838301111561130c57600080fd5b611317838284611af6565b50505092915050565b60008135905061132f81611b9b565b92915050565b60006020828403121561134757600080fd5b6000611355848285016112b7565b91505092915050565b6000806040838503121561137157600080fd5b600061137f858286016112b7565b925050602061139085828601611320565b9150509250929050565b600080604083850312156113ad57600080fd5b600083013567ffffffffffffffff8111156113c757600080fd5b6113d3858286016112cc565b925050602083013567ffffffffffffffff8111156113f057600080fd5b6113fc858286016112cc565b9150509250929050565b60006020828403121561141857600080fd5b600061142684828501611320565b91505092915050565b600061143b8383611481565b60208301905092915050565b60006114538383611719565b905092915050565b61146481611ac0565b82525050565b61147b61147682611a7a565b611b38565b82525050565b61148a81611a68565b82525050565b61149981611a68565b82525050565b60006114aa826119d3565b6114b48185611a19565b93506114bf836119b3565b8060005b838110156114f05781516114d7888261142f565b97506114e2836119ff565b9250506001810190506114c3565b5085935050505092915050565b6000611508826119de565b6115128185611a2a565b935083602082028501611524856119c3565b8060005b8581101561156057848403895281516115418582611447565b945061154c83611a0c565b925060208a01995050600181019050611528565b50829750879550505050505092915050565b61157b81611a8c565b82525050565b61158a81611a8c565b82525050565b600061159b826119f4565b6115a58185611a5d565b93506115b5818560208601611b05565b80840191505092915050565b60006115cc826119e9565b6115d68185611a3b565b93506115e6818560208601611b05565b6115ef81611b66565b840191505092915050565b6000611605826119e9565b61160f8185611a4c565b935061161f818560208601611b05565b61162881611b66565b840191505092915050565b6000611640600f83611a4c565b91507f496e76616c6964205f617574686f7200000000000000000000000000000000006000830152602082019050919050565b6000611680602183611a4c565b91507f417574686f722063616e6e6f742073756273637269626520746f20697473656c60008301527f66000000000000000000000000000000000000000000000000000000000000006020830152604082019050919050565b60006116e6600e83611a4c565b91507f496e76616c696420617574686f720000000000000000000000000000000000006000830152602082019050919050565b600060a0830160008301516117316000860182611481565b506020830151848203602086015261174982826115c1565b9150506040830151848203604086015261176382826115c1565b91505060608301516117786060860182611796565b50608083015161178b6080860182611572565b508091505092915050565b61179f81611ab6565b82525050565b6117ae81611ab6565b82525050565b6117c56117c082611ab6565b611b5c565b82525050565b60006117d7828761146a565b6014820191506117e78286611590565b91506117f38285611590565b91506117ff82846117b4565b60208201915081905095945050505050565b60006020820190506118266000830184611490565b92915050565b6000604082019050611841600083018561145b565b61184e6020830184611490565b9392505050565b600060a08201905061186a6000830188611490565b818103602083015261187c81876115fa565b9050818103604083015261189081866115fa565b905061189f60608301856117a5565b6118ac6080830184611581565b9695505050505050565b600060208201905081810360008301526118d0818461149f565b905092915050565b600060208201905081810360008301526118f281846114fd565b905092915050565b6000602082019050818103600083015261191381611633565b9050919050565b6000602082019050818103600083015261193381611673565b9050919050565b60006020820190508181036000830152611953816116d9565b9050919050565b6000604051905081810181811067ffffffffffffffff8211171561197d57600080fd5b8060405250919050565b600067ffffffffffffffff82111561199e57600080fd5b601f19601f8301169050602081019050919050565b6000819050602082019050919050565b6000819050602082019050919050565b600081519050919050565b600081519050919050565b600081519050919050565b600081519050919050565b6000602082019050919050565b6000602082019050919050565b600082825260208201905092915050565b600082825260208201905092915050565b600082825260208201905092915050565b600082825260208201905092915050565b600081905092915050565b6000611a7382611a96565b9050919050565b6000611a8582611a96565b9050919050565b6000819050919050565b600073ffffffffffffffffffffffffffffffffffffffff82169050919050565b6000819050919050565b6000611acb82611ad2565b9050919050565b6000611add82611ae4565b9050919050565b6000611aef82611a96565b9050919050565b82818337600083830152505050565b60005b83811015611b23578082015181840152602081019050611b08565b83811115611b32576000848401525b50505050565b6000611b4382611b4a565b9050919050565b6000611b5582611b77565b9050919050565b6000819050919050565b6000601f19601f8301169050919050565b60008160601b9050919050565b611b8d81611a68565b8114611b9857600080fd5b50565b611ba481611ab6565b8114611baf57600080fd5b5056fea365627a7a7231582083961a8e6b6812ae21865b49d996b253f74de0d5a14f4161a1b5032c5c3f33776c6578706572696d656e74616cf564736f6c63430005100040",
  "source": "// SPDX-License-Identifier: MIT\npragma solidity >=0.4.21 <0.7.0;\npragma experimental ABIEncoderV2;\n\ncontract Post {\n  // get all articles ever written\n  Article[] public articles;\n  \n  struct Article {\n    address author;\n    string title; // TODO max characters for an article title *should be* 70\n    string body;\n    uint256 date;\n    bytes32 postId;\n  }\n\n  // @dev consider adding index variable for each array; to help with lookups instead of for loop\n  mapping(address => Article[]) public authorToArticles;\n  mapping(address => address[]) public usersToSubscribedAuthors;\n\n  event PostCreated(address _author, string _title, string _body, uint256 _date, bytes32 _postId);\n  event NewUserSubscription(address _follower, address _author);\n  event UserUnsubscribedFromAuthor(address _follower, address _author);\n\n  function createPost(string memory _title, string memory _body) public {\n    Article memory newArticle = Article({\n      author: msg.sender,\n      title: _title,\n      body: _body,\n      date: now,\n      postId: keccak256(abi.encodePacked(msg.sender, _title, _body, now))\n    });\n\n    authorToArticles[msg.sender].push(newArticle);\n    articles.push(newArticle);\n    \n    emit PostCreated(newArticle.author, newArticle.title, newArticle.body, newArticle.date, newArticle.postId);\n  }\n\n  function getArticles() public view returns(Article[] memory) {\n      return articles;\n  }\n\n  function getUserToSubscribedAuthors(address _user) public view returns(address[] memory) {\n      return usersToSubscribedAuthors[_user];\n  }\n\n  // subscribe to author\n  function subscribeToAuthor(address _author) public {\n    require(_author != address(0), 'Invalid author');\n    require(_author != msg.sender, 'Author cannot subscribe to itself');\n    bool alreadySubscribed = false;\n    for(uint i = 0; i < usersToSubscribedAuthors[msg.sender].length; i++) {\n      if(usersToSubscribedAuthors[msg.sender][i] == _author) {\n        alreadySubscribed = true;\n        break;\n      }\n    }\n    if(!alreadySubscribed) {\n        usersToSubscribedAuthors[msg.sender].push(_author);\n        emit NewUserSubscription(msg.sender, _author);\n    }\n  }\n\n  // unsubscribe from author\n  function unsubscribeFromAuthor(address _author) public {\n    require(_author != address(0), 'Invalid _author');\n    for(uint i = 0; i < usersToSubscribedAuthors[msg.sender].length; i++) {\n      if(usersToSubscribedAuthors[msg.sender][i] == _author) {\n        // swap index with the last item in the array and then `delete` & shorten array\n        // @dev this is to prevent 0x0 value being written to author & bloating array\n        usersToSubscribedAuthors[msg.sender][i] = usersToSubscribedAuthors[msg.sender][usersToSubscribedAuthors[msg.sender].length - 1];\n        delete usersToSubscribedAuthors[msg.sender][usersToSubscribedAuthors[msg.sender].length - 1];\n        usersToSubscribedAuthors[msg.sender].length--;\n        emit UserUnsubscribedFromAuthor(msg.sender, _author);\n        break;\n      }\n    }\n  }\n}\n",
  "sourcePath": "/Users/db/Projects/decentraStack/contracts/Post.sol",
  "compiler": {
    "name": "solc",
    "version": "0.5.16+commit.9c3226ce.Emscripten.clang"
  },
  "schemaVersion": "3.3.3",
  "updatedAt": "2021-05-19T19:03:34.291Z",
  "networkType": "ethereum",
  "devdoc": {
    "methods": {}
  },
  "userdoc": {
    "methods": {}
  }
}