{
  "contractName": "Post",
  "abi": [
    {
      "anonymous": false,
      "inputs": [
        {
          "indexed": false,
          "internalType": "address",
          "name": "_author",
          "type": "address"
        },
        {
          "indexed": false,
          "internalType": "string",
          "name": "_title",
          "type": "string"
        },
        {
          "indexed": false,
          "internalType": "string",
          "name": "_body",
          "type": "string"
        },
        {
          "indexed": false,
          "internalType": "uint256",
          "name": "_date",
          "type": "uint256"
        },
        {
          "indexed": false,
          "internalType": "bytes32",
          "name": "_postId",
          "type": "bytes32"
        }
      ],
      "name": "PostCreated",
      "type": "event"
    },
    {
      "constant": false,
      "inputs": [
        {
          "internalType": "string",
          "name": "_title",
          "type": "string"
        },
        {
          "internalType": "string",
          "name": "_body",
          "type": "string"
        }
      ],
      "name": "createPost",
      "outputs": [],
      "payable": false,
      "stateMutability": "nonpayable",
      "type": "function"
    }
  ],
  "bytecode": "0x608060405234801561001057600080fd5b506105c2806100206000396000f3fe608060405234801561001057600080fd5b506004361061002b5760003560e01c8063392338f514610030575b600080fd5b6101806004803603604081101561004657600080fd5b810190808035906020019064010000000081111561006357600080fd5b82018360208201111561007557600080fd5b8035906020019184600183028401116401000000008311171561009757600080fd5b91908080601f016020809104026020016040519081016040528093929190818152602001838380828437600081840152601f19601f820116905080830192505050505050509192919290803590602001906401000000008111156100fa57600080fd5b82018360208201111561010c57600080fd5b8035906020019184600183028401116401000000008311171561012e57600080fd5b91908080601f016020809104026020016040519081016040528093929190818152602001838380828437600081840152601f19601f820116905080830192505050505050509192919290505050610182565b005b336000806101000a81548173ffffffffffffffffffffffffffffffffffffffff021916908373ffffffffffffffffffffffffffffffffffffffff16021790555081600190805190602001906101d89291906104e8565b5080600290805190602001906101ef9291906104e8565b50426003819055506000809054906101000a900473ffffffffffffffffffffffffffffffffffffffff1660016002600354604051602001808573ffffffffffffffffffffffffffffffffffffffff1673ffffffffffffffffffffffffffffffffffffffff1660601b8152601401848054600181600116156101000203166002900480156102b35780601f106102915761010080835404028352918201916102b3565b820191906000526020600020905b81548152906001019060200180831161029f575b50508380546001816001161561010002031660029004801561030c5780601f106102ea57610100808354040283529182019161030c565b820191906000526020600020905b8154815290600101906020018083116102f8575b5050828152602001945050505050604051602081830303815290604052805190602001206004819055507f011fea8e70cf04a69eb78d400b2747c587002cfeedfdb1211007593aedd406866000809054906101000a900473ffffffffffffffffffffffffffffffffffffffff1660016002600354600454604051808673ffffffffffffffffffffffffffffffffffffffff1673ffffffffffffffffffffffffffffffffffffffff168152602001806020018060200185815260200184815260200183810383528781815460018160011615610100020316600290048152602001915080546001816001161561010002031660029004801561044e5780601f106104235761010080835404028352916020019161044e565b820191906000526020600020905b81548152906001019060200180831161043157829003601f168201915b50508381038252868181546001816001161561010002031660029004815260200191508054600181600116156101000203166002900480156104d15780601f106104a6576101008083540402835291602001916104d1565b820191906000526020600020905b8154815290600101906020018083116104b457829003601f168201915b505097505050505050505060405180910390a15050565b828054600181600116156101000203166002900490600052602060002090601f016020900481019282601f1061052957805160ff1916838001178555610557565b82800160010185558215610557579182015b8281111561055657825182559160200191906001019061053b565b5b5090506105649190610568565b5090565b61058a91905b8082111561058657600081600090555060010161056e565b5090565b9056fea265627a7a72315820d958337ed3e0a69ca1f2bca0bfb9c9321f75a31f95f4dbae62fed55de6bc620c64736f6c63430005100032",
  "source": "// SPDX-License-Identifier: MIT\npragma solidity >=0.4.21 <0.7.0;\n\ncontract Post {\n  address author;\n  string title;\n  string body;\n  uint256 date;\n  bytes32 postId;\n\n  event PostCreated(address _author, string _title, string _body, uint256 _date, bytes32 _postId);\n\n  function createPost(string memory _title, string memory _body) public {\n    author = msg.sender;\n    title = _title;\n    body = _body;\n    date = now;\n    postId = keccak256(abi.encodePacked(author, title, body, date));\n\n    emit PostCreated(author, title, body, date, postId);\n  }\n\n  // function getPost() public view returns (address, string, string, uint256, bytes32) {\n  //   return (author, title, body, date, postId);\n  // }\n}\n",
  "sourcePath": "/Users/db/Projects/decentraStack/contracts/Post.sol",
  "compiler": {
    "name": "solc",
    "version": "0.5.16+commit.9c3226ce.Emscripten.clang"
  },
  "schemaVersion": "3.3.3",
  "updatedAt": "2021-05-13T20:30:01.756Z",
  "networkType": "ethereum",
  "devdoc": {
    "methods": {}
  },
  "userdoc": {
    "methods": {}
  }
}