{
  "contractName": "Post",
  "abi": [
    {
      "anonymous": false,
      "inputs": [
        {
          "indexed": false,
          "internalType": "address",
          "name": "_follower",
          "type": "address"
        },
        {
          "indexed": false,
          "internalType": "address",
          "name": "_author",
          "type": "address"
        }
      ],
      "name": "NewUserSubscription",
      "type": "event"
    },
    {
      "anonymous": false,
      "inputs": [
        {
          "indexed": false,
          "internalType": "address",
          "name": "_author",
          "type": "address"
        },
        {
          "indexed": false,
          "internalType": "string",
          "name": "_title",
          "type": "string"
        },
        {
          "indexed": false,
          "internalType": "string",
          "name": "_body",
          "type": "string"
        },
        {
          "indexed": false,
          "internalType": "uint256",
          "name": "_date",
          "type": "uint256"
        },
        {
          "indexed": false,
          "internalType": "bytes32",
          "name": "_postId",
          "type": "bytes32"
        }
      ],
      "name": "PostCreated",
      "type": "event"
    },
    {
      "anonymous": false,
      "inputs": [
        {
          "indexed": false,
          "internalType": "address",
          "name": "_follower",
          "type": "address"
        },
        {
          "indexed": false,
          "internalType": "address",
          "name": "_author",
          "type": "address"
        }
      ],
      "name": "UserUnsubscribedFromAuthor",
      "type": "event"
    },
    {
      "constant": true,
      "inputs": [
        {
          "internalType": "uint256",
          "name": "",
          "type": "uint256"
        }
      ],
      "name": "articles",
      "outputs": [
        {
          "internalType": "address",
          "name": "author",
          "type": "address"
        },
        {
          "internalType": "string",
          "name": "title",
          "type": "string"
        },
        {
          "internalType": "string",
          "name": "body",
          "type": "string"
        },
        {
          "internalType": "uint256",
          "name": "date",
          "type": "uint256"
        },
        {
          "internalType": "bytes32",
          "name": "postId",
          "type": "bytes32"
        }
      ],
      "payable": false,
      "stateMutability": "view",
      "type": "function"
    },
    {
      "constant": true,
      "inputs": [
        {
          "internalType": "address",
          "name": "",
          "type": "address"
        },
        {
          "internalType": "uint256",
          "name": "",
          "type": "uint256"
        }
      ],
      "name": "authorToArticles",
      "outputs": [
        {
          "internalType": "address",
          "name": "author",
          "type": "address"
        },
        {
          "internalType": "string",
          "name": "title",
          "type": "string"
        },
        {
          "internalType": "string",
          "name": "body",
          "type": "string"
        },
        {
          "internalType": "uint256",
          "name": "date",
          "type": "uint256"
        },
        {
          "internalType": "bytes32",
          "name": "postId",
          "type": "bytes32"
        }
      ],
      "payable": false,
      "stateMutability": "view",
      "type": "function"
    },
    {
      "constant": true,
      "inputs": [
        {
          "internalType": "address",
          "name": "",
          "type": "address"
        },
        {
          "internalType": "uint256",
          "name": "",
          "type": "uint256"
        }
      ],
      "name": "usersToSubscribedAuthors",
      "outputs": [
        {
          "internalType": "address",
          "name": "",
          "type": "address"
        }
      ],
      "payable": false,
      "stateMutability": "view",
      "type": "function"
    },
    {
      "constant": false,
      "inputs": [
        {
          "internalType": "string",
          "name": "_title",
          "type": "string"
        },
        {
          "internalType": "string",
          "name": "_body",
          "type": "string"
        }
      ],
      "name": "createPost",
      "outputs": [],
      "payable": false,
      "stateMutability": "nonpayable",
      "type": "function"
    },
    {
      "constant": true,
      "inputs": [],
      "name": "getArticles",
      "outputs": [
        {
          "components": [
            {
              "internalType": "address",
              "name": "author",
              "type": "address"
            },
            {
              "internalType": "string",
              "name": "title",
              "type": "string"
            },
            {
              "internalType": "string",
              "name": "body",
              "type": "string"
            },
            {
              "internalType": "uint256",
              "name": "date",
              "type": "uint256"
            },
            {
              "internalType": "bytes32",
              "name": "postId",
              "type": "bytes32"
            }
          ],
          "internalType": "struct Post.Article[]",
          "name": "",
          "type": "tuple[]"
        }
      ],
      "payable": false,
      "stateMutability": "view",
      "type": "function"
    },
    {
      "constant": false,
      "inputs": [
        {
          "internalType": "address",
          "name": "_author",
          "type": "address"
        }
      ],
      "name": "subscribeToAuthor",
      "outputs": [],
      "payable": false,
      "stateMutability": "nonpayable",
      "type": "function"
    },
    {
      "constant": false,
      "inputs": [
        {
          "internalType": "address",
          "name": "_author",
          "type": "address"
        }
      ],
      "name": "unsubscribeFromAuthor",
      "outputs": [],
      "payable": false,
      "stateMutability": "nonpayable",
      "type": "function"
    }
  ],
  "bytecode": "0x608060405234801561001057600080fd5b506118c7806100206000396000f3fe608060405234801561001057600080fd5b506004361061007d5760003560e01c8063ce278e751161005b578063ce278e75146100ec578063edcfafe614610108578063f7367cce1461013c578063f9c26c18146101585761007d565b8063392338f5146100825780636529f44a1461009e578063963cde7e146100bc575b600080fd5b61009c60048036036100979190810190611223565b61018c565b005b6100a6610420565b6040516100b39190611623565b60405180910390f35b6100d660048036036100d191908101906111e7565b61062d565b6040516100e3919061157e565b60405180910390f35b610106600480360361010191908101906111be565b610678565b005b610122600480360361011d919081019061128f565b6108e2565b6040516101339594939291906115c2565b60405180910390f35b610156600480360361015191908101906111be565b610a75565b005b610172600480360361016d91908101906111e7565b610e87565b6040516101839594939291906115c2565b60405180910390f35b610194611027565b6040518060a001604052803373ffffffffffffffffffffffffffffffffffffffff168152602001848152602001838152602001428152602001338585426040516020016101e49493929190611538565b604051602081830303815290604052805190602001208152509050600160003373ffffffffffffffffffffffffffffffffffffffff1673ffffffffffffffffffffffffffffffffffffffff168152602001908152602001600020819080600181540180825580915050906001820390600052602060002090600502016000909192909190915060008201518160000160006101000a81548173ffffffffffffffffffffffffffffffffffffffff021916908373ffffffffffffffffffffffffffffffffffffffff16021790555060208201518160010190805190602001906102cd92919061106f565b5060408201518160020190805190602001906102ea92919061106f565b5060608201518160030155608082015181600401555050506000819080600181540180825580915050906001820390600052602060002090600502016000909192909190915060008201518160000160006101000a81548173ffffffffffffffffffffffffffffffffffffffff021916908373ffffffffffffffffffffffffffffffffffffffff160217905550602082015181600101908051906020019061039392919061106f565b5060408201518160020190805190602001906103b092919061106f565b5060608201518160030155608082015181600401555050507f011fea8e70cf04a69eb78d400b2747c587002cfeedfdb1211007593aedd40686816000015182602001518360400151846060015185608001516040516104139594939291906115c2565b60405180910390a1505050565b60606000805480602002602001604051908101604052809291908181526020016000905b8282101561062457838290600052602060002090600502016040518060a00160405290816000820160009054906101000a900473ffffffffffffffffffffffffffffffffffffffff1673ffffffffffffffffffffffffffffffffffffffff1673ffffffffffffffffffffffffffffffffffffffff168152602001600182018054600181600116156101000203166002900480601f0160208091040260200160405190810160405280929190818152602001828054600181600116156101000203166002900480156105565780601f1061052b57610100808354040283529160200191610556565b820191906000526020600020905b81548152906001019060200180831161053957829003601f168201915b50505050508152602001600282018054600181600116156101000203166002900480601f0160208091040260200160405190810160405280929190818152602001828054600181600116156101000203166002900480156105f85780601f106105cd576101008083540402835291602001916105f8565b820191906000526020600020905b8154815290600101906020018083116105db57829003601f168201915b505050505081526020016003820154815260200160048201548152505081526020019060010190610444565b50505050905090565b6002602052816000526040600020818154811061064657fe5b906000526020600020016000915091509054906101000a900473ffffffffffffffffffffffffffffffffffffffff1681565b600073ffffffffffffffffffffffffffffffffffffffff168173ffffffffffffffffffffffffffffffffffffffff1614156106e8576040517f08c379a00000000000000000000000000000000000000000000000000000000081526004016106df90611645565b60405180910390fd5b600080905060008090505b600260003373ffffffffffffffffffffffffffffffffffffffff1673ffffffffffffffffffffffffffffffffffffffff168152602001908152602001600020805490508110156107fb578273ffffffffffffffffffffffffffffffffffffffff16600260003373ffffffffffffffffffffffffffffffffffffffff1673ffffffffffffffffffffffffffffffffffffffff168152602001908152602001600020828154811061079e57fe5b9060005260206000200160009054906101000a900473ffffffffffffffffffffffffffffffffffffffff1673ffffffffffffffffffffffffffffffffffffffff1614156107ee57600191506107fb565b80806001019150506106f3565b50806108de57600260003373ffffffffffffffffffffffffffffffffffffffff1673ffffffffffffffffffffffffffffffffffffffff1681526020019081526020016000208290806001815401808255809150509060018203906000526020600020016000909192909190916101000a81548173ffffffffffffffffffffffffffffffffffffffff021916908373ffffffffffffffffffffffffffffffffffffffff160217905550507f26e36b227ec3fc4bcf7dd57ac632530d294bf00aa858151df37d8f4e5dc5402633836040516108d5929190611599565b60405180910390a15b5050565b600081815481106108ef57fe5b90600052602060002090600502016000915090508060000160009054906101000a900473ffffffffffffffffffffffffffffffffffffffff1690806001018054600181600116156101000203166002900480601f0160208091040260200160405190810160405280929190818152602001828054600181600116156101000203166002900480156109c15780601f10610996576101008083540402835291602001916109c1565b820191906000526020600020905b8154815290600101906020018083116109a457829003601f168201915b505050505090806002018054600181600116156101000203166002900480601f016020809104026020016040519081016040528092919081815260200182805460018160011615610100020316600290048015610a5f5780601f10610a3457610100808354040283529160200191610a5f565b820191906000526020600020905b815481529060010190602001808311610a4257829003601f168201915b5050505050908060030154908060040154905085565b600073ffffffffffffffffffffffffffffffffffffffff168173ffffffffffffffffffffffffffffffffffffffff161415610ae5576040517f08c379a0000000000000000000000000000000000000000000000000000000008152600401610adc90611645565b60405180910390fd5b60008090505b600260003373ffffffffffffffffffffffffffffffffffffffff1673ffffffffffffffffffffffffffffffffffffffff16815260200190815260200160002080549050811015610e83578173ffffffffffffffffffffffffffffffffffffffff16600260003373ffffffffffffffffffffffffffffffffffffffff1673ffffffffffffffffffffffffffffffffffffffff1681526020019081526020016000208281548110610b9657fe5b9060005260206000200160009054906101000a900473ffffffffffffffffffffffffffffffffffffffff1673ffffffffffffffffffffffffffffffffffffffff161415610e7657600260003373ffffffffffffffffffffffffffffffffffffffff1673ffffffffffffffffffffffffffffffffffffffff1681526020019081526020016000206001600260003373ffffffffffffffffffffffffffffffffffffffff1673ffffffffffffffffffffffffffffffffffffffff168152602001908152602001600020805490500381548110610c6c57fe5b9060005260206000200160009054906101000a900473ffffffffffffffffffffffffffffffffffffffff16600260003373ffffffffffffffffffffffffffffffffffffffff1673ffffffffffffffffffffffffffffffffffffffff1681526020019081526020016000208281548110610ce157fe5b9060005260206000200160006101000a81548173ffffffffffffffffffffffffffffffffffffffff021916908373ffffffffffffffffffffffffffffffffffffffff160217905550600260003373ffffffffffffffffffffffffffffffffffffffff1673ffffffffffffffffffffffffffffffffffffffff1681526020019081526020016000206001600260003373ffffffffffffffffffffffffffffffffffffffff1673ffffffffffffffffffffffffffffffffffffffff168152602001908152602001600020805490500381548110610db857fe5b9060005260206000200160006101000a81549073ffffffffffffffffffffffffffffffffffffffff0219169055600260003373ffffffffffffffffffffffffffffffffffffffff1673ffffffffffffffffffffffffffffffffffffffff168152602001908152602001600020805480919060019003610e3791906110ef565b507fe8e915cd6d448d72358fdb7e7ed3f2ba3eb6293f6213b42830a7c1476df87f2b3383604051610e69929190611599565b60405180910390a1610e83565b8080600101915050610aeb565b5050565b60016020528160005260406000208181548110610ea057fe5b9060005260206000209060050201600091509150508060000160009054906101000a900473ffffffffffffffffffffffffffffffffffffffff1690806001018054600181600116156101000203166002900480601f016020809104026020016040519081016040528092919081815260200182805460018160011615610100020316600290048015610f735780601f10610f4857610100808354040283529160200191610f73565b820191906000526020600020905b815481529060010190602001808311610f5657829003601f168201915b505050505090806002018054600181600116156101000203166002900480601f0160208091040260200160405190810160405280929190818152602001828054600181600116156101000203166002900480156110115780601f10610fe657610100808354040283529160200191611011565b820191906000526020600020905b815481529060010190602001808311610ff457829003601f168201915b5050505050908060030154908060040154905085565b6040518060a00160405280600073ffffffffffffffffffffffffffffffffffffffff168152602001606081526020016060815260200160008152602001600080191681525090565b828054600181600116156101000203166002900490600052602060002090601f016020900481019282601f106110b057805160ff19168380011785556110de565b828001600101855582156110de579182015b828111156110dd5782518255916020019190600101906110c2565b5b5090506110eb919061111b565b5090565b81548183558181111561111657818360005260206000209182019101611115919061111b565b5b505050565b61113d91905b80821115611139576000816000905550600101611121565b5090565b90565b60008135905061114f81611856565b92915050565b600082601f83011261116657600080fd5b813561117961117482611692565b611665565b9150808252602083016020830185838301111561119557600080fd5b6111a08382846117c8565b50505092915050565b6000813590506111b88161186d565b92915050565b6000602082840312156111d057600080fd5b60006111de84828501611140565b91505092915050565b600080604083850312156111fa57600080fd5b600061120885828601611140565b9250506020611219858286016111a9565b9150509250929050565b6000806040838503121561123657600080fd5b600083013567ffffffffffffffff81111561125057600080fd5b61125c85828601611155565b925050602083013567ffffffffffffffff81111561127957600080fd5b61128585828601611155565b9150509250929050565b6000602082840312156112a157600080fd5b60006112af848285016111a9565b91505092915050565b60006112c48383611486565b905092915050565b6112d581611792565b82525050565b6112ec6112e78261174c565b61180a565b82525050565b6112fb8161173a565b82525050565b61130a8161173a565b82525050565b600061131b826116ce565b61132581856116fc565b935083602082028501611337856116be565b8060005b85811015611373578484038952815161135485826112b8565b945061135f836116ef565b925060208a0199505060018101905061133b565b50829750879550505050505092915050565b61138e8161175e565b82525050565b61139d8161175e565b82525050565b60006113ae826116e4565b6113b8818561172f565b93506113c88185602086016117d7565b80840191505092915050565b60006113df826116d9565b6113e9818561170d565b93506113f98185602086016117d7565b61140281611838565b840191505092915050565b6000611418826116d9565b611422818561171e565b93506114328185602086016117d7565b61143b81611838565b840191505092915050565b6000611453600f8361171e565b91507f496e76616c6964205f617574686f7200000000000000000000000000000000006000830152602082019050919050565b600060a08301600083015161149e60008601826112f2565b50602083015184820360208601526114b682826113d4565b915050604083015184820360408601526114d082826113d4565b91505060608301516114e56060860182611503565b5060808301516114f86080860182611385565b508091505092915050565b61150c81611788565b82525050565b61151b81611788565b82525050565b61153261152d82611788565b61182e565b82525050565b600061154482876112db565b60148201915061155482866113a3565b915061156082856113a3565b915061156c8284611521565b60208201915081905095945050505050565b60006020820190506115936000830184611301565b92915050565b60006040820190506115ae60008301856112cc565b6115bb6020830184611301565b9392505050565b600060a0820190506115d76000830188611301565b81810360208301526115e9818761140d565b905081810360408301526115fd818661140d565b905061160c6060830185611512565b6116196080830184611394565b9695505050505050565b6000602082019050818103600083015261163d8184611310565b905092915050565b6000602082019050818103600083015261165e81611446565b9050919050565b6000604051905081810181811067ffffffffffffffff8211171561168857600080fd5b8060405250919050565b600067ffffffffffffffff8211156116a957600080fd5b601f19601f8301169050602081019050919050565b6000819050602082019050919050565b600081519050919050565b600081519050919050565b600081519050919050565b6000602082019050919050565b600082825260208201905092915050565b600082825260208201905092915050565b600082825260208201905092915050565b600081905092915050565b600061174582611768565b9050919050565b600061175782611768565b9050919050565b6000819050919050565b600073ffffffffffffffffffffffffffffffffffffffff82169050919050565b6000819050919050565b600061179d826117a4565b9050919050565b60006117af826117b6565b9050919050565b60006117c182611768565b9050919050565b82818337600083830152505050565b60005b838110156117f55780820151818401526020810190506117da565b83811115611804576000848401525b50505050565b60006118158261181c565b9050919050565b600061182782611849565b9050919050565b6000819050919050565b6000601f19601f8301169050919050565b60008160601b9050919050565b61185f8161173a565b811461186a57600080fd5b50565b61187681611788565b811461188157600080fd5b5056fea365627a7a72315820f8e89a2e76914680dc5d8aaf3c6653cde93a73b062c774030d4ddecaa80026d86c6578706572696d656e74616cf564736f6c63430005100040",
  "source": "// SPDX-License-Identifier: MIT\npragma solidity >=0.4.21 <0.7.0;\npragma experimental ABIEncoderV2;\n\ncontract Post {\n  // get all articles ever written\n  Article[] public articles;\n  \n  struct Article {\n    address author;\n    string title; // TODO max characters for an article title *should be* 70\n    string body;\n    uint256 date;\n    bytes32 postId;\n  }\n\n  // @dev consider adding index variable for each array; to help with lookups instead of loop\n  mapping(address => Article[]) public authorToArticles;\n  mapping(address => address[]) public usersToSubscribedAuthors;\n\n  event PostCreated(address _author, string _title, string _body, uint256 _date, bytes32 _postId);\n  event NewUserSubscription(address _follower, address _author);\n  event UserUnsubscribedFromAuthor(address _follower, address _author);\n\n  function createPost(string memory _title, string memory _body) public {\n    Article memory newArticle = Article({\n      author: msg.sender,\n      title: _title,\n      body: _body,\n      date: now,\n      postId: keccak256(abi.encodePacked(msg.sender, _title, _body, now))\n    });\n\n    authorToArticles[msg.sender].push(newArticle);\n    articles.push(newArticle);\n    \n    emit PostCreated(newArticle.author, newArticle.title, newArticle.body, newArticle.date, newArticle.postId);\n  }\n\n  function getArticles() public view returns(Article[] memory) {\n      return articles;\n  }\n\n  // subscribe to author\n  function subscribeToAuthor(address _author) public {\n    require(_author != address(0), 'Invalid _author');\n    bool alreadySubscribed = false;\n    for(uint i = 0; i < usersToSubscribedAuthors[msg.sender].length; i++) {\n      if(usersToSubscribedAuthors[msg.sender][i] == _author) {\n        alreadySubscribed = true;\n        break;\n      }\n    }\n    if(!alreadySubscribed) {\n        usersToSubscribedAuthors[msg.sender].push(_author);\n        emit NewUserSubscription(msg.sender, _author);\n    }\n  }\n\n  // unsubscribe from author\n  function unsubscribeFromAuthor(address _author) public {\n    require(_author != address(0), 'Invalid _author');\n    for(uint i = 0; i < usersToSubscribedAuthors[msg.sender].length; i++) {\n      if(usersToSubscribedAuthors[msg.sender][i] == _author) {\n        // swap index with the last item in the array and then `delete` & shorten array\n        // @dev this is to prevent 0x0 value being written to author & bloating array\n        usersToSubscribedAuthors[msg.sender][i] = usersToSubscribedAuthors[msg.sender][usersToSubscribedAuthors[msg.sender].length - 1];\n        delete usersToSubscribedAuthors[msg.sender][usersToSubscribedAuthors[msg.sender].length - 1];\n        usersToSubscribedAuthors[msg.sender].length--;\n        emit UserUnsubscribedFromAuthor(msg.sender, _author);\n        break;\n      }\n    }\n  }\n}\n",
  "sourcePath": "/Users/db/Projects/decentraStack/contracts/Post.sol",
  "compiler": {
    "name": "solc",
    "version": "0.5.16+commit.9c3226ce.Emscripten.clang"
  },
  "schemaVersion": "3.3.3",
  "updatedAt": "2021-05-19T00:09:02.142Z",
  "networkType": "ethereum",
  "devdoc": {
    "methods": {}
  },
  "userdoc": {
    "methods": {}
  }
}