{
  "contractName": "Post",
  "abi": [
    {
      "anonymous": false,
      "inputs": [
        {
          "indexed": false,
          "internalType": "address",
          "name": "_follower",
          "type": "address"
        },
        {
          "indexed": false,
          "internalType": "address",
          "name": "_author",
          "type": "address"
        }
      ],
      "name": "NewUserSubscription",
      "type": "event"
    },
    {
      "anonymous": false,
      "inputs": [
        {
          "indexed": false,
          "internalType": "address",
          "name": "_author",
          "type": "address"
        },
        {
          "indexed": false,
          "internalType": "string",
          "name": "_title",
          "type": "string"
        },
        {
          "indexed": false,
          "internalType": "string",
          "name": "_body",
          "type": "string"
        },
        {
          "indexed": false,
          "internalType": "uint256",
          "name": "_date",
          "type": "uint256"
        },
        {
          "indexed": false,
          "internalType": "bytes32",
          "name": "_postId",
          "type": "bytes32"
        }
      ],
      "name": "PostCreated",
      "type": "event"
    },
    {
      "anonymous": false,
      "inputs": [
        {
          "indexed": false,
          "internalType": "address",
          "name": "_follower",
          "type": "address"
        },
        {
          "indexed": false,
          "internalType": "address",
          "name": "_author",
          "type": "address"
        }
      ],
      "name": "UserUnsubscribedFromAuthor",
      "type": "event"
    },
    {
      "constant": true,
      "inputs": [
        {
          "internalType": "uint256",
          "name": "",
          "type": "uint256"
        }
      ],
      "name": "articles",
      "outputs": [
        {
          "internalType": "address",
          "name": "author",
          "type": "address"
        },
        {
          "internalType": "string",
          "name": "title",
          "type": "string"
        },
        {
          "internalType": "string",
          "name": "body",
          "type": "string"
        },
        {
          "internalType": "uint256",
          "name": "date",
          "type": "uint256"
        },
        {
          "internalType": "bytes32",
          "name": "postId",
          "type": "bytes32"
        }
      ],
      "payable": false,
      "stateMutability": "view",
      "type": "function"
    },
    {
      "constant": true,
      "inputs": [
        {
          "internalType": "address",
          "name": "",
          "type": "address"
        },
        {
          "internalType": "uint256",
          "name": "",
          "type": "uint256"
        }
      ],
      "name": "authorToArticles",
      "outputs": [
        {
          "internalType": "address",
          "name": "author",
          "type": "address"
        },
        {
          "internalType": "string",
          "name": "title",
          "type": "string"
        },
        {
          "internalType": "string",
          "name": "body",
          "type": "string"
        },
        {
          "internalType": "uint256",
          "name": "date",
          "type": "uint256"
        },
        {
          "internalType": "bytes32",
          "name": "postId",
          "type": "bytes32"
        }
      ],
      "payable": false,
      "stateMutability": "view",
      "type": "function"
    },
    {
      "constant": true,
      "inputs": [
        {
          "internalType": "address",
          "name": "",
          "type": "address"
        },
        {
          "internalType": "uint256",
          "name": "",
          "type": "uint256"
        }
      ],
      "name": "usersToSubscribedAuthors",
      "outputs": [
        {
          "internalType": "address",
          "name": "",
          "type": "address"
        }
      ],
      "payable": false,
      "stateMutability": "view",
      "type": "function"
    },
    {
      "constant": false,
      "inputs": [
        {
          "internalType": "string",
          "name": "_title",
          "type": "string"
        },
        {
          "internalType": "string",
          "name": "_body",
          "type": "string"
        }
      ],
      "name": "createPost",
      "outputs": [],
      "payable": false,
      "stateMutability": "nonpayable",
      "type": "function"
    },
    {
      "constant": true,
      "inputs": [],
      "name": "getArticles",
      "outputs": [
        {
          "components": [
            {
              "internalType": "address",
              "name": "author",
              "type": "address"
            },
            {
              "internalType": "string",
              "name": "title",
              "type": "string"
            },
            {
              "internalType": "string",
              "name": "body",
              "type": "string"
            },
            {
              "internalType": "uint256",
              "name": "date",
              "type": "uint256"
            },
            {
              "internalType": "bytes32",
              "name": "postId",
              "type": "bytes32"
            }
          ],
          "internalType": "struct Post.Article[]",
          "name": "",
          "type": "tuple[]"
        }
      ],
      "payable": false,
      "stateMutability": "view",
      "type": "function"
    },
    {
      "constant": true,
      "inputs": [
        {
          "internalType": "address",
          "name": "_user",
          "type": "address"
        }
      ],
      "name": "getUserToSubscribedAuthors",
      "outputs": [
        {
          "internalType": "address[]",
          "name": "",
          "type": "address[]"
        }
      ],
      "payable": false,
      "stateMutability": "view",
      "type": "function"
    },
    {
      "constant": false,
      "inputs": [
        {
          "internalType": "address",
          "name": "_author",
          "type": "address"
        }
      ],
      "name": "subscribeToAuthor",
      "outputs": [],
      "payable": false,
      "stateMutability": "nonpayable",
      "type": "function"
    },
    {
      "constant": false,
      "inputs": [
        {
          "internalType": "address",
          "name": "_author",
          "type": "address"
        }
      ],
      "name": "unsubscribeFromAuthor",
      "outputs": [],
      "payable": false,
      "stateMutability": "nonpayable",
      "type": "function"
    }
  ],
  "bytecode": "0x608060405234801561001057600080fd5b50611d89806100206000396000f3fe608060405234801561001057600080fd5b50600436106100885760003560e01c8063ce278e751161005b578063ce278e7514610127578063edcfafe614610143578063f7367cce14610177578063f9c26c181461019357610088565b8063392338f51461008d57806356eedd37146100a95780636529f44a146100d9578063963cde7e146100f7575b600080fd5b6100a760048036036100a29190810190611422565b6101c7565b005b6100c360048036036100be91908101906113bd565b6104e3565b6040516100d09190611a0a565b60405180910390f35b6100e16105b0565b6040516100ee9190611a2c565b60405180910390f35b610111600480360361010c91908101906113e6565b6107bd565b60405161011e9190611965565b60405180910390f35b610141600480360361013c91908101906113bd565b610808565b005b61015d6004803603610158919081019061148e565b610ae1565b60405161016e9594939291906119a9565b60405180910390f35b610191600480360361018c91908101906113bd565b610c74565b005b6101ad60048036036101a891908101906113e6565b611086565b6040516101be9594939291906119a9565b60405180910390f35b600082511161020b576040517f08c379a000000000000000000000000000000000000000000000000000000000815260040161020290611a8e565b60405180910390fd5b600081511161024f576040517f08c379a000000000000000000000000000000000000000000000000000000000815260040161024690611ace565b60405180910390fd5b610257611226565b6040518060a001604052803373ffffffffffffffffffffffffffffffffffffffff168152602001848152602001838152602001428152602001338585426040516020016102a7949392919061191f565b604051602081830303815290604052805190602001208152509050600160003373ffffffffffffffffffffffffffffffffffffffff1673ffffffffffffffffffffffffffffffffffffffff168152602001908152602001600020819080600181540180825580915050906001820390600052602060002090600502016000909192909190915060008201518160000160006101000a81548173ffffffffffffffffffffffffffffffffffffffff021916908373ffffffffffffffffffffffffffffffffffffffff160217905550602082015181600101908051906020019061039092919061126e565b5060408201518160020190805190602001906103ad92919061126e565b5060608201518160030155608082015181600401555050506000819080600181540180825580915050906001820390600052602060002090600502016000909192909190915060008201518160000160006101000a81548173ffffffffffffffffffffffffffffffffffffffff021916908373ffffffffffffffffffffffffffffffffffffffff160217905550602082015181600101908051906020019061045692919061126e565b50604082015181600201908051906020019061047392919061126e565b5060608201518160030155608082015181600401555050507f011fea8e70cf04a69eb78d400b2747c587002cfeedfdb1211007593aedd40686816000015182602001518360400151846060015185608001516040516104d69594939291906119a9565b60405180910390a1505050565b6060600260008373ffffffffffffffffffffffffffffffffffffffff1673ffffffffffffffffffffffffffffffffffffffff1681526020019081526020016000208054806020026020016040519081016040528092919081815260200182805480156105a457602002820191906000526020600020905b8160009054906101000a900473ffffffffffffffffffffffffffffffffffffffff1673ffffffffffffffffffffffffffffffffffffffff168152602001906001019080831161055a575b50505050509050919050565b60606000805480602002602001604051908101604052809291908181526020016000905b828210156107b457838290600052602060002090600502016040518060a00160405290816000820160009054906101000a900473ffffffffffffffffffffffffffffffffffffffff1673ffffffffffffffffffffffffffffffffffffffff1673ffffffffffffffffffffffffffffffffffffffff168152602001600182018054600181600116156101000203166002900480601f0160208091040260200160405190810160405280929190818152602001828054600181600116156101000203166002900480156106e65780601f106106bb576101008083540402835291602001916106e6565b820191906000526020600020905b8154815290600101906020018083116106c957829003601f168201915b50505050508152602001600282018054600181600116156101000203166002900480601f0160208091040260200160405190810160405280929190818152602001828054600181600116156101000203166002900480156107885780601f1061075d57610100808354040283529160200191610788565b820191906000526020600020905b81548152906001019060200180831161076b57829003601f168201915b5050505050815260200160038201548152602001600482015481525050815260200190600101906105d4565b50505050905090565b600260205281600052604060002081815481106107d657fe5b906000526020600020016000915091509054906101000a900473ffffffffffffffffffffffffffffffffffffffff1681565b600073ffffffffffffffffffffffffffffffffffffffff168173ffffffffffffffffffffffffffffffffffffffff161415610878576040517f08c379a000000000000000000000000000000000000000000000000000000000815260040161086f90611aae565b60405180910390fd5b3373ffffffffffffffffffffffffffffffffffffffff168173ffffffffffffffffffffffffffffffffffffffff1614156108e7576040517f08c379a00000000000000000000000000000000000000000000000000000000081526004016108de90611a6e565b60405180910390fd5b600080905060008090505b600260003373ffffffffffffffffffffffffffffffffffffffff1673ffffffffffffffffffffffffffffffffffffffff168152602001908152602001600020805490508110156109fa578273ffffffffffffffffffffffffffffffffffffffff16600260003373ffffffffffffffffffffffffffffffffffffffff1673ffffffffffffffffffffffffffffffffffffffff168152602001908152602001600020828154811061099d57fe5b9060005260206000200160009054906101000a900473ffffffffffffffffffffffffffffffffffffffff1673ffffffffffffffffffffffffffffffffffffffff1614156109ed57600191506109fa565b80806001019150506108f2565b5080610add57600260003373ffffffffffffffffffffffffffffffffffffffff1673ffffffffffffffffffffffffffffffffffffffff1681526020019081526020016000208290806001815401808255809150509060018203906000526020600020016000909192909190916101000a81548173ffffffffffffffffffffffffffffffffffffffff021916908373ffffffffffffffffffffffffffffffffffffffff160217905550507f26e36b227ec3fc4bcf7dd57ac632530d294bf00aa858151df37d8f4e5dc540263383604051610ad4929190611980565b60405180910390a15b5050565b60008181548110610aee57fe5b90600052602060002090600502016000915090508060000160009054906101000a900473ffffffffffffffffffffffffffffffffffffffff1690806001018054600181600116156101000203166002900480601f016020809104026020016040519081016040528092919081815260200182805460018160011615610100020316600290048015610bc05780601f10610b9557610100808354040283529160200191610bc0565b820191906000526020600020905b815481529060010190602001808311610ba357829003601f168201915b505050505090806002018054600181600116156101000203166002900480601f016020809104026020016040519081016040528092919081815260200182805460018160011615610100020316600290048015610c5e5780601f10610c3357610100808354040283529160200191610c5e565b820191906000526020600020905b815481529060010190602001808311610c4157829003601f168201915b5050505050908060030154908060040154905085565b600073ffffffffffffffffffffffffffffffffffffffff168173ffffffffffffffffffffffffffffffffffffffff161415610ce4576040517f08c379a0000000000000000000000000000000000000000000000000000000008152600401610cdb90611a4e565b60405180910390fd5b60008090505b600260003373ffffffffffffffffffffffffffffffffffffffff1673ffffffffffffffffffffffffffffffffffffffff16815260200190815260200160002080549050811015611082578173ffffffffffffffffffffffffffffffffffffffff16600260003373ffffffffffffffffffffffffffffffffffffffff1673ffffffffffffffffffffffffffffffffffffffff1681526020019081526020016000208281548110610d9557fe5b9060005260206000200160009054906101000a900473ffffffffffffffffffffffffffffffffffffffff1673ffffffffffffffffffffffffffffffffffffffff16141561107557600260003373ffffffffffffffffffffffffffffffffffffffff1673ffffffffffffffffffffffffffffffffffffffff1681526020019081526020016000206001600260003373ffffffffffffffffffffffffffffffffffffffff1673ffffffffffffffffffffffffffffffffffffffff168152602001908152602001600020805490500381548110610e6b57fe5b9060005260206000200160009054906101000a900473ffffffffffffffffffffffffffffffffffffffff16600260003373ffffffffffffffffffffffffffffffffffffffff1673ffffffffffffffffffffffffffffffffffffffff1681526020019081526020016000208281548110610ee057fe5b9060005260206000200160006101000a81548173ffffffffffffffffffffffffffffffffffffffff021916908373ffffffffffffffffffffffffffffffffffffffff160217905550600260003373ffffffffffffffffffffffffffffffffffffffff1673ffffffffffffffffffffffffffffffffffffffff1681526020019081526020016000206001600260003373ffffffffffffffffffffffffffffffffffffffff1673ffffffffffffffffffffffffffffffffffffffff168152602001908152602001600020805490500381548110610fb757fe5b9060005260206000200160006101000a81549073ffffffffffffffffffffffffffffffffffffffff0219169055600260003373ffffffffffffffffffffffffffffffffffffffff1673ffffffffffffffffffffffffffffffffffffffff16815260200190815260200160002080548091906001900361103691906112ee565b507fe8e915cd6d448d72358fdb7e7ed3f2ba3eb6293f6213b42830a7c1476df87f2b3383604051611068929190611980565b60405180910390a1611082565b8080600101915050610cea565b5050565b6001602052816000526040600020818154811061109f57fe5b9060005260206000209060050201600091509150508060000160009054906101000a900473ffffffffffffffffffffffffffffffffffffffff1690806001018054600181600116156101000203166002900480601f0160208091040260200160405190810160405280929190818152602001828054600181600116156101000203166002900480156111725780601f1061114757610100808354040283529160200191611172565b820191906000526020600020905b81548152906001019060200180831161115557829003601f168201915b505050505090806002018054600181600116156101000203166002900480601f0160208091040260200160405190810160405280929190818152602001828054600181600116156101000203166002900480156112105780601f106111e557610100808354040283529160200191611210565b820191906000526020600020905b8154815290600101906020018083116111f357829003601f168201915b5050505050908060030154908060040154905085565b6040518060a00160405280600073ffffffffffffffffffffffffffffffffffffffff168152602001606081526020016060815260200160008152602001600080191681525090565b828054600181600116156101000203166002900490600052602060002090601f016020900481019282601f106112af57805160ff19168380011785556112dd565b828001600101855582156112dd579182015b828111156112dc5782518255916020019190600101906112c1565b5b5090506112ea919061131a565b5090565b81548183558181111561131557818360005260206000209182019101611314919061131a565b5b505050565b61133c91905b80821115611338576000816000905550600101611320565b5090565b90565b60008135905061134e81611d18565b92915050565b600082601f83011261136557600080fd5b813561137861137382611b1b565b611aee565b9150808252602083016020830185838301111561139457600080fd5b61139f838284611c8a565b50505092915050565b6000813590506113b781611d2f565b92915050565b6000602082840312156113cf57600080fd5b60006113dd8482850161133f565b91505092915050565b600080604083850312156113f957600080fd5b60006114078582860161133f565b9250506020611418858286016113a8565b9150509250929050565b6000806040838503121561143557600080fd5b600083013567ffffffffffffffff81111561144f57600080fd5b61145b85828601611354565b925050602083013567ffffffffffffffff81111561147857600080fd5b61148485828601611354565b9150509250929050565b6000602082840312156114a057600080fd5b60006114ae848285016113a8565b91505092915050565b60006114c38383611509565b60208301905092915050565b60006114db838361186d565b905092915050565b6114ec81611c54565b82525050565b6115036114fe82611c0e565b611ccc565b82525050565b61151281611bfc565b82525050565b61152181611bfc565b82525050565b600061153282611b67565b61153c8185611bad565b935061154783611b47565b8060005b8381101561157857815161155f88826114b7565b975061156a83611b93565b92505060018101905061154b565b5085935050505092915050565b600061159082611b72565b61159a8185611bbe565b9350836020820285016115ac85611b57565b8060005b858110156115e857848403895281516115c985826114cf565b94506115d483611ba0565b925060208a019950506001810190506115b0565b50829750879550505050505092915050565b61160381611c20565b82525050565b61161281611c20565b82525050565b600061162382611b88565b61162d8185611bf1565b935061163d818560208601611c99565b80840191505092915050565b600061165482611b7d565b61165e8185611bcf565b935061166e818560208601611c99565b61167781611cfa565b840191505092915050565b600061168d82611b7d565b6116978185611be0565b93506116a7818560208601611c99565b6116b081611cfa565b840191505092915050565b60006116c8600f83611be0565b91507f496e76616c6964205f617574686f7200000000000000000000000000000000006000830152602082019050919050565b6000611708602183611be0565b91507f417574686f722063616e6e6f742073756273637269626520746f20697473656c60008301527f66000000000000000000000000000000000000000000000000000000000000006020830152604082019050919050565b600061176e602183611be0565b91507f5469746c65206d75737420686176652061206e6f6e2d656d7074792076616c7560008301527f65000000000000000000000000000000000000000000000000000000000000006020830152604082019050919050565b60006117d4600e83611be0565b91507f496e76616c696420617574686f720000000000000000000000000000000000006000830152602082019050919050565b6000611814602883611be0565b91507f426f647920636f6e74656e74206d75737420686176652061206e6f6e2d656d7060008301527f74792076616c75650000000000000000000000000000000000000000000000006020830152604082019050919050565b600060a0830160008301516118856000860182611509565b506020830151848203602086015261189d8282611649565b915050604083015184820360408601526118b78282611649565b91505060608301516118cc60608601826118ea565b5060808301516118df60808601826115fa565b508091505092915050565b6118f381611c4a565b82525050565b61190281611c4a565b82525050565b61191961191482611c4a565b611cf0565b82525050565b600061192b82876114f2565b60148201915061193b8286611618565b91506119478285611618565b91506119538284611908565b60208201915081905095945050505050565b600060208201905061197a6000830184611518565b92915050565b600060408201905061199560008301856114e3565b6119a26020830184611518565b9392505050565b600060a0820190506119be6000830188611518565b81810360208301526119d08187611682565b905081810360408301526119e48186611682565b90506119f360608301856118f9565b611a006080830184611609565b9695505050505050565b60006020820190508181036000830152611a248184611527565b905092915050565b60006020820190508181036000830152611a468184611585565b905092915050565b60006020820190508181036000830152611a67816116bb565b9050919050565b60006020820190508181036000830152611a87816116fb565b9050919050565b60006020820190508181036000830152611aa781611761565b9050919050565b60006020820190508181036000830152611ac7816117c7565b9050919050565b60006020820190508181036000830152611ae781611807565b9050919050565b6000604051905081810181811067ffffffffffffffff82111715611b1157600080fd5b8060405250919050565b600067ffffffffffffffff821115611b3257600080fd5b601f19601f8301169050602081019050919050565b6000819050602082019050919050565b6000819050602082019050919050565b600081519050919050565b600081519050919050565b600081519050919050565b600081519050919050565b6000602082019050919050565b6000602082019050919050565b600082825260208201905092915050565b600082825260208201905092915050565b600082825260208201905092915050565b600082825260208201905092915050565b600081905092915050565b6000611c0782611c2a565b9050919050565b6000611c1982611c2a565b9050919050565b6000819050919050565b600073ffffffffffffffffffffffffffffffffffffffff82169050919050565b6000819050919050565b6000611c5f82611c66565b9050919050565b6000611c7182611c78565b9050919050565b6000611c8382611c2a565b9050919050565b82818337600083830152505050565b60005b83811015611cb7578082015181840152602081019050611c9c565b83811115611cc6576000848401525b50505050565b6000611cd782611cde565b9050919050565b6000611ce982611d0b565b9050919050565b6000819050919050565b6000601f19601f8301169050919050565b60008160601b9050919050565b611d2181611bfc565b8114611d2c57600080fd5b50565b611d3881611c4a565b8114611d4357600080fd5b5056fea365627a7a7231582079f511e52f0d2e2eb5f3bbb1b8349866b8cbe206063f37e93e1b027fc189f2f46c6578706572696d656e74616cf564736f6c63430005100040",
  "source": "// SPDX-License-Identifier: MIT\npragma solidity >=0.4.21 <0.7.0;\npragma experimental ABIEncoderV2;\n\ncontract Post {\n  // get all articles ever written\n  Article[] public articles;\n  \n  struct Article {\n    address author;\n    string title; // TODO max characters for an article title *should be* 70\n    string body;\n    uint256 date;\n    bytes32 postId;\n  }\n\n  // @dev consider adding index variable for each array; to help with lookups instead of for loop\n  mapping(address => Article[]) public authorToArticles;\n  mapping(address => address[]) public usersToSubscribedAuthors;\n\n  event PostCreated(address _author, string _title, string _body, uint256 _date, bytes32 _postId);\n  event NewUserSubscription(address _follower, address _author);\n  event UserUnsubscribedFromAuthor(address _follower, address _author);\n\n  function createPost(string memory _title, string memory _body) public {\n    require(bytes(_title).length > 0, \"Title must have a non-empty value\");\n    require(bytes(_body).length > 0, \"Body content must have a non-empty value\");\n    Article memory newArticle = Article({\n      author: msg.sender,\n      title: _title,\n      body: _body,\n      date: now,\n      postId: keccak256(abi.encodePacked(msg.sender, _title, _body, now))\n    });\n\n    authorToArticles[msg.sender].push(newArticle);\n    articles.push(newArticle);\n    \n    emit PostCreated(newArticle.author, newArticle.title, newArticle.body, newArticle.date, newArticle.postId);\n  }\n\n  function getArticles() public view returns(Article[] memory) {\n      return articles;\n  }\n\n  function getUserToSubscribedAuthors(address _user) public view returns(address[] memory) {\n      return usersToSubscribedAuthors[_user];\n  }\n\n  // subscribe to author\n  function subscribeToAuthor(address _author) public {\n    require(_author != address(0), 'Invalid author');\n    require(_author != msg.sender, 'Author cannot subscribe to itself');\n    bool alreadySubscribed = false;\n    for(uint i = 0; i < usersToSubscribedAuthors[msg.sender].length; i++) {\n      if(usersToSubscribedAuthors[msg.sender][i] == _author) {\n        alreadySubscribed = true;\n        break;\n      }\n    }\n    if(!alreadySubscribed) {\n        usersToSubscribedAuthors[msg.sender].push(_author);\n        emit NewUserSubscription(msg.sender, _author);\n    }\n  }\n\n  // unsubscribe from author\n  function unsubscribeFromAuthor(address _author) public {\n    require(_author != address(0), 'Invalid _author');\n    for(uint i = 0; i < usersToSubscribedAuthors[msg.sender].length; i++) {\n      if(usersToSubscribedAuthors[msg.sender][i] == _author) {\n        // swap index with the last item in the array and then `delete` & shorten array\n        // @dev this is to prevent 0x0 value being written to author & bloating array\n        usersToSubscribedAuthors[msg.sender][i] = usersToSubscribedAuthors[msg.sender][usersToSubscribedAuthors[msg.sender].length - 1];\n        delete usersToSubscribedAuthors[msg.sender][usersToSubscribedAuthors[msg.sender].length - 1];\n        usersToSubscribedAuthors[msg.sender].length--;\n        emit UserUnsubscribedFromAuthor(msg.sender, _author);\n        break;\n      }\n    }\n  }\n}\n",
  "sourcePath": "/Users/db/Projects/decentraStack/contracts/Post.sol",
  "compiler": {
    "name": "solc",
    "version": "0.5.16+commit.9c3226ce.Emscripten.clang"
  },
  "schemaVersion": "3.3.3",
  "updatedAt": "2021-05-20T18:40:20.310Z",
  "devdoc": {
    "methods": {}
  },
  "userdoc": {
    "methods": {}
  }
}