{
  "contractName": "Post",
  "abi": [
    {
      "anonymous": false,
      "inputs": [
        {
          "indexed": false,
          "internalType": "address",
          "name": "_follower",
          "type": "address"
        },
        {
          "indexed": false,
          "internalType": "address",
          "name": "_author",
          "type": "address"
        }
      ],
      "name": "NewUserSubscription",
      "type": "event"
    },
    {
      "anonymous": false,
      "inputs": [
        {
          "indexed": false,
          "internalType": "address",
          "name": "_author",
          "type": "address"
        },
        {
          "indexed": false,
          "internalType": "string",
          "name": "_title",
          "type": "string"
        },
        {
          "indexed": false,
          "internalType": "string",
          "name": "_body",
          "type": "string"
        },
        {
          "indexed": false,
          "internalType": "uint256",
          "name": "_date",
          "type": "uint256"
        },
        {
          "indexed": false,
          "internalType": "bytes32",
          "name": "_postId",
          "type": "bytes32"
        }
      ],
      "name": "PostCreated",
      "type": "event"
    },
    {
      "anonymous": false,
      "inputs": [
        {
          "indexed": false,
          "internalType": "address",
          "name": "_follower",
          "type": "address"
        },
        {
          "indexed": false,
          "internalType": "address",
          "name": "_author",
          "type": "address"
        }
      ],
      "name": "UserUnsubscribedFromAuthor",
      "type": "event"
    },
    {
      "constant": true,
      "inputs": [
        {
          "internalType": "uint256",
          "name": "",
          "type": "uint256"
        }
      ],
      "name": "articles",
      "outputs": [
        {
          "internalType": "address",
          "name": "author",
          "type": "address"
        },
        {
          "internalType": "string",
          "name": "title",
          "type": "string"
        },
        {
          "internalType": "string",
          "name": "body",
          "type": "string"
        },
        {
          "internalType": "uint256",
          "name": "date",
          "type": "uint256"
        },
        {
          "internalType": "bytes32",
          "name": "postId",
          "type": "bytes32"
        }
      ],
      "payable": false,
      "stateMutability": "view",
      "type": "function"
    },
    {
      "constant": true,
      "inputs": [
        {
          "internalType": "address",
          "name": "",
          "type": "address"
        },
        {
          "internalType": "uint256",
          "name": "",
          "type": "uint256"
        }
      ],
      "name": "authorToArticles",
      "outputs": [
        {
          "internalType": "address",
          "name": "author",
          "type": "address"
        },
        {
          "internalType": "string",
          "name": "title",
          "type": "string"
        },
        {
          "internalType": "string",
          "name": "body",
          "type": "string"
        },
        {
          "internalType": "uint256",
          "name": "date",
          "type": "uint256"
        },
        {
          "internalType": "bytes32",
          "name": "postId",
          "type": "bytes32"
        }
      ],
      "payable": false,
      "stateMutability": "view",
      "type": "function"
    },
    {
      "constant": true,
      "inputs": [
        {
          "internalType": "address",
          "name": "",
          "type": "address"
        },
        {
          "internalType": "uint256",
          "name": "",
          "type": "uint256"
        }
      ],
      "name": "usersToSubscribedAuthors",
      "outputs": [
        {
          "internalType": "address",
          "name": "",
          "type": "address"
        }
      ],
      "payable": false,
      "stateMutability": "view",
      "type": "function"
    },
    {
      "constant": false,
      "inputs": [
        {
          "internalType": "string",
          "name": "_title",
          "type": "string"
        },
        {
          "internalType": "string",
          "name": "_body",
          "type": "string"
        }
      ],
      "name": "createPost",
      "outputs": [],
      "payable": false,
      "stateMutability": "nonpayable",
      "type": "function"
    },
    {
      "constant": true,
      "inputs": [],
      "name": "getArticles",
      "outputs": [
        {
          "components": [
            {
              "internalType": "address",
              "name": "author",
              "type": "address"
            },
            {
              "internalType": "string",
              "name": "title",
              "type": "string"
            },
            {
              "internalType": "string",
              "name": "body",
              "type": "string"
            },
            {
              "internalType": "uint256",
              "name": "date",
              "type": "uint256"
            },
            {
              "internalType": "bytes32",
              "name": "postId",
              "type": "bytes32"
            }
          ],
          "internalType": "struct Post.Article[]",
          "name": "",
          "type": "tuple[]"
        }
      ],
      "payable": false,
      "stateMutability": "view",
      "type": "function"
    },
    {
      "constant": false,
      "inputs": [
        {
          "internalType": "address",
          "name": "_author",
          "type": "address"
        }
      ],
      "name": "subscribeToAuthor",
      "outputs": [],
      "payable": false,
      "stateMutability": "nonpayable",
      "type": "function"
    },
    {
      "constant": false,
      "inputs": [
        {
          "internalType": "address",
          "name": "_author",
          "type": "address"
        }
      ],
      "name": "unsubscribeFromAuthor",
      "outputs": [],
      "payable": false,
      "stateMutability": "nonpayable",
      "type": "function"
    }
  ],
  "bytecode": "0x608060405234801561001057600080fd5b50611a1c806100206000396000f3fe608060405234801561001057600080fd5b506004361061007d5760003560e01c8063ce278e751161005b578063ce278e75146100ec578063edcfafe614610108578063f7367cce1461013c578063f9c26c18146101585761007d565b8063392338f5146100825780636529f44a1461009e578063963cde7e146100bc575b600080fd5b61009c60048036036100979190810190611292565b61018c565b005b6100a6610420565b6040516100b39190611738565b60405180910390f35b6100d660048036036100d19190810190611256565b61062d565b6040516100e39190611693565b60405180910390f35b6101066004803603610101919081019061122d565b610678565b005b610122600480360361011d91908101906112fe565b610951565b6040516101339594939291906116d7565b60405180910390f35b6101566004803603610151919081019061122d565b610ae4565b005b610172600480360361016d9190810190611256565b610ef6565b6040516101839594939291906116d7565b60405180910390f35b610194611096565b6040518060a001604052803373ffffffffffffffffffffffffffffffffffffffff168152602001848152602001838152602001428152602001338585426040516020016101e4949392919061164d565b604051602081830303815290604052805190602001208152509050600160003373ffffffffffffffffffffffffffffffffffffffff1673ffffffffffffffffffffffffffffffffffffffff168152602001908152602001600020819080600181540180825580915050906001820390600052602060002090600502016000909192909190915060008201518160000160006101000a81548173ffffffffffffffffffffffffffffffffffffffff021916908373ffffffffffffffffffffffffffffffffffffffff16021790555060208201518160010190805190602001906102cd9291906110de565b5060408201518160020190805190602001906102ea9291906110de565b5060608201518160030155608082015181600401555050506000819080600181540180825580915050906001820390600052602060002090600502016000909192909190915060008201518160000160006101000a81548173ffffffffffffffffffffffffffffffffffffffff021916908373ffffffffffffffffffffffffffffffffffffffff16021790555060208201518160010190805190602001906103939291906110de565b5060408201518160020190805190602001906103b09291906110de565b5060608201518160030155608082015181600401555050507f011fea8e70cf04a69eb78d400b2747c587002cfeedfdb1211007593aedd40686816000015182602001518360400151846060015185608001516040516104139594939291906116d7565b60405180910390a1505050565b60606000805480602002602001604051908101604052809291908181526020016000905b8282101561062457838290600052602060002090600502016040518060a00160405290816000820160009054906101000a900473ffffffffffffffffffffffffffffffffffffffff1673ffffffffffffffffffffffffffffffffffffffff1673ffffffffffffffffffffffffffffffffffffffff168152602001600182018054600181600116156101000203166002900480601f0160208091040260200160405190810160405280929190818152602001828054600181600116156101000203166002900480156105565780601f1061052b57610100808354040283529160200191610556565b820191906000526020600020905b81548152906001019060200180831161053957829003601f168201915b50505050508152602001600282018054600181600116156101000203166002900480601f0160208091040260200160405190810160405280929190818152602001828054600181600116156101000203166002900480156105f85780601f106105cd576101008083540402835291602001916105f8565b820191906000526020600020905b8154815290600101906020018083116105db57829003601f168201915b505050505081526020016003820154815260200160048201548152505081526020019060010190610444565b50505050905090565b6002602052816000526040600020818154811061064657fe5b906000526020600020016000915091509054906101000a900473ffffffffffffffffffffffffffffffffffffffff1681565b600073ffffffffffffffffffffffffffffffffffffffff168173ffffffffffffffffffffffffffffffffffffffff1614156106e8576040517f08c379a00000000000000000000000000000000000000000000000000000000081526004016106df9061179a565b60405180910390fd5b3373ffffffffffffffffffffffffffffffffffffffff168173ffffffffffffffffffffffffffffffffffffffff161415610757576040517f08c379a000000000000000000000000000000000000000000000000000000000815260040161074e9061177a565b60405180910390fd5b600080905060008090505b600260003373ffffffffffffffffffffffffffffffffffffffff1673ffffffffffffffffffffffffffffffffffffffff1681526020019081526020016000208054905081101561086a578273ffffffffffffffffffffffffffffffffffffffff16600260003373ffffffffffffffffffffffffffffffffffffffff1673ffffffffffffffffffffffffffffffffffffffff168152602001908152602001600020828154811061080d57fe5b9060005260206000200160009054906101000a900473ffffffffffffffffffffffffffffffffffffffff1673ffffffffffffffffffffffffffffffffffffffff16141561085d576001915061086a565b8080600101915050610762565b508061094d57600260003373ffffffffffffffffffffffffffffffffffffffff1673ffffffffffffffffffffffffffffffffffffffff1681526020019081526020016000208290806001815401808255809150509060018203906000526020600020016000909192909190916101000a81548173ffffffffffffffffffffffffffffffffffffffff021916908373ffffffffffffffffffffffffffffffffffffffff160217905550507f26e36b227ec3fc4bcf7dd57ac632530d294bf00aa858151df37d8f4e5dc5402633836040516109449291906116ae565b60405180910390a15b5050565b6000818154811061095e57fe5b90600052602060002090600502016000915090508060000160009054906101000a900473ffffffffffffffffffffffffffffffffffffffff1690806001018054600181600116156101000203166002900480601f016020809104026020016040519081016040528092919081815260200182805460018160011615610100020316600290048015610a305780601f10610a0557610100808354040283529160200191610a30565b820191906000526020600020905b815481529060010190602001808311610a1357829003601f168201915b505050505090806002018054600181600116156101000203166002900480601f016020809104026020016040519081016040528092919081815260200182805460018160011615610100020316600290048015610ace5780601f10610aa357610100808354040283529160200191610ace565b820191906000526020600020905b815481529060010190602001808311610ab157829003601f168201915b5050505050908060030154908060040154905085565b600073ffffffffffffffffffffffffffffffffffffffff168173ffffffffffffffffffffffffffffffffffffffff161415610b54576040517f08c379a0000000000000000000000000000000000000000000000000000000008152600401610b4b9061175a565b60405180910390fd5b60008090505b600260003373ffffffffffffffffffffffffffffffffffffffff1673ffffffffffffffffffffffffffffffffffffffff16815260200190815260200160002080549050811015610ef2578173ffffffffffffffffffffffffffffffffffffffff16600260003373ffffffffffffffffffffffffffffffffffffffff1673ffffffffffffffffffffffffffffffffffffffff1681526020019081526020016000208281548110610c0557fe5b9060005260206000200160009054906101000a900473ffffffffffffffffffffffffffffffffffffffff1673ffffffffffffffffffffffffffffffffffffffff161415610ee557600260003373ffffffffffffffffffffffffffffffffffffffff1673ffffffffffffffffffffffffffffffffffffffff1681526020019081526020016000206001600260003373ffffffffffffffffffffffffffffffffffffffff1673ffffffffffffffffffffffffffffffffffffffff168152602001908152602001600020805490500381548110610cdb57fe5b9060005260206000200160009054906101000a900473ffffffffffffffffffffffffffffffffffffffff16600260003373ffffffffffffffffffffffffffffffffffffffff1673ffffffffffffffffffffffffffffffffffffffff1681526020019081526020016000208281548110610d5057fe5b9060005260206000200160006101000a81548173ffffffffffffffffffffffffffffffffffffffff021916908373ffffffffffffffffffffffffffffffffffffffff160217905550600260003373ffffffffffffffffffffffffffffffffffffffff1673ffffffffffffffffffffffffffffffffffffffff1681526020019081526020016000206001600260003373ffffffffffffffffffffffffffffffffffffffff1673ffffffffffffffffffffffffffffffffffffffff168152602001908152602001600020805490500381548110610e2757fe5b9060005260206000200160006101000a81549073ffffffffffffffffffffffffffffffffffffffff0219169055600260003373ffffffffffffffffffffffffffffffffffffffff1673ffffffffffffffffffffffffffffffffffffffff168152602001908152602001600020805480919060019003610ea6919061115e565b507fe8e915cd6d448d72358fdb7e7ed3f2ba3eb6293f6213b42830a7c1476df87f2b3383604051610ed89291906116ae565b60405180910390a1610ef2565b8080600101915050610b5a565b5050565b60016020528160005260406000208181548110610f0f57fe5b9060005260206000209060050201600091509150508060000160009054906101000a900473ffffffffffffffffffffffffffffffffffffffff1690806001018054600181600116156101000203166002900480601f016020809104026020016040519081016040528092919081815260200182805460018160011615610100020316600290048015610fe25780601f10610fb757610100808354040283529160200191610fe2565b820191906000526020600020905b815481529060010190602001808311610fc557829003601f168201915b505050505090806002018054600181600116156101000203166002900480601f0160208091040260200160405190810160405280929190818152602001828054600181600116156101000203166002900480156110805780601f1061105557610100808354040283529160200191611080565b820191906000526020600020905b81548152906001019060200180831161106357829003601f168201915b5050505050908060030154908060040154905085565b6040518060a00160405280600073ffffffffffffffffffffffffffffffffffffffff168152602001606081526020016060815260200160008152602001600080191681525090565b828054600181600116156101000203166002900490600052602060002090601f016020900481019282601f1061111f57805160ff191683800117855561114d565b8280016001018555821561114d579182015b8281111561114c578251825591602001919060010190611131565b5b50905061115a919061118a565b5090565b81548183558181111561118557818360005260206000209182019101611184919061118a565b5b505050565b6111ac91905b808211156111a8576000816000905550600101611190565b5090565b90565b6000813590506111be816119ab565b92915050565b600082601f8301126111d557600080fd5b81356111e86111e3826117e7565b6117ba565b9150808252602083016020830185838301111561120457600080fd5b61120f83828461191d565b50505092915050565b600081359050611227816119c2565b92915050565b60006020828403121561123f57600080fd5b600061124d848285016111af565b91505092915050565b6000806040838503121561126957600080fd5b6000611277858286016111af565b925050602061128885828601611218565b9150509250929050565b600080604083850312156112a557600080fd5b600083013567ffffffffffffffff8111156112bf57600080fd5b6112cb858286016111c4565b925050602083013567ffffffffffffffff8111156112e857600080fd5b6112f4858286016111c4565b9150509250929050565b60006020828403121561131057600080fd5b600061131e84828501611218565b91505092915050565b6000611333838361159b565b905092915050565b611344816118e7565b82525050565b61135b611356826118a1565b61195f565b82525050565b61136a8161188f565b82525050565b6113798161188f565b82525050565b600061138a82611823565b6113948185611851565b9350836020820285016113a685611813565b8060005b858110156113e257848403895281516113c38582611327565b94506113ce83611844565b925060208a019950506001810190506113aa565b50829750879550505050505092915050565b6113fd816118b3565b82525050565b61140c816118b3565b82525050565b600061141d82611839565b6114278185611884565b935061143781856020860161192c565b80840191505092915050565b600061144e8261182e565b6114588185611862565b935061146881856020860161192c565b6114718161198d565b840191505092915050565b60006114878261182e565b6114918185611873565b93506114a181856020860161192c565b6114aa8161198d565b840191505092915050565b60006114c2600f83611873565b91507f496e76616c6964205f617574686f7200000000000000000000000000000000006000830152602082019050919050565b6000611502602183611873565b91507f417574686f722063616e6e6f742073756273637269626520746f20697473656c60008301527f66000000000000000000000000000000000000000000000000000000000000006020830152604082019050919050565b6000611568600e83611873565b91507f496e76616c696420617574686f720000000000000000000000000000000000006000830152602082019050919050565b600060a0830160008301516115b36000860182611361565b50602083015184820360208601526115cb8282611443565b915050604083015184820360408601526115e58282611443565b91505060608301516115fa6060860182611618565b50608083015161160d60808601826113f4565b508091505092915050565b611621816118dd565b82525050565b611630816118dd565b82525050565b611647611642826118dd565b611983565b82525050565b6000611659828761134a565b6014820191506116698286611412565b91506116758285611412565b91506116818284611636565b60208201915081905095945050505050565b60006020820190506116a86000830184611370565b92915050565b60006040820190506116c3600083018561133b565b6116d06020830184611370565b9392505050565b600060a0820190506116ec6000830188611370565b81810360208301526116fe818761147c565b90508181036040830152611712818661147c565b90506117216060830185611627565b61172e6080830184611403565b9695505050505050565b60006020820190508181036000830152611752818461137f565b905092915050565b60006020820190508181036000830152611773816114b5565b9050919050565b60006020820190508181036000830152611793816114f5565b9050919050565b600060208201905081810360008301526117b38161155b565b9050919050565b6000604051905081810181811067ffffffffffffffff821117156117dd57600080fd5b8060405250919050565b600067ffffffffffffffff8211156117fe57600080fd5b601f19601f8301169050602081019050919050565b6000819050602082019050919050565b600081519050919050565b600081519050919050565b600081519050919050565b6000602082019050919050565b600082825260208201905092915050565b600082825260208201905092915050565b600082825260208201905092915050565b600081905092915050565b600061189a826118bd565b9050919050565b60006118ac826118bd565b9050919050565b6000819050919050565b600073ffffffffffffffffffffffffffffffffffffffff82169050919050565b6000819050919050565b60006118f2826118f9565b9050919050565b60006119048261190b565b9050919050565b6000611916826118bd565b9050919050565b82818337600083830152505050565b60005b8381101561194a57808201518184015260208101905061192f565b83811115611959576000848401525b50505050565b600061196a82611971565b9050919050565b600061197c8261199e565b9050919050565b6000819050919050565b6000601f19601f8301169050919050565b60008160601b9050919050565b6119b48161188f565b81146119bf57600080fd5b50565b6119cb816118dd565b81146119d657600080fd5b5056fea365627a7a723158206d23b3577fda00f9e3e30610f6d08c7f479144f8b4efce4689d9f457a6b219246c6578706572696d656e74616cf564736f6c63430005100040",
  "source": "// SPDX-License-Identifier: MIT\npragma solidity >=0.4.21 <0.7.0;\npragma experimental ABIEncoderV2;\n\ncontract Post {\n  // get all articles ever written\n  Article[] public articles;\n  \n  struct Article {\n    address author;\n    string title; // TODO max characters for an article title *should be* 70\n    string body;\n    uint256 date;\n    bytes32 postId;\n  }\n\n  // @dev consider adding index variable for each array; to help with lookups instead of for loop\n  mapping(address => Article[]) public authorToArticles;\n  mapping(address => address[]) public usersToSubscribedAuthors;\n\n  event PostCreated(address _author, string _title, string _body, uint256 _date, bytes32 _postId);\n  event NewUserSubscription(address _follower, address _author);\n  event UserUnsubscribedFromAuthor(address _follower, address _author);\n\n  function createPost(string memory _title, string memory _body) public {\n    Article memory newArticle = Article({\n      author: msg.sender,\n      title: _title,\n      body: _body,\n      date: now,\n      postId: keccak256(abi.encodePacked(msg.sender, _title, _body, now))\n    });\n\n    authorToArticles[msg.sender].push(newArticle);\n    articles.push(newArticle);\n    \n    emit PostCreated(newArticle.author, newArticle.title, newArticle.body, newArticle.date, newArticle.postId);\n  }\n\n  function getArticles() public view returns(Article[] memory) {\n      return articles;\n  }\n\n  // subscribe to author\n  function subscribeToAuthor(address _author) public {\n    require(_author != address(0), 'Invalid author');\n    require(_author != msg.sender, 'Author cannot subscribe to itself');\n    bool alreadySubscribed = false;\n    for(uint i = 0; i < usersToSubscribedAuthors[msg.sender].length; i++) {\n      if(usersToSubscribedAuthors[msg.sender][i] == _author) {\n        alreadySubscribed = true;\n        break;\n      }\n    }\n    if(!alreadySubscribed) {\n        usersToSubscribedAuthors[msg.sender].push(_author);\n        emit NewUserSubscription(msg.sender, _author);\n    }\n  }\n\n  // unsubscribe from author\n  function unsubscribeFromAuthor(address _author) public {\n    require(_author != address(0), 'Invalid _author');\n    for(uint i = 0; i < usersToSubscribedAuthors[msg.sender].length; i++) {\n      if(usersToSubscribedAuthors[msg.sender][i] == _author) {\n        // swap index with the last item in the array and then `delete` & shorten array\n        // @dev this is to prevent 0x0 value being written to author & bloating array\n        usersToSubscribedAuthors[msg.sender][i] = usersToSubscribedAuthors[msg.sender][usersToSubscribedAuthors[msg.sender].length - 1];\n        delete usersToSubscribedAuthors[msg.sender][usersToSubscribedAuthors[msg.sender].length - 1];\n        usersToSubscribedAuthors[msg.sender].length--;\n        emit UserUnsubscribedFromAuthor(msg.sender, _author);\n        break;\n      }\n    }\n  }\n}\n",
  "sourcePath": "/Users/db/Projects/decentraStack/contracts/Post.sol",
  "compiler": {
    "name": "solc",
    "version": "0.5.16+commit.9c3226ce.Emscripten.clang"
  },
  "schemaVersion": "3.3.3",
  "updatedAt": "2021-05-19T03:08:19.066Z",
  "networkType": "ethereum",
  "devdoc": {
    "methods": {}
  },
  "userdoc": {
    "methods": {}
  }
}